:020000040800F2
:10000000000400204B0100083502000837020008F8
:100010003B0200083F020008430200080000000005
:10002000000000000000000000000000470200087F
:1000300049020008000000004B0200084D020008C1
:100040006B0100086B0100086B0100086B010008E0
:100050006B0100086B0100086B0100086B010008D0
:100060006B0100086B0100086B0100086B010008C0
:100070006B0100086B0100086B0100086B010008B0
:100080006B0100086B0100086B0100086B010008A0
:100090006B0100086B0100086B0100086B01000890
:1000A0006B0100086B0100086B0100086B01000880
:1000B0006B0100086B0100086B0100086B01000870
:1000C0006B0100086B0100086B0100086B01000860
:1000D0006B0100086B0100086B0100086B01000850
:1000E0006B0100086B0100086B0100086B01000840
:1000F0006B0100086B0100086B0100086B01000830
:100100006B0100086B0100086B0100086B0100081F
:100110006B0100086B0100086B0100086B0100080F
:100120006B0100086B0100086B0100086B010008FF
:10013000DFF810D001F070FA004800479301000882
:10014000AFF300802002002070470848804708492C
:1001500081F3088807480047FEE7FEE7FEE7FEE771
:10016000FEE7FEE7FEE7FEE7FEE7FEE749010008DF
:100170002002002031010008002107E0002200E0F9
:10018000521C42F6E0639A42FAD3491C8142F5D3ED
:10019000704701F001FA00F05BF800F024F90CA0C0
:1001A00001F04CFA13A001F049FA10E04FF4FA7094
:1001B000FFF7E2FF1848008840F2253148434FF42A
:1001C0007A7190FBF1F4214614A001F037FAEDE7C3
:1001D0000D0A202D2D2D2D2D2D2DD5E2CAC7D2BBD8
:1001E000B8F6414443CAB5D1E92D2D2D2D2D2D0D45
:1001F0000A0000000D0A202D2D2D2D2D2D2D4144FE
:1002000043B2C9D1F9B5C4CAC7504130BFDA2D2DA8
:100210002D2D2D2D0D0A00000000002041442076D8
:10022000616C7565203D202564206D5620200D0AE7
:1002300000000000704700BFFEE700BFFEE700BF00
:10024000FEE700BFFEE77047704770477047000049
:1002500000B585B0012144F2040000F0D7FB4FF453
:100260000070ADF8100018208DF8130003208DF8F1
:10027000120004A91B4800F02DF94FF48060ADF87E
:10028000100004208DF8130004A9164800F022F98C
:100290004FF4E13000900020ADF80400ADF8060006
:1002A000ADF80800ADF80C000C20ADF80A00694666
:1002B0000D4800F058FC01210B4800F0C2FC05B0CD
:1002C00000BD70B504460D46E1B2074800F021FDBF
:1002D00000BF0548008800F080000028F9D02046C3
:1002E00070BD0000000801400038014008B5012140
:1002F000042000F08BFB0120ADF8000000208DF8F9
:10030000030069463B4800F0E5F808BD00B591B030
:100310000121084600F06DFB374800F0ABFF37487D
:10032000069037480790002008900120099000208F
:100330000A900B904FF480700C9080000D9020205C
:100340000E9000020F900020109006A92A4801F09C
:100350002AF80121284801F051F80121480200F053
:1003600055FB0020019001208DF808008DF8090050
:100370004FF4602003900020049001208DF81400B9
:1003800001A91E484C3800F08AFD052301220021F6
:100390001A484C3800F01BFE012118484C3800F078
:1003A000B5FD012115484C3800F0A5FD13484C3827
:1003B00000F0C3FD00BF11484C3800F0C3FD002819
:1003C000F9D10E484C3800F0C7FD00BF0B484C383F
:1003D00000F0C7FD0028F9D1012108484C3800F091
:1003E000CAFD11B000BD10B5FFF780FFFFF78EFF0B
:1003F00010BD000000080140080002404C240140EC
:100400000000002010B50446C649601A8C422FD067
:1004100009DCC548204480B1B0F5806F16D0B0F536
:10042000006F4AD11BE0B0F5806F2AD0B0F5006FA5
:1004300030D0B0F5406F40D135E00121042000F00C
:10044000FFFA0021042000F0FBFA37E00121082028
:1004500000F0F6FA0021082000F0F2FA2EE0012167
:10046000102000F0EDFA0021102000F0E9FA25E05C
:100470000121202000F0E4FA0021202000F0E0FA21
:100480001CE00121402000F0DBFA0021402000F0B8
:10049000D7FA13E00121802000F0D2FA0021802059
:1004A00000F0CEFA0AE00121080200F0C9FA0021AA
:1004B0004FF4807000F0C4FA00E000BF00BF10BD30
:1004C00010B50121084600F0BBFA0021012000F020
:1004D000B7FA10BD2DE9F0410246002500260020A4
:1004E00000230024002791F803C00CF00F0591F8B9
:1004F00003C00CF0100CBCF1000F03D091F802C047
:100500004CEA050591F800C0BCF1000F31D0146829
:1005100000202BE04FF0010C0CFA00F3B1F800C002
:100520000CEA03069E4220D183004FF00F0C0CFA18
:1005300003F7BC4305FA03FC4CEA040491F803C03A
:10054000BCF1280F06D14FF0010C0CFA00FCC2F8E8
:1005500014C00AE091F803C0BCF1480F05D14FF078
:10056000010C0CFA00FCC2F810C0401C0828D1D3C2
:100570001460B1F800C0BCF1FF0F34DD54680020F6
:100580002EE000F1080C4FF0010808FA0CF3B1F866
:1005900000C00CEA03069E4221D183004FF00F0CED
:1005A0000CFA03F7BC4305FA03FC4CEA040491F887
:1005B00003C0BCF1280F05D100F1080C08FA0CF8B3
:1005C000C2F8148091F803C0BCF1480F07D100F1C4
:1005D000080C4FF0010808FA0CF8C2F81080401C13
:1005E0000828CED35460BDE8F0814FF6FF7101803A
:1005F000022181700421C170704702460020936877
:100600000B400BB1012000E00020704701468868D4
:1006100080B2704702460020D3680B400BB1012026
:1006200000E0002070470146C86880B27047016151
:100630007047416170470AB1016100E04161704754
:10064000C16070474FF480320A43826181618261E8
:1006500082698269704702460020344B18684FF661
:100660008073184040EA02100843304B186070470E
:100670002F49C8617047F0B50A46002300240021C5
:1006800000252A4E7168C0F3034583B200F440167A
:10069000B6F5401F08D121F07061244E766826F02F
:1006A0007066224F7E6012E000F48016B6F5801F5F
:1006B00006D1032606FA05F4A14341F0706106E075
:1006C000460D360103FA06F6B14341F0706122B1DE
:1006D000460D360103FA06F63143144E7160F0BD43
:1006E00030B500228B071C0F0F2303FA04F20F4BC7
:1006F00008338C1053F8243093430C4C08348D107D
:1007000044F8253023468C1053F824308C07240FEE
:1007100000FA04F42343054C08348D1044F82530C6
:1007200030BD00000014014000F8FEBF0000014091
:1007300000002042DE48006840F00100DC4908600B
:1007400008464068DB490840D949486008460068C7
:10075000D9490840D64908600846006820F480203E
:1007600008600846406820F4FE0048600020886069
:100770007047CF49096821F48031CD4A1160114694
:10078000096821F480211160B0F5803F03D0B0F5F5
:10079000802F0ED106E0C649096841F48031C44A71
:1007A000116007E0C249096841F4A021C04A116004
:1007B00000E000BF00BF704710B5014600220023D3
:1007C00000204A11012A02D1B94C236806E0022A0E
:1007D00002D1B74C236A01E0B54C636A01F01F02F5
:1007E000012494401C400CB1012000E0002010BD09
:1007F00038B5002000900024002500BF3120FFF70D
:10080000DBFF05460098401C00901DB90098B0F52C
:10081000A06FF3D13120FFF7CFFF08B1012400E032
:100820000024204638BD01460020A14A106820F06F
:10083000F80040EAC10010607047A04908607047A6
:10084000024600209A4B586820F47C1042EA0103CB
:100850001843974B5860704798490866704701469F
:100860000020934A506820F003000843506070470E
:100870008F48406800F00C007047014600208C4A09
:10088000506820F0F0000843506070470146002097
:10089000874A506820F4E060084350607047014682
:1008A0000020834A506820F4605040EAC100506044
:1008B000704729B17E4A527A02437D4B5A7204E056
:1008C0007B4A527A82437A4B5A7270477B49D831BD
:1008D0000860704701460020754A506820F4404087
:1008E0000843506070470021714A20321170704AED
:1008F00082F82010012802D004280AD104E0012146
:100900006B4A2032117005E00521694A20321170CE
:1009100000E000BF00BF7047694908607047644944
:10092000096A0143624A11627047654944390860A7
:10093000704730B500210022002400235C4D6D6813
:1009400005F00C0121B1042905D0082923D105E0C7
:100950005C4D056022E05B4D05601FE0544D6D6805
:1009600005F47012022505EB9242514D6D6805F4B5
:1009700080341CB9544D554305600BE04C4D6D68F7
:1009800005F400351DB1504D5543056002E04D4D55
:100990005543056002E04B4D056000BF00BF444D6C
:1009A0006D6805F0F0010909484D6B5C0568DD4094
:1009B00045603F4D6D6805F4E061090A434D6B5C8D
:1009C0004568DD4085603A4D6D6805F46051C90A9F
:1009D0003E4D6B5C4568DD40C560354D6D6805F486
:1009E0004041890B3A4D6B5CC568B5FBF3F5056179
:1009F00030BD29B12E4A526902432D4B5A6104E0A1
:100A00002B4A526982432A4B5A61704729B1284ABE
:100A100092690243264B9A6104E0254A9269824317
:100A2000234B9A61704729B1214AD2690243204B76
:100A3000DA6104E01E4AD26982431D4BDA617047D5
:100A400029B11B4AD2680243194BDA6004E0184A04
:100A5000D2688243164BDA60704729B1144A126992
:100A60000243134B1A6104E0114A12698243104B8E
:100A70001A61704712494039086070470F49C864CD
:100A800070470B49C87170470948406A40F0807050
:100A900007494862704701460020054A92680A40AB
:100AA0000AB1012000E000207047014988727047B8
:100AB000001002400000FFF8FFFFF6FE0000424277
:100AC0008004424200127A0000093D00020000202A
:100AD0001200002010B50446D749601A8C422BD072
:100AE00006DCD648204498B1B0F5806F38D119E0C3
:100AF000B0F5806F2AD0B0F56C4F31D10121880359
:100B0000FFF79EFF00214FF48040FFF799FF28E098
:100B100001214804FFF7A1FF00214FF40030FFF747
:100B20009CFF1EE001218804FFF797FF00214FF48E
:100B30008020FFF792FF14E00121C804FFF78DFF2A
:100B400000214FF40020FFF788FF0AE0012108058B
:100B5000FFF783FF00214FF48010FFF77EFF00E0D6
:100B600000BF00BF10BD2DE9F04786B005460E4618
:100B70000024A24600BF00BF00272F462C8A4CF657
:100B8000FF700440F08804432C82AC894EF6F310C9
:100B90000440B08831890843718908430443AC811B
:100BA000AC8A4FF6FF400440B0890443AC8201A8F0
:100BB000FFF7BFFEA248874202D1DDF810A001E096
:100BC000DDF80CA00AEBCA0000EB0A1031688900BE
:100BD000B0FBF1F86420B8FBF0F0040120096421B7
:100BE00001FB1089322000EB0910B0FBF1F000F09E
:100BF0000F0004432C8106B0BDE8F0874FF4165176
:100C0000016000218180C18001810C21418100218E
:100C10008181704710B502460020108A4FF2FF0311
:100C200018400B884C8823438C882343CC8823436B
:100C30001843108210BD0021018041808180C18055
:100C4000704721B1828942F40052828104E0828996
:100C50004DF6FF731A4082817047F0B503460024B9
:100C60000026002500201846C1F3421401F01F069B
:100C7000012707FA06F5012C01D10C3004E0022C03
:100C800001D1103000E014301AB107682F4307601B
:100C900002E00768AF430760F0BD1AB1838A0B43D7
:100CA000838202E0838A8B4383827047028A4FF6F5
:100CB000F0731A400282028A0A43028270478289D4
:100CC0004FF2FF731A40828182890A438281704702
:100CD00021B1828942F00202828104E082894FF6CA
:100CE000FD731A4082817047028A4FF6DF731A4003
:100CF0000282028A0A430282704721B1028A42F4C8
:100D00008042028204E0028A4BF6FF731A4002829C
:100D10007047C1F308028280704701468888C0F39B
:100D200008007047818941F0010181817047028B81
:100D3000D2B20283028B42EA012202837047028B05
:100D400002F47F420283028B0A430283704721B17F
:100D5000828A42F02002828204E0828A4FF6DF73A8
:100D60001A408282704721B1828A42F01002828248
:100D700004E0828A4FF6EF731A408282704721B1F5
:100D8000828A42F00802828204E0828A4FF6F77378
:100D90001A4082827047828A4FF6FB731A40828221
:100DA000828A0A438282704721B1828A42F002021B
:100DB000828204E0828A4FF6FD731A408282704775
:100DC0000246002013880B400BB1012000E00020F8
:100DD0007047CA430280704770B502460B46002434
:100DE000002100250020C3F3421503F01F01012656
:100DF00006FA01F1012D02D19689314006E0022D5B
:100E000002D1168A314001E0968A31401C12012637
:100E100006FA04F41688344011B10CB1012000E048
:100E2000002070BD10B5002200230A120124944056
:100E3000A3B2DC43048010BD004C004000BCFFBFE7
:100E40000038014010B50446F748204430B1B0F5F1
:100E5000806F0DD0B0F5C05F1ED113E001214802B4
:100E6000FFF7EEFD00214FF40070FFF7E9FD14E0FD
:100E700001218802FFF7E4FD00214FF48060FFF7B5
:100E8000DFFD0AE00121C803FFF7DAFD00214FF47E
:100E90000040FFF7D5FD00E000BF00BF10BD30B53A
:100EA0000246002000235068E04C20400D790C6879
:100EB00044EA0524204350609068DD4C2040D1E98D
:100EC00002542C434D7944EA450420439060D06A93
:100ED00020F470000C7C641E1C43E3B240EA035013
:100EE000D06230BD00210160017141718160C1603B
:100EF00001210174704721B1826842F001028260D1
:100F000003E0826822F001028260704721B18268AA
:100F100042F48072826003E0826822F48072826010
:100F2000704710B50023CBB21AB144681C4344602B
:100F300002E044689C43446010BD816841F00801B0
:100F400081607047014600208A6802F008020AB1F9
:100F5000012000E000207047816841F004018160B9
:100F60007047014600208A6802F004020AB101209D
:100F700000E00020704721B1826842F4A002826044
:100F800003E0826822F4A0028260704701460020DC
:100F90008A6802F480020AB1012000E00020704754
:100FA00010B50A4600210023416821F46041531E18
:100FB00041EA4331416010BD21B1426842F4006210
:100FC000426003E0426822F4006242607047F0B57C
:100FD00004460D4600200021092D11DDE068A5F131
:100FE0000A0606EB4607072606FA07F18843A5F12D
:100FF0000A0606EB460603FA06F10843E0600CE039
:10100000206905EB4507072606FA07F1884305EB3B
:10101000450603FA06F108432061072A0FDA606BE0
:10102000561E06EB86071F2606FA07F18843561E52
:1010300006EB860605FA06F10843606322E00D2AF6
:101040000FDA206BD61F06EB86071F2606FA07F17C
:101050008843D61F06EB860605FA06F1084320638F
:1010600010E0E06AA2F10D0606EB86071F2606FADD
:1010700007F18843A2F10D0606EB860605FA06F194
:101080000843E062F0BD21B1826842F480128260C0
:1010900003E0826822F48012826070470146C86CC7
:1010A00080B2704763480068704721B1426842F4DB
:1010B0008062426003E0426822F4806242607047CE
:1010C00021B1426842F48052426003E0426822F457
:1010D0008052426070470A460021816821F4E04155
:1010E00011438160704721B1826842F400428260FE
:1010F00003E0826822F400428260704721B1826876
:1011000042F40212826003E0826822F402128260DA
:101110007047014600208A6802F400120AB10120DB
:1011200000E000207047F0B504461546002000227C
:101130000026092911DDE068A1F10A0707EB470C39
:10114000072707FA0CF29043A1F10A0707EB4707BC
:1011500003FA07F21043E0600CE0206901EB410C58
:10116000072707FA0CF2904301EB410703FA07F255
:1011700010432061A06BC0F30156EF1C06F1010C77
:10118000A7EB0C0707EB870C1F2707FA0CF290431D
:10119000EF1C06F1010CA7EB0C0707EB870701FA20
:1011A00007F21043A063F0BD10B50A4600210023EA
:1011B000816B21F44011531E41EA0351816310BD3C
:1011C0004250704702465018806A80B270470A4603
:1011D00000214168184B194011434160704741623A
:1011E000826270470A460021416821F01F011143C5
:1011F0004160704740B10F494439096841F400012A
:101200000C4A443A116007E00A494439096821F45C
:101210000001084A443A11607047024600201368F2
:101220000B405BB101200AE000DCFEBFFFFEF0FFD7
:10123000FDF7F1FF4C240140FFFD3FFF0020704708
:10124000CA430260704770B50246002000230024A4
:101250000B125568CEB205EA060415681D4015B19B
:101260000CB1012000E0002070BD00220A12D3431F
:1012700003607047016821F00101016000210160F5
:1012800041608160C160874A811A90425BD012DC64
:10129000854AA0EB020190423AD007DC8349014421
:1012A000D9B1142922D028297AD128E0142938D09C
:1012B000282975D13EE0B1F56C7F5BD006DCB1F535
:1012C000627F49D0B1F5677F6AD14CE0B1F5717F9B
:1012D00057D0B1F5767F63D15BE0734944394968F3
:1012E00041F00F01704A443A51605AE06E49443966
:1012F000496841F0F0016C4A443A516051E06A4952
:101300004439496841F47061674A443A516048E0A1
:1013100065494439496841F47041634A443A51602F
:101320003FE061494439496841F470215E4A443ADA
:10133000516036E05C494439496841F470015A4AC9
:10134000443A51602DE058494439496841F0706190
:10135000554A443A516024E05549096841F00F016B
:10136000534A11601DE05249096841F0F001504AAA
:10137000116016E04E49096841F470614C4A1160F1
:101380000FE04B49096841F47041494A116008E097
:1013900006E04749096841F47021454A116000E0C0
:1013A00000BF00BF704710B50022026847F6F07317
:1013B0009A430C6A8B6823430C6923434C6923438B
:1013C0008C692343CC6923434C6A23438C6A2343AF
:1013D0001A430260CB6843600B6883604B68C3604C
:1013E00010BD0021016041608160C1600161416107
:1013F0008161C161016241628162704721B102680D
:1014000042F00102026003E0026822F00102026081
:1014100070471AB103680B43036002E003688B4313
:10142000036070470146486880B27047014600205B
:10143000002201F080531BB11D4B1B1F1A6802E0F4
:10144000194B443B1A6802EA01030BB1012000E08A
:101450000020704700F0805111B11549086002E08A
:10146000114944394860704701460020002201F0CC
:1014700080531BB10E4B1B1F1A6802E00A4B443B02
:101480001A6802EA01030BB1012000E00020704756
:1014900000F0805111B10649086002E00249443968
:1014A000486070478000024044000240F8FFFDBFE2
:1014B000040402400CB500200190009047480068E9
:1014C00040F480304549086000BF4448006800F49B
:1014D000003000900198401C0190009818B90198C4
:1014E000B0F5A06FF1D13D48006800F4003010B1B4
:1014F0000120009001E0002000900098012844D1D4
:101500003748006840F01000354908600846006818
:1015100020F0030008600846006840F00200086000
:101520002E4840682D494860084640684860084693
:10153000406840F4806048600846406820F47C10B1
:1015400048600846406840F4E81048600846006873
:1015500040F08070086000BF2048006800F0007014
:101560000028F9D01D48406820F003001B4948605E
:101570000846406840F00200486000BF17484068D5
:1015800000F00C000828F9D101E000BFFEE70CBD17
:1015900010B5FFF78FFF10BD10B51048006840F080
:1015A00001000E490860084640680E4908400B4992
:1015B0004860084600680C49084008490860084629
:1015C000006820F4802008600846406820F4FE008F
:1015D000486000208860FFF7DBFF10BD001002406C
:1015E000002002400000FFF8FFFFF6FE30B50B467A
:1015F000014600202022012409E021FA02F59D4243
:1016000005D303FA02F5491B04FA02F52844151E16
:10161000A2F10102F1DC30BD064C074D06E0E068A6
:1016200040F0010394E8070098471034AC42F6D329
:10163000FEF782FDD0170008F01700080FB4054B25
:1016400010B503A9044A029800F018F810BC5DF820
:1016500014FB0000C30200081800002002E008C8C4
:10166000121F08C1002AFAD170477047002001E01C
:1016700001C1121F002AFBD1704700002DE9FF4F66
:1016800089B09B460446002506E025280BD05A4623
:101690000B999047641C6D1C20780028F5D10DB083
:1016A0002846BDE8F08F0027B8460122474900E0F0
:1016B000074314F8013F203B02FA03F00842F7D138
:1016C00020782E2819D114F8010F47F004072A2892
:1016D0000ED06FF02F022078A0F1300109290CD82C
:1016E00008EB880102EB410100EB0108641CF2E702
:1016F0000A98641C50F8048B0A9020780028CED0F9
:10170000642808D0692806D075281ED05A460B993F
:1017100090476D1C58E00A994FF00A0901C90A91D7
:10172000002802DA40422D2102E0390504D52B21A0
:101730008DF82010012103E0F90704D02021F7E7FC
:101740008A4608AE0DE00021FAE70A994FF00A092F
:1017500001C90A91F7E74946FFF748FF303106F81B
:10176000011D0028F7D1ADEB060000F12009780734
:1017700001D44FF00108C84502DDA8EB090000E0E4
:1017800000208046002706E008A85A46C05D0B9955
:1017900090476D1C7F1C5745F6DB04E030205A460D
:1017A0000B9990476D1CB8F10001A8F10108F5DC18
:1017B00005E016F8010B5A460B9990476D1CB9F1DC
:1017C0000001A9F10109F4DC641C65E709280100A6
:1017D000F0170008000000201C0000005C16000844
:1017E0000C1800081C000020040200006C16000801
:1017F00000000000000001020304010203040607C8
:0C180000080902040608000000000000B7
:040000050800014BA3
:00000001FF
