:020000040800F2
:10000000F80D002045010008570D0008A10C00085C
:10001000530D0008E9010008152200080000000047
:10002000000000000000000000000000A114000813
:100030002909000800000000AD0F0008091D000894
:100040005F0100085F0100085F0100085F01000810
:100050005F0100085F0100085F0100085F01000800
:100060005F0100085F0100085F0100085F010008F0
:100070005F0100085F0100085F0100085F010008E0
:100080005F0100085F0100085F0100085F010008D0
:10009000812100085F0100085F0100085F0100087E
:1000A0005F0100085F0100085F0100085F010008B0
:1000B0005F0100085F0100085F0100085F010008A0
:1000C0005F0100085F0100085F0100085F01000890
:1000D0005F010008611D00085F0100085F01000862
:1000E0005F0100085F0100085F0100085F01000870
:1000F0005F0100085F0100085F0100085F01000860
:100100005F0100085F0100085F0100085F0100084F
:100110005F0100085F0100085F0100085F0100083F
:100120005F0100085F0100085F0100085F0100082F
:10013000DFF80CD000F018F800480047F52400085C
:10014000F80D00200648804706480047FEE7FEE716
:10015000FEE7FEE7FEE7FEE7FEE7FEE7FEE7FEE777
:100160000D1D000831010008064C074D06E0E0684F
:1001700040F0010394E8070098471034AC42F6D3EE
:10018000FFF7DAFF282700084827000870B501EBC1
:10019000020410F8015B15F0070301D110F8013BD0
:1001A0002A1106D110F8012B03E010F8016B01F8B9
:1001B000016B5B1EF9D12B0705D40023521E0FD40F
:1001C00001F8013BFAE710F8013B02F10202A1EB52
:1001D000030303E013F8015B01F8015B521EF9D53C
:1001E000A142D6D3002070BD00BFFEE70146CAB2CF
:1001F0000B1243EA0220704710B5002422E1974811
:10020000008800F00F009649087008460078E8BBA7
:1002100094480068944908800846008800F030003F
:10022000924908809048008800F440508E49088028
:100230008F49D1F8001C89B24BF6BF7201EA020067
:1002400080F4005080F0200040F4004141F0800133
:10025000874AC2F8001C8148008810F0100F38D17E
:100260008048006880B248F60F7100EA010011462C
:10027000C1F8000C00F016FD7A49096889B24BF606
:10028000BF7201EA02007849098800E09AE011F49F
:10029000805F01D080F480507349098811F4005FB9
:1002A00001D080F400507149098811F0100F01D07D
:1002B00080F010006D49098811F0200F01D080F006
:1002C000200081B241F4004141F08001654A116093
:1002D00010BD6448006884B214F4006F37D06148E0
:1002E0000068C0F30E0048F68F7100EA0100604913
:1002F000C1F8000C01F05EFA5A49096889B24BF660
:10030000BF7201EA02005849098811F4805F01D0E8
:1003100080F480505449098811F4005F01D080F4C2
:1003200000505249098811F0100F01D080F01000E0
:100330004E49098811F0200F01D080F0200081B2D1
:1003400041F4004141F08001464A1160C0E714F4D5
:10035000004F77D043480068C0F30E0048F68F7115
:1003600000EA01004249C1F8000C00F0E5FD3D49FA
:10037000096889B24BF6BF7201EA02003A4909885E
:1003800011F4805F01D080F480503749098811F45E
:10039000005F01D080F400503449098811F0100F3B
:1003A00001D080F010003149098811F0200F01D0F0
:1003B00080F0200081B241F4004141F08001294ADF
:1003C000116085E726480078294901EB8000D0F8C4
:1003D000000C84B214F4004F18D02148007801EBCF
:1003E0008000D0F8000CC0F30E0048F68F71084072
:1003F0001B4909781E4A02EB8101C1F8000C18491B
:100400000978491E1B4A52F82100804714F0800FDA
:1004100018D013480078164901EB8000D0F8000C82
:1004200080B248F60F7108400D490978104A02EB76
:100430008101C1F8000C0A490978491E0E4A52F898
:10044000210080470D48006880B20449088010F4FC
:10045000004F7FF4D4AE00BF3AE7000074000020E4
:1004600018010020005C00402C0100202E0100201B
:1004700000500040580000203C000020445C004038
:100480000C4901EB8001D1F8001C11F4804F10D011
:10049000084901EB8001D1F8001C89B248F68F723F
:1004A00011404CF280021143024A02EB8002C2F872
:1004B000001C7047005000400C4901EB8001D1F84E
:1004C000001C11F0400F10D0084901EB8001D1F859
:1004D000001C89B248F68F72114048F2C0021143E5
:1004E000024A02EB8002C2F8001C70470050004034
:1004F000084901EB8001D1F8001C89B248F68F62EF
:10050000114048F280021143024A02EB8002C2F815
:10051000001C7047005000402DE9F0472948006852
:1005200000F110052E8827480068077AEEB9042FDD
:100530001BD125480078012812D1002123480068EA
:1005400080B200F10200224A42F810104FF0300051
:100550002049088000BF4FF000001B49087003E0ED
:10056000072710201B49088027E0AC88A64201D845
:10057000042000E002200746B44200D93446A0B26D
:10058000A96888478046002000F0F2FA8146A2B2AE
:100590000146404601F040FEA1B2002001F03AF8C9
:1005A0002888001B288068882044688030200949FA
:1005B000088000020849088000BF024909680F72DC
:1005C000BDE8F0871C01002014010020505C0040B1
:1005D000006000402E0100202C0100202DE9F04198
:1005E0002948006800F110042688A068C0B1BEB197
:1005F000A588B54200D93546A8B2A1688847074604
:100600002088401B2080608828446080002000F003
:100610008BFA8046AAB20146384600F0B5FC00BF0E
:10062000208850B14FF440501849088000210846F6
:1006300000F0F0FF3020164908802088A188884209
:1006400004DB03201049096808721AE0208800289A
:1006500004DD05200C490968087212E0208880B981
:10066000062009490968087200210A48006880B21A
:1006700000F10200084A42F810104FF0300004491F
:100680000880BDE8F08100001C0100202C01002042
:100690002E010020505C0040006000402DE9F05F1A
:1006A0009848006845780027BA46062D1AD1954823
:1006B0000068007810F07F0F13D19249096888789C
:1006C000012803D190490968CF690AE0022803D1C3
:1006D0008D4909680F6A04E0032802D18A49096834
:1006E0004F6A91E0F5BB874800684088D0BB8548D9
:1006F0000068C088022859D182480068007988BB08
:1007000080480068007810F07F0F05D17D480068B0
:10071000808808B97D4F77E07A480068007800F05B
:100720007F0001280ED17749096848797649096820
:100730008A6900219047C0BB72480068807AA0B3E4
:10074000724F61E06F480068007800F07F00022877
:100750005AD16C480068407900F00F06694800687B
:10076000407900E022E000F07009664800684079B6
:1007700010F0800F07D0664800EB8600D0F8000C20
:1007800000F0300806E0624800EB8600D0F8000C6C
:1007900000F440585F480078B04235D9B9F1000FF5
:1007A00032D1B8F1000F2FD0584F2DE0082D07D1CE
:1007B00054480068007810F07F0F25D1564F23E091
:1007C0000A2D21D14F480068007800F07F000128F1
:1007D0001AD14C480068807AB0B14A480068408815
:1007E00090B948480068007970B946480068C088E8
:1007F000012809D1434909684879434909688A6948
:100800000021904700B9454F57B13E480068A0F815
:1008100012A03C48006887610020B84700240FE020
:10082000384A12685078384A126811698847044675
:10083000032C05D10920334909680872BDE8F09FEF
:1008400030480068008AA0F57F41FF3904D10920B3
:100850002C4909680872F1E7022C03D02948006886
:10086000008A20B90820274909680872E6E7254868
:100870000068007810F0800F3BD022480068B0F884
:1008800006B020480068008A584504D91D49096807
:10089000A1F810B023E01B480068008A19490968D4
:1008A000C98888421BDA17480068008A1649096817
:1008B00091F82C10884203DA0020194908700EE0E4
:1008C00010480068008A1049096891F82C1090FBC4
:1008D000F1F201FB120010B90120114908700A4819
:1008E000006890F82C10074800688182FFF714FE1A
:1008F00006E00320034909680872000309490880DB
:1009000000BF9BE71C01002020010020591A0008AD
:100910000050004084000020DD1900082D1A000856
:10092000140100202C0100207047000070B51E4803
:100930000078012836D11D48006818B900201A49EE
:1009400008702FE01948006840280ED91848006840
:1009500085B24024164800684030154908601348A5
:1009600000684038114908600FE01148006885B2FE
:100970000E48006884B20E4800680C4909680844B3
:100980000B4908600020094908600A4948192246B5
:10099000C02101F041FC2146012000F03BFE012076
:1009A00000F06AFE70BD00000C000020080000206E
:1009B000040000209C01002010B50549032001F02F
:1009C000F9FB84B203480480032000F0F9FD10BD58
:1009D0009C090020340000200549096821F010011D
:1009E000034A116011460968014311607047000015
:1009F0000020024001460020034A106800F0380041
:100A00000843106070470000002002402DE9F041CB
:100A1000024600250026002000230024002791F82C
:100A200003C00CF00F0591F803C01CF0100F03D0A9
:100A300091F802C04CEA0505B1F800C01CF0FF0FA8
:100A400031D0146800202BE04FF0010C0CFA00F3B9
:100A5000B1F800C00CEA03069E4220D183004FF09B
:100A60000F0C0CFA03F7BC4305FA03FC4CEA040430
:100A700091F803C0BCF1280F06D14FF0010C0CFA1D
:100A800000FCC2F814C00AE091F803C0BCF1480FA2
:100A900005D14FF0010C0CFA00FCC2F810C0401C4C
:100AA0000828D1D31460B1F800C0BCF1FF0F34DDC9
:100AB000546800202EE000F1080C4FF0010808FAFD
:100AC0000CF3B1F800C00CEA03069E4221D183006A
:100AD0004FF00F0C0CFA03F7BC4305FA03FC4CEA89
:100AE000040491F803C0BCF1280F05D100F1080CF3
:100AF00008FA0CF8C2F8148091F803C0BCF1480F52
:100B000007D100F1080C4FF0010808FA0CF8C2F800
:100B10001080401C0828CED35460BDE8F0814161AC
:100B2000704701617047000001460648006880B2C6
:100B300000EBC10000F10400034A52F8100080B23B
:100B400070470000505C00400060004001460648CD
:100B5000006880B200EBC10000F10600034A52F8C1
:100B60001000C0F309007047505C00400060004076
:100B700001460548006880B200EBC100034A52F804
:100B8000100080B270470000505C004000600040E0
:100B900070B50A4804680A48D0F8EC570948066856
:100BA000344454B108220849204600F0B3F8042226
:100BB00005491031284600F0ADF870BDE8F7FF1F79
:100BC00000F0FF1FF0F7FF1F1700002070B52F483F
:100BD0000078012858D02E480068B0F5006F02D187
:100BE00000202B4908602A4800682A490968884281
:100BF00003D100202549087070BD254800682549AB
:100C00000968884206D922480068C0F50060224978
:100C1000086006E01F4800681D490968401A1E491F
:100C200008601D48006840280ED91948006885B240
:100C3000402417480068403015490860164800688D
:100C40004038154908600FE01148006885B2124825
:100C5000006884B20E4800680F49096808440C49CE
:100C6000086000200C4908600120084908700B4901
:100C700048192246C02101F0CFFA2146012000F098
:100C8000C9FC012000F0F8FC00BFB5E70C00002013
:100C90000400002000000020080000209C0100202B
:100CA00000BFFEE710B518480068047A022C01D096
:100CB000042C05D1FFF730FC13480068047A1CE0CF
:100CC000062C19D110480068407805280ED10E482E
:100CD0000068007810F07F0F08D10B490968C878C8
:100CE00000F0E8FB09490968086A80470849096873
:100CF00088688047082400E00824034909680C72CA
:100D000000F056F910BD00001C0100202801002051
:100D10002001002030B50B46002100BF16E00A2458
:100D2000B4EB107F05D9302404EB107403F81140A4
:100D300005E0412404EB10740A3C03F81140000163
:100D400000254C00641C1D554C1CE1B29142E6DBB1
:100D500030BD00BFFEE770477047000070B500214E
:100D600000230F22C4784CB31A4C246804F4E064C6
:100D7000C4F5E0644FEA1421C1F1040322FA01F240
:100D8000447804FA03F1847804EA020444EA010195
:100D90004FEA0111104C0678A155047804F01F05A4
:100DA0004FF0010404FA05F405784FEA65154FF099
:100DB000E02606EB8505C5F8004109E0047804F05B
:100DC0001F050124AC40054D0678761145F82640F4
:100DD00070BD00000CED00E000E400E080E100E008
:100DE00002490143024A1160704700000000FA0501
:100DF0000CED00E070B502264A4800684478494886
:100E00000068007810F07F0F4AD1092C03D100F060
:100E1000A3FE064665E0052C14D142480068C07860
:100E20007F280BDC3F480068807838B93D4800686F
:100E3000808818B93B480068807A08B108256DE0C1
:100E400000264EE0032C14D136480068C0780128F3
:100E50000DD134480068808848B932480068407A2B
:100E600010F0200F03D000F09BFE064639E002266A
:100E700037E0012C35D12B480068C07801280DD10E
:100E800028480068808848B926480068407A10F0F1
:100E9000200F03D000F0EAFC064622E0022620E004
:100EA00020480068007800F07F00012805D10B2C55
:100EB00017D100F0F3FE064613E01A4800680078E8
:100EC00000F07F0002280BD1012C03D100F0CEFCF2
:100ED000064606E0032C04D100F076FE064600E04C
:100EE00002264EB1104800684169E0B288470646C4
:100EF000032E01D1092511E00EB108250EE00625CB
:100F000000210A48006880B200F10200084A42F855
:100F100010104FF030000749088000BF01490968F0
:100F20000D7270BD1C01002020010020505C0040AB
:100F3000006000402E01002010B511480068047ABE
:100F4000022C01D0042C01D1082412E0032C01D082
:100F5000052C05D1FFF742FB09480068047A08E038
:100F6000072C05D107490968C8688047082400E0B4
:100F70000824034909680C7200F01AF810BD00003B
:100F80001C01002020010020F0B5561C7510064EF3
:100F900006EB41042B4604E080CC20F8017B401C8A
:100FA0005B1E002BF8D1F0BD0060004070470000D0
:100FB00010B50D4890F82C10002000F0B7FA0B483F
:100FC0000068007A082805D14002094908801020ED
:100FD0000849088005480068007A092801D10120E5
:100FE00000E00020C0B210BD880000201C010020DD
:100FF0002C0100202E01002010B5012001F034F852
:1010000001240D4804604FF000000C490880084698
:1010100000880B49C1F8400C4FF0000009490860F6
:101020004FF4E05005490880084600880449C1F89B
:10103000400C4FF0000010BD405C00402601002035
:1010400000500040445C004029B1064AD269024386
:10105000044BDA6104E0034AD2698243014BDA614E
:10106000704700000010024029B1064A926902430D
:10107000044B9A6104E0034A92698243014B9A61EE
:10108000704700000010024038B500F059F84FF4E6
:10109000803000F017F900F079F90446012C24D1D2
:1010A0001020FFF799FC0220FFF7A4FC002000F0BD
:1010B000FDF8002000F038F9A00200F029F94FF403
:1010C000E011200400F042F9012000F039F900BFDE
:1010D000392000F0C5F80028FAD0022000F044F9C9
:1010E00000BF00F0DBF80828FBD101210846FFF71C
:1010F000BBFF01210820FFF7B7FF4FF48040ADF898
:10110000000003208DF8020014208DF803006946CA
:101110000A48FFF77BFC01212C20FFF7A5FF4FF4C5
:10112000E040ADF8000010208DF8030003208DF89A
:10113000020069460148FFF769FC38BD000C014018
:101140000F48006840F001000D49086008464068FB
:101150000C4908400A494860084600680A490840A6
:10116000074908600846006820F4802008600846A7
:10117000406820F4FE0048604FF41F00886070470C
:10118000001002400000FFF8FFFFF6FE30B500211E
:101190000022002400232D4D6D6805F00C0121B1C3
:1011A000042905D0082923D105E0294D056022E056
:1011B000274D05601FE0254D6D6805F47012234D25
:1011C0006D6805F48034022505EB92421CB9214D6F
:1011D000554305600BE01D4D6D6815F4003F03D0CD
:1011E0001C4D5543056002E0194D5543056002E072
:1011F000174D056000BF00BF144D6D6805F0F0018C
:101200000909154D6B5C0568DD4045600F4D6D6843
:1012100005F4E061090A104D6B5C4568DD408560AE
:101220000A4D6D6805F46051C90A0B4D6B5C456849
:10123000DD40C560054D6D6805F44041890B074DE3
:101240006B5CC568B5FBF3F5056130BD001002406D
:1012500000127A0000093D0030010020400100200A
:1012600010B501460022002300204A11012A02D1B4
:10127000094C236806E0022A02D1074C236A01E0E8
:10128000054C636A01F01F02012494401C4201D006
:10129000012000E0002010BD00100240024840681C
:1012A00000F00C00704700000010024001460020D2
:1012B000034A506820F0F000084350607047000077
:1012C000001002401149096821F480310F4A116071
:1012D0001146096821F480211160B0F5803F03D0E8
:1012E000B0F5802F0ED106E00849096841F480313D
:1012F000064A116007E00549096841F4A021034A44
:10130000116000E000BF00BF704700000010024005
:1013100001460020034A506820F4E0600843506012
:10132000704700000010024001460020034A506848
:1013300020F4605040EAC100506070470010024045
:101340000149086670470000000042420246002042
:10135000044B586820F47C1042EA01031843014B07
:10136000586070470010024001460020034A506850
:1013700020F0030008435060704700000010024056
:101380000149086070470000D800424270B500244F
:101390000025002600BF3120FFF762FF0646641CCF
:1013A000B4F5A06F01D0002EF5D03120FFF758FF23
:1013B00008B1012500E00025284670BD10B5094898
:1013C000006805280CD1084801680068401C064ADE
:1013D0001060052904D1002011460860FFF7F6FBD4
:1013E00010BD00000C0100203000002038B504467C
:1013F0000D46234951F82410224A52F82420114363
:1014000041F001000121FFF72FFE34B91E4951F8C8
:1014100024000121FFF728FE05E01B4951F82400B4
:101420000121FFF711FE18208DF80300174830F84E
:101430001400ADF8000003208DF80200144951F8A3
:1014400024006946FFF7E2FA04208DF803001148F2
:1014500030F81400ADF800000F4951F82400694637
:10146000FFF7D4FA0D4951F82400294600F074FD25
:101470000A4951F82400012100F088FC38BD000021
:101480001027000818270008082700082027000850
:101490007C01002024270008840100207401002022
:1014A000704700004FF6F8710140014A1160704723
:1014B000505C004030B50146104B1A78002015E012
:1014C00003060F4C04EB9353D3F8003C9BB248F651
:1014D0008F74234048F280042343C4B2234304069C
:1014E000074D05EB9454C4F8003C401C9042E7D3F0
:1014F00041F08003034C236030BD000084000020D5
:10150000005000404C5C004010B54A105300054AA2
:10151000126892B202EBC00202F10402024C44F8DB
:10152000123010BD505C00400060004010B5024613
:101530001048006880B200EBC20000F106000E4CBB
:1015400004EB40033E290BDD481111F01F0F01D1C0
:10155000441EA0B24FF4004444EA80241C6007E01B
:10156000481011F0010F01D0441CA0B284021C608D
:1015700010BD0000505C00400060004010B50F4BF3
:1015800003EB8003D3F8003C9BB24BF68F7403EA65
:10159000040211F4805F01D082F4805211F4005FE4
:1015A00001D082F4005242F4004343F08003034C24
:1015B00004EB8004C4F8003C10BD00000050004063
:1015C0000B4A02EB8002D2F8002C92B24BF68F73DA
:1015D00002EA030181F4805181F4005141F4004298
:1015E00042F08002024B03EB8003C3F8002C7047EB
:1015F0000050004010B54A105300044A126892B2DD
:1016000002EBC002024C44F8123010BD505C0040A6
:1016100000600040054A126892B202EBC00202F17B
:101620000202034B43F8121070470000505C004068
:101630000060004010B50F4B03EB8003D3F8003C73
:101640009BB248F6BF7403EA040211F0100F01D0F8
:1016500082F0100211F0200F01D082F0200242F43B
:10166000004343F08003034C04EB8004C4F8003CC7
:1016700010BD0000005000400B4A02EB8002D2F87F
:10168000002C92B248F6BF7302EA030181F0100108
:1016900081F0200141F4004242F08002024B03EB52
:1016A0008003C3F8002C704700500040074A02EB4B
:1016B0008002D2F8002C92B248F68F131A400A43E7
:1016C000024B03EB8003C3F8002C7047005000402E
:1016D00010B500F001F810BD002100202E4A12685C
:1016E00042F480322C4B1A6000BF2B4A126802F47D
:1016F0000030491C10B9B1F5A06FF6D1264A126826
:1017000012F4003F01D0012000E00020012842D166
:10171000224A126842F01002204B1A601A461268E0
:1017200022F003021A601A46126842F002021A609E
:10173000194A5268184B5A601A4652685A601A463B
:10174000526842F480625A601A46526822F47C124F
:101750005A601A46526842F4E8125A601A461268F1
:1017600042F080721A6000BF0B4A126812F0007FCC
:10177000FAD0094A526822F00302074B5A601A460F
:10178000526842F002025A6000BF034A526802F0F7
:101790000C02082AF9D170470010024000200240D4
:1017A00010B50020FFF7ECFD0121C805FFF74CFC48
:1017B00010BD000038B501242948006880B200F14E
:1017C0000400284951F8100080B201EB400000905D
:1017D00025480068007A092832D00098007822490C
:1017E000096808700098401C0090009800781E4915
:1017F000096848700098401C0090009800EB440075
:101800000090009931F8020B0091FEF7EFFC1649A9
:1018100009684880009800EB44000090009931F876
:10182000020B0091FEF7E2FC0F49096888800098DE
:1018300000EB44000090009800880B490968C880BC
:10184000012009490968087207480068C08810B972
:10185000FFF7D0FA01E0FEF721FFFFF7A9FB38BD43
:10186000505C0040006000401C0100202DE9F04762
:1018700055480068007800F07F08B8F1000F0AD1E1
:1018800051480068407A00F0DF004F49096848720B
:101890000020BDE8F087B8F1020F7ED14A48006809
:1018A000408818B948480068007908B10220F0E77C
:1018B000DFF8189144480068477927F080052C46E6
:1018C00041480068407910F0800F07D0404800EB95
:1018D0008400D0F8000C00F0300606E03C4800EB35
:1018E0008400D0F8000C00F4405699F80000A8429B
:1018F00004D91EB134480068807A08B90220C8E7CC
:1019000017F0800F10D0324800EB8400D0F8000CA4
:1019100000F0300010284DD1E0B2FEF7CDFD3021AF
:10192000E0B2FFF787FE45E0294800EB8400D0F8DD
:10193000000C00F44050B0F5805F3BD1ECB9254875
:1019400090F82C10E0B2FFF7F1FD214901EB840182
:10195000D1F8001C89B24BF68F7201EA020080F4C4
:10196000805080F4005040F4004141F08001184A5A
:1019700002EB8402C2F8001C1CE0E0B2FEF780FD1E
:10198000134901EB8401D1F8001C89B24BF68F7228
:1019900001EA020080F4805000E011E080F4005081
:1019A00040F4004141F08001094A02EB8402C2F890
:1019B000001C00BF0849096848698047002068E7A3
:1019C00000BF022065E700001C0100208400002009
:1019D00000500040880000202801002010B5044677
:1019E0002CB90120064909680882002010BD05496C
:1019F000096808688047024800680A30F6E7000076
:101A00001C0100202801002010B50246064800688D
:101A1000438A32B98888C01A034C24682082002087
:101A200010BD08681844FBE71C01002010B50446EF
:101A30002CB90120064909680882002010BD05491B
:101A4000096888688047024800680C30F6E70000A3
:101A50001C0100202801002010B504462CB90220EA
:101A6000394909680882002010BD002037490880E4
:101A700035480068007810F07F0F23D1324909689B
:101A8000487A10F0200F06D03049097841F0020161
:101A90002E4A117005E02D49097801F0FD012B4A0D
:101AA000117010F0400F06D02849097841F001016B
:101AB000264A117005E02549097801F0FE01234A04
:101AC00011703AE020480068007800F07F0001289B
:101AD00001D11E48C8E71C480068007800F07F006C
:101AE000022828D1184A1268517901F00F0011F02C
:101AF000800F0FD0164A02EB8002D2F8002C02F0C1
:101B00003002102A16D1114A127842F001020F4B0E
:101B10001A700FE00E4A02EB8002D2F8002C02F499
:101B20004052B2F5805F05D1084A127842F00102B6
:101B3000064B1A7001E0002096E70649096808691B
:101B40008047024890E700001C0100201601002099
:101B5000005000402801002010B50E480068C078F1
:101B60000D494978884213DC0A480068807878B9C2
:101B700008480068808858B906480068C078054958
:101B8000096888720549096848688047002010BDC7
:101B90000220FCE71C010020840000202801002016
:101BA00010B507480068407A40F0200004490968F1
:101BB000487204490968C8698047002010BD0000C8
:101BC0001C010020280100202DE9F0412F48006869
:101BD000467926F080073C462C480068407910F092
:101BE000800F07D02A4800EB8400D0F8000C00F0EA
:101BF000300506E0264800EB8400D0F8000C00F425
:101C0000405524480078A04208D920480068408800
:101C100020B91DB11D480068807A10B90220BDE8C6
:101C2000F08116F0800F15D0194901EB8401D1F82D
:101C3000001C89B248F6BF7201EA020080F0100071
:101C400040F4004141F08001114A02EB8402C2F8E5
:101C5000001C15E00E4901EB8401D1F8001C89B28B
:101C60004BF68F7201EA020080F4805040F400418C
:101C700041F08001064A02EB8402C2F8001C00BF5A
:101C800005490968886980470020C8E71C010020D1
:101C900000500040840000202801002010B5174BA0
:101CA0001B68D978154B1B685879154B1B689A69C6
:101CB0009047044611480068807AE8B13CB90F4863
:101CC0000068007918B90D480068807808B10220D2
:101CD00010BD8CB90B490968C8688047074800687F
:101CE000407906490968C87204480068C078034909
:101CF000096808730020EBE70220E9E71C010020D7
:101D000020010020280100207047000010B5114874
:101D1000006840F001000F490860084640680E491D
:101D200008400C494860084600680C4908400949C9
:101D300008600846006820F4802008600846406873
:101D400020F4FE0048604FF41F008860FFF7C0FCDD
:101D500010BD0000001002400000FFF8FFFFF6FE7B
:101D600010B5044640F22551074800F0A6F810B11E
:101D7000204600F063F90821034800F091F810B103
:101D8000014800F055F910BD0038014021B18289A9
:101D900042F40052828104E082894DF6FF731A40BA
:101DA0008281704710B52F48007920B1012806D0F4
:101DB00002280ED108E000202B49C8800DE04FF426
:101DC00040502949C88008E04FF400502649C88097
:101DD00003E000F04BF8002010BD00BF214840791F
:101DE00020B1012806D002280ED108E000201E49AB
:101DF00008810DE04FF480601B49088108E04FF432
:101E0000C0601949088103E000F030F80020E3E7E2
:101E100000BF14488079072802D0082810D103E0B9
:101E20000020114988800FE00F48008918B9002070
:101E30000D49888003E04FF480500B49888003E00F
:101E400000F014F80020C7E700BF06480068064904
:101E50000860002088810C2048810020FFF7C6FA26
:101E60000120B9E77C0000208C01002010B54FF460
:101E7000E1300949086000208880C8800881888195
:101E80000C2048810020FFF7B1FA012240F22551D1
:101E9000024800F03CF810BD8C01002000380140E1
:101EA00002460020B1F5007F00D100BF13880B422D
:101EB00001D0012000E00020704770B502460024E8
:101EC000002300250020A1F510666A3E00D100BF66
:101ED000C1F3421501F01F03012606FA03F3012D99
:101EE00002D19689334006E0022D02D1168A334092
:101EF00001E0968A33400C12012606FA04F4168893
:101F0000344013B10CB1012000E0002070BDF0B5E9
:101F100003460024002600250020A1F510676A3F33
:101F200000D100BF1846C1F3421401F01F0601277B
:101F300007FA06F5012C01D10C3004E0022C01D186
:101F4000103000E014301AB107682F43076002E038
:101F50000768AF430760F0BD2DE9F04786B005463E
:101F60000E460024A24600BFA1460027B08900B15A
:101F700000BF2F462C8A4CF6FF700440F0880443C3
:101F80002C82AC894EF6F3100440B08831890843A6
:101F9000718908430443AC81AC8A4FF6FF4004408A
:101FA000B0890443AC8201A8FFF7F0F81F488742CC
:101FB00002D1DDF810A001E0DDF80CA0A88910F432
:101FC000004F08D00AEBCA0000EB0A103168490044
:101FD000B0FBF1F807E00AEBCA0000EB0A10316829
:101FE0008900B0FBF1F86420B8FBF0F0040120098F
:101FF000642101FB1089A88910F4004F08D0322019
:1020000000EBC900B0FBF1F000F00700044308E06A
:10201000322000EB09106421B0FBF1F000F00F005A
:1020200004432C8106B0BDE8F08700000038014071
:1020300001468888C0F30800704700000849094A33
:102040001268885407490968491C064A11601146FC
:102050000968B1F5006F01D10021116070470000DF
:102060009C0100200000002010B504462CB14FF464
:1020700080410548FEF753FD04E04FF480410248DB
:10208000FEF74FFD10BD0000000C014010B50848E0
:102090000849086002200968087207480749086073
:1020A000074808490860054909680868804710BD65
:1020B000DC0900201C0100208800002020010020F5
:1020C000B80000202801002008B54FF4C060FEF7DA
:1020D00087FE14208DF8000001208DF801000020FB
:1020E0008DF8020001208DF803006846FEF736FEE9
:1020F00025208DF8000000208DF801006846FEF7CD
:102100002DFE08BD10B51948006819490880084619
:10211000008800F400701749098808420BD04FF678
:10212000FF50124908601448007800F1010012497C
:102130000870FFF743F90E48008800F400400D498D
:102140000988084201D0FEF757F80948008800F4D2
:10215000806008490988084206D04FF6FF300349DD
:10216000086006494868804710BD0000445C004094
:102170007400002026010020380000208800002084
:1021800010B5FFF7BFFF10BD0020074908604FF4EE
:10219000064006490880084600880549C1F8400CF9
:1021A0004FF0000070470000445C00402601002012
:1021B000005000402DE9F04104460E46002504F091
:1021C0007F00FEF7C3FC054604F07F00FEF7ACFC81
:1021D00007462A4601463046FEF7D6FE2846BDE8A9
:1021E000F081000010B504463F2009490860084608
:1021F000006882B2C021204600F00EF80448006852
:1022000081B20120FFF706FA0120FFF735FA10BD71
:102210001000002000BFFEE7F0B5144604F1010CE9
:102220004FEA6C07DFF824C00CEB41033D460AE09F
:102230000678401C90F800C046EA0C2223F8022BD6
:102240009B1C401C6D1E002DF2D1F0BD00600040B3
:1022500070B504460025212C08D11248006800788A
:1022600000F07F0021280ED10F4D0CE0202C0AD168
:102270000C480068007800F07F00212800D10B4D49
:1022800020200B4908700DB9022070BD0548006878
:10229000856100210348006841820020A847002092
:1022A000F3E700001C010020DD2200086D24000877
:1022B0007800002010B5044602492046FFF7A4FB31
:1022C00010BD0000E400002010B50446024920467D
:1022D000FFF79AFB10BD0000DC000020014629B981
:1022E0000820034A12681082002070470148FCE76A
:1022F0001C0100207C00002070B5054606480068DF
:10230000C478042C01DD002070BD044800EBC4013A
:102310002846FFF779FBF7E71C010020EC000020BE
:102320000246002901DD02207047012A01DD02205A
:10233000FAE70020F8E70000014608480068007846
:1023400000F07F00212807D1022901D10020704729
:10235000222901D10020FAE70220F8E71C01002021
:1023600010B500203449096888723448C079324970
:1023700009684872002030490968C872FFF792F86E
:102380004FF400710020FFF791F910210020FFF7B2
:1023900051F940210020FFF7B7F880210020FFF716
:1023A00029F90020FEF7A4F8254890F82C10002009
:1023B000FFF7BCF80020FFF703F900210120FFF729
:1023C00075F9C0210120FFF715F920210120FFF741
:1023D00031F900210120FFF7D1F84FF4C06102204C
:1023E000FFF764F94FF480710220FFF703F9002131
:1023F0000220FFF7C3F820210220FFF71BF900217C
:102400000320FFF753F94FF488710320FFF77CF89E
:1024100040210320FFF78AF84FF440510320FFF7D3
:10242000ADF800210320FFF705F90020FFF742F87F
:1024300001200449086010BD1C010020DE250008B1
:10244000880000200C0100200348817A11B1052189
:10245000024A116070470000DC0900200C010020D6
:1024600004200149086070470C010020014629B989
:102470000820034A12681082002070470148FCE7D8
:102480001C0100207C00002010B5054800782028A1
:1024900004D1FFF787FC00200149087010BD00003F
:1024A000780000207047000010B5FEF771FB002097
:1024B000064909688872FEF79FFDFFF765FEFFF782
:1024C000D5FC00200249086010BD00001C0100205E
:1024D0000C01002002E008C8121F08C1002AFAD12E
:1024E00070477047002001E001C1121F002AFBD194
:1024F00070470000FEF7C8FDFFF752F9FFF7E4FD53
:10250000FFF7C4FD4FF4E0412048FEF70AFB3CE032
:102510001F480088C8B31F480078012809D18103EB
:102520001A48FEF7FCFA1CA0FFF75CFE00201849D1
:10253000088018480078022809D1C1021348FEF724
:10254000EEFA19A0FFF74EFE00201149088011484D
:10255000007803280AD14FF400510C48FEF7DFFA47
:1025600014A0FFF73FFE00200949088009480078C1
:1025700004280AD14FF4E0410448FEF7D2FA10A033
:10258000FFF730FE002002490880C1E7000C01403F
:10259000340000209C0900204C45443120B5E3C1A3
:1025A000C120200D0A0000004C45443220B5E3C193
:1025B000C10D0A004C45443320B5E3C1C10D0A00EA
:1025C0004C454420C8ABC3F00D0A000012010002C4
:1025D0000200004083044057000201020301090287
:1025E0004300020100C032090400000102020100A0
:1025F0000524001001052401000104240202052421
:10260000060001070582030800FF09040100020A11
:10261000000000070503024000000705810240009A
:1026200000040309042603530054004D00690063AD
:102630000072006F0065006C00650063007400723A
:10264000006F006E00690063007300320353005492
:10265000004D003300320020005600690072007403
:1026600000750061006C00200043004F004D002009
:102670000050006F00720074002000200000000075
:102680004000800000010002800000008000000087
:1026900080000000800000000100002000010020F8
:1026A00000400080080080000400000010000000CE
:1026B0000001000000010000000100000001000016
:1026C00020000000000100000100002000010020A7
:1026D00000400080080080000000020006000600A4
:1026E000060006000300060000000D0008000D00B3
:1026F0000E000F0003000700060028001700280046
:102700002800280009001700004000000000020017
:1027100004000000040000000400000004000000A9
:102720000002040000040800482700080000002000
:102730008C0100008C010008F02700088C010020AB
:102740006C0C0000E42400080115141A0353125401
:10275000124D123312321231021830132D090C1C93
:1027600008590D040A11B9249133C20112081A0440
:102770000713A924140861231B0889081AA5041348
:1027800051221B0839101A21041AC90C1AB5041A4F
:10279000F90441324029481A49280916781A611C5F
:1027A00013CC253308121ADE0832431321263308CE
:1027B000041A250832261A4B083232221573201AC1
:1027C000299201202D0102030404100906070809BB
:1027D00002040608BC1C0140041A08041A1004DA9A
:1027E00020045A14081A38041A44C72928990400E6
:0400000508000131BD
:00000001FF
