:020000040000FA
:1000000010070020DD000000E5000000E700000010
:1000100000000000000000000000000000000000E0
:10002000000000000000000000000000EF000000E1
:100030000000000000000000F30000006521000047
:10004000F7000000F9000000FB000000FD000000C8
:10005000FF00000001010000030100000501000095
:1000600007010000090100009D4F00002D4F000016
:100070000F01000011010000130100001501000034
:1000800017010000190100001B0100001D01000004
:100090001F010000210100002301000025010000D4
:1000A00027010000290100002B0100002D010000A4
:1000B0002F01000031010000330100003501000074
:1000C000EFB6F8FF0448854600F074FA0048004790
:1000D000A94E0000C046C0461007002016488047C1
:1000E00016480047FEE7FEE7FEE7FEE7FEE7FEE70D
:1000F000FEE7FEE7FEE7FEE7FEE7FEE7FEE7FEE7D8
:10010000FEE7FEE7FEE7FEE7FEE7FEE7FEE7FEE7C7
:10011000FEE7FEE7FEE7FEE7FEE7FEE7FEE7FEE7B7
:10012000FEE7FEE7FEE7FEE7FEE7FEE7FEE7FEE7A7
:10013000FEE7FEE7FEE70000C9220000C500000060
:1001400030B50B46014600202022012409E00D466F
:10015000D5409D4205D31D469540491B25469540F7
:1001600040191546521E002DF1DC30BDD2B201E01F
:100170000270401C491EFBD270470022F6E710B502
:1001800013460A4604461946FFF7F0FF204610BD05
:10019000421C0178401C0029FBD1801A70470321C2
:1001A000001D401E037812021A43491EF9D510465D
:1001B0007047034603220870000A491C521EFAD5F4
:1001C00018467047F0B51FB40646002082B00546B9
:1001D0004024019100901BE0019922460F463046D1
:1001E00000F00AFA049A059B801A994110D3104630
:1001F0001946224600F0F0F9361A8F41019722463F
:1002000001200021009F00F0E7F938184D410090CF
:100210002046641E0028DFDC019B009829463246F8
:1002200007B0F0BDF0B507460846584087B0C00F8C
:10023000049048000E46590040084908BC1A8841FD
:1002400005D2384631461E4617460B460246580030
:10025000400810434DD0300D039040055900400D2B
:10026000490D0590401A0290402873DA18030121C5
:10027000000B09050843019004980092002806D05D
:100280001146019A49420020904100910190029844
:1002900040210A1A0199009800F09EF905460C4683
:1002A0006B4607CB00F0B9F9C0197141039A0E0DE6
:1002B0000023D71756401A467A40164344D0049A72
:1002C000002A2DD0029A012A039A15DC1205C01AC1
:1002D000914101263605001C7141D20F059ED207BF
:1002E0000093019202962A46234600F0B6F907B021
:1002F000F0BD38463146FAE71605234A0F46B218D4
:10030000C01AB74101210905001C4F4100187F4167
:10031000114618187941E20F10436D19644113E03A
:10032000E2076D0815436408C2071443039A0126C7
:100330001205C01A91413605001C7141CE074008D4
:1003400030434908C01851412A46234600F078F945
:10035000CDE7FFE7049801224000C117121A0023DD
:100360008B4104983146C417381AA141EEE730B4E6
:100370000124E407634030BC54E730B40124E407AF
:10038000614030BC4EE700000000E0FFF0B51FB454
:1003900088B00B990998002448400999C00F49007A
:1003A00049080991C0070B990090490049080B9131
:1003B00009990898A64608431CD00B990A98084347
:1003C00018D0099801244000420D4800410D0998B9
:1003D00024050003000B204309900B980003000B39
:1003E00020430B9050181C494018002201901446DD
:1003F000104605E0002001460DB0F0BD032801DAEB
:10040000034600E003239C46C11A0AAE0AE05F00DF
:1004100008ADED5B4F00F75B7D430027AA187C41D8
:10042000491C5B1E6145F2DD410004AB5A522104B8
:10043000120C0A43240C401C0828DFDB01980290B0
:100440000099704601910090059B049A07990698BF
:1004500000F003F9D0E700000DFCFFFFF0B50C46FB
:100460005C4085B0E40FE40703944C000026640868
:1004700059009446490802460296224321D062461A
:100480000A431ED06200570D4A000E032303550D88
:10049000012402462C492405781B1B0B360B4018FF
:1004A00023432643614600901C46501AB44103D3AF
:1004B0000098401C009002E0921800985B410028D0
:1004C00003DA0020014605B0F0BD00200121090536
:1004D0000746864611E064461D46141BB54106D307
:1004E0006546521BB341744607430C43A646CD07ED
:1004F00040084908284392185B4105460D43EAD15C
:100500001046184313D060461946504071400843C6
:1005100006D06046101AB34106D20122002306E03D
:1005200000220123DB0702E00122D243531000988E
:1005300074460105381C6141029C039D0019694104
:1005400000F07EF8BFE70000FD0300004A00090349
:100550000123090B1B0519430A4B10B5520D9A4292
:1005600002DA0020014610BD064B34339A4203DC08
:100570009A1A00F041F810BD034BD21800F02CF885
:1005800010BD0000FF030000CDFBFFFF10B50029E8
:1005900004DB0124E40740428C412146002B04DBAC
:1005A0001C460123DB075242A341994200D19042ED
:1005B00010BD0000064C0125064E05E0E36807CC9F
:1005C0002B430C3C98471034B442F7D3FFF77EFD21
:1005D0000C5300002C53000010B5202A04DB014608
:1005E000203A9140002010BD914020239C1A0346E0
:1005F000E3401943904010BD10B5202A04DB0846A3
:10060000203AD040002110BD0B46D340D0402024DA
:10061000A21A91400843194610BD10B5202A06DBE6
:10062000CB170846203A1041C1170B4306E00B4692
:100630001341D0402024A21A91400843194610BD0E
:1006400010B5002B08DA0024401C614192185B4170
:100650001A4301D14008400010BDF0B51FB482B06C
:1006600005460C0003D0084603F0C2FE02E003F08A
:10067000BFFE20300246009021462846FFF7ACFF1F
:10068000049B059A04460F4618431143084314D0AF
:10069000184610431BD0009840210A1A18460599A5
:1006A000FFF7AAFF05460E46009A05990498FFF742
:1006B00093FF084305D0012004E02046394607B0E7
:1006C000F0BD0020C11705430E432C43374300996A
:1006D0000E986305401A7905E40A00220C43FD0ACE
:1006E0000A3002D500200146E9E7010510196941E9
:1006F0000C9C0D9D00196941FFF7A2FFDFE77047D1
:1007000000B5C0229178F82211401C4A127811439A
:100710001B48EA2923D00ADC0A46E03A130003F01A
:100720007EFE0A181C20242A2A2A2A161A2AED29B3
:100730001FD004DCEB2916D0EC291CD117E0F029DE
:1007400003D0F82917D10F4815E00F4813E00F48E0
:1007500011E00F480FE00F480DE00F480BE00F4885
:1007600009E00F4807E00F4805E00F4803E00F4895
:1007700001E0034800BF00BF00BD0000201C024094
:1007800040420F000090D003006CDC020048E801FA
:1007900000366E010024F400001BB70000127A003E
:1007A000808D5B0000093D00C0C62D0080841E00C6
:1007B0000146087A8200014B99507047E4010020FD
:1007C00070B50446607807281AD006DC030003F0F1
:1007D00026FE0511202C162B300015280ED004DC27
:1007E000112808D0122824D107E0182810D01C287E
:1007F0001FD101E01EE01DE01CE01BE01AE019E043
:10080000A01CFFF7CCFCC5B2284603F01BFB11E08F
:1008100010E000220421104601F0E6FB0022022134
:10082000104601F0E1FB05E004E0012003F00AFBC3
:1008300000E000BF00BF70BD10B54D494878097891
:1008400000020843002814D04AA20021084601F003
:1008500080F848A20021012001F07BF845A2002188
:10086000022001F076F843A20021032001F071F884
:1008700010BD4648807AC006C00F002814D03DA2A3
:100880000021084601F065F841A20021012001F095
:1008900060F838A20021022001F05BF835A20021A7
:1008A000032001F056F8E3E73848807A4007C00F8C
:1008B000002814D02FA20021084601F04AF83AA2DD
:1008C0000021012001F045F83DA20021022001F0A5
:1008D00040F828A20021032001F03BF8C8E73E4879
:1008E000447A002C14D13DA20021084601F031F8D1
:1008F00040A20021012001F02CF844A20021022096
:1009000001F027F81BA20021032001F022F82CE0BF
:10091000012C14D143A20021084601F01AF847A285
:100920000021012001F015F838A20021022001F079
:1009300010F810A20021032001F00BF815E0022CA2
:1009400013D138A20021084601F003F829A20021A2
:10095000012000F0FEFF3FA20021022000F0F9FF7D
:1009600004A20021032000F0F4FF00BF80E7000094
:10097000C70200202020202020202020202020200E
:10098000202020202020202000000000B90200208C
:100990002020202020205043206D6F6465202020DF
:1009A0002020202000000000436F6D6D756E69638C
:1009B0006174696F6E206572726F722000000000B2
:1009C000202020706C6561736520636865636B200F
:1009D0002020202000000000080200202D3E204F93
:1009E0007065726174696F6E204D656E7520202090
:1009F0000000000053657276696365204D656E7571
:100A0000202020202020202000000000446174616C
:100A1000204D656E752020202020202020202020C1
:100A2000000000004F7065726174696F6E204D6543
:100A30006E75202020202020000000002D3E205335
:100A4000657276696365204D656E752020202020D3
:100A5000000000002D3E2044617461204D656E75DC
:100A600020202020202020200000000010B501229E
:100A70001921002001F0B8FA10BD000070B505463C
:100A800000261148068811480078002803D0104835
:100A900000780A2801DA002070BD64212846FFF79B
:100AA0006CFB002407E00B48005D28550020094935
:100AB0000855601C84B2B442F5DB0020034908707D
:100AC000014908803046E7E70600002005000020C5
:100AD000040000206000002070B5054600260024B8
:100AE00000F02AF9044652480078030003F097FC0E
:100AF0000705102638556B829A00002C07D000207D
:100B00004C4908804C4804700220494908708AE02A
:100B100048480088401C80B246490880022805DD0C
:100B20000020088002204249087006E04248007810
:100B3000A04202D000203E49087074E03E48007890
:100B4000A04209D1802680203C4908703A480470B0
:100B500003203749087002E000203549087062E040
:100B600035480078A04214D132480088401C80B239
:100B700030490880FF212D3188420DDD00202D49AC
:100B80000880402640202D4908700420284908701C
:100B900002E006202649087045E026480088401CEF
:100BA00080B224490880642805DD002008800520E3
:100BB0001F49087006E020480078A04202D00620B5
:100BC0001B4908702FE01C480078A0420ED119483C
:100BD0000088401C80B217490880642809DD002085
:100BE0000880202620201549087002E006201049C0
:100BF000087018E000200E4908700F480078802126
:100C00000840002806D180202040002802D0002083
:100C1000287070BD0948007801210843064606483F
:100C2000047800E000BF00BF2E706C7000BFF0E7DA
:100C3000490000204A0000204C0000204D00002008
:100C4000F8B505460E4600BF264C607800280ED049
:100C50002078287060786870A01CFFF7A0FA07461B
:100C6000A91CFFF7A6FA002060700120F8BD1D48FE
:100C70002238FFF794FA04466078002803D16078A0
:100C800060700020F2E72078287060786870A01CFF
:100C9000FFF785FA0746A91CFFF78BFA0020607062
:100CA0001048801F407B401CC1B20E48801F41731A
:100CB0001C38FFF774FA871D0A4922393846FFF7B6
:100CC00078FA0848801F407B042808DD0021054889
:100CD000801F417301461C391838FFF76AFA01205A
:100CE000C4E70000DC01002070B502460B460D4849
:100CF000002114E0555C06466E40304600240AE0B0
:100D0000C607F60F002E03D04010074E704000E0DB
:100D10004010661CF4B2082CF2DB4E1CF1B2994272
:100D2000E8DB70BDFFFF000001A000000148006883
:100D3000007A70474400002010B50221072000F01F
:100D400075FF002801D0012010BD0021072000F010
:100D50006DFF002801D00220F6E70021032000F0FB
:100D600065FF002801D00320EEE70021052000F0F8
:100D70005DFF002801D00420E6E70020E4E700B58D
:100D800001460B0003F04BFB0A1806080A0C0E1074
:100D900012141618032000BD0220FCE70120FAE718
:100DA0000420F8E70020F6E70020F4E70020F2E74F
:100DB0000020F0E70020EEE700BF00BF0020EAE7D8
:100DC00000218200014BD218117070470060004072
:100DD00000218200014BD218117070470060004062
:100DE000012202498300CA5470470000006100409C
:100DF000012202498300CA5470470000006100408C
:100E0000002202498300CA5470470000006100407C
:100E100010B504220121022000F01AFF0422022151
:100E2000084600F015FF04220321022000F010FF05
:100E3000042207210E2000F00BFF042200210120D4
:100E400000F006FF04220121084600F001FF042201
:100E50000221012000F0FCFE04220321012000F009
:100E6000F7FE04221146012000F0F2FE04220521C3
:100E7000012000F0EDFE04220621012000F0E8FE32
:100E800004220721012000F0E3FE0721012000F0E9
:100E900097FF00220221072000F0DAFE002211460F
:100EA000072000F0D5FE00221146032000F0D0FEFE
:100EB00000221146052000F0CBFE10BD014601299D
:100EC00004D002290ED004290ED10CE00848007885
:100ED000401C074A107010460078012801DC0120F0
:100EE000107002E001E000E000BF00BF0120704789
:100EF000540000200146012906D0022905D003290B
:100F000005D0042904D101E003E002E001E000E0A3
:100F100000BF00BF012070470146012906D0022909
:100F200005D0032905D0042904D101E003E002E043
:100F300001E000E000BF00BF012070470146012929
:100F400006D0022905D0032905D0042904D101E0E7
:100F500003E002E001E000E000BF00BF01207047B5
:100F60000146012906D0022905D0032905D004290C
:100F700004D101E003E002E001E000E000BF00BFB7
:100F8000012070470146012906D0022905D0032916
:100F900005D0042904D101E003E002E001E000E013
:100FA00000BF00BF012070470146012906D0022979
:100FB00005D0032905D0042904D101E003E002E0B3
:100FC00001E000E000BF00BF0120704770B505469A
:100FD0001F48447A1F48807A4007C00F002801D07C
:100FE000002070BD012D06D0022D0BD0032D28D07E
:100FF000042D27D10DE0002C02DD601EC4B200E0FC
:10100000022420E0022C02DA601CC4B200E00024BA
:1010100019E0002C05D102220721002000F0E4FF96
:101020000EE0012C05D103220721002000F0DCFF97
:1010300006E0022C04D104220721002000F0D4FF96
:1010400001E000E000BF00BF014844720120C8E792
:1010500008020020B902002070B506468148457A92
:10106000847A012E06D0022E38D0032E70D0042EA2
:101070006FD167E0002C06D1002D02DD681EC5B2DD
:101080002BE0022529E0002D06D1012C02DD601E97
:10109000C4B222E0032420E0012D1DD1002C01D197
:1010A00001241AE07048007802218843801C6E49B0
:1010B00008706E48417902790802104302280CDA60
:1010C0006A484179027908021043401C81B267489E
:1010D0000171090A417100E000BFBDE0002C06D19A
:1010E000022D02DA681CC5B22BE0002529E0002D94
:1010F00006D1032C02DA601CC4B222E0012420E0F5
:10110000012D1DD1002C01D101241AE05648007890
:1011100002218843801C544908705448417902795F
:101120000802104300280CDD50484179027908027A
:101130001043401E81B24D480171090A417100E01F
:1011400000BF89E0002D1FD1002C03D101243EE017
:101150003EE080E0012C05D106220721002000F0AE
:1011600043FF34E0022C05D106220721002000F0C5
:101170003BFF2CE0032C05D106220721002000F0C4
:1011800033FF24E0012422E0012D0CD1002C01D1F9
:1011900001241CE000243448007804218843001D09
:1011A0003149087013E0022D11D1002C01D1012426
:1011B0000DE0012C0BD102242B4800780421884338
:1011C000001D29490870002128488170C17043E042
:1011D000002D10D1002C0CD1234800780421884325
:1011E000001D2149087001220721002000F0FCFEAB
:1011F00030E000242EE0012D17D1012C08D100246D
:101200001948007804218843001D1749087021E01F
:101210001548007804218843001D134908700122F5
:101220000721002000F0E0FE14E0022D10D1002C78
:101230000CD10D48007804218843001D0A4908702C
:1012400001220721002000F0CFFE03E0002401E08E
:101250000025002400E000BF00BF024845728472F0
:10126000012070BD13020020B9020020C702002037
:1012700070B506462748457A847A012E06D0022E9C
:1012800016D0032E34D0042E3CD123E0002C06D1FE
:10129000002D02DD681EC5B209E0032507E0022D1E
:1012A00005D1012C02DD601EC4B200E003242AE057
:1012B000002C06D1032D02DA681CC5B209E0002516
:1012C00007E0022D05D1032C02DA601CC4B200E055
:1012D000012418E0022D09D1002C05D00722114667
:1012E000002000F081FE02E0012400E001240AE079
:1012F000002C05D101220721002000F075FE00E03E
:10130000002400E000BF00BF024845728472012043
:1013100070BD00001E02002070B506464A48457A9E
:10132000847A012E06D0022E15D0032E58D0042E1A
:1013300076D121E0002C06D1002D02DD681EC5B259
:1013400008E0012506E0012D04D1012C01D1022481
:1013500000E0012472E0002C06D1012D02DA681CA5
:10136000C5B208E0002506E0012D04D1012C01D111
:10137000022400E0012461E0002D19D1002C0BD1E2
:1013800001240120314988713148007802218843C5
:10139000801C2F49087022E0002400202B4988710E
:1013A0002B48007802218843801C2949087016E0E8
:1013B000012D14D1002C01D1012410E0012C01D108
:1013C00003240CE0022C01D1042408E0032C01D1F9
:1013D000012404E0042C01D1022400E000242DE0CB
:1013E000002C0FD10020194988711948007802217A
:1013F0008843801C1649087001220721002000F054
:10140000F3FD1BE0002D0CD1002400200F49887152
:101410000F48007802218843801C0D4908700BE0BA
:101420000BE0012D08D1032C01D1012404E0042C90
:1014300001D1022400E0002400E000BF00BF024808
:1014400045728472012070BD29020020C70200206D
:10145000B902002070B505461248447A012D06D025
:10146000022D0BD0032D11D0042D15D10DE0002C31
:1014700002DD601EC4B200E003240EE0022C02DA9A
:10148000601CC4B200E0002407E006E0012207214E
:10149000002000F0A9FD00E000BF00BF0248447238
:1014A000012070BD3402002008020020F8B5074674
:1014B0009448457A867A012F78D0022F04D0032FE2
:1014C00075D0042F74D1FEE0002E06D1032D02DA70
:1014D000681CC5B277E0002575E0002D1AD18A4856
:1014E00000780101894809184878097804020C43FA
:1014F0007D20C000844202DA601C84B201E07D24B9
:10150000E400814800780101804808180470210A2D
:10151000417058E0012D1AD17B48007801017B48C9
:101520000918C878897804020C437D20C0008442E1
:1015300002DA601C84B201E07D24E4007248007885
:101540000101724808188470210AC1703BE0022D25
:101550001AD16D48007801016C4809184879097959
:1015600004020C437D20C000844202DA601C84B275
:1015700001E07D24E4006448007801016348081814
:101580000471210A41711EE0032D1CD15E480078D0
:1015900001015E480918C879897904020C437D204D
:1015A000C000844205DA601C84B204E013E090E0DD
:1015B000A1E07D24E4005448007801015348081854
:1015C0008471210AC1715248007802218843801C2D
:1015D0004F49087090E0002E06D1002D02DD681EF4
:1015E000C5B268E0032566E0002D17D146480078B3
:1015F0000101464809184878097804020C43022C76
:1016000002DD601E84B200E001243F480078010141
:101610003E4808180470210A41704CE0012D17D192
:1016200039480078010139480918C87889780402D6
:101630000C43022C02DD601E84B200E0012432481B
:1016400000780101314808188470210AC17032E025
:10165000022D17D12C48007801012C48091848792F
:10166000097904020C43022C02DD601E84B200E002
:101670000124254800780101244808180471210A32
:10168000417118E0032D16D11F48007801011F4851
:101690000918C879897904020C43022C02DD601E06
:1016A00084B200E0012418480078010117480818A6
:1016B0008471210AC1711648007802218843801C78
:1016C0001349087018E0002E01D1012600E0002621
:1016D00012E0002E0DD10E48007804218843001D31
:1016E0000B4908700B4802780721002000F07CFCB1
:1016F00000E0002600E000BF00BF0248457286728D
:101700000120F8BD3F02002056000020D902002031
:10171000B90200205700002070B506463548457ACA
:10172000847A012E06D0022E28D0032E50D0042E0B
:1017300059D147E0002C06D1002D02DD681EC5B24C
:101740001BE0032519E0002D06D1012C02DD601EEF
:10175000C4B212E0012410E0012D06D1012C02DDFB
:10176000601EC4B209E0012407E0022D05D1012C5E
:1017700002DD601EC4B200E0012435E0002C06D179
:10178000032D02DA681CC5B21BE0002519E0002D0C
:1017900006D1012C02DA601CC4B212E0012410E070
:1017A000012D06D1012C02DA601CC4B209E001242B
:1017B00007E0022D05D1012C02DA601CC4B200E062
:1017C000012411E0002C01D1012400E000240BE0F1
:1017D000002C06D1084802780721002000F004FC04
:1017E00000E0002400E000BF00BF024845728472A0
:1017F000012070BD4A0200205900002070B5054646
:101800000C4600BF2001001B1A4A8018011D002051
:10181000FEF7CFFC2001001B16494018007B400852
:1018200040002101091B134A891808732001001B7D
:1018300011464018007B022188432101091B8918A9
:1018400008732001001B11464018007B04218843C7
:101850002101091B8918087302202101091B89181D
:1018600048732001001B81180020FEF7A2FC012014
:1018700070BD00009801002070B506460C46002E91
:1018800001D1E5B20EE0012E03D120464030C5B2B1
:1018900008E0022E03D120461430C5B202E02046F3
:1018A0005430C5B280212943084600F012F870BDBB
:1018B00010B5382000F00DF80C2000F00AF80620D2
:1018C00000F007F8012000F004F8802000F001F893
:1018D00010BD10B504460321022000F09FF901213C
:1018E000022000F09BF90221084600F097F92046FB
:1018F00002F0F6FC012003F098FA0321022000F028
:101900005FFA052003F091FA0321022000F086F926
:1019100010BD10B504460321022000F07FF901211B
:10192000022000F04DFA0221084600F077F9204627
:1019300002F0D6FC012003F078FA0321022000F027
:101940003FFA052003F071FA0321022000F066F946
:1019500010BDF7B5064614462046FEF719FC87B2BF
:1019600030460199FFF788FF002504E0605DFFF72E
:10197000D0FF681C85B2BD42F8DBFEBD01460129DF
:1019800004D0022903D0042903D101E002E001E0E0
:1019900000E000BF00BF012070470146012906D0CA
:1019A000022905D0032905D0042904D101E003E070
:1019B00002E001E000E000BF00BF012070470146E7
:1019C000012906D0022905D0032905D0042904D114
:1019D00001E003E002E001E000E000BF00BF012001
:1019E00070470146012906D0022905D0032905D0F8
:1019F000042904D101E003E002E001E000E000BFBF
:101A000000BF012070470146012906D0022905D0F8
:101A1000032905D0042904D101E003E002E001E03C
:101A200000E000BF00BF012070470146012906D039
:101A3000022905D0032905D0042904D101E003E0DF
:101A400002E001E000E000BF00BF01207047014656
:101A5000012906D0022905D0032905D0042904D183
:101A600001E003E002E001E000E000BF00BF012070
:101A700070470146012904D0022903D0042903D16B
:101A800001E002E001E000E000BF00BF012070477C
:101A900010B51C49487A097A0002084364280BDA19
:101AA0001849487A097A00020843401C81B2154857
:101AB0000172090A417206E01248807A04218843C3
:101AC000001D1049887210494878097800020843BF
:101AD000002804D00721012000F0A0F803E007212E
:101AE000012000F06DF9074800788007C00F00283A
:101AF00005D1044800784007C00F002801D000F04D
:101B000035FA10BDB9020020C702002070B50024CC
:101B10007DE02001001B40494018007B4007C00FBA
:101B2000002872D02001001B4018007B042188434C
:101B30002101091B384A891808732001001B11462E
:101B40004018007BC00801281DD12101091B8918FC
:101B500008460830FEF723FB05462001001B2E4AED
:101B60008018011D2846FEF724FB2001001B2A498E
:101B70004018007B02218843801C2101091B264A52
:101B8000891808730DE02001001B23494018007BD1
:101B9000C008002805D102202101091B1E4A89180E
:101BA00048732101091B1C4A8818FEF7F8FA00281F
:101BB00013D02001001B18494018007B400840004A
:101BC0002101091B144A891808732101091B88186F
:101BD000FEF7E5FA0546A84717E02001001B0E496D
:101BE0004018007B400840002101091B0A4A89185F
:101BF00008732101091B1346C9184A7B2101091BDF
:101C0000C918887B182100F0EFF9601CC4B2022CBF
:101C100000DA7EE770BD00009801002001238B40B0
:101C2000DAB2014B1A5470477000044010B50246F6
:101C300001208840C3B20120034CE076034810180D
:101C40000078184010BD0000600804400000044007
:101C500070B50C4615460123A340D9B22A462B0085
:101C600002F0DDFB070527435F65788CAA00534B24
:101C70001B5C8B43514E3354504B403B1B5C0B431E
:101C80004E4E403E33544D4B103B1B5C8B434B4EF2
:101C9000103E3354494B303B1B5C8B43474E303E28
:101CA0003354464B203B1B5C8B43444E203E335405
:101CB00082E0424B1B5C8B43404E33543F4B403BD6
:101CC0001E5C0E431E543D4B103B1E5C8E431E5447
:101CD0003A4B303B1B5C0B43384E303E3354374B52
:101CE000203B1E5C8E431E5466E0344B1B5C8B43D2
:101CF000324E3354314B403B1E5C0E431E542F4B2F
:101D0000103B1B5C8B432D4E103E33542B4B303B12
:101D10001E5C8E431E54294B203B1E5C8E431E547A
:101D20004AE0264B1B5C0B43244E335444E0234BC8
:101D30001E5C8E431E54214B403B1B5C8B431F4E4D
:101D4000403E33541D4B103B1B5C8B431B4E103EDF
:101D5000335431E0194B1B5C8B43184E3354174BF3
:101D6000403B1B5C8B43154E403E3354134B103BA2
:101D70001B5C0B43114E103E33541DE00F4B1B5C9C
:101D80008B430E4E33540D4B403B1E5C0E431E5492
:101D90000A4B103B1B5C8B43084E103E3354074BE1
:101DA000303B1E5C8E431E54044B203B1B5C0B439C
:101DB000024E203E335400BF00BF70BD600004409F
:101DC00001238B40DAB2014B1A54704710000440D3
:101DD00030B504460D46E9B22046FEF785FF0028DF
:101DE00000D030BD00201C49087248720846807A35
:101DF0000421884318498872607803280CD108466A
:101E0000807A10218843144988720846007802219C
:101E10008843114908701CE06078042806D10E48F8
:101E20000078042188430C49087012E0607810287B
:101E30000FD1094800788007C00F002809D1064853
:101E400000784007C00F002803D12946204600F043
:101E500001F900BFC5E70000B9020020704700008B
:101E600070B500F029FA7D21C9000C480068FEF722
:101E700067F905462C46601E0949884200D90CE0E6
:101E8000601E084948610321081F02F01FFB002063
:101E9000044988610720086100BF70BD0000002070
:101EA000FFFFFF0000E000E010B51E212048FEF714
:101EB00064F9002407E002202101091B1C4A89184B
:101EC0004873601CC4B2022CF5DB2E211948FEF7C2
:101ED00054F91849091D081DFEF76BF91549084604
:101EE0000830FEF766F914488078400940010C304C
:101EF000114988700846C07880098001C87008467A
:101F00004078FC2188430C494870487809780002E1
:101F10000843800A800208490870000A487001F0EE
:101F20004FFE00220121104600F05EF810BD0000B7
:101F300098010020B60100200A00002010B501F031
:101F4000EBFDC82002F071FF01F0E6FDC82002F0B1
:101F50006CFF01F0E1FDC82002F067FF01F0DCFD3D
:101F6000C82002F062FF01F0D7FD10BDF0B59BB0B4
:101F7000642102A8FEF701F90327194801904225C0
:101F8000012D01DA1BB0F0BD164800784007C00FE4
:101F9000002801D0042700E00327FA2168460172D7
:101FA00047728572002406E00198015DE01C02AAD8
:101FB0001154601CC4B2AC42F6DBE01CC1B202A8F2
:101FC000FEF792FE0646E01C02AA16543012211DAE
:101FD0005054601DC1B202A800F0C0FB00BFD1E7A1
:101FE000C7020020B9020020F7B582B006460F46AE
:101FF0001748FEF7D4F8044626706770A11C0498B1
:10200000FEF7D7F812482030007B401CC1B21048C0
:10201000203001732038FEF7C2F8801D0C49019072
:10202000FEF7C7F80A482030007B042807DD0021AE
:1020300007482030017306491838FEF7BAF8002522
:1020400000E06D1C052DFCDB012005B0F0BD00009B
:10205000B601002010B502460B460549002004E0F9
:10206000C41C145D0C54441CE0B24228F8D310BDCB
:10207000C7020020704700003949487809780002FB
:1020800008438005800D7D21C900884267DB344903
:102090004878097800020843800A8002304A517863
:1020A0001278090211437D22D200891A8905890D0F
:1020B00008432B490870000A487008464078FC2104
:1020C0008843274949788908491C8900FC22114026
:1020D0000843234948700846407880083B283EDD85
:1020E00008464078FC2188431D49497889083C39D5
:1020F0008900114008431A4948700846C078800991
:102100008001C978491C8906890E08431449C870A2
:102110000846C0788006800E3B2820DD0846C0783F
:1021200080098001C978091D8906890E08430C4978
:10213000C87008468078400940018978491CC90662
:10214000C90E08430649887008468078C006C00E4C
:10215000172804DD084680784009400188707047E0
:102160000A00002070B54F494878097800020843FA
:102170008005800D4C49884215DA4A49487809782B
:1021800000020843810A8902464A50781278000208
:102190001043401C8005800D014342480170090A2C
:1021A0004170FFF769FF41480078FA2804DA3F4898
:1021B0000078401C3D490870002448E02001001BC5
:1021C0003B494018007B8007C00F00283DD021010B
:1021D000091B374A8918081DFDF7E1FF002824D1A3
:1021E0002001001B32494018007B40084000401C81
:1021F0002101091B2E4A891808732001001B114672
:102200004018007B022188432101091B89180873AB
:102210002001001B11464018007B04218843001D4B
:102220002101091B891808730FE02101091B204AAD
:102230008918081DFDF7B3FF451E2001001B1C4A2D
:102240008018011D2846FDF7B4FF601CC4B2022CA3
:10225000B4DB002423E00C2060431649401880883A
:1022600000280BD00C20604340188088401E81B2AB
:102270000C2060430F4A801881800EE00C206043E0
:102280000C494018C1880C2060430A4A801881809C
:1022900001210C20604380180172601CC4B2042C20
:1022A000D9DB70BD0A000020FFFF00000400002001
:1022B000980100201000002000B5FEF721FA014926
:1022C000086000BD0000002000B5FEF719FA1449AF
:1022D00008608020134948710020C04312490860FB
:1022E000124908601248134908601049032212027B
:1022F000891848600D49891888600C498918C86098
:102300000A498918086109498918486107498918E3
:10231000886106498918C861AC200749487000BD2A
:10232000000000202004024080E200E000E100E024
:10233000C0C0C0C000E400E00010024038B5002476
:1023400024494878097800020843002800D038BDA5
:102350006846FEF7C1FB69464878FEF710FD014666
:10236000684641700078002832D0684600784128DD
:102370001FD004DC202823D0402828D112E0802858
:1023800002D0812823D106E0684642780921204600
:10239000FFF72AFE1BE0684642780A212046FFF735
:1023A00023FE14E0684642780B212046FFF71CFE0E
:1023B0000DE06846427810212046FFF715FE06E042
:1023C000684642780C212046FFF70EFE00BF00BF92
:1023D00000BFBCE7C702002010B5002413E00C20AA
:1023E00060430A494018007A00280AD00C21614352
:1023F000064A5058804700210C206043034A801849
:102400000172601CC4B2042CE9DB10BD1000002076
:10241000F8B504460D4616461F462001001B2E49FE
:102420004018407B022801D00020F8BD0020210187
:10243000091B294A891888732001001B114640187E
:1024400044732001001B8018011D2846FDF7B1FED2
:102450002001001B204A8018014608312846FDF75C
:10246000A8FE2001001B1C494018007B40084000CA
:102470002101091B184A891808732001001B114605
:102480004018007B02218843801C2101091B891808
:1024900008732001001B11464018007BF821884377
:1024A000F900F822114008432101091B0A4A891842
:1024B00008732001001B11464018007B042188434B
:1024C0002101091B891808732001001B811830465F
:1024D000FDF76FFE0120A8E798010020F8B505463A
:1024E0000E466A463146284600F0FCF80446002CA9
:1024F0001FD10320104988800846C08800090001C8
:10250000C8800846C0886946097808430A49C880D7
:10251000684640784006000C0849088268464078C2
:102520004006000C488204484088032108430249C1
:1025300048802046F8BD00002011044000130440EC
:1025400070B504460D464A480078042108434849BE
:10255000087003204749C8800A20FEF741FC0A2082
:10256000FEF72EFC0B20FEF73BFC0B20FEF728FCB1
:102570000C20FEF735FC0C20FEF722FC03210B207B
:1025800001F068FF03210A2001F064FF222039498D
:10259000203908823848088367204002374908827A
:1025A0003748007C01210843354908740720314928
:1025B00020394881FF2023304882324848836720F1
:1025C00040022E4948822B480089012108432949AD
:1025D00008810846808A2C49084026498882084696
:1025E0004089012108432349488100BF052027492C
:1025F00048762748C078022108432549C8702448F6
:102600002030C0780221884321492031C8702048F9
:102610004030C07C022188431D494031C8741C48A9
:102620006030C0780221884319496031C87000BF0A
:1026300000BF212015496031087215482030C0794B
:102640001021084312492031C87111486030C07907
:10265000102188430E496031C87100BF29462046C9
:10266000FFF73CFF064600F015F8304670BD00004D
:102670002004024020110440978000000013044011
:102680006004044097400000FEFF00000008044082
:102690000000044010B51248008901210843104988
:1026A000088108464089012108430D4948810846B0
:1026B0004088032108430A4948800A20FEF780FB2E
:1026C0000B20FEF77DFB0A20FEF79AFB0B20FEF79E
:1026D00097FB0A2001F0B2FE0B2001F0AFFE10BD07
:1026E00020110440F7B584B01646802003900024E2
:1026F0002BE06000174A115A0498FDF721FD019064
:1027000002251EE0691C0198FDF71AFD410802919F
:10271000114A0299514308460599FDF711FD0E49EA
:10272000471A381E01DB014600E04142142906DA4F
:102730003470757000200390039807B0F0BD681CDA
:10274000C5B2802DDEDB601CC4B2102CD1DB039837
:10275000F3E70000F44F00001027000070B50346B7
:102760000A461248007A012801D1002070BD0124D8
:102770000E482038C484828420300472002105E091
:10278000585C0A4C603C6054481CC1B29142F7DB73
:10279000064860380078064C20740A200025054C55
:1027A0008600A55500BF0120E0E7000024010020BD
:1027B000001304400061004070B59548457A847A62
:1027C000002D5BD1002C14D192A200210846FFF706
:1027D000C0F896A200210120FFF7BBF899A20021C2
:1027E0000220FFF7B6F89DA200210320FFF7B1F801
:1027F0000CE1012C14D19FA200210846FFF7A9F893
:10280000A2A200210120FFF7A4F8A6A20021022025
:10281000FFF79FF891A200210320FFF79AF8F5E057
:10282000022C14D1A5A200210846FFF792F8A9A214
:1028300000210120FFF78DF89AA200210220FFF766
:1028400088F886A200210320FFF783F8DEE0032C3E
:10285000CED19AA200210846FFF77BF88BA2002177
:102860000120FFF776F8A1A200210220FFF771F8FE
:102870007AA200210320FFF76CF8C7E0012D4BD1AD
:10288000002C14D19FA200210846FFF762F8A3A2F2
:1028900000210120FFF75DF86AA200210220FFF766
:1028A00058F86EA200210320FFF753F8AEE0012C88
:1028B0009ED1A0A200210846FFF74BF867A2002195
:1028C0000120FFF746F8A148417902790802104338
:1028D000002804D19EA200210220FFF73AF89B486D
:1028E0004179027908021043012804D19EA20021F7
:1028F0000220FFF72EF8954841790279080210432B
:10290000022803D19EA20021FFF723F853A2002141
:102910000320FFF71EF879E0022D77D1002C14D1A7
:1029200078A200210846FFF714F840A200210120F8
:10293000FFF70FF898A200210220FFF70AF847A23C
:1029400000210320FFF705F860E0012C17D198A2C1
:1029500000210846FEF7FDFF40A200210120FEF7FE
:10296000F8FF3EA200210220FEF7F3FF3BA2002168
:102970000320FEF7EEFF00209349087046E0022C8A
:1029800021D136A200210846FEF7E3FF33A2002141
:102990000120FEF7DEFF8DA200210220FEF7D9FF05
:1029A0002EA200210320FEF7D4FF87480078401CA8
:1029B000C0B2854908700F2828DD00200870032068
:1029C0001349887222E0032C20D124A2002108465A
:1029D000FEF7BFFF83A200210120FEF7BAFF1FA26E
:1029E00000210220FEF7B5FF1CA200210320FEF704
:1029F000B0FF75480078401CC0B2734908700F28BA
:102A000004DD0020087002494872887270BD000021
:102A1000130200202D3E2043616C6962726174696B
:102A20006F6E202020202020000000005549204CFF
:102A30004544204272696768746E65737320202074
:102A400000000000416374697661746520436C6521
:102A5000616E202020202020000000002020202067
:102A60002020202020202020202020202020202066
:102A7000000000002D3E205368616B656E20202011
:102A8000202020202020202000000000426C656EC5
:102A90006465642020202020202020202020202069
:102AA00000000000436F6C6420466F616D202020A1
:102AB0002020202020202020000000005368616B8F
:102AC000656E202020202020202020202020202073
:102AD000000000002D3E20426C656E64656420207D
:102AE0002020202020202020000000002D3E204318
:102AF0006F6C6420466F616D2020202020202020F4
:102B00000000000043616C6962726174696F6E203D
:102B10002020202020202020000000002D3E2055D5
:102B200049204C4544204272696768746E6573732E
:102B3000000000004272696768746E657373204C10
:102B40006576656C3A20202000000000C702002056
:102B50004C6F7720202020202020202020202020A3
:102B600020202020000000004D656469756D202044
:102B700020202020202020202020202000000000D5
:102B80004869676820202020202020202020202045
:102B900020202020000000002D3E20416374697633
:102BA00061746520436C65616E2020200000000088
:102BB000436F6E6669726D2E2E2E202020202020FD
:102BC000202020200000000055000020436C65619B
:102BD0006E696E672E2E2E2020202020202020209F
:102BE000000000002020202020202020446F6E655F
:102BF00021202020202020200000000030B587B0B8
:102C00009648457A847A002D4AD1002C14D194A29A
:102C100000210846FEF79DFE97A200210120FEF745
:102C200098FE9BA200210220FEF793FE9EA20021A7
:102C30000320FEF78EFE0FE1012CFCD1A0A20021A3
:102C40000846FEF786FEA448807A43065B0EA3A2E0
:102C50001421684601F0B0FB6A4600210120FEF70E
:102C600078FE9D49C87A897A000208434005030F1F
:102C7000A0A21421684601F09FFB6A4600210220B1
:102C8000FEF767FE9448C07AC308A0A214216846E4
:102C900001F092FB6A4600210320FEF75AFEDBE0BA
:102CA000012D38D1002C14D19EA200210846FEF738
:102CB00050FEA2A200210120FEF74BFE74A20021CB
:102CC0000220FEF746FE78A200210320FEF741FE17
:102CD000C2E0012CAFD19FA200210846FEF739FEC9
:102CE000A2A200210120FEF734FEA0A200210220B2
:102CF000FEF72FFE7848417B027B08021043034613
:102D0000A0A21421684601F057FB6A460021032067
:102D1000FEF71FFEA0E0022D5BD1002C14D181A292
:102D200000210846FEF715FE53A200210120FEF700
:102D300010FE9AA200210220FEF70BFE5AA20021EB
:102D40000320FEF706FE87E0012C14D199A2002192
:102D50000846FEF7FEFD9DA200210120FEF7F9FDC9
:102D6000A0A200210220FEF7F4FD80A20021032092
:102D7000FEF7EFFD70E0022C14D1A0A2002108465E
:102D8000FEF7E7FDA3A200210120FEF7E2FD95A2D8
:102D900000210220FEF7DDFD74A200210320FEF7D2
:102DA000D8FD59E0032C57D194A200210846FEF724
:102DB000D0FD86A200210120FEF7CBFD9BA20021C1
:102DC0000220FEF7C6FD69A200210320FEF7C1FD27
:102DD00042E0032D40D1002C14D152A2002108461C
:102DE000FEF7B7FD24A200210120FEF7B2FD28A2C4
:102DF00000210220FEF7ADFD92A200210320FEF784
:102E0000A8FD29E0012C27D194A200210846FEF755
:102E1000A0FD56A200210120FEF79BFD2E48417C1B
:102E2000027C080210434005030F32A214216846B9
:102E300001F0C2FA6A4600210220FEF78AFD264808
:102E4000407CC30831A21421684601F0B5FA6A46F5
:102E500000210320FEF77DFD07B030BD1E020020DB
:102E60002D3E20546F74616C204F6E2054696D6547
:102E70002020202000000000546F74616C20446901
:102E80007370656E73652054696D652000000000E5
:102E900044697370656E736520436F756E7473203B
:102EA00020202020000000004C61737420436C65DA
:102EB000616E202020202020202020200000000003
:102EC000546F74616C204F6E2054696D653A2020F8
:102ED0002020202000000000C70200202564207967
:102EE000656172202020202020202020202020200A
:102EF000200000002564206D6F6E74687320202010
:102F00002020202020202020200000002564206494
:102F100061797320202020202020202020202020C4
:102F200020000000546F74616C204F6E2054696D56
:102F30006520202020202020000000002D3E546F1E
:102F400074616C20446973702E2054696D65202073
:102F500000000000546F74616C20446973702E206F
:102F600054696D65202020200000000020202020D2
:102F70002020202020202020202020202020202051
:102F800000000000256420686F75727320202020E7
:102F90002020202020202020200000002D3E204442
:102FA000697370656E736520436F756E747320204E
:102FB000000000002D3E205368616B656E202020CC
:102FC000202020202020202000000000426C656E80
:102FD0006465642020202020202020202020202024
:102FE00000000000436F6C6420466F616D2020205C
:102FF0002020202020202020000000005368616B4A
:10300000656E20202020202020202020202020202D
:10301000000000002D3E20426C656E646564202037
:103020002020202020202020000000002D3E2043D2
:103030006F6C6420466F616D2020202020202020AE
:10304000000000002D3E204C61737420436C6561CC
:103050006E202020202020200000000054696D6593
:103060002053696E6365204C6173743A20202020E0
:103070000000000030B589B06C48457A847A6C480D
:103080008079002803D000206A4908714871002D1A
:103090003CD1002C14D168A200210846FEF759FC4F
:1030A0006BA200210120FEF754FC6FA20021022038
:1030B000FEF74FFC6CA200210320FEF74AFCB3E0B0
:1030C000012CFCD15A48C0790F280ADC5848C07935
:1030D000152148436A49421800210846FEF739FC89
:1030E00004E061A200210846FEF733FC5EA2002145
:1030F0000120FEF72EFC5CA200210220FEF729FC35
:1031000059A200210320FEF724FC8DE0012DD6D129
:10311000002C14D15BA200210846FEF71AFC5FA226
:1031200000210120FEF715FC4FA200210220FEF72E
:1031300010FC4DA200210320FEF70BFC74E0012CD3
:1031400014D15CA200210846FEF703FC5FA2002117
:103150000120FEF7FEFB44A200210220FEF7F9FB4E
:1031600041A200210320FEF7F4FB5DE0022C14D104
:103170005CA200210846FEF7ECFB60A200210120C2
:10318000FEF7E7FB38A200210220FEF7E2FB36A2A1
:1031900000210320FEF7DDFB46E0032C21D15DA2D8
:1031A00000210846FEF7D5FB2FA200210120FEF7E3
:1031B000D0FB2DA200210220FEF7CBFB1C48007A99
:1031C000002801D059A000E05AA003465BA21421B8
:1031D00001A801F0F1F801AA00210320FEF7B9FBD4
:1031E00022E0042C20D15AA200210846FEF7B1FBB0
:1031F0001DA200210120FEF7ACFB1BA20021022032
:10320000FEF7A7FB0A48407A002801D056A000E04C
:1032100057A0034649A2142101A801F0CDF801AA44
:1032200000210320FEF795FB09B030BD29020020E4
:10323000C7020020B90200202D3E20427574746F31
:103240006E20546573742020202020200000000090
:1032500053656E736F7220526561646F757473206D
:1032600020202020000000002020202020202020DE
:1032700020202020202020202020202000000000CE
:1032800014500000427574746F6E2054657374207E
:103290002020202020202020000000002D3E205350
:1032A000656E736F7220526561646F757473202050
:1032B000000000002D3E204C6F77204C6576656C39
:1032C000202020202020202000000000447269706F
:1032D00020547261792020202020202020202020CE
:1032E000000000004C6F77204C6576656C20202034
:1032F0002020202020202020000000002D3E2044FF
:1033000072697020547261792020202020202020B2
:10331000000000004C6F77204C6576656C2054658A
:10332000737420202020202000000000456D707460
:103330007920000046696C6C6564200053746174E8
:1033400075733A20257320202020202020200000A3
:103350004472696720547261792054657374202027
:10336000202020200000000048494748200000009D
:103370004C4F5720200000007047000030B585B04A
:103380009648457A847A002D41D1002C14D194A21C
:1033900000210846FEF7DDFA97A200210120FEF782
:1033A000D8FA9BA200210220FEF7D3FA9EA20021A8
:1033B0000320FEF7CEFA0EE1012CFCD1A0480078E4
:1033C000192148439F49421800210846FEF7C1FAD7
:1033D0009DA200210120FEF7BCFAA1A2002102203B
:1033E000FEF7B7FA964800780101A3480918487813
:1033F0000978000208430346A0A21421684600F0A1
:10340000DBFF6A4600210320FEF7A3FAE3E0012D6B
:1034100041D1002C14D19DA200210846FEF799FA53
:10342000A0A200210120FEF794FA79A20021022037
:10343000FEF78FFA7CA200210320FEF78AFACAE089
:10344000012CB8D17E480078192148437D494218A3
:1034500000210846FEF77DFA98A200210120FEF720
:1034600078FA7FA200210220FEF773FA74480078F0
:10347000010181480918C878897800020843034689
:103480007EA21421684600F097FF6A4600210320BF
:10349000FEF75FFA9FE0022D41D1002C14D17BA2F0
:1034A00000210846FEF755FA53A200210120FEF73D
:1034B00050FA88A200210220FEF74BFA5AA20021FE
:1034C0000320FEF746FA86E0012C9FD15C48007885
:1034D000192148435B49421800210846FEF739FA92
:1034E00082A200210120FEF734FA5DA20021022011
:1034F000FEF72FFA5248007801015F480918487911
:1035000009790002084303465CA21421684600F0D2
:1035100053FF6A4600210320FEF71BFA5BE0032DF0
:1035200059D1002C14D177A200210846FEF711FAD8
:1035300031A200210120FEF70CFA35A20021022061
:10354000FEF707FA75A200210320FEF702FA42E017
:10355000012C40D13A480078012814D140A2002122
:103560000846FEF7F6F973A200210120FEF7F1F9F3
:103570003BA200210220FEF7ECF939A20021032032
:10358000FEF7E7F927E02E480078192148432D4936
:10359000421800210846FEF7DCF96CA20021012048
:1035A000FEF7D7F92EA200210220FEF7D2F9244817
:1035B0000078010130480918C87989790002084368
:1035C00003462EA21421684600F0F6FE6A4600214A
:1035D0000320FEF7BEF905B030BD00003F02002019
:1035E0002D3E2054616C6C202020202020202020A3
:1035F00020202020000000004772616E64652020BA
:10360000202020202020202020202020000000003A
:1036100056656E7469202020202020202020202044
:1036200020202020000000005472656E746120206C
:10363000202020202020202020202020000000000A
:10364000560000207951000053697A653A20546190
:103650006C6C202020202020202020200000000052
:10366000202020202020202020202020202020205A
:103670002020202000000000D90200202564202006
:1036800020202020202020200000000054616C6CAD
:10369000202020202020202020202020202020202A
:1036A000000000002D3E204772616E6465202020DE
:1036B00020202020202020200000000053697A656F
:1036C0003A204772616E646520202020202020204F
:1036D000000000002D3E2056656E746920202020D9
:1036E00020202020202020200000000053697A653F
:1036F0003A2056656E74692020202020202020204A
:103700000000000054616C6C20202020202020202C
:103710002020202020202020090000002D3E2054C1
:1037200072656E746120202020202020202020201F
:10373000000000002020204E6F7420496D706C65E1
:103740006D656E74656420200000000053697A6521
:103750003A205472656E74612020202020202020A1
:103760000000000030B585B09948457A847A002D74
:1037700042D1002C14D197A200210846FEF7E9F8A7
:103780009AA200210120FEF7E4F89EA20021022067
:10379000FEF7DFF8A1A200210320FEF7DAF815E119
:1037A000012CFCD1A3A200210846FEF7D2F8A748BD
:1037B0000078800015214843A549421800210120C6
:1037C000FEF7C7F8A3A200210220FEF7C2F89F4827
:1037D00000780101A5480918487A097A00020843CF
:1037E0000346A3A21421684600F0E6FD6A460021C4
:1037F0000320FEF7AEF8E9E0012D43D1002C14D1EF
:10380000A1A200210846FEF7A4F8A5A200210120EC
:10381000FEF79FF87BA200210220FEF79AF87FA214
:1038200000210320FEF795F8D0E0012CB7D181A24A
:1038300000210846FEF78DF8844800788000401C7F
:10384000152148438249421800210120FEF781F8E2
:1038500080A200210220FEF77CF87C48007801015C
:1038600082480818C17A827A08021043034680A26F
:103870001421684600F0A0FD6A4600210320FEF7EF
:1038800068F8A3E0022D43D1002C14D17EA20021C0
:103890000846FEF75EF855A200210120FEF759F810
:1038A00085A200210220FEF754F85CA2002103202B
:1038B000FEF74FF88AE0012C9DD15EA20021084658
:1038C000FEF747F8614800788000801C15214843C6
:1038D0005F49421800210120FEF73BF85DA200215C
:1038E0000220FEF736F85948007801015F480818B1
:1038F000417B027B0802104303465DA21421684607
:1039000000F05AFD6A4600210320FEF722F85DE030
:10391000032D5BD1002C14D16DA200210846FEF7C7
:1039200018F832A200210120FEF713F835A2002179
:103930000220FEF70EF86CA200210320FEF709F822
:1039400044E0012C42D141480078012814D141A221
:1039500000210846FDF7FDFF69A200210120FDF7C7
:10396000F8FF3CA200210220FDF7F3FF39A200215D
:103970000320FDF7EEFF29E02EA200210846FDF707
:10398000E8FF324800788000C01C152148433049C8
:10399000421800210120FDF7DCFF2EA200210220A9
:1039A000FDF7D7FF29480078010130480818C17B8E
:1039B000827B0802104303462DA21421684600F0C2
:1039C000FBFC6A4600210320FDF7C3FF05B030BDB4
:1039D0004A0200202D3E2054616C6C2020202020C3
:1039E0002020202020202020000000004772616E4F
:1039F000646520202020202020202020202020203E
:103A00000000000056656E746920202020202020D0
:103A10002020202020202020000000005472656E0D
:103A20007461202020202020202020202020202001
:103A30000000000044697370656E736520436F7504
:103A40006E743A2020202020000000005800002042
:103A50000F52000020202020202020202020202085
:103A6000202020202020202000000000D90200205B
:103A700025642064697370656E736573202020204F
:103A8000202020202000000054616C6C2020202089
:103A900020202020202020202020202000000000A6
:103AA0002D3E204772616E6465202020202020205A
:103AB00020202020000000002D3E2056656E7469F5
:103AC0002020202020202020202020200000000076
:103AD00054616C6C202020202020202020202020D9
:103AE00020202020090000002D3E205472656E74B5
:103AF0006120202020202020202020200000000005
:103B00002020204E6F7420496D706C656D656E7459
:103B10006564202000000000AC2001494870704717
:103B20000010024010B504200849087200204872B5
:103B30008872091D0648FCF73CFB04490548FCF760
:103B400038FB0248FCF734FE10BD00001E020020C6
:103B5000B13C0000A93F000010B5012008490872DF
:103B60000020487201208872091D0648FCF721FBDD
:103B700003490548FCF71DFB0148FCF719FE10BD81
:103B800008020020653C0000953E000010B50720AB
:103B900008490872002048728872091D0648FCF71F
:103BA00008FB04490548FCF704FB0248FCF700FE4B
:103BB00010BD00004A020020A53D00003941000070
:103BC00010B5002405E00B48A1000B4A5050601CC2
:103BD000C4B2092CF7DBFFF7BFFF00F029F800F0B3
:103BE000DDFAFFF79FFF00F009F800F013FBFFF785
:103BF000CDFF10BD08020020E401002010B5052013
:103C0000084908720020487201208872091D064880
:103C1000FCF7CFFA03490548FCF7CBFA0148FCF75B
:103C2000C7FD10BD34020020ED3C000071400000D3
:103C300010B5022008490872002048728872091DD8
:103C40000648FCF7B6FA04490548FCF7B2FA024800
:103C5000FCF7AEFD10BD0000130200206D3C00001B
:103C6000453F000010B5FCF7E7FD10BD10B5FDF7AE
:103C70005DF8044600210B4801714171012C03D10C
:103C8000002009494872887208484179027908027F
:103C90001043022804DD0221044801710021417112
:103CA00010BD0000B902002013020020C70200204E
:103CB00010B5FDF73BF8044600200449087148712F
:103CC000072C02D002494872887210BDB902002048
:103CD00013020020002003490871487102498872CC
:103CE00048727047B90200202902002000200349D1
:103CF000087148710120024988727047B90200209A
:103D00003402002010B50020214908714871214972
:103D100088724872FDF70AF81F4908701F4800684A
:103D2000007A022829D11D480068407A002824D151
:103D30001A480068807A012803D1002018490870C9
:103D400024E016480068807A022803D10120144933
:103D500008701BE011480068807A032803D1022014
:103D60000F49087012E000200D4908700A480278D7
:103D700007210020FEF738F908E000200849087004
:103D80000548027807210020FEF72EF910BD00003B
:103D9000B90200203F02002057000020440000200C
:103DA0005600002010B500202149087148712149B2
:103DB00088724872FCF7BAFF1F4908701F480068F4
:103DC000007A042829D11D480068407A022824D1AD
:103DD0001A480068807A012803D100201849087029
:103DE00024E016480068807A022803D10120144993
:103DF00008701BE011480068807A032803D1022074
:103E00000F49087012E000200D4908700A48027836
:103E100007210020FEF7E8F808E0002008490870B4
:103E20000548027807210020FEF7DEF810BD0000EB
:103E3000B90200204A02002059000020440000205E
:103E40005800002070B50546002419E0A0000E4976
:103E50000858007AA84211D10C4800680C49086043
:103E6000A000094908580949086008460068001D73
:103E7000FCF795F90646B047012070BD601CC4B23E
:103E8000092CE3DB0020F8E7E401002040000020DB
:103E90004400002070B5044660780E2845D008DC48
:103EA00009280FD00A281DD00B282ED00C283ED16F
:103EB00033E00F283AD010281FD0192837D1FCF74B
:103EC000BBFC00BF00201D4908701D48807A4007D8
:103ED000C00F002805D01A48807A04218843184969
:103EE000887228E0002015490870A01CFCF757F9DB
:103EF000C5B22846FDF76AF81DE0A01CFCF74FF993
:103F0000C5B22846FDF7B5FD15E0A01CFCF747F942
:103F1000C5B22846FDF732FD0DE0A01CFCF73FF9C5
:103F2000C5B22846FCF7CAFF05E004E003E02046DE
:103F3000FCF746FC00BF00BF012070BD540000200C
:103F4000B902002070B5044660780B2815D004DC57
:103F5000092809D00A2820D107E00C2815D01928F3
:103F60001BD1FEF729FC1CE01BE0A01CFCF717F995
:103F7000C5B22846FDF770F813E0A01CFCF70FF956
:103F8000C5B22846FDF709FD0BE0A01CFCF707F9B8
:103F9000C5B22846FCF7AEFF03E02046FCF710FC54
:103FA00000BF00BF012070BD70B5044660780B28CB
:103FB00015D004DC092809D00A2820D107E00C28F4
:103FC00015D019281BD1FEF719FE1CE01BE0A01C20
:103FD000FCF7E5F8C5B22846FDF74AF913E0A01C46
:103FE000FCF7DDF8C5B22846FDF7E9FC0BE0A01CA4
:103FF000FCF7D5F8C5B22846FCF78EFF03E0204653
:10400000FCF7DEFB00BF00BF012070BD70B50446A9
:1040100060780B2815D004DC092809D00A2820D1A3
:1040200007E00C2815D019281BD1FFF723F81CE056
:104030001BE0A01CFCF7B3F8C5B22846FDF76CF9ED
:1040400013E0A01CFCF7ABF8C5B22846FDF7C9FC8D
:104050000BE0A01CFCF7A3F8C5B22846FCF76EFFE6
:1040600003E02046FCF7ACFB00BF00BF012070BDA1
:1040700070B5044660780B2815D004DC092809D0F7
:104080000A2820D107E00C2815D019281BD1FFF7EA
:1040900073F91CE01BE0A01CFCF781F8C5B22846B0
:1040A000FDF7D8F913E0A01CFCF779F8C5B2284653
:1040B000FDF7A9FC0BE0A01CFCF771F8C5B228467F
:1040C000FCF74EFF03E02046FCF77AFB00BF00BF81
:1040D000012070BD70B5044660780B2815D004DC53
:1040E000092809D00A2820D107E00C2815D0192862
:1040F0001BD1FFF743F91CE01BE0A01CFCF74FF8B5
:10410000C5B22846FDF7D2F913E0A01CFCF747F82A
:10411000C5B22846FDF789FC0BE0A01CFCF73FF870
:10412000C5B22846FCF72EFF03E02046FCF748FB0B
:1041300000BF00BF012070BD70B5044660780B2839
:1041400015D004DC092809D00A2820D107E00C2862
:1041500015D019281BD1FFF705FB1CE01BE0A01CA4
:10416000FCF71DF8C5B22846FDF7D6FA13E0A01CEF
:10417000FCF715F8C5B22846FDF769FC0BE0A01C5A
:10418000FCF70DF8C5B22846FCF70EFF03E0204609
:10419000FCF716FB00BF00BF012070BD10B5032067
:1041A00008490872002048728872091D0648FCF709
:1041B00000F804490548FBF7FCFF0248FCF7F8FA51
:1041C00010BD000029020020D53C00000D40000079
:1041D00010B50F494879097900020843401C80B2A4
:1041E0000B490871020A4A713C2800DA10BD00210F
:1041F000074801714171807A02218843801C04497B
:10420000887200210846FDF7F9FA00BFEEE70000CA
:10421000B902002010B50620084908720020487233
:1042200001208872091D0648FBF7C3FF03490548B2
:10423000FBF7BFFF0148FCF7BBFA10BD3F020020AF
:10424000053D0000D540000070B50446607809289F
:1042500011D100211F4801714171807A02218843E8
:104260001C498872FDF706FF01231B4A7D21C90006
:104270000020FEF7CDF81748807A8007C00F00288D
:104280000FD016480068007A012811D01348006842
:10429000007A08280CD0012207210020FDF7A4FE97
:1042A00006E060780C2803D100210A488170C170B3
:1042B0000A480068007A092807DA08480068FBF70E
:1042C0006EFF05462046A84702E02046FCF778FA34
:1042D00070BD0000B9020020D14100004000002064
:1042E00010B50446E007C00F002804D007210E20B7
:1042F000FDF766FD03E007210E20FDF78FFCA00708
:10430000C00F002804D000210120FDF759FD03E073
:1043100000210120FDF782FC6007C00F002804D0B7
:1043200001210846FDF74CFD03E001210846FDF799
:1043300075FC2007C00F002804D002210120FDF7E2
:104340003FFD03E002210120FDF768FCE006C00FFD
:10435000002804D003210120FDF732FD03E00321F2
:104360000120FDF75BFCA006C00F002804D004214B
:104370000120FDF725FD03E004210120FDF74EFC9F
:104380006006C00F002804D005210120FDF718FDAC
:1043900003E005210120FDF741FC2006C00F0028A5
:1043A00004D006210120FDF70BFD03E006210120CA
:1043B000FDF734FC10BD00000FB47CB50C0009AD56
:1043C00001D0611E00E0002101910090074B6A4678
:1043D0002946089800F080F9002C02D0009A0021AC
:1043E00011707CBC08BC04B018470000154E0000DA
:1043F0002021020C01D010211046020A01D01046E3
:104400000839020901D01046091F820801D0104660
:10441000891E420801D0881E7047081A704730B4C0
:104420007446641E2578641CAB4204D3635D5B0054
:10443000E31830BC18471D46F8E70000002805DBEC
:10444000C206D20E01219140014A1160704700005E
:1044500000E100E010B5002819DB1A4A03231B0213
:10446000D21883089B00D2588307DC0EFF23A34099
:104470009A438B071B0E8407E40EA3401A43114B8B
:10448000032424021B198408A4001A5118E00E4AC0
:1044900003071B0F083B9B089B00D2588307DC0EC9
:1044A000FF23A3409A438B071B0E8407E40EA3400F
:1044B0001A43054B0407240F083CA408A4001A5112
:1044C00010BD000000E100E01CED00E010B5002888
:1044D00019DB1A4A03231B02D21883089B00D25807
:1044E0008307DC0EFF23A3409A438B071B0E840730
:1044F000E40EA3401A43114B032424021B19840821
:10450000A4001A5118E00E4A03071B0F083B9B0832
:104510009B00D2588307DC0EFF23A3409A438B07EE
:104520001B0E8407E40EA3401A43054B0407240F17
:10453000083CA408A4001A5110BD000000E100E0EE
:104540001CED00E002E008C8121F08C1002AFAD1E1
:1045500070477047002001E001C1121F002AFBD103
:1045600070470000F0B51FB486B00998089A030D93
:104570000021024314D05148514A181850430514E1
:104580001198012810981AD0281A401C00264D4F67
:104590004D49009601910490002812DA444211E03E
:1045A0001198012449A3012801D11098C14306980C
:1045B000119A84600360C26041600BB0F0BD40425C
:1045C000E4E70446210500203F4A001C51410391C5
:1045D000029012E0E00707D032463B46019900986E
:1045E000FBF7D4FE0191009032463B461046194637
:1045F000FBF7CCFE06460F466410002CEAD1049867
:10460000039B0028029A0999089806DAFBF7BEFE78
:10461000019B009AFBF7BAFE05E0FBF71FFF019B29
:10462000009AFBF71BFF04460E460022284BFBF7BF
:10463000ADFF03D80020C043014607E00022254B10
:1046400020463146FBF7EEFDFBF780FF102409E022
:10465000002C0ADB0A220023FBF7B4FD079B303253
:104660001A55641E02460A43F2D11122641C079BAC
:10467000121B1C19119B012B03D0012308430ED1DF
:104680000AE0084304D0112010900020119077E731
:104690001098151A6D1E0BE01098824202DD00235F
:1046A0006D1C03E0824201DA00236D1E002BEED068
:1046B000069811998260C16030C07EE701FCFFFF5F
:1046C000104D0000000014400000F03F30000000DA
:1046D0000000F0430000E03FFFB597B0064600251C
:1046E0001BE2252876D100242746F749049400E0F0
:1046F0000443761C32780120203A90400842F7D1DA
:1047000030782A280ED00222307801463039092923
:1047100016D804990A235943303940181443761C9B
:104720000490F1E7189802C804911890002904DA5F
:104730000120400304434842049002200443761CB5
:1047400030782E2814D1042004437078761C2A284F
:1047500009D11898761C80C8189009E00A214F43A7
:10476000303FC719761C3078014630390929F5D910
:1047700030786C2810D006DC4C281AD068280ED06F
:104780006A2817D104E0742813D07A2812D110E0D7
:104790000120400504430CE00121090501E003214B
:1047A00009050C437178814203D1012000052418CA
:1047B000761C761C307866280BD013DC58287DD008
:1047C00009DC00287BD04528F6D04628F4D04728BD
:1047D0001AD1A9E118E0632835D0642870D0652883
:1047E00012D1A1E170286CD008DC6728F1D06928CB
:1047F0007DD06E280DD06F2806D1BCE073282ED056
:10480000752873D0782859D01A9A199990476D1C39
:1048100082E16002400F022809D003280DD004284D
:10482000189801680DD00D60001D189074E118985B
:10483000EA1701680D604A60F6E7189801680D8074
:10484000F2E70D70F0E718986A4601781172001DC2
:1048500018900020507202A80090012005E01898DE
:1048600002C8189000200091C04361070ED50021B6
:1048700001E00199491C0191B94213DA8142F8DB48
:10488000019A0099895C0029F3D10BE0002101E035
:104890000199491C01918142FADB019A0099895CD6
:1048A0000029F5D1019904981A9B471A21463846E8
:1048B000199A00F099FA4019019903E051E030E1AA
:1048C00015E050E0451807E0009800990078491C71
:1048D00000911A9A199990470198401E0190401C26
:1048E000F2D1214638461A9B199A12E137E00A2084
:1048F0000021009001916002410F022907D0189A0F
:1049000001CA1892C2179446032908D00AE01898E1
:10491000C01DC108C90005C91891944607E000B23E
:10492000C2179446042902D140B2C1178C46002216
:104930006146944506DA0A460021404291418C4680
:104940002D2102E0210504D52B216A461173012196
:1049500003E0E10701D02021F7E7029156E00A20A9
:104960000AE0102008E010200090002104200443F9
:104970000191082703E008200021019100906002C6
:10498000410F022907D0189A01CA189200229446B2
:10499000032908D008E01898C01DC108C90005C93E
:1049A0001891944603E080B2042900D1C0B20021DE
:1049B000029121072AD531780D91702906D0009AED
:1049C0001021019B4A401A4305D00EE040216A465F
:1049D0001173012108E06146014306D030216A4687
:1049E00011730D99517302210291009A0821019BC4
:1049F0004A401A430AD16146014301D1610705D5F6
:104A000030216A46117301217F1E029131785829A5
:104A100004D02EA10E910DA90D910DE030A1F9E762
:104A20006146019B009AFBF7CDFB0E9B8C469B5C7D
:104A30000D9A521E0D92137061460143F0D10D98EC
:104A400005A9081A20300190600703D50120000451
:104A5000844300E001270198874201DD381A00E015
:104A60000020019900904118029809180498401AF2
:104A70000490E00306D421461A9B199A049800F08A
:104A8000B3F94519002706E003A81A9AC05D1999E1
:104A900090476D1C7F1C02988742F5DBE0030CD524
:104AA00021461A9B199A049800F09EF9451904E0D2
:104AB0001A9A3020199990476D1C0099481E009051
:104AC0000029F5DC1FE000000928010030313233F5
:104AD000343536373839616263646566000000003A
:104AE0003031323334353637383941424344454624
:104AF000000000000D980D990078491C0D911A9A3C
:104B0000199990476D1C0199481E01900029F1DC0C
:104B10004DE100F059F94519761C3078002800D095
:104B2000DFE528461BB0F0BD600700D406271898C3
:104B3000C01DC108C90048680A680831C30FDB07F7
:104B40001891190001D09CA108E0210501D59BA175
:104B500004E0E10701D09AA100E09AA1430010917E
:104B600030785B0865280CD006DC452809D046283B
:104B70001DD0472841D141E0662818D067283CD194
:104B80003CE00021112F01DB112000E0781C019195
:104B9000009008A911A8FFF7E5FC139905910021E1
:104BA000119A15927F1C12980197009150E00120F4
:104BB000C00703900120019008A9009711A8FFF7F2
:104BC000D1FC139A149905920022119B009212981D
:104BD0001593059A0192002901D0104602E0791C34
:104BE00040180190381A01D5019804E04042401E57
:104BF0000090781C0190C01B029043E0012F00DA66
:104C000001270021112F01DD112000E0384601911C
:104C1000009008A911A8FFF7A5FC13990591119A16
:104C20000021129815920091019721070CD4059943
:104C3000B94201DB019900E00191012904DD159AD7
:104C4000491E515C302906D0B84201DA011D05DA4F
:104C50000121029115E00199491EEDE7002805DCCC
:104C60000099411800910199091A03E0019A411C29
:104C7000914200DD01910099401A401C02900120F0
:104C8000C0070390200706D402990198814202DBF5
:104C90000020C043029000206946C87707AF012179
:104CA00003980337C907884224D0022011902B2093
:104CB0001290039800280CDA404203902D201290A5
:104CC00007E00A210398FBF73BFA30317F1E03907F
:104CD00039701199481E11900029F2DC03980028C0
:104CE000EFD1791E129808703078202108404530A5
:104CF000BF1E387006A8C01BC01D03901098007816
:104D0000002800D00120019941180298C017091805
:104D1000039809180498401A401E0490E00306D432
:104D200021461A9B199A049800F05EF845191098CC
:104D30000078002803D01A9A199990476D1CE00357
:104D400024D521461A9B199A049800F04DF845196C
:104D50001CE00098002807DB00990598884203DDD5
:104D60001598405C199901E0199930201A9A9047DA
:104D700000986D1C401C00900298401E0290002874
:104D800004D11A9A2E20199990476D1C0199481E3A
:104D900001900029DDDC05E038781A9A7F1C19990A
:104DA00090476D1C0399481E03900029F4DC2146AE
:104DB0001A9B199A0498ACE62D0000002B00000005
:104DC0002000000000000000F8B5044600251E4643
:104DD0001746880404D405E039462020B0476D1CEE
:104DE000641EF9D52846F8BDFFB50446002581B0FC
:104DF0001E46C80301D5302700E02027880404D5CB
:104E000005E038460399B0476D1C641EF9D5284665
:104E100005B0F0BD4A68002A06D00A68531C0B6032
:104E200010704868401E4860704770B50446A00086
:104E3000251800242CE000BF00BF00BF00BF00BF4A
:104E400000BF00BF00BF00BF00BF00BF00BF00BF6A
:104E500000BF00BF00BF00BF00BF00BF00BF00BF5A
:104E600000BF00BF00BF00BF00BF00BF00BF00BF4A
:104E700000BF00BF00BF00BF00BF00BF00BF00BF3A
:104E800000BF00BF00BF00BF00BFFEF745FE641CAF
:104E9000AC42D0D370BD0000002102488184C1849F
:104EA000018570476E0100201CB50025FCF7D8FF76
:104EB000FBF7AEFFFDF700FA4B2109021848006826
:104EC000FDF73EFB0646802E01D100BFFEE7FCF752
:104ED000EFFCFDF733F8FFF7DFFFFCF7E5FFFBF72B
:104EE0000EFCFCF7BBFF1AE0FEF716FE02E0684678
:104EF000FFF7AAF929466846FBF7A2FE0028F6D17B
:104F0000FCF704FEFDF768FA0648FBF7B7FD044618
:104F1000002C04D021460348034A12689047E3E777
:104F200000000020550200205C00002010B50B207E
:104F3000FBF74EFF134800780F2804DD00201249CC
:104F400008801249087000200E4908701048807CC3
:104F500010490D4A128888540B480088012802DD48
:104F600001200A49087008480088622804DA0648C7
:104F70000088401C044908800348008806490880CE
:104F800010BD0000040000200800002005000020E3
:104F900000130440600000200600002010B50A2025
:104FA000FBF716FF1148808C01281AD90F48C08CD6
:104FB0000E494039085C0E4908740C48C08C401CEE
:104FC00081B20A48C184818CC08C81420CD10021FD
:104FD0000648C1848184203001720A20FBF708FF53
:104FE00002E00A20FBF704FF10BD000004010020CE
:104FF000001304400100020004000800100020001B
:1050000040008000000100020004000800100020A1
:10501000004000805368616B656E203A206E756CAD
:105020006C2020202020202000426C656E64656486
:10503000203A206E756C6C20202020202000436FC9
:105040006C6420466F616D203A206E756C6C202078
:105050002020005368616B656E203A2054616C6CAF
:1050600020202020202020005368616B656E203AAC
:10507000204772616E646520202020200053686103
:105080006B656E203A2056656E74692020202020C2
:1050900020005368616B656E203A205472656E740F
:1050A00061202020202000426C656E646564203AF7
:1050B0002054616C6C20202020202000426C656E02
:1050C000646564203A204772616E64652020202068
:1050D00000426C656E646564203A2056656E7469A2
:1050E000202020202000426C656E646564203A20F8
:1050F0005472656E74612020202000436F6C642020
:10510000466F616D203A2054616C6C202020200095
:10511000436F6C6420466F616D203A204772616E68
:105120006465202000436F6C6420466F616D203AF7
:105130002056656E746920202000436F6C64204601
:105140006F616D203A205472656E746120200046B4
:105150004C4F5720202020202020202020202020BD
:10516000202020002020202020202020202020205F
:10517000202020202020202000547970653A2053E0
:1051800068616B656E202020202020202000000018
:105190000000547970653A20426C656E6465642045
:1051A0002020202020200000000000547970653A63
:1051B00020436F6C6420466F616D2020202020000A
:1051C00000000000547970653A205368616B656E89
:1051D0002020202020202020000000000054797092
:1051E000653A20426C656E64656420202020202092
:1051F000200000000000547970653A20436F6C6411
:1052000020466F616D202020202000000000005308
:1052100068616B656E203A2054616C6C2020202000
:10522000202020005368616B656E203A2047726130
:105230006E64652020202020005368616B656E201D
:105240003A2056656E746920202020202000536883
:10525000616B656E203A205472656E746120202067
:10526000202000426C656E646564203A2054616CB5
:105270006C20202020202000426C656E6465642034
:105280003A204772616E64652020202000426C65E0
:105290006E646564203A2056656E74692020202073
:1052A0002000426C656E646564203A205472656E1D
:1052B00074612020202000436F6C6420466F616D74
:1052C000203A2054616C6C2020202000436F6C64D5
:1052D00020466F616D203A204772616E6465202020
:1052E00000436F6C6420466F616D203A2056656EF6
:1052F000746920202000436F6C6420466F616D202C
:105300003A205472656E7461202000002C53000016
:105310000000002060000000444500008C530000A5
:1053200060000020B00600005445000000000000AE
:1053300000000000000000000000000079200000D4
:1053400064006400000000003D230000050005002B
:10535000000000006D0A0000C800C8000000000046
:10536000911A0000C800C8000000000008020020D8
:105370000802002000000000000000000000000003
:0C5380000000000100010000D11D000031
:04000005000000C532
:00000001FF
