:020000040800F2
:1000000000350020A9010008B1010008B301000873
:10001000B5010008B7010008B901000800000000A0
:10002000000000000000000000000000BB0100080C
:10003000BD01000800000000BF010008F908000829
:10004000C3010008C3010008C3010008C301000880
:10005000C3010008C3010008C3010008C301000870
:10006000C3010008C3010008C3010008C301000860
:10007000C3010008C3010008C3010008C301000850
:10008000C3010008C3010008C3010008C301000840
:1000900000000000C301000800000000C3010008C8
:1000A000C3010008C3010008C3010008C301000820
:1000B000C3010008C3010008C3010008C301000810
:1000C00000000000C301000800000000C301000898
:1000D000C3010008C3010008C3010008C3010008F0
:1000E000C3010008C3010008C3010008C3010008E0
:1000F000C3010008C3010008C3010008C3010008D0
:1001000000000000C3010008C3010008C30100088B
:10011000C3010008C3010008C3010008C3010008AF
:10012000C3010008C3010008C3010008C30100089F
:10013000C3010008C3010008000000000000000027
:10014000C301000800000000000000008105000855
:10015000000000000000000000000000C3010008D3
:10016000000000000000000000000000000000008F
:10017000000000000000000000000000000000007F
:100180000000000000000000C3010008C3010008D7
:10019000DFF810D000F04CF800480047097A00085A
:1001A000AFF300800035002006488047064800472E
:1001B000FEE7FEE7FEE7FEE7FEE7FEE7FEE7FEE717
:1001C000FEE7FEE701090008910100082DE9F05F54
:1001D0000546002092469B468846064681464024B6
:1001E0001BE0284641464746224600F042F8534667
:1001F0005A46C01A914110D311461846224600F0C3
:1002000029F82D1A67EB01084F46224601200021EC
:1002100000F020F817EB00094E41201EA4F1010464
:10022000DFDC484631462A464346BDE8F09F0000E1
:10023000064C074D06E0E06840F0010394E8070033
:1002400098471034AC42F6D3FFF7A6FF348200087B
:1002500054820008202A04DB203A00FA02F1002030
:1002600070479140C2F1200320FA03F319439040F4
:100270007047202A04DB203A21FA02F0002170475F
:1002800021FA02F3D040C2F12002914008431946FE
:1002900070472DE9F043054616461F4608464FF0C5
:1002A000000C002423E0002319E003F1010805FB02
:1002B00008F804F10109B8FBF9F28A4202D9A2EB6D
:1002C000010801E0A1EB02084246904202D9104623
:1002D00033703C7010B94FF0010C02E05B1C402BF6
:1002E000E3D300BFBCF1000F00D002E0641C042C7B
:1002F000D9D300BFBDE8F083014600224FF0E023D0
:100300001A61CA005A6100229A6105221A6100BF6F
:100310004FF0E022106900F001021AB100F48032BF
:10032000002AF5D04FF0E022126922F001024FF0CE
:10033000E0231A6100229A61704700000149C860F9
:10034000704700000020024010B5044608480069CC
:1003500040F002000649086108464461006940F027
:100360004000086140F6FF7000F034F810BD000056
:10037000002002400B48C06800F0010008B10120D5
:1003800070470848C06800F0040008B10220F7E791
:100390000448C06800F0100008B10320F0E7042012
:1003A000EEE70000002002400348006940F08000B2
:1003B00001490861704700000020024002480349DB
:1003C00048600348486070472301674500200240A9
:1003D000AB89EFCD10B5014600BFFFF7CBFF02465A
:1003E000491EFF2300E05B1E002BFCD1012A01D136
:1003F0000029F2D10020044C20613420E06009B9CA
:10040000052010BD1046FCE700200240F0B5024672
:10041000CF7807F00F05CF7807F010070FB18F786E
:100420003D431446002016E087063B0E0F884FF030
:10043000010C0CFA00FC07EA0C0757B1D4F800C015
:100440000F279F402CEA070705FA03FC47EA0C0731
:100450002760471CF8B20828E6DB141D0F883E12FF
:10046000002012E087063B0E01278740374057B136
:10047000D4F800C00F279F402CEA070705FA03FCB9
:1004800047EA0C072760471CF8B20828EADBCF7858
:10049000282F06D15769B1F800C047EA0C07576109
:1004A00008E0CF78482F05D11769B1F800C047EAB6
:1004B0000C071761F0BD70B54D07EB0E082902DA85
:1004C00000F1200501E000F124052C460F269E4096
:1004D0002568B54302FA03F63543256070BD4161D6
:1004E0007047016170474FF6FF71018002218170F2
:1004F0000421C1707047000008B50121022000F0FE
:1005000047F80121042000F043F86846FFF7EBFFAD
:100510000F2205211848FFF7CEFF0F2200211748B0
:10052000FFF7C9FF2020ADF8000001208DF8020080
:1005300010208DF8030069460F48FFF767FF012080
:10054000ADF800008DF8020010208DF80300694618
:100550000A48FFF75BFF20210748FFF7C2FF012190
:100560000648FFF7BEFF20210348FFF7B8FF01212F
:100570000248FFF7B4FF08BD00080440000404402F
:1005800010B50248006802F05FF810BD18000020A6
:1005900029B1064A926A0243044B9A6204E0034A74
:1005A000926A8243014B9A62704700000010024039
:1005B00029B1064AD26A0243044BDA6204E0034AD4
:1005C000D26A8243014BDA62704700000010024099
:1005D00000B500F02DF804494968C1F30311034A3E
:1005E000515CC84000BD00000010024032000020F5
:1005F00000B5FFF7EDFF04494968C1F30221034A42
:10060000515CC84000BD00000010024032000020D4
:1006100000B5FFF7DDFF04494968C1F3C221034A71
:10062000515CC84000BD00000010024032000020B4
:1006300010B5194C646804F00C04042C06D0082C86
:1006400006D00C2C23D149F6404022E0134820E08C
:10065000114CA46C04F0010444B10F4CA46C04F0E0
:1006600002040CB10E4C02E00C4C00E00B4C234693
:10067000094CA46CC4F30644611C074CA46CC4F37D
:100680000224621C03FB01F4B4FBF2F001E0034816
:1006900000BF00BF10BD00000010024000127A0031
:1006A00000093D0010B50A48006820F0180008490C
:1006B00008600846006840F00100086000BF044878
:1006C000406800F003000228F9D100F003F810BDE3
:1006D0000060014000B587B00020039002907C4884
:1006E000006840F001007A49086000BF784800685F
:1006F00000F002000028F9D07548006840F480300E
:10070000734908600520FFF7F7FD724800687249D9
:10071000884210D96E48006B40F080506C490863E5
:100720006E48006820F440406C4908600846006844
:1007300040F44040086010E06548006800F4003074
:100740000290029800B109E00398401C03900398BE
:10075000B0F5485F01D307B000BDEDE700BF5C48CE
:10076000006800F4003010B900200290F3E7012087
:1007700002900520FFF7C0FD5748564908605848C9
:10078000006840F01000564908600846006820F0F4
:10079000070008604F480068401E5249B0FBF1F066
:1007A00006904F480068069901F0070108434C493C
:1007B00008604748406843F6F07188434449486000
:1007C0000846406840F0900048600846406848602D
:1007D000404800684449884206D93D48406840F492
:1007E000A0603B4948600AE03A4800683F498842B7
:1007F00005D93748406840F48060354948606B4609
:1008000001AA344801683A48FFF743FD3048806C3C
:1008100020F003002E4988640846806C40F00100F7
:1008200088649DF8000000F0070004909DF8040023
:1008300000F07F0005900846006B40F08050086390
:100840000846806C2B4908402149886405980004BB
:10085000049940EA01201E49896C08431C498864B8
:100860000846006840F08070086000E000BF18484B
:10087000006800F000700028F8D01548406820F0AB
:100880000300134948600846406840F00200486091
:1008900000E000BF0E48406800F00C000828F8D1C6
:1008A0000120FFF729FD0A48406820F010000849A0
:1008B00048600120FFF720FD0548406820F08000D7
:1008C000034948600120FFF717FD00BF43E7000020
:1008D000001002400000002000D8B8050070004061
:1008E0000020024000366E0100A24A040051250299
:1008F00000127A00FFF880FF10B500F033F810BD49
:1009000010B51448006840F001001249086008461C
:100910004068114908400F494860084600680F497F
:1009200008400C4908600846006820F480200860F0
:100930000846406820F443004860084600680849BB
:100940000840044908604FF41F008860FFF7AAFEC2
:1009500010BD0000001002400CC0FFF8FFFFF6FEC3
:10096000FFFF8F000448006820B103480068401E64
:1009700001490860704700001400002008B50121FB
:100980000220FFF705FE072206211948FFF793FD15
:10099000072211461648FFF78EFD6846FFF7A3FDB4
:1009A0004020ADF8000001208DF8020018208DF8DD
:1009B000030069460E48FFF729FD8020ADF80000CE
:1009C00004208DF8030069460948FFF71FFD4FF426
:1009D0000040ADF8000010208DF80300694604487F
:1009E000FFF714FD4FF400410148FFF778FD08BD03
:1009F000000404401FB5044601211020FFF7D8FD74
:100A0000684600F05BF8009430208DF80400002068
:100A10008DF806008DF808008DF80C001820ADF850
:100A20000A006946044800F00FF80121024800F06E
:100A300005F8FFF7A3FF1FBD00380140826922F0CF
:100A400001020A438261704770B504460D460026D4
:100A5000E06920F0300029790843E061E06920F086
:100A60004400A9790843E061E06920F00300297A95
:100A70000843E061A06920F0180069890843A0617B
:100A8000A06920F00400297B0843A0610A48844241
:100A900003D1FFF7BDFD064602E0FFF7A9FD0646BC
:100AA0002868B6FBF0F0000920622868B6FBF0F079
:100AB00000F00F00606270BD003801404FF4165125
:100AC0000160302101710021817101721821418181
:100AD00000210173704730B503460020002107E074
:100AE00003F54674645CFF2C00D003E04C1CE1B2BB
:100AF0000829F5DB00BF08291CDA002217E003F5FE
:100B00004674645C012595402C4074B903F5467425
:100B1000645C012595402C43E5B203F546746554A9
:100B200002EBC104641CE0B203E0541CE2B2082AE8
:100B3000E5DB00BF30BD000010B5002400F00CF96B
:100B4000054A0649002001F06DFB044604B110BDC2
:100B500001F0E4FB00BFFAE79D1000081800002038
:100B60002DE9FF5F81468B4616461F464D46B9F17B
:100B7000000F03D1032004B0BDE8F09FD5F8148323
:100B80000EE098F87701B04208D198F87801B842A1
:100B900004D100210F9801600220ECE7D8F8008012
:100BA000B8F1000FEDD14FF4BE7004F004FA044622
:100BB0004E490C600CB90C20DDE7C4F8049084F8B1
:100BC00073B1012084F87201032084F871010020C0
:100BD00084F87501012084F876011B2004F0EBF9FC
:100BE000C4F85401D4F8540140B9D4F8540104F0C5
:100BF000F3F9204604F0F0F90C20BCE7D4F85401D6
:100C00001230C4F86C0184F8776184F878710E981A
:100C100084F87B01BBF1020F10D00E9801280DDD86
:100C20003146484600F071FD84F879013A46314674
:100C3000484600F099FD84F87A0103E084F8796170
:100C400084F87A71A86804F0DAF92846FFF743FFC0
:100C50008246BAF1000F0BD1A86804F0D3F9D4F89A
:100C6000540104F0B9F9204604F0B6F9012082E7F6
:100C700084F874A1D5F814032060C5F8144301204A
:100C800084F87001A86804F0BDF9009400208DF884
:100C90000B008DF80A008DF809008DF80800082077
:100CA000ADF8060000208DF80C0040F6B830ADF825
:100CB00004006A4604F5AC71484603F001FD50B1EA
:100CC0000F980460D4F8540104F086F9204604F02B
:100CD00083F901204FE7022084F87001204603F0D9
:100CE000BDFE0F980460002045E70000440000208E
:100CF0002DE9FC4104460D4617464FF000082646F4
:100D000004B115B90320BDE8FC8100950197D6F820
:100D1000101330686A468B69012198478046404627
:100D2000F1E72DE9F04105460C4617461E46E169FC
:100D3000CE806760A6602246D5F85811686804F036
:100D400022F830B12146686800F0E2F90120BDE8E0
:100D5000F0810020FBE700000848406820F44000D4
:100D6000064948600846406840F4800048600846EC
:100D7000406A40F080004862704700000010024066
:100D80002DE9F04780468946444600264FF0010A87
:100D90000027B8F1000F02D10320BDE8F087666894
:100DA000B06804F02CF911E0CB207843334901EB13
:100DB000800090F82803012806D1CB20784301EB6E
:100DC0008000B04200D103E0781CC7B2002FEBD006
:100DD00000BF27B1B06804F015F90120DDE74146F6
:100DE000304604F02DF820B1B06804F00BF9012072
:100DF000D3E7B9F1000F13D000250CE004F108008F
:100E000000EB8510484504D1032104F5B27041552B
:100E100005E0681CC5B294F85201A842EEDC00BFA0
:100E200094F8760120BB4FF0010A002509E004F593
:100E3000B270405D022802D14FF0000A05E0681C44
:100E4000C5B294F85201A842F1DC00BFBAF1010F1B
:100E500003D12146304603F055FFB06804F0D2F8C4
:100E6000BAF1010F07D12146606803F002FF02E0EA
:100E7000B06804F0C7F800208FE70000D408002015
:100E80002DE9F04104460E460027254604B116B967
:100E90000320BDE8F081D5F810132868CA683146F0
:100EA000904707463846F4E773B5044600262546C2
:100EB0000CB903207CBDD5F81013286801AA8B69F2
:100EC0000221984706463046F4E710B5044620460E
:100ED00001F078FC10BD2DE9F04106460F46904622
:100EE000354616B90320BDE8F081A86804F087F8FC
:100EF000D5F8144309E094F87701B84204D194F886
:100F00007801404500D102E02468002CF3D100BFF5
:100F1000A86804F077F824B12146304600F003F8C1
:100F2000E1E70020DFE72DE9F04105460E463446B3
:100F30002F4605B116B90320BDE8F081002084F8E2
:100F4000760194F87001012819DB94F870010928E2
:100F500011DAD4F8580128B100223846D4F85811D3
:100F6000FFF7C6FE2146384603F0CCFE2146384640
:100F700003F07FFE03E00221204603F0FFFA002089
:100F8000DAE700002DE9F04106460F4615464FF01E
:100F9000000834463946606800F0BAF815B94FF0D9
:100FA000010825E00A2D0CD194F87201002805DD16
:100FB00094F87201401E84F8720119E04FF00108A4
:100FC00016E00E2D01D1BDE8F08194F871010028E2
:100FD0000DDD04F5B174E07B401EE0730120207448
:100FE000002020800220A073A4F5B17400E0EAE79D
:100FF000B8F1010F48D1012084F8720194F8700112
:10100000401E254901EBC000406838B994F87001D2
:10101000401E11F8300084F8700135E094F870013A
:10102000401E1D4A02EBC000416820468847054625
:1010300045B994F87001401E174911F8300084F842
:10104000700121E0092D09D194F87001401E124968
:1010500001EBC000407884F8700115E0082D00D144
:10106000B1E794F8710100280DDD04F5B174E07B5F
:10107000401EE07301202074002020800220A07315
:10108000A4F5B17400E09EE7204603F0E7FC00B150
:1010900099E700BF97E70000808100082DE9F04143
:1010A00005460E4614460027012C06D0022C16D009
:1010B000032C0DD0042C19D106E0224631462846D7
:1010C00001F020FF074612E00BA004F07BFF0EE0CA
:1010D00022463146284601F015FF074607E0224622
:1010E0003146284601F00EFF074600E000BF00BF72
:1010F0003846BDE8F0810000646576696365206E5E
:101100006F7420737570706F727465642E0D0A00B1
:1011100070B506460D4634460EB9032070BD0DB9B4
:101120000020FBE7A06803F06AFFD4F80C032860F6
:10113000C4F80C53A06803F065FF0020EEE7000040
:1011400008B9014A0A607047B8810008F8B5002460
:101150000025684603F085FE3CE0CB206043214932
:1011600001EB800090F82803012831D0CB206043A8
:1011700001EB8006002002E000213154401CB0F554
:101180004B7FF9D30121CB206043164A02EB80004C
:1011900080F82813009803F007FF002510E012489C
:1011A00000EBC41000EBC501CB2060430D4A02EBFD
:1011B00080000C3005EB450200EB0210C1616D1C94
:1011C000102DECD3CB206043064901EB8000F8BD25
:1011D000601CC4B2002CC0D0009803F0E5FE0020D3
:1011E000F5E70000D4080020000C00202DE9F041B4
:1011F00006460F461546344606B115B90420BDE82B
:10120000F081102F50D2DFE807F04F0813172E1F80
:10121000231B100C323A2742474B94F87501286083
:1012200044E0D4F85801286040E0606828603DE060
:1012300094F87701286039E094F87801286035E067
:1012400094F87B01286031E094F8790128602DE062
:1012500094F87A01286029E094F87711606800F02A
:10126000FEFA286022E094F8730128601EE0D4F8AA
:101270005401817AC07A41EA0020286016E0D4F84F
:101280005401017A407A41EA002028600EE0B4F867
:101290006201401E286009E0D4F85C01286005E086
:1012A000B4F86001286001E00120A8E700BF002039
:1012B000A5E700002DE9F84F05460E46174698466B
:1012C000DDE90AABDDF830902C46E06910B1022070
:1012D000BDE8F88F6946606801F025FB08B1012080
:1012E000F6E70D98A0620E98E0620098C0F804B08E
:1012F0000098C0F80890134800990861009844616C
:101300000098C06906700098C06947700098C0696D
:10131000A0F802800098C069A0F804A00098C069F5
:10132000A0F8069021696068009A03F02CFD28B1AE
:1013300060680099FFF7ECFE0120C9E70098E061C2
:101340000020C5E7A1130008F0B585B007460C469C
:1013500015461E4600200190CDE9020523460122D4
:101360002021049600903846FFF7A4FF05B0F0BD99
:101370002DE9F04186B007460C4615461E46DDF8BD
:101380003080002001902B4601222321CDE9036803
:10139000009402903846FFF78DFF06B0BDE8F0815B
:1013A0002DE9F04105460E4617462C460020E06127
:1013B000A06A28B1F26871683B46D4E90AC0E047E8
:1013C00031466068FFF7A4FEBDE8F0812DE9F047E3
:1013D0000546884691461E462C46606800F0F4F9A2
:1013E00007460FB9BDE8F08794F84900012800D1FD
:1013F000F8E74EB1002084F84800786084F8470090
:10140000204600F0E7F9EDE794F84800012806D1FE
:10141000002084F84800204600F0D2FA09E094F851
:101420004800022805D1002084F84800204600F03A
:1014300023FC00BFD6E72DE9F04106460D462C46B9
:1014400016B90320BDE8F08105B3606960B10022E0
:1014500061696068FFF74CFC074661696068FFF7E7
:101460000FFD074600206061206938B1E06928B1AE
:10147000E26921696068FFF73BFC07463046E16896
:10148000FFF77EFC204603F0A7FD03E00021304675
:10149000FFF776FC0020D5E72DE9FF4F87B00F4618
:1014A00000200590079800F08FF905461DB901202E
:1014B0000BB0BDE8F08F0A98012804D002287FD035
:1014C00003287CD130E0DDF824B04FF0000A24E09E
:1014D0000BEB8A19D9F83000407906900698092854
:1014E00000D016E0D9F8300080790690069800B157
:1014F0000FE003AA07213846FFF778FE0398052876
:1015000000D906E0634807606348C0F800900020F7
:10151000CEE70AF1010000F0FF0A9BF84A015045AE
:10152000D6DC08200590B2E05A480068002844D074
:1015300059480068002840D003AA07213846FFF721
:1015400055FE56A0039904F03DFD03AA012138463B
:10155000FFF74CFE57A0039904F034FDE86840B94A
:1015600005F10C0003F03EFD0290029808B1002046
:10157000E86004A94748006800F0A3F90590049CBE
:10158000E86803F03CFDA8682060AC60E86803F000
:1015900039FD059888B9012084F84800022084F8B4
:1015A0004400484B00223C4800940168049800F035
:1015B0009FFD10B1012084F8440068E000E065E080
:1015C0000024E86803F01BFDAE68B068B84203D1A0
:1015D00034463068A8600CE0346807E0A068B84280
:1015E00002D12068306003E026462468002CF5D143
:1015F00000BFE86803F006FD002C3DD06868A042FB
:1016000001D10020686003AA0721A068FFF7EEFD62
:101610002DA0039904F0D6FC03AA01213846FFF758
:10162000E5FD24A0039904F0CDFC012084F84900D5
:101630004FF0000813E0A06968B1A06950F83800C5
:1016400048B1A26952F838106068FFF76CFC0020BE
:10165000A16941F8380008F1010000F0FF0894F892
:1016600045004045E7DCA06910B1A06903F0B4FC77
:1016700021463846FFF7DFFEA86830B9E86820B198
:10168000E86803F0B9FC0020E86000E000BF00BF9C
:1016900005980DE760000020640000206875622056
:1016A00061747461636865643A6C6576656C3D2548
:1016B00064200000616464726573733D25640D0AE3
:1016C00000000000CD130008687562206465746135
:1016D000636865643A6C6576656C3D25642000003E
:1016E0002DE9F04186B007460C4615461E46DDF84A
:1016F0003080002003460622A0218DE87101384683
:10170000FFF7D8FD06B0BDE8F0812DE9FC410746A2
:101710000D46384600F058F8064616B90120BDE8D7
:10172000FC81B46809E001AA0121A068FFF75EFD11
:101730000198854200D102E02468002CF3D100BF5B
:1017400084B101AA0421A068FFF750FD0198022886
:1017500001D1009504E06A460521A068FFF746FD27
:101760000098DCE70020DAE72DE9FC4180460D46D1
:101770001646404600F028F8074617B90120BDE894
:10178000FC81BC6809E001AA0121A068FFF72EFDD9
:101790000198854200D102E02468002CF3D100BFFB
:1017A00084B101AA0421A068FFF720FD0198022856
:1017B00001D1009604E06A460521A068FFF716FDF6
:1017C0000098DCE70020DAE7014601487047000096
:1017D0000010002038B5044604B938BD94F848001C
:1017E00000B1FAE7009494F84500012101EBE00212
:1017F000054B04F13B01204600F0B0F810B903207E
:1018000084F8480000BFE8E70F1900082DE9F0430D
:1018100085B007460C4615461E46DDE90C890023B7
:101820001A46A32138468DE87003FFF743FD05B043
:10183000BDE8F0832DE9F04186B007460C46154619
:101840001E46DDF83080002003460246A0218DE8C8
:1018500071013846FFF72EFD06B0BDE8F081F8B5FE
:1018600007460D463846FFF7AFFF06460EB9012082
:10187000F8BDB46809E06A460121A068FFF7B6FC2C
:101880000098854200D102E02468002CF3D100BF0B
:101890000CB1208EECE70020EAE72DE9F041054687
:1018A0000E4617462C46206A28B1F26871683B46FE
:1018B000D4E908C0E04731466068FFF729FCBDE87D
:1018C000F081F8B505460E464C2003F074FB044643
:1018D0000CB90C20F8BDA5600020E0606A46082124
:1018E0002846FFF783FC009860606A460921284675
:1018F000FFF77CFC009820616A4607212846FFF725
:1019000075FC009884F8320034600020E2E72DE98D
:10191000F0470546884691461F462C466068FFF70B
:1019200053FF06460EB9BDE8F08794F84900012838
:1019300000D1F8E7002084F848004FB1E06958B9B9
:101940000020706084F847002046FFF743FF03E063
:101950002146304600F036F900BFE4E72DE9F843B0
:1019600005460E4617469846DDF820902C4615B9D8
:101970000320BDE8F8836946606800F0D4FF08B131
:101980000120F6E7C4F82080C4F82490009846604F
:10199000009887600948009908610098446161696E
:1019A0006068009A03F026F928B160680099FFF793
:1019B000AFFB0120DDE70020DBE700009B180008FB
:1019C0002DE9FC410446002600270020019094F8F0
:1019D000440008287DD2DFE800F0040506194F66B0
:1019E000A7DD00BFDCE0032084F84400744B07222D
:1019F00004F1330120460094FFF772FE20B9012064
:101A000084F84800012700E0CAE0C9E004F133058A
:101A100001AA0C21A068FFF7E9FB01982086E8786D
:101A2000C0F3411001900198401CC0000190208E2D
:101A3000019908442086A87884F8450094F8450068
:101A4000072801D9BDE8FC81042084F844000094F3
:101A500094F84500072101EBE000421C584B04F1CB
:101A600033012046FFF73CFE20B9012084F84800EE
:101A7000012700E094E093E094F84510C80003F0DB
:101A80009AFAA061A06918B9012084F8440087E09F
:101A9000052004F8440F0020A07014F8440905281C
:101AA00000D07DE000BF94F8460094F845108842CD
:101AB00017DA94F84600401C84F84600009494F825
:101AC00046103F4B0822204600F094FB30B901201D
:101AD00000E064E084F84800012701E001265FE0AF
:101AE0005EE0002084F84700019013E00020A16927
:101AF000019A41F832000120A169019A01EBC2016B
:101B000048710220A169019A01EBC2010871019894
:101B1000401C019094F8450001998842E6D80020C5
:101B200084F8440001263BE03E20015D94F83F002C
:101B300041EA00200190002084F84400019800F060
:101B4000010080B123461E4A00212046FFF7FCFB1E
:101B500038B9012084F84800072084F844000127A0
:101B600017E0012615E0019800F0020080B123463D
:101B7000134A01212046FFF7E7FB38B9012084F81A
:101B800048000127072084F8440002E0012600E015
:101B9000012605E0002084F84400012600E000BF93
:101BA00000BF012E06D1002084F844002046FFF734
:101BB00011FE03E017B9012084F8440000BF41E79B
:101BC000CD130008F8B505460C460127002644E071
:101BD00006F007010120884004F13B0101EBE6011A
:101BE00009780840002836D0E6B9686828B16868E6
:101BF000A04230D194F8470068BB062084F8440026
:101C00001C4B042204F13C0120460094FFF712FE15
:101C100018B1002084F844001DE0012084F8480039
:101C20000027F8BD686860B16868A04202D194F8E6
:101C3000470030B16868A0420DD194F84700B04227
:101C400009D1E06930B96C6084F84760002720460C
:101C500000F012F805E0701CC6B294F84500B042DE
:101C6000B6DA00BF012F02D12046FFF7B3FD00BF57
:101C7000D7E70000CD13000870B5044694F847007C
:101C8000401EA16901EBC005286818B9204600F084
:101C900005F802E0204600F071F970BD2DE9FE4321
:101CA000044694F84700401EA16901EBC0054FF0BF
:101CB00000096068FFF788FD8046B8F1000F01D188
:101CC000BDE8FE8328790B287BD2DFE800F0060709
:101CD000081C7B8FB8C0D4F1F00000BF3AE10320AC
:101CE0002871A548CDE9000494F84710042304F1B5
:101CF00040022046FFF78AFD20B9022084F8480000
:101D00004FF0010926E100274320005D0106422033
:101D1000005D41EA00414120005D41EA002094F865
:101D2000401040EA010606F4803080B1042028719A
:101D3000009494F84710904B10222046FFF718FBB0
:101D400020B9022084F848004FF0010902E106F0B2
:101D50000100B0B106202871009494F84710864B1A
:101D60000422204600F046FA50B9022084F84800C8
:101D70004FF001096879002802DD6879401E68711A
:101D8000E8E006F4801008B1142708E006F40030FB
:101D900008B1112703E006F4002000B113277FB13A
:101DA00002202871009494F84710734B3A4620465D
:101DB000FFF7DEFA20B9022084F848004FF001094D
:101DC000C8E0C6E0052028716B48CDE9000494F80E
:101DD0004710042304F140022046FFF717FD20B905
:101DE000022084F848004FF00109B3E04320005D71
:101DF00001064220005D41EA00414120005D41EAC8
:101E0000002094F8401040EA010606F00100A8B155
:101E100006202871009494F84710574B042220465E
:101E200000F0E8F950B9022084F848004FF00109A9
:101E30006879002802DD6879401E68718AE0072011
:101E400028714FF001092046FFF7C4FC82E008200A
:101E500028714948CDE9000494F84710042304F19F
:101E600040022046FFF7D2FC20B9022084F8480047
:101E70004FF001096EE04320005D01064220005D45
:101E800041EA00414120005D41EA002094F8401001
:101E900040EA010606F4801020B3687990B90A2060
:101EA000287106F4806020B10220A8710CE02EE0B9
:101EB00019E006F4007010B10120A87104E00020C0
:101EC000A87101E009202871009494F847102A4B6A
:101ED00014222046FFF74CFA20B9022084F848006B
:101EE0004FF0010936E0052028712348CDE90004B0
:101EF00094F84710042304F140022046FFF786FCC3
:101F000020B9022084F848004FF0010922E002AA1B
:101F10000121A068FFF76AF994F83200401CC0B2B2
:101F2000CDE9000594F84730DDF808C00CF0FF0259
:101F3000A9796068FEF714FE4FF00109002084F8CB
:101F40004700C8F80400012068712046FFF742FCF2
:101F500000E000BF00BFB9F1000F0BD102202871D3
:101F6000002084F84700C8F804000120687120466A
:101F7000FFF730FC00BFA3E6CD1300082DE9FC41BC
:101F8000044694F84700401EA16901EBC0054FF0DC
:101F900000086068FFF718FC07460FB9BDE8FC8130
:101FA00028790B2821D005DC48B1012808D00A285F
:101FB0007AD106E00C284ED00D28F9D15FE000BFA1
:101FC00085E00B2028714948CDE9000494F84710BA
:101FD000042304F140022046FFF718FC20B9022038
:101FE00084F848004FF0010871E04320005D0106CD
:101FF0004220005D41EA00414120005D41EA0020AD
:1020000094F8401040EA01060C20287106F4803054
:1020100070B1009494F84710344B10222046FFF71B
:10202000A7F920B9022084F848004FF001084EE0DB
:1020300006F4003070B1009494F847102B4B112235
:102040002046FFF795F920B9022084F848004FF0A8
:1020500001083CE000BF0D2028712448CDE90004B0
:1020600094F84710042304F140022046FFF7CEFB0A
:1020700020B9022084F848004FF0010827E04320EF
:10208000005D01064220005D41EA00414120005D03
:1020900041EA002094F8401040EA010606F00100F1
:1020A00018B10A20287110E010E04FF0010802205A
:1020B000287129686068FEF736FF00202860786084
:1020C00084F847002046FFF785FB00E000BF00BF13
:1020D000B8F1000F08D10A2028710020786084F838
:1020E00047002046FFF776FB00BF57E7CD130008F7
:1020F0002DE9F04F85B08046894693469A4644467E
:10210000CDF810900025B8F1000F03D1032005B0E1
:10211000BDE8F08FC4F80C904946A06802F07AFA46
:1021200006460EB13046F2E7606960B1002261698F
:102130006068FEF7DDFD064661696068FEF7A0FE97
:1021400006460020606100273EE007EB4701049847
:1021500050F82150A87800F08000802832D1E8782B
:1021600000F0030003282DD1A068009003208DF813
:102170000B0001208DF80A00A87800F00F008DF800
:102180000900A8798DF808002979687941EA0020CA
:10219000C0F30A00ADF806002979687941EA002009
:1021A00000208DF80C0040F6B830ADF804006A4607
:1021B00004F11401606802F083FA06460EB10120B2
:1021C000A5E706E0781CC7B2049890F83C00B84236
:1021D000BBDC00BFBBF1000F08D1BAF1000F07D084
:1021E00000231A4619460E98D04701E001208EE7D9
:1021F00030468CE72DE9F04186B007460C4615467F
:102200001E46DDF83080002001902B46032223215A
:10221000CDE90368009402903846FFF74BF806B00A
:10222000BDE8F0812DE9F04706460F4690464FF095
:10223000000A0024A1460025FEF788FF044614B9D1
:102240000320BDE8F08704F544713046FEF778FFBF
:10225000D4F8100320B9204602F048FD0620F0E72C
:10226000D4F810030068B8B1D4F81003406898B1EE
:10227000D4F81003806878B1D4F81003C06858B15E
:10228000D4F81003006938B1D4F81003406918B1CC
:10229000D4F81003806908B90120D2E784F82963D3
:1022A000C4F804800020C4F8140304F1080002F00C
:1022B00099FE20B1204602F019FD0120C1E704F18A
:1022C0000C00C4F80C03D4F80C9301250BE005EBCB
:1022D000450104F10C0000EB0110C9F80000D9F829
:1022E0000090681CC5B2102DF1D3D4F8100322461B
:1022F00021460368304698478246BAF1000F01D163
:10230000206838B9A06802F077FE204602F0EEFCA3
:10231000012096E73C60002093E7000070B543225F
:10232000114608460323002804DB1C07250E0D4C2C
:10233000255406E01C07260E0B4C00F00F052D1F40
:10234000665500BF48B2002809DB00F01F040123D6
:10235000A3404409A40004F1E024C4F8003100BF04
:1023600070BD000000E400E018ED00E02DE9F04150
:1023700006460F4614464FF0000816B90320BDE884
:10238000F081012F06D0022F0CD0032F10D0042F84
:1023900018D112E025463046D5E9001203F0BBF80B
:1023A000804610E02178304603F050F880460AE07D
:1023B000304603F0A7F9206005E00221304603F023
:1023C000D9F800E000BF00BF4046D8E72DE9F84348
:1023D00080460D4646462C46684602F042FD04B350
:1023E000207C01281DD1B068A84206D1B0680068E1
:1023F000B060284602F0F0FD16E0B46827460DE014
:10240000207C48B1AC4207D1206838601CB120461E
:1024100002F0E2FD002403E027462468002CEFD1FF
:1024200002E004A003F0CEFD009802F0BDFD002004
:10243000BDE8F8837573625F6B6863695F636C6F97
:1024400073655F7069706520696E76616C69642080
:1024500070697065200A00002DE9F843054688463A
:1024600016464FF0000947480068009028460128AA
:1024700001DA284610B10620BDE8F883382002F0C2
:102480009AFD0446404804601CB9002030600C20CE
:10249000F2E728465DF8200020600020A060C4F824
:1024A0000480442002F087FDE06220B9204600F05D
:1024B0008DF80C20E0E704F1100002F093FD0746D0
:1024C0003FB132A003F07EFD204600F07FF80120EE
:1024D000D2E7012104F10C0002F0E2FCE06838B917
:1024E00030A003F06FFD204600F070F80C20C3E729
:1024F000002084F8310084F832006061A06100217E
:102500002820015540202168C1F89400002021684E
:10251000C1F89400FF202168C1F880002068D0F83D
:10252000940040F002002168C1F894002648C0F3EE
:1025300007202168C1F89C002348C0F307402168A8
:10254000C1F8B0002048000E2168C1F8B400FF2097
:102550002168C1F8AC0000202168C1F88C00082077
:102560002168C1F894002068D0F8840040F044004D
:102570002168C1F88400002084F8300034604846A7
:102580007AE70000D4810008480000206B68636986
:10259000206D7574657820696E6974206661696C58
:1025A0000D0A0000206D656D616C6C6F63206661C3
:1025B000696C656420696E207573625F6B6863691E
:1025C0005F696E69740A0000000E002070B5054650
:1025D0002C46FF202168C1F880002068D0F88400D4
:1025E00020F0FF002168C1F884002068D0F898002E
:1025F00020F07F002168C1F898002068D0F894008E
:1026000020F0FF002168C1F894002068D0F89800FD
:1026100020F080002168C1F89800E06810B1E068FF
:1026200002F06EFC206910B1206902F0E5FCE06A5E
:1026300020B1E06A02F0D0FC0020E062204602F007
:10264000CBFC0024002070BD70B5064606B970BDF5
:10265000346830E02068D0F88000C5B22068D0F837
:102660008400054005B927E02068C0F8805005F0D7
:10267000040018B10821E06802F052FC05F04000A7
:1026800058B12068D0F8840020F040002168C1F8DB
:1026900084000121E06802F043FC05F0080018B155
:1026A0000421E06802F03CFC05F0010018B10221B1
:1026B000E06802F035FCCDE700BF00BFC7E72DE9B9
:1026C000F84F81468A4615464E46684602F0C9FBD9
:1026D000182002F070FC04462CB9304602F07CFC55
:1026E0000C20BDE8F88FB06808B9B46007E0B7689F
:1026F00001E0B8463F68002FFBD1C8F80040002039
:102700002060009802F050FC28686060687AA0742D
:10271000A87AE074287AE081E888A081E87A2075B8
:10272000287B6075A8886081002060740120207477
:102730004FF6FF702081207D012805D1287A401EA8
:1027400001218140E18103E0287A03F076F8E081FD
:10275000CAF800400020C4E72DE9F0470746884644
:1027600014464FF000093E464546207A00F003002B
:1027700018B9207900F0030048B1F06A10B90D20B3
:10278000BDE8F087A889402801D90D20F8E7A561A8
:102790000020E060688918B94FF4FA70A08501E064
:1027A0006889A0850320E085304602F0B7FFA0626B
:1027B0002146384603F051F82021F06802F0B0FBC2
:1027C0004846DDE73EB504460020019004B93EBD11
:1027D0002068029001A80090029901230022C86895
:1027E000FF2102F0AFFB00283BD1019800F001006F
:1027F00030B1029802F048FD0020029981F83000C3
:10280000019800F0020010B1029803F0BFF801989F
:1028100000F0100010B1029802F0BEFE019800F026
:10282000080078B1029890F8300058B9029890F8F2
:10283000360038B10120029981F830001049029821
:1028400003F0B6FA019800F0040050B10C4800689B
:1028500038B10B492068096802F0CCFE029981F872
:102860003000029890F8360020B10549029803F034
:102870009FFA02E0029803F05FFA00BFA7E70000AA
:102880005C0000202DE9F04780460E4614464FF0CC
:10289000000947463546A5610320E085A87C60BB5A
:1028A00094F82000012813D1606888B1207A00F0E4
:1028B000030018B9207900F0030048B1F86A10B994
:1028C0000D20BDE8F087A889402801D90D20F8E740
:1028D000012084F82100A06858B194F82000012854
:1028E00003D141F28830A0850FE041F28830A08505
:1028F0000BE04FF4FA70A08507E0688918B94FF42F
:10290000FA70A08501E06889A085384602F006FFCC
:10291000A0622146404602F0A0FF2021F86802F0A4
:10292000FFFA4846CDE770B506460D46344606B177
:102930000DB9032070BDA06802F061FBD4F80C0350
:1029400060B1D4F80C032860D4F80C030068C4F814
:102950000C03A06802F056FB0020EBE70020286083
:10296000A06802F04FFB0120E4E700002DE9F041F0
:1029700006460F461546344665BBF8681F2806D143
:10298000022084F87000204601F0ACFA78E094F858
:102990006C00002804DD94F86C00401E84F86C0084
:1029A00094F86C00002803DD204601F09BFA67E0F4
:1029B000012084F87100062084F87000002211467E
:1029C000204601F0DFF900285AD00121204600F00E
:1029D000F6F855E00A2D29D194F86C00002804DDA2
:1029E00094F86C00401E84F86C0094F86C00002889
:1029F0000BDD6069827C2349204600F045F860B316
:102A00000121204600F0DBF838E0012084F8710055
:102A1000062084F8700000221146204601F0B2F929
:102A2000D8B10121204600F0CAF827E00E2D04D1CC
:102A30002946204600F0C3F820E094F86C000028F6
:102A400004DD94F86C00401E84F86C0094F86C006F
:102A5000002803DD204601F045FA0FE0012084F84C
:102A60007100062084F8700000221146204601F013
:102A700089F918B10121204600F0A1F8BDE8F081E4
:102A800000BFFBE7FD2A0008F8B504460E461746CE
:102A900069462068FFF747FF05460DB12846F8BD97
:102AA0000020206260620098066100984461002066
:102AB000009948600099886001200099C9694870B0
:102AC00002200099C969087000200099C9694880EE
:102AD0000098C069878000200099C969C880E168B2
:102AE0002068009A02F04FF905461DB12068009950
:102AF000FEF70EFB0098A0622846D0E72DE9F041D2
:102B000004460F46154626461DB10E21304600F0FC
:102B100056F896F87000062804D10121304600F0DE
:102B20004EF802E0304601F0DDF9BDE8F0812DE914
:102B3000F05F0646894690469A46DDF82CB034464A
:102B400004F12C05002716B90320BDE8F09F94F886
:102B5000700008B10220F8E7C4F818A00A98E061F4
:102B6000002706E00C98C15D05F10F00C155781CE7
:102B7000C7B20A2FF6D3C5F8088085F80CB00C98B8
:102B80004078401168730A20A873012084F870000F
:102B9000BBF1800F03D1012184F86D1002E0002108
:102BA00084F86D10C4F85C90C4F860800021616600
:102BB000012184F86C10204601F094F9C5E770B546
:102BC00004460D46A06928B12B46D4E90660626E22
:102BD000E16DB047002084F8700070BD2DE9F84F1A
:102BE00004460D4616461F46DDE90CABDDE90A98A2
:102BF00014B90320BDE8F88F69462068FFF793FEFB
:102C000008B10220F6E7266267620098C0F80490D7
:102C10000098C0F808800098056100984461009809
:102C2000C06980F800A00098C06980F801B0002059
:102C30000099C9694880A068006B80780099C969CB
:102C400088800098C069A0F80680E1682068009A32
:102C500002F099F828B120680099FEF759FA01208E
:102C6000C8E70098A0620020C4E7000070B50C46D9
:102C700001468D7C022D03D100258D740325CD7472
:102C80000025024E3570024D2B7070BD30000020C3
:102C9000310000202DE9F04106460F461546344626
:102CA000002D41D1F8680D282CD14B49E06C8842A9
:102CB00028D194F8580020B1012807D002281BD150
:102CC00009E000212046FFF77AFF1AE01021204694
:102CD000FFF775FF15E0012084F87100062084F8E5
:102CE000700000221146204601F04CF818B1012175
:102CF0002046FFF764FF04E010212046FFF75FFF46
:102D000000BF67E0012084F87100062084F870009D
:102D100000221146204601F035F800285AD0012142
:102D20002046FFF74CFF55E00A2D2BD194F86C009C
:102D3000002804DD94F86C00401E84F86C0094F8C0
:102D40006C0000280DDD6069807C40F08002234922
:102D50002046FFF799FE60B301212046FFF72FFFC1
:102D600038E0012084F87100062084F87000002209
:102D70001146204601F006F8D8B101212046FFF7A0
:102D80001EFF27E00E2D04D129462046FFF717FF2E
:102D900020E094F86C00002804DD94F86C00401EDC
:102DA00084F86C0094F86C00002803DD204601F0E4
:102DB00099F80FE0012084F87100062084F8700073
:102DC00000221146204600F0DDFF18B10121204607
:102DD000FFF7F5FEBDE8F08155534253FD2A000888
:102DE0002DE9F04180460E46154644463DB9606ED9
:102DF000F16801446166204601F074F83CE00A2D58
:102E000023D194F86C00002804DD94F86C00401E77
:102E100084F86C0096F82000012801D1802700E09A
:102E2000002794F86C0010B9032084F870006069E2
:102E3000807C40EA070211492046FFF725FED8B101
:102E400001212046FFF7BBFE16E00E2D04D12946D6
:102E50002046FFF7B4FE0FE0012084F87100062041
:102E600084F8700000221146204600F08BFF18B154
:102E700001212046FFF7A3FEBDE8F081FD2A0008EE
:102E80002DE9F04106460D462C46002D33D06069F1
:102E900058B1002261692068FDF72AFF0746616981
:102EA0002068FDF7EDFF074600BF206958B10022FA
:102EB00021692068FDF71CFF074621692068FDF79E
:102EC000DFFF074600BFE06838B1A06A28B1A26AF8
:102ED000E1682068FDF70CFF0746A06E18B1A16EEF
:102EE0002068FEF715F93046A168FDF749FF204636
:102EF00002F072F803E000213046FDF741FF0020A8
:102F0000BDE8F0812DE9F84F81460C4692464FF01E
:102F1000000BBAF1010F09D0BAF1020F66D0BAF175
:102F2000030F2FD0BAF1040F70D12AE0A04600267B
:102F300020E008EB8615286B4779082F00D017E0B2
:102F4000286B8779042F02D0062F00D010E0286B61
:102F5000C779502F00D00BE02E48407C38B92D485F
:102F6000C0F80490C56004600020BDE8F88F00BF81
:102F7000701CC6B298F84A01B042DADC4FF0080B78
:102F800045E044E023480068A0422ED12148406833
:102F900000282AD01F48C068002826D01D48407C41
:102FA000F0B901201B4948746A460A214846FEF7D9
:102FB0001DF919A0009903F005F86A460B2148464F
:102FC000FEF714F91EA0009902F0FCFF6A460121E9
:102FD0004846FEF70BF91DA0009902F0F3FF04E04C
:102FE0001EA002F0EFFF4FF0010B10E0094800684F
:102FF000A04209D100201F49086006490860084620
:10300000407C08B10220487401E0FFE700BF00BF28
:103010005846AAE7900400206D6173732073746FA3
:1030200072616765206465766963652061747461A7
:10303000636865643A7069643D3078257800000003
:103040007669643D30782578200000006164647200
:103050006573733D25640D0A000000006E6F7420D7
:1030600069646C65206D736420696E7374616E634E
:10307000650D0A006C00002030B589B0044604F1EB
:103080000905A07900F01F00E188C1F34511E2882D
:10309000D20A237903F01F03CDE90532CDE90710E9
:1030A000A088C0F34310A188491201F2BC712268C4
:1030B000CDE90152CDE90310207A00F0040008B1F7
:1030C000532000E05F200090207A00F0020008B159
:1030D000482000E05F200346207A00F0010008B19C
:1030E000522000E05F200246207A00F0100008B174
:1030F00004A000E004A0014604A002F063FF09B0B0
:1031000030BD00006469720066696C0020202020D8
:103110002573202D20256325632563202D2025730D
:10312000202D2025644279746573202D2025642D7F
:1031300025642D25642025643A25643A25640D0A0A
:103140000000000070B592B0054600240026294614
:1031500001A803F0D1FF044614B1204612B070BD9F
:103160000DE00CA901A804F0CBF8044614B99DF8B1
:10317000390000B904E001260CA8FFF77DFFF0E755
:1031800000BF16B902A002F01DFF2046E6E70000CE
:103190000D0A000010B502A002F014FF10BD0000DF
:1031A0002E2E2E2E2E2E2E2E2E2E2E2E2E2E2E2E3F
:1031B0002E2E2E2E2E2E2E2E2E2E2E2E7465737427
:1031C00020646F6E652E2E2E2E2E2E2E2E2E2E2E3F
:1031D0002E2E2E2E2E2E2E2E2E2E2E0D0A000000DE
:1031E00070B5ADF5147D06460020029003E000BFE7
:1031F0000298401C029042F2107102988842F6D365
:10320000DD4802F0DFFE0121DCA002F0DBFE31220E
:10321000E4A1684602F0E6FE00226946E24803F0B7
:1032200047FE04463CB1E1A002F0CCFEFFF7B2FF3E
:103230000DF5147D70BDDFA002F0C4FEE0A002F029
:10324000C1FE93AA02A9684603F0F5FC04462CB11E
:10325000D6A002F0B7FEFFF79DFFE9E7939800784C
:10326000012803D1DBA002F0ADFE0AE093980078BC
:10327000022803D1DDA002F0A5FE02E0E1A002F0E9
:10328000A1FE93984069821E939840894102E3A071
:1032900002F098FE93984069801E939B5B89584387
:1032A000420893984089029B58434108E9A002F0E4
:1032B00089FEF4A002F086FEF8A002F083FE6846C4
:1032C000FFF740FF044614B1FFF764FFB0E7F3A037
:1032D00002F078FEF7A0FFF735FF044614B1FFF7C0
:1032E00059FFA5E7F4A002F06DFE0122F8A109A89C
:1032F00003F008FE04465CB1082C03D1F8A002F0EC
:1033000061FE08E0A9A002F05DFEFFF743FF8FE732
:10331000A8A002F057FEF6A002F054FE002109A872
:1033200003F004FD044644B1A0A002F04BFE09A83E
:1033300003F070FCFFF72EFF7AE79EA002F042FE3A
:10334000F0A002F03FFE01AB6522F34909A803F0AB
:1033500009FF044644B195A002F034FE09A803F029
:1033600059FCFFF717FF63E792A002F02BFE002045
:10337000E949019A8854E9A002F024FEE9A002F08C
:1033800021FE09A803F046FC04462CB187A002F0F8
:1033900019FEFFF7FFFE4BE786A002F013FEE7A041
:1033A00002F010FE0322CAA109A803F0ABFD0446F7
:1033B0005CB1082C03D1CAA002F004FE08E07BA097
:1033C00002F000FEFFF7E6FE32E77AA002F0FAFD17
:1033D000C7A002F0F7FD292109A803F0A7FC0446C5
:1033E00044B172A002F0EEFD09A803F013FCFFF750
:1033F000D1FE1DE76FA002F0E5FDD6A002F0E2FDD0
:10340000002504E005F14100C34948556D1C3A2DE3
:10341000F8D30D20C04981F83A000A2081F83B001A
:1034200001AB3C2209A804F02EF8044614B9019817
:103430003C2808D05DA002F0C5FD09A803F0EAFB16
:10344000FFF7A8FEF4E609A803F0A0FF044644B184
:1034500056A002F0B7FD09A803F0DCFBFFF79AFEC7
:10346000E6E654A002F0AEFDBFA002F0ABFD45F2CF
:103470008630ADF810004FF49040ADF8120003A96B
:1034800093A003F0D3FF04462CB148A002F09AFDAC
:10349000FFF780FECCE647A002F094FDBEA002F04C
:1034A00091FD0122C3A109A803F02CFD04465CB1E3
:1034B000082C03D18AA002F085FD08E03BA002F0B1
:1034C00081FDFFF767FEB3E63AA002F07BFDBDA0E9
:1034D00002F078FD03A9B7A003F039FF04462CB130
:1034E00032A002F06FFDFFF755FEA1E603A8FFF73B
:1034F000C3FDBE4903980860BD49039808600846AB
:103500000168BCA002F05EFD0020C7490880C749E1
:103510000860C8E1B5480068B0F5806F0AD3B348C9
:103520000068A0F58060B14908604FF48060C04930
:10353000088006E0AD480088BD4908800020AB49FE
:103540000860B9480088401CB74908806DA002F0A7
:1035500039FD01ABB6480288B64909A803F002FE5E
:10356000044644B111A002F02DFD09A803F052FB5E
:10357000FFF710FE5CE65FE1E481000866617466B7
:1035800073206D6F756E74206173206C6F67696155
:1035900063616C206472697665722025642E2E2E1C
:1035A0002E2E2E0025633A00A40400206572726F4F
:1035B000720D0A00737563636573730D0A00000072
:1035C0007465737420665F676574667265653A0D2D
:1035D0000A000000202020204641542074797065A4
:1035E000203D2046415431320D0A00002020202089
:1035F0004641542074797065203D2046415431364F
:103600000D0A000020202020464154207479706566
:10361000203D2046415433320D0A00002020202056
:1036200062797465732070657220636C757374655C
:1036300072203D2025643B206E756D626572206F9F
:103640006620636C7573746572733D256C75200D0F
:103650000A000000202020205468652066726565FD
:103660002073697A653A2025644B422C2074686582
:1036700020746F74616C2073697A653A25644B42DB
:103680000D0A00006469726563746F7279206F704F
:1036900065726174696F6E3A0D0A00006C6973742B
:1036A00020726F6F74206469726563746F72793A07
:1036B0000D0A0000313A0000526561642066696CB1
:1036C00065206F7065726174696F6E3A0D0A000053
:1036D000313A2F436F6E6669672E7478740000006C
:1036E00066696C652065786973740D0A00000000D6
:1036F0007465737420665F7365656B2E2E2E2E2E97
:103700002E0000007465737420665F726561642E1C
:103710002E2E2E2E2E000000D406002025730D0A1A
:103720000000000052656164207465737420665F58
:10373000636C6F73652E2E2E2E2E2E0057726974B9
:10374000652066696C65206F7065726174696F6E63
:103750003A0D0A007465737420665F777269746548
:103760002E2E2E2E2E2E00006368616E676520229D
:10377000436F6E6669672E747874222074696D6574
:103780007374616D7020746F20436F6D70696C6528
:103790002074696D650000004941502052656164E4
:1037A0002066696C65206F7065726174696F6E3A2E
:1037B0000D0A0000313A2F5570646174652E6269FC
:1037C0006E0000006765742066696C652022557084
:1037D000646174652E62696E2220696E666F726D17
:1037E0006174696F6E3A0D0A000000002800002025
:1037F000200000206765742066696C652022557082
:10380000646174652E62696E22205472616E736DFC
:10381000697373696F6E206C656E677468203D20F4
:103820002564200D0A0000002E0000201C0000204E
:103830002400002084000020AFF2882002F0C2FBA8
:1038400000204A4908800DE0494848490988405C01
:103850004849096808444749086044480088401CB2
:103860004249088041480088434909888842EBDB87
:1038700042A002F0A7FB48480068484A1268811A33
:1038800009A803F053FA04464CB1AFF2E02002F06D
:1038900099FB09A803F0BEF9FFF77CFCC8E4AFF27E
:1038A000EC2002F08FFB3D48006800287FF432AE28
:1038B0003B4801883BA002F085FB2E48016842A0EE
:1038C00002F080FB46480068464908604448001DF5
:1038D000006848604248083000688860084683688D
:1038E0004268016840A002F06DFB3E48006847490D
:1038F000884233D13B4840681E49096888422DD030
:1039000043A002F05FFBFCF759FD3520FCF716FDE4
:103910003348FCF719FDFCF747FD42A002F052FBCB
:1039200000BF00BF00BF00BF00BFBFF34F8F00BF8D
:1039300000BF00BF4248006800F4E060414908430E
:10394000001D3F49086000BF00BF00BFBFF34F8F9D
:1039500000BF00BF00BF00BF00BFFDE73AA002F0FC
:1039600031FBFFF717FC00BF62E400002C000020D1
:10397000840000201C0000202400002061707020C2
:103980006961702066696C6520665F7365656B2E82
:103990002E2E2E2E2E0000002000002028000020B9
:1039A0002E00002066696C652063616C63756C6134
:1039B00074696F6E206C6F6F7020636F756E743DED
:1039C000202564200D0A000066696C652043686547
:1039D000636B73756D3D2025303878200D0A00002B
:1039E000007C00088404002041707020426F6F74D6
:1039F000204A756D70466C61672025303878202527
:103A00003038782025303878200D0A0032334D4D7B
:103A1000436C65617220426F6F7420666C61670D44
:103A20000A00000041707020526561737420746F49
:103A300020626F6F746C6F616465720D0A00000024
:103A40000CED00E00000FA05656E64206F662066EC
:103A5000696C6520746573740D0A000001460020CE
:103A600070470000F8B506460F46742001F0A3FA2F
:103A700004460CB90C20F8BD66600020A0606A46C0
:103A800008213046FDF7B2FB009820606A46092104
:103A90003046FDF7ABFB0098E0600748E06204F1B8
:103AA00068012068FEF73FFF05460DB10021A166C1
:103AB0003C600020DFE70000555342437CB50546DB
:103AC0000120384908703848006808B901207CBDD9
:103AD0000023364A19463448006800F095FC08B1C6
:103AE0000120F4E703E032480068FDF7EEF92D48C5
:103AF00000780028F7D101202A4908702A48006878
:103B000008B90120E3E7002028491223294ACDE91A
:103B1000001001462448006800F018FB08B101209D
:103B2000D5E703E022480068FDF7CFF91D4800788B
:103B30000028F7D101201B4908701B48006808B90C
:103B40000120C4E70020194908231A4ACDE90010D2
:103B500001461548006800F079FA08B10120B6E77F
:103B600003E013480068FDF7B0F90E48007800281C
:103B7000F7D11148007870B90E4C241D207800064A
:103B8000617840EA0140A17840EA0120E1780843E9
:103B90000A49086003E04FF40070084908600020FB
:103BA00095E70000740000206C0000203D440008F0
:103BB000180000201C10002075000020700000205C
:103BC0002DE9FE4381460E46144601274FF00008BA
:103BD000002E73D0012E04D0022E03D0032E6FD1FD
:103BE00063E000BF14B90120BDE8FE83012037491E
:103BF00008703748006808B90120F5E7002035490A
:103C00000823354ACDE9001001463148006800F02C
:103C10001DFA8046B8F1000F01D001270EE003E045
:103C20002E480068FDF751F9284800780028F7D1A0
:103C30002B48007808B9002700E00327A7BB012E16
:103C400019D1254D00BF28780006697840EA014067
:103C5000A97840EA0120E978084302909DF808001D
:103C600020709DF8090060709DF80A00A0709DF812
:103C70000B00E07018E0184D2D1D287800066978BB
:103C800040EA0140A97840EA0120E978084302901F
:103C90009DF8080020709DF8090060709DF80A00EA
:103CA000A0709DF80B00E0700CE00CB901209BE7C0
:103CB00000202060002705E000E001E0002701E08F
:103CC000042700BF00BF38468EE7000074000020C4
:103CD0006C0000203D4400081C100020180000204B
:103CE000750000202DE9F04105460F4616462C468A
:103CF0000020A06239462068FDF70AFA56B96069CB
:103D000060B16069807C40F0800205492046FEF782
:103D1000BBFE03E03146204600F042FABDE8F081E8
:103D2000253D00082DE9F04105460F4616462C4674
:103D30000020A06239462068FDF7EAF946B92069FB
:103D400050B12069827C05492046FEF79DFE03E0C4
:103D50003146204600F024FABDE8F081613D0008BC
:103D60002DE9F04104460F46164625460020A8627C
:103D700039462868FDF7CCF93146284600F010FA9C
:103D8000BDE8F0812DE9FF4104460D461646274661
:103D9000FF202121002200923346CDE9012103902A
:103DA0002A4603493846FEF719FF04B0BDE8F08102
:103DB000E53C00082DE9FF41044600270025606925
:103DC00030B161692068FDF75BF80646002060614C
:103DD000206930B121692068FDF752F806460020BD
:103DE0002061D4F80880002775E007EB470058F8F9
:103DF0002050A87800F08000802833D1E87800F0C7
:103E0000030002282ED16068009002208DF80B007C
:103E100001208DF80A00A87800F00F008DF8090045
:103E2000A8798DF808002979687941EA0020C0F363
:103E30000A00ADF806002979687941EA00200020DF
:103E40008DF80C0040F6B830ADF804006A4604F175
:103E50001401206800F034FC0646CEB3304604B0AE
:103E6000BDE8F081A87800F0800088BBE87800F019
:103E7000030002282DD16068009002208DF80B000D
:103E800000208DF80A00A87800F00F008DF80900D6
:103E9000A8798DF808002979687941EA0020C0F3F3
:103EA0000A00ADF806002979687941EA002000206F
:103EB0008DF80C0040F6B830ADF804006A4604F105
:103EC0001001206800F0FCFB06460EB13046C6E744
:103ED000FFE7781CC7B298F83C00B84285DC0020A8
:103EE000BDE7000070B504460026A06E50B904F18D
:103EF00068012068FEF717FD06461EB10021A16685
:103F0000022070BDA56E94F87000012806D002282A
:103F100016D003283ED0042853D14DE0002085F868
:103F2000200004F12C0068601F20A8602748286149
:103F30006C612A462169206800F003FF064641E0D3
:103F4000E06D30B394F86D0085F82000E16D606E8F
:103F500008446860D4E91810081AA8606C61D4E9B4
:103F60001801814215D095F8200040B91848286101
:103F70002A462169206800F0E4FE064608E014485D
:103F800028612A466169206800F034FE064600BFB9
:103F900018E000BF012085F8200004F14C006860A3
:103FA0001020A8600B4828616C612A46616920686E
:103FB00000F020FE064605E000212046FEF7FFFD4A
:103FC00000E000BF00BF30469BE700006D290008FD
:103FD000E12D0008952C00082DE9F04F87B08046B0
:103FE0000D4614461E46DDE912ABDDE9109714A21A
:103FF00007CACDE9051204906807000E8DF811007C
:10400000200E8DF81200200C8DF81300200A8DF878
:104010001400E0B28DF81500380A8DF81700F8B2D8
:104020008DF8180004A8802153464A46CDE900B116
:10403000029031464046FEF77AFD07B0BDE8F08FAA
:104040002800000000000000000000002DE9F043FF
:1040500087B007460C4615461E46DDE90E890BA2C1
:1040600007CACDE9051204906007000E8DF8110013
:1040700004A8802143463246CDE9009102902946AA
:104080003846FEF754FD07B0BDE8F0832500000078
:1040900000000000000000002DE9F04F85B00E4642
:1040A00017461C464FF0010A4FF0000B0220049007
:1040B0001CB9042005B0BDE8F08FB0462546B946CE
:1040C000022004902EE001201A4908701A48006866
:1040D00008B90120EEE70021184A19480068684332
:1040E0004346CDE90152039100904A4612480068C8
:1040F000FFF772FF8346BBF1000F02D04FF0010AB9
:1041000010E003E00F480068FCF7DFFE0948007884
:104110000028F7D10C48007810B94FF0000A06E0EB
:104120004FF0030A0498411E04910028CBD100BF30
:104130005046BFE7740000206C0000203D4400089A
:104140007000002018000020750000202DE9F043C9
:1041500087B007460D4616461C46DDE90E890DA2BE
:1041600007CACDE9051204906807000E8DF811000A
:10417000E0B28DF8140004A8802143462246CDE920
:104180000091029031463846FEF7D1FC07B0BDE8F9
:10419000F0830000030000000000000000000000A9
:1041A00070B504460D4694F87100012810D1002026
:1041B00084F871001DB994F87000062804D101211B
:1041C0002046FEF7FCFC0BE02046FFF78BFE07E0E5
:1041D000206A28B12B4600221146D4E90860B04776
:1041E00070BD00002DE9F84F0746894690461D46F0
:1041F000DDF828A001263C4617B90320BDE8F88F5A
:104200004946606800F006FA06460EB13046F5E70A
:10421000C4F80890606930B1002261692068FCF739
:1042200067FD064600BF206930B100222169206881
:10423000FCF75EFD064600BFB8F1000F0BD1002D64
:1042400040D02046FFF7B6FD064633460022114611
:104250005046A84736E069462068FEF764FB08B17F
:104260000220CBE72562C4F824A017480099086112
:10427000009844610B200099C96948700120009999
:10428000C9690870A068006B80780099C969888046
:104290000098C069A0F8028000200099C969C88010
:1042A0000099486000998860E1682068009A00F0F1
:1042B0006AFD064616B90098A06203E020680099DE
:1042C000FCF726FF304699E7CD4200082DE9F04182
:1042D00005460F4616462C460020A0621EB9204611
:1042E000FFF768FD0646206A28B1334600221146D2
:1042F000D4E908C0E04739462068FCF709FFBDE86B
:10430000F0810000F8B505462C46607C217C88428F
:1043100029D0607C2074607C20B1012803D0022861
:104320001FD111E01EE004F108016068FFF79AFB5D
:1043300006461E49A06808601EB11DA001F042FE9D
:10434000F8BD0120E0740DE000206074E074D4E951
:104350000101FEF795FD0020A0601CA001F032FED7
:1043600000E000BF00BFE07C20B1012803D003289B
:1043700018D111E017E00020E0740220A07400942E
:104380001A4B0022D4E90201FFF72CFF064616B1B2
:1043900017A001F017FE06E02046FEF721FF0020DF
:1043A000E07400E000BF00BF00BFC9E76C00002060
:1043B00075736220686F7374206D736420696E6911
:1043C00074206661696C0D0A000000006D617373F2
:1043D0002073746F72616765206465766963652018
:1043E00064657461636865640D0A00006D2C0008E3
:1043F00073657420696E74657266616365206661B9
:10440000696C0D0A00000000F0B587B007460C4645
:1044100015461E4600200490059006906007000E89
:104420008DF8110004A800212B460A46CDE9006151
:1044300002903846FEF77BFB07B0F0BD30B5002494
:10444000024D2C70024C237030BD0000740000201F
:10445000750000202DE9F04F87B080460D461446C8
:104460001E46DDE912ABDDE9109714A207CACDE9BB
:10447000051204906807000E8DF81100200E8DF8CB
:104480001200200C8DF81300200A8DF81400E0B201
:104490008DF81500380A8DF81700F8B28DF818005D
:1044A00004A8002153464A46CDE900B102903146A6
:1044B0004046FEF73CFB07B0BDE8F08F2A00000045
:1044C00000000000000000002DE9F04F85B00E460E
:1044D00017461C464FF0010A4FF0000B02200490D3
:1044E0001CB9042005B0BDE8F08FB0462546B9469A
:1044F000022004902EE001201A4908701A48006832
:1045000008B90120EEE70021184A194800686843FD
:104510004346CDE90152039100904A461248006893
:10452000FFF798FF8346BBF1000F02D04FF0010A5E
:1045300010E003E00F480068FCF7C7FC094800786A
:104540000028F7D10C48007810B94FF0000A06E0B7
:104550004FF0030A0498411E04910028CBD100BFFC
:104560005046BFE7740000206C0000203D44000866
:104570007000002018000020750000202DE9F05F79
:1045800004460D464FF00108C34614B90320BDE8A8
:10459000F09F66684FF00009CA4600270EE004F15C
:1045A000080000EB8710006B4079092802D14FF01A
:1045B000010901E04FF0010A781CC7B294F85201DA
:1045C000B842ECDCBAF1010F08D1706830B12A466C
:1045D00004F108012046736898478046B9F1000F3E
:1045E00007D02B4604F1080221463046FCF754FF61
:1045F0008346B8F1000F02D0BBF1000F01D10020BB
:10460000C5E7012D02D14FF0080801E04FF0010885
:104610004046BCE72DE9F0478046894645460024E0
:104620000027B8F1000F02D0B9F1000F02D103202A
:10463000BDE8F0876C68A06800F0E1FC11E0CB20D9
:1046400078431E4901EB800090F82803012806D129
:10465000CB20784301EB8000A04200D103E0781C1E
:10466000C7B2002FEBD000BF27B1A06800F0CAFC92
:104670000120DDE74146204600F0E2FB20B1A068C2
:1046800000F0C0FC0120D3E700260CE005F1080093
:1046900000EB8610484504D1022105F5B270815522
:1046A00005E0701CC6B295F85201B042EEDC00BFC6
:1046B000A06800F0A7FC0020BAE70000D4080020A2
:1046C0002DE9F04104460F4616464FF000082546F6
:1046D00004B116B90320BDE8F081D5F8101328689D
:1046E00032468B683946984780464046F3E7F0B536
:1046F0000646334600220EB90420F0BD03F1080738
:10470000002402E000203855641CB4F5A67FF9D3DC
:10471000002406E04FF0000C03F5B27000F804C06E
:10472000641C052CF6D3D3F85C11B3F860C1D3F840
:104730005C0100EB0C04087809286FD14878022846
:10474000FBD1C3F848114FF0000CA3F850C1C3F8D7
:104750004CC183F852C10878014418E04878042815
:1047600014D0D3F84C0108B9C3F84C11487808B1FB
:10477000087808B90120C0E7B3F8500191F800C0EB
:104780006044A3F850010878014400E001E0A14230
:10479000E4D300BF4FF0000C83F852C1C2E0487868
:1047A000042875D1C878002873D193F852010528E0
:1047B00001D30120A1E793F852C103F1080000EBF7
:1047C0008C1293F85201401C83F8520100203032C1
:1047D000D072107311601081506088789072303AF6
:1047E000087808B9012088E70878014418E048787B
:1047F000042814D04878052811D0506B00B95163B3
:10480000487808B1087808B9012076E7108F91F848
:1048100000C0604410870878014401E085E001E0B1
:10482000A142E4D300BF106B007900287AD0487809
:10483000052803D1106B0079042801D901205CE719
:1048400039E0A14202D24878052801D0012054E77E
:1048500092F83C0000EB400002EB8005296000204C
:1048600028816860087808B9012046E70878014483
:1048700019E04878052815D04878042812D06868CF
:1048800000B96960487808B1087818B9012034E7A0
:1048900046E019E0288991F800C060442881087832
:1048A000014400E001E0A142E3D300BF92F83C00E4
:1048B000401C82F83C0092F83C00D2F830C09CF8D2
:1048C00004C060452EDABCE70AB9012015E792F86A
:1048D0003B00401C82F83B00506B00B951630878E4
:1048E00008B9012009E7108F91F800C060441087D3
:1048F0000878014411E0487804280DD0487808B1C0
:10490000087808B90120F8E6108F91F800C06044DB
:1049100010870878014400E001E0A142EBD301E0F8
:104920000120EAE6A142FFF43AAF002406E04FF08E
:10493000010C03F5B27000F804C0641C93F8520136
:10494000A042F4D80020D8E62DE9F0410446D4F87E
:1049500058810027656894F87001801E062878D277
:10496000DFE800F003111E1F4D76D4F85401C07922
:10497000A8F80C00D4F85821D5F8101328688B69D2
:104980000521984766E094F8740184F87501D4F81D
:104990005821D5F8101328688B690421984759E0ED
:1049A00058E0D4F86C61B178F07841EA0020A4F8BE
:1049B0006001D4F85C0130B1D4F85C0100F00CFB6C
:1049C0000020C4F85C0194F8600100F0030048B1D5
:1049D000B4F8601121F00301081D00F0ECFAC4F8EE
:1049E0005C0105E0B4F8600100F0E5FAC4F85C0190
:1049F000D4F85C0110B90120BDE8F0812AE0D4F8B8
:104A00005C01007AFA2801D90120F5E7B4F86201C7
:104A1000401CA4F862012046FFF769FE08B101209E
:104A2000EAE701212046FFF7A9FD07467FB1B4F868
:104A30006201D4F85411497C884202DA0920DBE78C
:104A400007E004212046FFF799FD0820D4E701E0A4
:104A500000E000BF00BF3846CEE700007FB5044647
:104A6000002594F87001082819D069466068FDF7A0
:104A70005AFF10B1012004B070BD5D480099086173
:104A80000098446100200099C96908700099C969BB
:104A900088800099C969C8800099C969488094F8DC
:104AA0007001801E07287DD2DFE800F0042D053953
:104AB0005C82940000BF1220ADF80C0094F87001E5
:104AC000022802D10820ADF80C00D4F8540102905D
:104AD00001208DF8040000208DF805008DF80600F7
:104AE0000098C069007840F080000099C96908709A
:104AF00006200099C969487001AA2046009900F073
:104B000082F9054671E005200099C969487004F5ED
:104B1000BA722046009900F066F9054665E0D4F8BF
:104B20006C01029002208DF8040094F862018DF867
:104B300005000920ADF80C0000208DF80600009853
:104B4000C069007840F080000099C96908700620AB
:104B50000099C969487001AA2046009900F053F9EC
:104B6000054642E0D4F85C01029002208DF8040072
:104B700094F862018DF80500B4F86001ADF80C00FE
:104B800000208DF806000098C069007840F0800091
:104B90000099C969087006200099C969487001AA7E
:104BA000204600E020E0009900F02DF905461CE0C9
:104BB000D4F8480140790099C969488009200099D2
:104BC000C969487000231A4620460099FCF7A9F8E5
:104BD00005460AE003212046FFF7D0FC054615B93B
:104BE000092084F8700100E000BF00BF284642E7BA
:104BF000850F00082DE9F04106460F4615464FF097
:104C0000000834460EB107B115B90320BDE8F081A4
:104C10000020E860012085F82000A06800F0EFF98E
:104C2000D4F8101320682A464B69394698478046C5
:104C3000A06800F0E7F94046E8E770B504460D4685
:104C4000A06800F0DCF9681E04F5467101EBD000A5
:104C50000078691E01F00702012191408843691E16
:104C600004F5467202EBD1010870A06800F0CAF9A1
:104C700070BD70B505460C46002694F8750128B144
:104C800094F875112846FFF7D8FF07E094F87401EF
:104C900020B194F874112846FFF7CFFFD4F85801DB
:104CA00068B100222846D4F85811FCF721F82846AC
:104CB000D4F85811FCF7E4F80020C4F85801D4F8EF
:104CC0005C0118B1D4F85C0100F086F994F87B61BE
:104CD000D4F8540100F080F9204600F07DF9012E4F
:104CE00003D103212846FCF7DFF870BD38B5044630
:104CF000684600F0B6F8002084F82803009800F019
:104D000053F938BD30B504460B46254604B10BB9FE
:104D1000032030BDD5F814239A4204D11068C5F899
:104D200014030020F5E7116807E0994203D10868F1
:104D300010600020EDE70A4609680029F5D100203F
:104D4000E7E72DE9F04106460F4615464FF000080B
:104D500034460EB107B115B90320BDE8F08100203B
:104D6000E86085F82000A06800F049F9D4F8101335
:104D700020682A460B69394698478046A06800F0AB
:104D800041F94046E9E72DE9F04106460F46144651
:104D90004FF0000835460EB107B114B90320BDE845
:104DA000F0810020E060206084F82100E069007854
:104DB00000F08000802803D1012084F8200002E068
:104DC000002084F82000A86800F019F9D5F8101325
:104DD000286822460B69394698478046A86800F043
:104DE00011F94046DBE72DE9F04106460C46154631
:104DF0002F78E069478000231A4621463046FBF7AA
:104E000090FFBDE8F0812DE9F04107460E461446BB
:104E100025466878297840EA0120F1694880A87819
:104E2000F16988802B89314638466A68FBF779FF3B
:104E3000BDE8F08110B504462046FDF7C3FC10BD67
:104E400003460A460AB904207047D3F8141300E059
:104E5000096809B19142FBD109B10020F4E70120B2
:104E6000F2E700BF00BFEFF31082114672B600BF39
:104E7000016072B67047F8B505460E462C466DB116
:104E80006846FFF7EEFF206800EA06072068B8438F
:104E90002060009800F088F80020F8BD0120FCE7B1
:104EA00078B505460E4600240DB9012078BD684648
:104EB000FFF7D7FF00200CE000EB40010F4A02EBA8
:104EC0008101097A21B900EB400102EB810402E083
:104ED000401C0428F0D300BF24B9009800F064F807
:104EE0000120E3E7002020606660012020722C6032
:104EF000009800F059F80020D8E700003810002092
:104F000038B5044625464CB16846FFF7AAFF002095
:104F10002872009800F048F8002038BD0120FCE716
:104F200078B504460E46254654B16846FFF799FF0A
:104F3000286830432860009800F036F8002078BDDB
:104F40000120FCE72DE9F84706460F4690469A46B1
:104F5000DDF8249034462EB36846FFF782FF2068C0
:104F600000EA0705B8F1000F07D0BD420BD000984A
:104F700000F01AF80220BDE8F88725B9009800F083
:104F800013F80220F7E7B9F1000F01D0C9F800507B
:104F9000606810B12068A8432060009800F004F811
:104FA0000020E8E70120E6E700BF00BF80F310889B
:104FB00000BF00BF704770B50546284602F07AFD75
:104FC0000446264634B1002002E000213154401C42
:104FD000A842FAD3204670BD10B50446204602F020
:104FE000E7FB10BD014609B9012070470148086080
:104FF0000020FAE70000FFFF01460020704701464D
:1050000000207047014600207047000008B50121CC
:105010000420FBF7BDFA6846FBF765FA4FF4005031
:10502000ADF8000001208DF8020010208DF803007B
:1050300069460448FBF7EAF94FF400510148FBF7D1
:105040004EFA08BD000804402DE9F04F89B004462F
:105050008A4615469846129E0027C14600200590B4
:10506000A889B04201D2A88900E03046064606AAC7
:1050700007216868FCF7BAF808AA04216868FCF7F9
:10508000B5F807AA01216868FCF7B0F8089801286C
:1050900008D12068D0F8980040F080002168C1F85D
:1050A000980007E02068D0F8980020F08000216880
:1050B000C1F8980007992068D0F8980061F30600BD
:1050C0002168C1F89800287D012801D0012000E066
:1050D000002040F00C00029002982168C1F8C00046
:1050E0004FF0000B002005901EE00121204600F04B
:1050F00041FA04A80090012300220421E068FFF790
:1051000021FF0390039810B9DFF874B113E00598FC
:10511000401CC0B205900598032805DB6FF0030B17
:10512000584609B0BDE8F08F2068D0F8940000F030
:1051300020000028D9D100BFBBF1000F71D1FF20A2
:105140002168C1F88800BAF1010F16D106F00300FA
:1051500010B908F0030080B1E06A88B1402E0FD882
:10516000E06AC01D20F00309C4F82090C4F8248030
:10517000E66100212820015502E001212820015587
:10518000BAF1000F06D0BAF1010F25D0BAF1020F23
:1051900070D147E03B486FF3080040F0100094F8EE
:1051A000341001F0010140EAC107C7F80490C6F3CA
:1051B0000900802141EA00403860A87C00F00F001F
:1051C00040F0D0002168C1F8A80094F8340080F0C5
:1051D000010084F834004FE02A486FF3080094F887
:1051E000331001F0010140EAC107C7F80490C6F38B
:1051F0000900802141EA0040697C01F0010140EA98
:1052000081103860A87C00F00F0040F09000216809
:10521000C1F8A80094F8330080F0010084F833004E
:105220002AE02AE017486FF3080040F0100094F8D5
:10523000341001F0010140EAC107C7F80490C6F339
:105240000900802141EA0040697C01F0010140EA47
:1052500081103860A87C00F00F0040F01000216839
:10526000C1F8A80094F8340080F0010084F83400FC
:1052700002E0FFE7002700BF00BF584651E70000EB
:1052800000F8FFFF000E0020FEB50446002720684E
:10529000D0F8940040F002002168C1F89400082082
:1052A0002168C1F894002068D0F8980020F07F00B1
:1052B0002168C1F898002068D0F8980020F080009C
:1052C0002168C1F898000020019003E000BF019818
:1052D000401C0190564901988842F7D300BF2068CE
:1052E000D0F89400012121EAD0160020019003E0BB
:1052F00000BF0198401C01904E4901988842F7D3A5
:105300002068D0F89400012121EAD015781CC7B29A
:10531000AE4201D0032FE2DBAE420BD046A000F03C
:1053200051FE2068D0F8840040F040002168C1F8A8
:105330008400FEBD2068D0F8940000F040004028B2
:1053400008D12068D0F8840040F040002168C1F8FE
:105350008400EEE745B92068D0F8980020F080007E
:105360002168C1F898000DE0012D0BD18020216843
:10537000C1F8C0002068D0F8980040F08000216893
:10538000C1F898002068C06940F034002168C86105
:105390002068D0F8940040F001002168C1F8940022
:1053A000FF202168C1F880002068D0F8840020F038
:1053B00009002168C1F884002068D0F8940040F00A
:1053C00010002168C1F894001E21204600F0D2F898
:1053D0002068D0F8940020F010002168C1F89400F3
:1053E0006421204600F0C6F82068D0F8840040F020
:1053F00009002168C1F8840094F83600401C40B2CE
:1054000084F836000421E068FFF735FD02A8012189
:10541000CDE9001000231A4629466068FBF7A0FB7F
:10542000002084F8340084F8330000BF81E70000D6
:1054300080841E00A08601007370656564206E6F15
:1054400074206D61746368210A00000070B506461F
:105450000D463446012D2DD100BF2068D0F89400B0
:1054600000F020000028F8D12068D0F8940040F027
:1054700010002168C1F894001E21204600F07AF83F
:105480002068D0F8940020F010002168C1F8940042
:105490002068D0F8940040F002002168C1F8940020
:1054A00008202168C1F89400002084F8340084F8B2
:1054B00033002EE0022D13D1002084F8360008209E
:1054C0002168C1F89400FF202168C1F8800020689D
:1054D000D0F8840040F040002168C1F8840018E052
:1054E000032D0CD194F93600002812DC2068D0F886
:1054F000840040F040002168C1F8840009E0042DD8
:1055000007D12068D0F8840020F040002168C1F85D
:105510008400002070BD2DE9F04107460D46164677
:105520000024B846287D012802D0287D032802D116
:10553000D8F8144006E0287D10B1287D022801D15A
:10554000D8F8184012E0A069A8420ED10EB1A642C8
:105550000BD12146384600F0EBFC0E222146D4E95F
:10556000043098470020BDE8F0812468002CEAD17F
:105570000020F8E72DE9F04106460D46304600F0E0
:10558000CDF8074600BF304600F0C8F80446E01BDF
:10559000A842F8D3BDE8F08110B5044694F936006E
:1055A000002806DD94F83600401E40B284F836002C
:1055B00000E010BD002211466068FBF78CFC2068FB
:1055C000D0F8940040F002002168C1F8940008204F
:1055D0002168C1F89400002084F8340084F8330076
:1055E000FF202168C1F880002021E068FFF743FC1C
:1055F00000BFDEE770B506460C4635462146284614
:1056000000F09EFA3D490860606208460068002884
:1056100047DBA069007D68BB94F82100032803D014
:1056200094F82100042803D1042085F8300062E0BA
:10563000022085F8300094F82100022814D12F4967
:10564000E06809680844E060D4E90201401A05D026
:10565000A06980892949096888424CDD94F82100B5
:10566000401C84F8210046E094F82100401C84F896
:10567000210040E02149E06809680844E060D4E97D
:105680000201401A05D0A06980891C490968884236
:1056900003DD042085F830002DE0022085F830007D
:1056A00029E01648006800F5807008BBA069007DFD
:1056B000032807D1002085F830002021E868FFF793
:1056C0002FFC18E0284600F029F8A16A401AA18DA5
:1056D000884205D9042085F83000094860620AE054
:1056E000002085F830002021E868FFF719FC02E06F
:1056F000042085F8300095F8300070BD5800002077
:1057000000F0FFFF01460A461068D0F8A430106888
:10571000D0F8A00040EA032080B2704770B505467B
:105720004FF6FF742846FFF7EDFF84B20748008864
:10573000844205DA0648006800F500600449086004
:105740000248048002480068204470BD50000020D8
:105750004C0000202DE9F047824689465546002737
:10576000BAF1000F04D10020C9F80000BDE8F087AD
:105770002869FFF744FC95F8320000283DD06C6999
:1057800027462846FFF7BEFF804634E0A06900891F
:1057900040452ED0A069C089B8FBF0F100FB118014
:1057A00038BBA069007D032823D1A169A1F8088036
:1057B0002646C9F80040A069007D032815D120685D
:1057C00098B16869A04202D12068686101E0206850
:1057D000386001E027462468002CFBD13E600020A1
:1057E00030602021E868FFF79BFB2869FFF70AFC7F
:1057F000BCE727462468002CC8D195F83100B8B121
:10580000A869A8B1AE693446C9F80060206810B133
:105810002068A86103E02869FFF7F4FBA6E7246885
:1058200001E027462468002CFBD13E600020306058
:105830002869FFF7E7FB00BF98E70146002201292E
:1058400000D009B90846704702E04908501CC2B2AE
:105850000129FAD101209040F5E72DE9F0410746F2
:105860000C463D4614B90420BDE8F0812869FFF7D5
:10587000C6FBA069007D012803D0A069007D032834
:1058800012D195F8320030B96C61002020600120FF
:1058900085F8320021E06E6900E036683068002843
:1058A000FBD13460206018E0A069007D18B1A069C8
:1058B000007D022811D195F8310030B9AC6100208B
:1058C0002060012085F8310007E0AE6900E036680D
:1058D00030680028FBD1346020602869FFF792FB14
:1058E0000020C1E72DE9F04107460C4616464FF06F
:1058F0000008002516F5806F02D14FF00A0810E06D
:1059000006F5807008B1002E07DB4FF0000806F5A1
:10591000807030B94FF00B0803E0002E01DA4FF031
:105920000B08B8F1000F2AD1A069007D38BBE069EF
:105930004078012823D1E069007802281FD1E0696E
:105940008078E0B9BD680EE0A87CE97C40EAC1102F
:10595000E1690979884205D16868A1694968884286
:1059600000D102E02D68002DEED100BF3DB1287DB1
:10597000032802D0287D022801D100206874424605
:105980002146D4E904309847BDE8F08138B5044693
:1059900040F6FF70009040202168C1F8800000E0D0
:1059A00000BF0098411E00910028F9D12068D0F86E
:1059B000800000F04000C0B12068D0F8840040F0C2
:1059C00001002168C1F884002068D0F8980020F018
:1059D0007F002168C1F898002068D0F8C00040F02E
:1059E00080002168C1F8C00003E01021E068FFF7E3
:1059F00097FA38BDF8B507460C463D46A069007DCC
:105A0000002877D194F8210001280AD108200090BD
:105A100000212846D4E90623FFF716FB4749086012
:105A20007CE094F82100022828D1A068A8B166681B
:105A3000E0680644D4E90201401A009094F820007E
:105A4000A269012800D100E0022001463346284621
:105A5000FFF7FAFA3949086060E00120A16948744B
:105A6000042084F8210000200090034601212846EC
:105A7000A269FFF7E9FA314908604FE094F8210084
:105A8000032824D1A068A0B10120A1694874002096
:105A9000009094F82000A269012801D1022000E0C2
:105AA0000120014600232846FFF7CEFA234908606B
:105AB00034E00120A16948740020009003460121D0
:105AC0002846A269FFF7C0FA1C49086026E094F84E
:105AD0002100042822D10120A169487400200090EF
