:020000040800F2
:1000000028210020A1010008A516000851150008AC
:10001000A1160008D1020008A91E00080000000077
:10002000000000000000000000000000A916000809
:10003000D502000800000000A7160008AB16000853
:10004000BB010008BB010008BB010008BB010008A0
:10005000BB010008BB010008D7020008BB01000873
:10006000BB010008BB010008BB010008BB01000880
:10007000BB010008BB010008BB010008BB01000870
:10008000BB010008BB010008BB010008BB01000860
:10009000BB010008BB010008BB010008BB01000850
:1000A000BB010008BB010008BB010008BB01000840
:1000B000BB010008BB010008D9170008BB010008FC
:1000C000BB010008BB010008BB010008BB01000820
:1000D000BB010008BB0100086D1E0008BB01000841
:1000E000BB010008BB010008BB010008BB01000800
:1000F000BB010008BB010008BB010008BB010008F0
:10010000BB010008BB010008BB010008BB010008DF
:10011000BB010008BB010008BB010008BB010008CF
:10012000BB010008BB010008BB010008BB010008BF
:10013000BB010008BB010008BB010008BB010008AF
:10014000BB010008BB010008BB010008BB0100089F
:10015000BB010008BB010008BB010008BB0100088F
:10016000BB010008BB010008BB010008BB0100087F
:10017000BB010008BB010008BB0100080000000033
:10018000BB010008BB010008DFF810D000F08EF8BA
:1001900000480047312D0008AFF3008028210020DF
:1001A0000648804706480047FEE7FEE7FEE7FEE711
:1001B000FEE7FEE7FEE7FEE7FEE7FEE7751700084D
:1001C000890100082DE9F05F0546002092469B4614
:1001D00088460646814640241BE02846414647465D
:1001E000224600F053F853465A46C01A914110D3A4
:1001F00011461846224600F03AF82D1A67EB01081E
:100200004F4622460120002100F031F817EB00098B
:100210004E41201EA4F10104DFDC484631462A4647
:100220004346BDE8F09F40EA01039B0703D009E085
:1002300008C9121F08C0042AFAD203E011F8013BD2
:1002400000F8013B521EF9D27047D2B201E000F82B
:10025000012B491EFBD270470022F6E710B513466A
:100260000A4604461946FFF7F0FF204610BD202A33
:1002700004DB203A00FA02F1002070479140C2F1FD
:10028000200320FA03F3194390407047202A04DB2F
:10029000203A21FA02F00021704721FA02F3D040FF
:1002A000C2F120029140084319467047064C074DA1
:1002B00006E0E06840F0010394E807009847103436
:1002C000AC42F6D3FFF764FFE834000808350008B5
:1002D00000BFFEE770477047014691F835000228DD
:1002E00003D08020486501207047052081F8350043
:1002F0000868006820F001000A6810600020F3E739
:1003000070B5044600F016F906462546681C10B183
:1003100004480078054400BF00F00CF9801BA84297
:10032000FAD370BD0C000020F8B502460B4600253C
:10033000002400200021DCE0012606FA01F51E68F9
:1003400006EA0504AC4273D15E68022E02D05E68F4
:10035000122E13D1CF0802F1200656F827004E07BF
:10036000F70E0F26BE40B0434F07FF0E1E69BE407A
:100370003043CF0802F1200646F8270010684F00EE
:100380000326BE40B0431E7906F003064F00BE4070
:10039000304310605E68012E08D05E68022E05D0E2
:1003A0005E68112E02D05E68122E13D190684F0045
:1003B0000326BE40B0434F00DE68BE40304390602D
:1003C000506801268E40B0431E79C6F300168E4059
:1003D00030435060D0684F000326BE40B0434F000A
:1003E0009E68BE403043D0605E6806F08056B6F12D
:1003F000805F7DD100BF00260096404E366846F4EF
:1004000080463E4F3E603E46366806F48046009683
:1004100000BF00BF3A4E8F0856F827008E07370FEF
:100420000F26BE40B043374EB24202D1002624E030
:100430005EE0354EB24201D101261EE0334EB2429B
:1004400001D1022619E0324EB24201D1032614E056
:10045000304EB24201D104260FE02F4EB24201D1FC
:1004600005260AE02D4EB24201D1062605E02C4EAB
:10047000B24201D1072600E008268F073F0FBE4099
:1004800030431F4E8F0846F82700264E3068A043A1
:100490005E6806F48036B6F5803F00D12043214ED9
:1004A0003060361D3068A0435E6806F40036B6F54D
:1004B000003F00D120431B4E361D3060361D306892
:1004C000A0435E6806F48016B6F5801F00D1204375
:1004D000144E08363060361D3068A0435E6806F45E
:1004E0000016B6F5001F00D120430E4E0C363060CA
:1004F000491C1029FFF420AFF8BD00004438024029
:100500000838014000000240000402400008024098
:10051000000C02400010024000140240001802408B
:10052000001C0240003C014001480068000C70477C
:10053000002004E00148006870470000040000202B
:100540000348006803490978084401490860704776
:10055000040000200C00002010B50A48006840F498
:100560000070084908600846006840F48060086030
:10057000032000F091F80F2000F006F800F02AF8B0
:10058000002010BD003C024070B504460E480078C3
:100590004FF47A71B1FBF0F00C490968B1FBF0F54A
:1005A000284600F0EFFB08B1012070BD102C07D2E7
:1005B00000222146501E00F031F80548046001E099
:1005C0000120F2E70020F0E70C00002000000020EE
:1005D000080000207047000010B5014608460028BA
:1005E00007DB00F01F0301229A40034B440943F844
:1005F000242000BF10BD000080E200E00146084654
:10060000002809DB00F01F0301229A4043099B00E8
:1006100003F1E023C3F8002100BF70472DE9F05F2C
:1006200080460D461646002701F040FC0746394635
:100630002A46334601F00700C0F1070ABAF1040F59
:1006400002D94FF0040A01E0C0F1070AD14600F1D7
:10065000040ABAF1070F02D24FF0000A01E0A0F13C
:10066000030AD4464FF0010A0AFA09FAAAF1010A6C
:100670000AEA020A0AFA0CFA4FF0010B0BFA0CFB19
:10068000ABF1010B0BEA030B4AEA0B04214640468F
:1006900001F014FCBDE8F09F00BF00F00702064B1C
:1006A00019684FF6FF031940044B0B4343EA02213C
:1006B000014B196000BF70470CED00E00000FA0527
:1006C00070B504460D460CB9012070BD584800684D
:1006D00000F00F00A84209D255490D700846006885
:1006E00000F00F00A84201D00120EEE7207800F0D2
:1006F000020002281DD1207800F00400042805D152
:100700004C48006840F4E0504A490860207800F006
:100710000800082805D14748006840F46040454972
:1007200008604448006820F0F000A168084341498F
:100730000860207800F00100A8B36068012807D1A4
:100740003C4808380068C0F34040B8B90120BCE715
:100750006068022802D06068032807D1354808384D
:100760000068C0F3406048B90120AEE7314808385E
:100770000068C0F3400008B90120A6E72D480068D2
:1007800020F00300616808432A490860FFF7D2FEA1
:10079000064609E0FFF7CEFE801B41F28831884211
:1007A00002D9032091E707E02248006800F00C001E
:1007B0006168B0EB810FEDD11D48006800F00F00BB
:1007C000A84209D91A490D700846006800F00F00C8
:1007D000A84201D0012078E7207800F00400042826
:1007E00007D11448006820F4E050E168084311493B
:1007F0000860207800F00800082808D10D4800683B
:1008000020F46040216940EAC1000A49086000F014
:100810003DF808490968C1F30311074A515CC84013
:10082000064908600F20FFF7AFFE00204DE70000EB
:10083000003C024008380240D0320008000000208E
:1008400001480068704700000000002000B5FFF775
:10085000F7FF04490968C1F38221034A515CC8408B
:1008600000BD000008380240E032000800B5FFF784
:10087000E7FF04490968C1F34231034A515CC840AB
:1008800000BD000008380240E03200082DE9F047C2
:10089000002400250026A1462548006800F00C0031
:1008A00020B1042805D008283AD105E0DFF884906B
:1008B00039E0DFF8849036E01D48001F006800F042
:1008C0003F041B48001F006800F4800078B11A48FC
:1008D0001749091F0968C1F38811A0FB017001467F
:1008E000224600233846FFF76DFC05460EE011480E
:1008F0000F49091F0968C1F38811A0FB0170014667
:10090000224600233846FFF75DFC05460848001FD5
:100910000068C0F30140401C4600B5FBF6F902E058
:10092000DFF8109000BF00BF4846BDE8F087000028
:10093000083802400024F40040787D01F8B50446F0
:100940000CB90120F8BD207800F00100002874D017
:10095000F948006800F00C0004280DD0F648006843
:1009600000F00C00082813D1F348001F006800F4C1
:100970008000B0F5800F0BD1EF4808380068C0F355
:100980004040002859D06068002856D10120D9E79E
:1009900000BF6068B0F5803F08D1E74808380068BC
:1009A00040F48030E449083908601EE06068B0F522
:1009B000A02F0DD1E0480838006840F48020DE49BF
:1009C000083908600846006840F4803008600CE090
:1009D000D9480838006820F48030D74908390860C1
:1009E0000846006820F48020086000BF606890B16D
:1009F000FFF7A0FD054606E0FFF79CFD401B6428BD
:100A000001D903209EE7CC4808380068C0F3404075
:100A10000028F1D011E0FFF78DFD054606E0FFF755
:100A200089FD401B642801D903208BE7C2480838A0
:100A30000068C0F340400028F1D1207800F00200A7
:100A400002285FD1BC48006800F00C0058B1BA48D9
:100A5000006800F00C0008281CD1B748001F00688F
:100A600000F48000B0B9B44808380068C0F3400012
:100A700020B1E068012801D0012063E7AE480838C2
:100A8000006820F0F800216940EAC100AA4908394D
:100A9000086037E0E06800B30120A8490860FFF76C
:100AA00049FD054606E0FFF745FD401B022801D938
:100AB000032047E7A04808380068C0F3400000283A
:100AC000F1D09D480838006820F0F800216940EA1C
:100AD000C10099490839086014E00020974908606E
:100AE000FFF728FD054606E0FFF724FD401B02281E
:100AF00001D9032026E7904808380068C0F3400079
:100B00000028F1D1207800F0080008282CD1606975
:100B1000A8B101208A490860FFF70CFD054606E0F0
:100B2000FFF708FD401B022801D903200AE782488D
:100B30006C300068C0F340000028F1D014E00020C1
:100B40007F490860FFF7F6FC054606E0FFF7F2FC78
:100B5000401B022801D90320F4E677486C30006876
:100B6000C0F340000028F1D1207800F004000428F0
:100B700070D1002670483830006800F0805090B97D
:100B800000BF002000906C483830006840F0805072
:100B90006949383108600846006800F080500090CC
:100BA00000BF00BF01266748006800F48070B0B93C
:100BB0006448006840F4807062490860FFF7BAFC3E
:100BC000054606E0FFF7B6FC401B022801D90320CA
:100BD000B8E65C48006800F480700028F2D000BFDE
:100BE000A068012808D154486830006840F001002E
:100BF0005149683108601DE0A06805280DD14E48B4
:100C00006830006840F004004B49683108600846CD
:100C1000006840F0010008600CE047486830006858
:100C200020F001004449683108600846006820F05F
:100C30000400086000BFA068A8B1FFF77BFC054670
:100C400009E0FFF777FC401B41F28831884202D966
:100C5000032077E626E0384868300068C0F340009B
:100C60000028EED013E0FFF765FC054608E0FFF72B
:100C700061FC401B41F28831884201D9032061E6C2
:100C80002D4868300068C0F340000028EFD1012EE5
:100C900007D129483830006820F080502649383183
:100CA000086000BFA069B8B32348006800F00C00DA
:100CB00008285ED0A069022846D100201F49086696
:100CC000FFF738FC054606E0FFF734FC401B02281E
:100CD00001D9032036E6184808380068C0F34060A0
:100CE0000028F1D1D4E907010843616A40EA811183
:100CF0000122A06AC2EB500041EA00412C20005DB5
:100D000041EA00600C49091F086001200B49086690
:100D1000FFF710FC054607E02DE0FFF70BFC401B3A
:100D2000022801D903200DE6034808380068C0F303
:100D300040600028F1D01EE0083802400000474221
:100D4000800E47420070004000200C490866FFF703
:100D5000F1FB054606E0FFF7EDFB401B022801D939
:100D60000320EFE506480068C0F340600028F2D198
:100D700001E00120E6E50020E4E500000000474234
:100D80000038024070B504462546681EB0F1807FE9
:100D900001D301200FE0681E4FF0E02148610F21D0
:100DA0004FF0FF3001F08AF800204FF0E021886119
:100DB00007200861002070BD7047704710B50246DB
:100DC00000BF92F83C00012801D1022010BD012093
:100DD00082F83C0000BF022082F83D0010684368A2
:100DE0001068846823F070030868034324F08004CB
:100DF000486804431068436010688460012082F8EA
:100E00003D0000BF002082F83C0000BF00BFDDE7CE
:100E100010B504460CB9012010BD94F83D0028B966
:100E2000002084F83C00204600F00CF8022084F8F2
:100E30003D00211D206800F0D7FC012084F83D0012
:100E40000020E9E738B504460E492068884217D1EA
:100E500000BF002000900C48006840F004000A49E0
:100E600008600846006800F00400009000BF00BF62
:100E7000012200211E20FFF7D1FB1E20FFF7BEFB41
:100E800038BD000000080040403802402DE9F04124
:100E900004460D4600BF94F83C00012802D1022010
:100EA000BDE8F081012084F83C0000BF022084F8F6
:100EB0003D002068866826F0770626F47F46206885
:100EC00086602868502833D00CDC202850D004DC01
:100ED00000284BD0102851D149E0302849D0402873
:100EE0004CD139E060282DD0702807D0B0F5805F54
:100EF00003D0B0F5005F41D10DE040E0D5E9021329
:100F00006A68206800F0DCFC2068866846F0770696
:100F10002068866033E0D5E902136A68206800F033
:100F2000CFFC2068806840F480402168886026E01B
:100F3000EA686968206800F0D7FC5021206800F05A
:100F4000CAFC1CE0EA686968206800F0E0FC6021E7
:100F5000206800F0C0FC12E0EA686968206800F0D0
:100F6000C3FC4021206800F0B6FC08E000BF00BFD1
:100F700000BF2968206800F0AEFC00E000BF00BFA1
:100F8000012084F83D0000BF002084F83C0000BF31
:100F900000BF85E7704710B5044620680069C0F3BC
:100FA0004000D8B12068C068C0F34000B0B16FF015
:100FB000020021680861012020772068806900F024
:100FC000030018B12046FFF7E5FF05E0204600F0DA
:100FD000ADF8204600F0ABF80020207720680069CB
:100FE000C0F38000D8B12068C068C0F38000B0B101
:100FF0006FF0040021680861022020772068806972
:1010000000F4407018B12046FFF7C4FF05E0204609
:1010100000F08CF8204600F08AF800202077206845
:101020000069C0F3C000D8B12068C068C0F3C00038
:10103000B0B16FF0080021680861042020772068B3
:10104000C06900F0030018B12046FFF7A3FF05E0D8
:10105000204600F06BF8204600F069F80020207769
:1010600020680069C0F30010D8B12068C068C0F3E0
:101070000010B0B16FF010002168086108202077DF
:101080002068C06900F4407018B12046FFF782FF65
:1010900005E0204600F04AF8204600F048F800201D
:1010A00020772068006900F0010058B12068C0680E
:1010B00000F0010030B16FF00100216808612046A6
:1010C00000F036F820680069C0F3C01058B12068FD
:1010D000C068C0F3C01030B16FF0800021680861B3
:1010E0002046FFF769FE20680069C0F3801058B100
:1010F0002068C068C0F3801030B16FF040002168F4
:101100000861204600F019F820680069C0F340101B
:1011100058B12068C068C0F3401030B16FF02000B3
:10112000216808612046FFF748FE10BD70477047F0
:1011300010B5044601F02AFE10BD7047704700004C
:101140002DE9F0470446206805682068C6682068D5
:1011500047694FF00008C14605F00F08B8F1000FCD
:101160000AD105F0200038B106F0200020B1204659
:1011700000F00BFCBDE8F087B8F1000F6ED007F06F
:10118000010018B906F49070002867D005F001003E
:1011900030B106F4807018B1E06B40F00100E063FC
:1011A00005F0040030B107F0010018B1E06B40F029
:1011B0000200E06305F0020030B107F0010018B151
:1011C000E06B40F00400E06305F0080030B107F088
:1011D000010018B1E06B40F00800E063E06B70B311
:1011E00005F0200028B106F0200010B1204600F0E4
:1011F000CCFB20684069C0F38019E06B00F0080068
:1012000010B9B9F1000F23D0204600F09EFB2068F2
:10121000406900F04000402816D12068406920F065
:10122000400021684861606B50B11748616B0865E8
:10123000606BFFF751F810B1606B016D88470CE0EF
:101240002046FFF77BFF08E02046FFF777FF04E02A
:101250002046FFF773FF0020E0638BE705F0800076
:1012600030B106F0800018B1204600F095FD81E70E
:1012700005F0400030B106F0400018B1204600F003
:1012800074FB77E700BF75E73719000810B504460F
:101290000CB9012010BDA06900B100E000BF94F8B6
:1012A000390028B9002084F83800204600F028F8DA
:1012B000242084F839002068C06820F40050216898
:1012C000C860204600F0B4FB2068006920F490401C
:1012D000216808612068406920F02A00216848617F
:1012E0002068C06840F400502168C8600020E063B6
:1012F000202084F8390084F83A000020CAE7000072
:1013000010B586B00446142101A8FEF7A5FF1F49B9
:101310002068884237D100BF002000901C48006838
:1013200040F400301A4908600846006800F40030B4
:10133000009000BF00BF00BF00200090144810388C
:10134000006840F00800124910390860084600683B
:1013500000F00800009000BF00BF0C2001900220A8
:10136000029000200390032004900720059001A91B
:101370000848FEF7D9FF002211462620FFF74EF954
:101380002620FFF73BF906B010BD000000440040E6
:1013900040380240000002402DE9F84304460D4663
:1013A00016461F464FF0000994F83A00202860D1F5
:1013B00005B116B90120BDE8F88300BF94F83800E4
:1013C000012801D10220F6E7012084F8380000BF8F
:1013D0000020E063222084F83A00FFF7ABF8814652
:1013E000A685E68539E0E08D401EE085A068B0F571
:1013F000805F1BD14B46002220212046009700F041
:10140000FFFC08B10320D6E7A846206938B9206858
:101410004068C0F30800A8F80000AD1C1DE020687B
:101420004068C0B2A8F800006D1C16E04B460022D0
:1014300020212046009700F0E3FC08B10320BAE722
:10144000206920B92068406805F8010B05E0206894
:10145000406800F07F0005F8010BE08D0028C2D144
:10146000202084F83A0000BF002084F8380000BF34
:10147000A1E702209FE770472DE9F84304460D4697
:1014800016461F464FF0000994F8390020285CD119
:1014900005B116B90120BDE8F88300BF94F8380003
:1014A000012801D10220F6E7012084F8380000BFAE
:1014B0000020E063212084F83900FFF73BF88146E3
:1014C000A684E6842BE0E08C401EE084A068B0F5A2
:1014D000805F16D14B46002280212046009700F005
:1014E0008FFC08B10320D6E7A846B8F80000C0F387
:1014F000080021684860206908B9AD1C0FE06D1C28
:101500000DE04B46002280212046009700F078FC39
:1015100008B10320BFE715F8010B21684860E08C93
:101520000028D0D14B46002240212046009700F0F1
:1015300067FC08B10320AEE7202084F8390000BF23
:10154000002084F8380000BFA5E70220A3E7704719
:1015500000BFFEE708B500BF0020009024480068E7
:1015600040F08000224908600846006800F08000D2
:10157000009000BF00BF00BF002000900846006838
:1015800040F0010008600846006800F0010000908B
:1015900000BF00BF00BF002000900846006840F078
:1015A000020008600846006800F00200009000BFDA
:1015B00000BF00BF002000900846006840F0040013
:1015C00008600846006800F00400009000BF00BFFB
:1015D00000BF002000900846006840F00800086046
:1015E0000846006800F00800009000BF00BF08BD7A
:1015F0003038024000B587B0002003900490059079
:1016000006900190029014481449086041F293102A
:1016100048600021114881602321C16000210161DF
:101620008161FFF7F5FB08B100BFFEE74FF4805082
:10163000039003A90948FFF729FC08B100BFFEE7A2
:1016400000200190029001A90448FFF7B7FB08B100
:1016500000BFFEE707B000BD0008004024010020E5
:1016600070B504460D461646022C00D070BD0A48DF
:101670000A4908600846456000218160C160066132
:101680000C21416100218161C161FFF7FFFD08B1BB
:1016900000BFFEE700BFE9E700440040E40000208F
:1016A00000BFFEE770477047704710B5FEF748FF70
:1016B00010BD000000B593B000BF002001902A4883
:1016C000006840F08050284908600846006800F033
:1016D0008050019000BF00BF00BF00200190234850
:1016E000006840F48040214908600846006800F422
:1016F0008040019000BF00BF0120029000040390D1
:10170000022008904105099119210A914FF4A8710E
:101710000B9102210C9107210D9102A8FFF70EF900
:1017200008B100BFFEE70F200E9002200F900020AE
:1017300010904FF4A05011904FF48050129005215A
:101740000EA8FEF7BDFF08B100BFFEE7FEF7ECFEF6
:1017500041F20101884205D10548006840F48070DB
:101760000349086013B000BD4038024000700040DB
:10177000003C02401448006840F4700012490860C0
:101780001248006840F001001049086000200F492D
:10179000083108600D4800680D4908400B49086091
:1017A0000C48091D0860081F006820F48020091FEC
:1017B0000860002005490C3108604FF000600249C4
:1017C000803908607047000088ED00E00038024072
:1017D000FFFFF6FE1030002410B50248FFF7DBFBD8
:1017E00010BD00002401002010B50268294B98426A
:1017F0000ED0B0F1804F0BD0274B984208D0274B2A
:10180000984205D0264B984202D0264B984203D1ED
:1018100022F070024B681A431E4B984220D0B0F160
:10182000804F1DD01C4B98421AD01C4B984217D0A9
:101830001B4B984214D01B4B984211D01A4B984224
:101840000ED01A4B98420BD0194B984208D0194B26
:10185000984205D0184B984202D0184B984203D1B9
:1018600022F44072CB681A4322F080034C6943EAA9
:10187000040202608B68C3620B688362054B984266
:1018800002D0084B984201D10B69036301234361E5
:1018900010BD0000000001400004004000080040AE
:1018A000000C0040000401400040014000440140A1
:1018B0000048014000180040001C0040002000408B
:1018C00030B50C46816821F47F4142EA0325254367
:1018D0002943816030BD0A46816821F0700142F0E1
:1018E000070319438160704730B50B461446026AFE
:1018F000056A25F001050562816921F0F00141EAE0
:10190000041122F00A021A438161026230BD30B52F
:101910000B461446056A25F0100505628169026AC6
:1019200021F4704141EA043122F0A00242EA03129C
:101930008161026230BD70B50546AC6B0020E08568
:10194000E0842046FFF7FAFB70BD0168C96821F406
:1019500090710268D1600168496921F00101026853
:101960005161202180F83A10704710B50446206874
:10197000C06820F040002168C860202084F8390049
:101980002046FFF7E4FD002010BD70B5044694F832
:101990003A0022284AD1A068B0F5805F13D1A56A29
:1019A000206940B920684068C0F308002880A06A18
:1019B000801CA06219E020684068C0B22880A06A3C
:1019C000401CA06211E0206938B920684068C1B2AB
:1019D000A26A501CA062117007E02068406800F005
:1019E0007F01A26A501CA0621170E08D401E80B27F
:1019F000E085C8B92068C06820F020002168C86070
:101A00002068C06820F480702168C8602068406940
:101A100020F0010021684861202084F83A00204627
:101A2000FFF729FD002070BD0020FCE70220FAE747
:101A30002DE9F04104462068006920F44050E16837
:101A40000843216808612169A06808436169084367
:101A5000E16940EA01052068C06849F20C618843E9
:101A600028432168C8602068406920F44070A1695B
:101A7000084321684861E069B0F5004F7ED1C44950
:101A80002068884203D0C349206888425DD1FEF7B0
:101A9000EDFE00EBC00101EB001061684900B0FBF6
:101AA000F1F06421B0FBF1F00601FEF7DFFE00EB80
:101AB000C00101EB001061684900B0FBF1F7FEF7CF
:101AC000D5FE00EBC00101EB001061684900B0FBDE
:101AD000F1F06421B0FBF1F000EBC00101EB00106C
:101AE000A7EB8000322101EBC0006421B0FBF1F0D4
:101AF00000F0F80006EB4006FEF7B8FE00EBC00170
:101B000001EB001061684900B0FBF1F7FEF7AEFE93
:101B100000EBC00101EB001061684900B0FBF1F07F
:101B20006421B0FBF1F000EBC00101EB0010A7EB6A
:101B30008000322101EBC0006421B0FBF1F000F025
:101B4000070030442168886020E1FEF77FFE00EB4B
:101B5000C00101EB001061684900B0FBF1F06421A5
:101B6000B0FBF1F00601FEF771FE00EBC00101EBE6
:101B7000001061684900B0FBF1F700E045E0FEF7B6
:101B800065FE00EBC00101EB001061684900B0FB8D
:101B9000F1F06421B0FBF1F000EBC00101EB0010AB
:101BA000A7EB8000322101EBC0006421B0FBF1F013
:101BB00000F0F80006EB4006FEF748FE00EBC0011F
:101BC00001EB001061684900B0FBF1F7FEF73EFE43
:101BD00000EBC00101EB001061684900B0FBF1F0BF
:101BE0006421B0FBF1F000EBC00101EB0010A7EBAA
:101BF0008000322101EBC0006421B0FBF1F000F065
:101C00000700304421688860C0E06149206888424C
:101C100003D06049206888425CD1FEF727FE00EBC4
:101C2000C00101EB001061688900B0FBF1F6FEF71E
:101C30001DFE00EBC00101EB001061688900B0FBE4
:101C4000F1F06421B0FBF1F000EBC00101EB0010FA
:101C5000A6EB8000322101EB00106421B0FBF1F013
:101C600000F0F006FEF702FE00EBC00101EB0010F1
:101C700061688900B0FBF1F06421B0FBF1F006EB84
:101C80000016FEF7F3FD00EBC00101EB00106168E8
:101C90008900B0FBF1F7FEF7E9FD00EBC00101EBB5
:101CA000001061688900B0FBF1F06421B0FBF1F035
:101CB00000EBC00101EB0010A7EB8000322101EB2B
:101CC00000106421B0FBF1F000F00F0030442168F7
:101CD00088605BE0FEF7BAFD00EBC00101EB00108D
:101CE00061688900B0FBF1F6FEF7B0FD00EBC001C2
:101CF00001EB001061688900B0FBF1F06421B0FBDA
:101D0000F1F000EBC00101EB0010A6EB80003221E6
:101D100001EB00106421B0FBF1F000F0F006FEF7DB
:101D200095FD00EBC00101EB001061688900B0FB7C
:101D3000F1F06421B0FBF1F006EB0016FEF786FD32
:101D400000EBC00101EB001061688900B0FBF1F706
:101D5000FEF77CFD00EBC00101EB0010616889001B
:101D6000B0FBF1F06421B0FBF1F000EBC00101EB3E
:101D70000010A7EB8000322101EB00106421B0FBC2
:101D8000F1F000F00F00304421688860BDE8F08178
:101D90000010014000140140014691F8390021284B
:101DA0002CD18868B0F5805F0FD10A6A1088C0F323
:101DB00008000B685860086918B9086A801C086236
:101DC00009E0086A401C086205E00B6A581C0862BA
:101DD00018780B685860C88C401E80B2C88458B907
:101DE0000868C06820F080000B68D8600868C06888
:101DF00040F040000B68D860002070470220FCE7EC
:101E00002DE9F04104460D4617469846069E21E00E
:101E1000701CF8B12EB1FEF78DFBA0EB0800B042AC
:101E200018D92068C06820F4D0702168C860206884
:101E3000406920F0010021684861202084F83900C1
:101E400084F83A0000BF002084F8380000BF032067
:101E5000BDE8F081206800682840A84201D1012037
:101E600000E00020B842D3D00020F1E710B50D48C3
:101E7000FFF766F90B480068C06800F0200008B161
:101E800000F08CFF07480068C06800F0800008B1CF
:101E900000F08CFF2620FEF79FFB0248FFF750F969
:101EA00010BD0000E400002000BFFEE7024800680B
:101EB000C0F30220704700000CED00E010B50028D0
:101EC00004DB0A07130E054A135406E00A07140E32
:101ED000034A00F00F031B1FD45410BD00E400E0C0
:101EE00018ED00E002E008C8121F08C1002AFAD16C
:101EF00070477047002001E001C1121F002AFBD18A
:101F00007047000070B505460C4606480288064931
:101F1000681CFEF788F903480088401C20800020D8
:101F200070BD00000E0000206401002010B50024E8
:101F300006480078012806D105480068804700203F
:101F40000249087000E00624204610BD230000204E
:101F5000280000202DE9F84F054689464FF0000A79
:101F600001F068F900B13EE0B9F80000022838DB62
:101F7000684600F0BDFF009840780602009880781F
:101F80000643701C86B20098C0780402009800795D
:101F9000044304F0070038B12046E11704EB517107
:101FA000C910491CCFB205E02046E11704EB51717E
:101FB000C1F3C707012C11DB6878B8420ED10023AA
:101FC00022463146A81C00F00BFC8046B8F1000FF9
:101FD00009D0404600F0C8FE824604E04FF0030AF4
:101FE00001E04FF0030A5046BDE8F88F2DE9F84FA5
:101FF000054689464FF0000A01F01CF900B13DE0AA
:10200000B9F80000022837DB684600F071FF00983D
:1020100040780602009880780643701C86B20098CB
:10202000C078040200980079044304F0070038B136
:102030002046E11704EB5171C910491CCFB205E0ED
:102040002046E11704EB5171C1F3C707012C10DBE7
:102050006878B8420DD122463146A81C00F060FCD9
:102060008046B8F1000F09D0404600F07DFE824660
:1020700004E04FF0030A01E04FF0030A5046BDE8C8
:10208000F88F2DE9F843054688464FF0000901F026
:10209000D1F800B12CE0B8F80000022826DB684631
:1020A00000F026FF009840780602009880780643EA
:1020B000701C86B20098C07804020098007904432E
:1020C000012C10DB6000697888420CD10023224685
:1020D0003146A81C00F08EFC07464FB1384600F090
:1020E00043FE814604E04FF0030901E04FF003098D
:1020F0004846BDE8F8832DE9F843054688464FF089
:10210000000901F097F800B12BE0B8F800000228B0
:1021100025DB684600F0ECFE009840780602009847
:1021200080780643701C86B20098C078040200983C
:1021300000790443012C0FDB6000697888420BD1E1
:1021400022463146A81C00F0B1FC07464FB1384684
:1021500000F00AFE814604E04FF0030901E04FF071
:1021600003094846BDE8F8832DE9F84F054689463E
:102170004FF0000B01F05EF800B144E0B9F8000048
:10218000022840DB684600F0B3FE00984078060263
:10219000009880780643701C86B20098C0780702C9
:1021A000009800790743009840794FEA002800988A
:1021B000807940EA080808F101001FFA80F80098C9
:1021C000C0794FEA002A0098007A40EA0A0A7800AB
:1021D0006978884215D101235246414600980A3059
:1021E00000F008FC044634B900233A463146A81CE6
:1021F00000F000FC044634B1204600F0B5FD8346F3
:1022000001E04FF0030B5846BDE8F88F2DE9F84385
:1022100004460F464FF000083888052829D1607819
:102220000502A0780543681C85B22079F0B9E078F2
:10223000FF2801D0E078C8B900208DF80100E078CF
:10224000FF2803D101208DF8000002E000208DF866
:10225000000001231A462946684600F0C1FA0646E6
:102260004EB1304600F080FD804604E04FF0030898
:1022700001E04FF003084046BDE8F8832DE9F04146
:1022800004460F464FF000083888052812D16078C0
:102290000502A0780543681C85B201231A46294629
:1022A000E01C00F0A7FB064636B1304600F05CFDAE
:1022B000804601E04FF003084046BDE8F0812DE97B
:1022C000F84F054689464FF0000BB9F80000052885
:1022D00003D000F0AFFF002837D0684600F008FEBA
:1022E00068780602A8780643701C86B2E878040273
:1022F00028790443009890F805A004F0070038B14D
:102300002046E11704EB5171C910491CCFB205E01A
:102310002046E11704EB5171C1F3C707012C11DB13
:1023200057450FD10123224631460098801D00F009
:1023300057FA8046B8F1000F09D0404600F014FD6E
:10234000834604E04FF0030B01E04FF0030B5846C7
:10235000BDE8F88F2DE9F84F82460F464FF000098F
:102360003888052802D000F065FF38B3684600F0D1
:10237000BFFD009840780402009880780443601CF8
:1023800084B20098C078050200980079054300984F
:1023900090F80580680040450DD101232A4621466A
:1023A0000098801D00F026FB06464EB1304600F036
:1023B000DBFC814604E04FF0030901E04FF0030924
:1023C0004846BDE8F88F00000148007870470000DB
:1023D000220000202DE9F04104460D4616461F4616
:1023E0004FF00008F4B91A481A4908601A481B4906
:1023F00008601B481B4908601B481C4908600020F6
:102400001B4908601B481C4908601C481C4908609F
:102410001C481D4908603A463146284600F036F906
:10242000804602E04FF0020800BF00BFB8F1000F85
:102430000AD100F0E5FD10B94FF0030802E00120D9
:102440001249087000F05AFD4046BDE8F0810000D6
:10245000B527000828000020D12700082C00002004
:102460002527000824000020DD2600083000002079
:10247000340000207D30000838000020A53100081D
:102480003C00002011310008400000202300002003
:102490002DE9F84300277448007830B1724800787D
:1024A000032802D00620BDE8F883684600F080FDCE
:1024B000012875D1BDF80000042827D004DC0128CC
:1024C00007D002286DD108E008287FD01028F9D164
:1024D0008EE0032064490870C2E0644A644965489C
:1024E000654B1B68984707464FB900F0A9FC614946
:1024F0000978884203D1042000F088FD05E001201E
:1025000000F04AFD102000F081FDA9E05848006865
:1025100000785A49087001205949087057480078D6
:10252000C01120B152480068407808703FE0002494
:102530003AE0544810F8340000B937E0514810F838
:1025400034004E49097888422DD1012000F012FD57
:1025500000F070FEB0B100F095FC44490880012500
:102560000DE0E8B200F012FD464800EBC4003F4920
:1025700042683F4800689047414908706D1C102D23
:10258000EFDD09E03F4800EBC400384942683848B5
:10259000006890473A490870002000F0EBFC05E025
:1025A0005FE05CE012E0641C102CC2DB00BF34482A
:1025B000007830B1022000F0EFFC102000F026FD82
:1025C00003E000F065FC00F0D3FC49E0284800F08F
:1025D0008FFC00F057FC804600F032FC81464246FA
:1025E000234801684846284B1B689847074637E050
:1025F000FFF7EAFE06461E4800F07AFC26B1012EDF
:102600000FD0022E27D119E000F03CFC804600F0EC
:1026100017FC8146424616480168484600F05CFCBB
:1026200019E000F02FFC804600F00AFC814642468B
:102630000F480168484600F043FC0CE000F022FC23
:10264000804600F0FDFB8146424609480168484645
:1026500000F02AFC00BF00BF00F08AFC00E000BFD1
:1026600000BF00201FE7000023000020D200002050
:10267000CC000020D000002030000020D10000203D
:10268000D40000204C000020240000202DE9F0415F
:1026900007460C4616464FF00008334608222146EE
:1026A000384600F0CBFC012802D04FF003080FE0C1
:1026B000B4F5964F01D9232503E060000649B1FB2C
:1026C000F0F5A8B200F0D6FC012801D04FF00308C5
:1026D0004046BDE8F0810000A07F17002DE9F041E1
:1026E00004460D46164600270C480088042810DBD7
:1026F0000A4801880A4800F0A9FB50B90848007848
:10270000207006480088C01E30800548401C2860A4
:1027100000E005273846BDE8F08100001A000020DF
:10272000810200202DE9F04104460E4617464FF085
:102730000008102C02DD0220BDE8F0811848007866
:10274000012829D1701E1749086001201649088008
:102750001448006804700846008838440880084619
:1027600001881048006800F071FB05460E49088892
:10277000411C0D4B19800D490D542A121946088829
:10278000411C198009490A54012009490870012196
:10279000002000F0B5FB01E04FF005084046CBE714
:1027A00011000020140000201800002084010020E7
:1027B0001000002010B500200449087000210120FD
:1027C00000F09EFB00F0CFFB10BD000011000020C8
:1027D00010B50021084600F093FB00F0BEFB10BDD1
:1027E0002DE9FF5F05460E4614469A4600200390E9
:1027F0002046E11704EB5171C910491C1FFA81F8FA
:1028000000F01EFB401E444901EBC009002002906D
:10281000402001904148008800904FF0010A701E4E
:1028200086B20298864271DB3219DDE90110084454
:1028300082426BDC0099711A88B2C11700EB5171AA
:10284000CF100099711A88B2C11700EB5171C910ED
:10285000A0EBC1011FFA81FBBAF1000F03D0BAF15E
:10286000010F51D126E00EE039467A1C97B201EBF8
:1028700009000822594600F0E6FC05F8010BA8F112
:1028800001001FFA80F8B8F1000FEDDC6D1E204644
:10289000E11704EB5171C910A4EBC1018CB2287887
:1028A000C4F10801884028702878C4F10801084163
:1028B000287029E00EE015F8013B39467A1C97B2E2
:1028C00001EB09000822594600F0D2FCA8F10100F2
:1028D0001FFA80F8B8F1010FEDDC2046E11704EB98
:1028E0005171C910A4EBC1018CB264B115F8013B60
:1028F000E2B2394607F1010C1FFA8CF701EB09002F
:10290000594600F0B5FC00BF02E0FFE7012003904C
:10291000039804B0BDE8F09FA2030020D800002077
:102920002DE9FE4F06460D46144600200290204633
:10293000E11704EB5171C910491C1FFA81F900F02D
:102940007FFA401E294901EB400A4FF0000B10208E
:102950000190274800880090681E85B25D4540DBE5
:1029600029190198584481423BDC0099691A88B2C0
:10297000C11700EB5171CF100099691A88B2C117C5
:1029800000EB5171C910A0EBC1011FFA81F80EE0F4
:1029900016F8013B39467A1C97B201EB0A0008226F
:1029A000414600F065FCA9F101001FFA80F9B9F178
:1029B000010FEDDC2046E11704EB5171C910A4EBC7
:1029C000C1018CB27CB116F8013BE2B2394607F185
:1029D000010C1FFA8CF701EB0A00414600F048FC9D
:1029E00001E0012002900298BDE8FE8F82030020E2
:1029F000D60000202DE9FC5F04460F461646002055
:102A0000019000F01DFA401E00EBC00101EB001028
:102A1000244901EBC0084FF0000A4FF0640B224834
:102A2000008800904FF00109781E87B2574534DBCB
:102A3000B8190AEB0B0188422FDC0098381A85B2CE
:102A4000B9F1000F03D0B9F1010F25D110E00CE06E
:102A500038F81500001204F8010B18F8150004F8F6
:102A6000010B681C85B2701E86B2002EF0DC13E0EC
:102A70000FE014F8011B080228F8150014F8010BE8
:102A800038F81510084328F81500681C85B2701E28
:102A900086B2002EEDDC00BF01E00120019001981C
:102AA000BDE8FC9FA2100020DC0000202DE9F84FBB
:102AB00004460D4617460020009000F0C1F9401E64
:102AC00000EBC00101EB0010174901EBC0084FF00B
:102AD00000094FF0640A1548B0F800B0681E85B2CE
:102AE0004D451BDBE81909EB0A01884216DCA5EB12
:102AF0000B0086B20FE014F8011B080228F816003C
:102B000014F8010B38F81610084328F81600701C4A
:102B100086B2781E87B2002FEDDC01E00120009024
:102B20000098BDE8F88F000022040020DA000020A1
:102B30002DE9F84306460C4615461F464FF000089F
:102B4000102E02DD4FF0020822E0384600F078FB3C
:102B500010B94FF005081BE0684600F0C9F930468F
:102B600000F014FA042000990870201200994870AF
:102B700000998C7028120099C87000990D71052079
:102B800000F010FA082000F041FA00F0B9F8804691
:102B90004046BDE8F8832DE9F84F07460E46144637
:102BA0009846DDF828A04FF00009CB46102F02DD33
:102BB0004FF0020B4CE0B4F5F66F02DD4FF0020B64
:102BC00046E0504600F03CFB10B94FF0050B3FE0EB
:102BD000684600F08DF9384600F0D8F90F200099CA
:102BE000087030120099487000998E702012009978
:102BF000C87000990C7104F0070038B12046E11745
:102C000004EB5171C910491CCDB205E02046E11713
:102C100004EB5171C1F3C705009845710098801D00
:102C200000900AE04846411C1FFA81F918F800009C
:102C3000009908700098401C00904D45F2DCA81DDA
:102C400000F0B0F9082000F0E1F900F059F88346EF
:102C50005846BDE8F88F2DE9F84F80460D461446DA
:102C60001E46DDF828900027BA46B8F1100F02DDA5
:102C70004FF0020A40E0484600F0E2FA10B94FF087
:102C8000050A39E0684600F033F9404600F07EF965
:102C900010200099087028120099487000998D70D2
:102CA00020120099C87000990C716006000E0099FE
:102CB00048710098801D009011E036F8170000124E
:102CC000009908700098401C00903846791C8FB21B
:102CD00016F81000009908700098401C0090BC4243
:102CE000EBDC6100891D88B200F05CF9082000F07F
:102CF0008DF900F005F882465046BDE8F88F0000D7
:102D000000200A490978202907D0402906D08029C7
:102D100006D0B1F5807F07D104E005E0042003E090
:102D2000032001E0062000BF00BF7047E000002044
:102D3000FDF712FCFEF7BEFCFEF70CFCFEF75AFC9A
:102D400002234FF4E13219460020FFF743FBFFF75F
:102D5000EDF808E0FFF79CFB012000F02FF84FF49E
:102D60007A70FDF7CDFAF5E7014621B1012904D0CB
:102D7000072906D103E0002005E0022003E0062039
:102D800001E0042000BF00BF7047000010B50248FA
:102D90000068804710BD00004000002010B50248C8
:102DA0000068804710BD00003800002010B50248C0
:102DB0000068804710BD00003C0000201FB504469D
:102DC0001EA000680190FDF7B5FBC0B2ADF8080089
:102DD000FDF7B0FBC0F30720ADF80A00FDF7AAFB32
:102DE000C0F30740ADF80C00FDF7A4FB000EADF8F2
:102DF0000E00012C04D0022C0CD0032C1CD113E0AB
:102E00004FF0FF3002AB0422012100900846FFF78B
:102E100022FF11E04FF0FF3001AB042201210090AE
:102E20000846FFF7B8FE07E04FF0FF330422012108
:102E30000846FFF77DFE00BF00BF1FBD0100010077
:102E400001480078704700002000002070B502465D
:102E50000C46FF25FF2309E012F8010B80EA03016D
:102E60000648405C80EA05030548455C201EA4F145
:102E70000106B4B2F0D143EA052070BDE832000883
:102E8000E833000801480088704700001200002065
:102E90000120034908702020024908807047000083
:102EA000E0000020DE00002010B50123024C23705A
:102EB0001B02024C238010BDE0000020DE00002039
:102EC00010B50123024C23708023024C238010BDD7
:102ED000E0000020DE00002010B50123024C23702A
:102EE0004023024C238010BDE0000020DE000020C3
:102EF0000149016070470000850100207047000013
:102F000040B1124A1268D26842F020020F4B1B688F
:102F1000DA6007E00D4A1268D26822F020020B4BFB
:102F20001B68DA6041B1094A1268D26842F0800237
:102F3000064B1B68DA6007E0044A1268D26822F088
:102F40008002024B1B68DA6070470000E40000203A
:102F500010B5022000F014F810BD704710B5012024
:102F600000F00EF810BD10B5002000F009F810BDFB
:102F700070470000014908707047000021000020E0
:102F800001490870704700001D00002001490870C9
:102F900070470000200000200149087070470000C1
:102FA0002200002001490880704700001200002024
:102FB00010B5044600F0ACF810480078042810D092
:102FC00004DC012807D0022814D107E008280BD020
:102FD00010280FD10BE0012020800BE00220208080
:102FE00008E00420208005E00820208002E0102076
:102FF000208000BF00BF012010BD0000E0000020C5
:103000000120014908707047E00000200146024A93
:103010001170012070470000E000002010B5044648
:1030200001231A4621460448FEF7B6F908B10020EC
:1030300010BD0120FCE70000E40000202DE9F04174
:1030400005460E4617461C46224631462846FEF7E0
:1030500007FB0120BDE8F08101B501231A4669464E
:103060000348FEF709FA08B1002008BD0120FCE77B
:10307000E4000020014601207047000038B500241C
:103080006846FFF7CBFF1E48007830B101280AD010
:1030900002281DD003282FD102E0FFF764FF2BE0A8
:1030A000FFF761FF28E0FFF758FF0020154908707F
:1030B000154908809DF800200888411C124B198092
:1030C00012490A5402200E490870FFF74CFF13E022
:1030D0000D480088FF2809DC9DF800200A4908886F
:1030E000411C094B198009490A5402E00320044994
:1030F0000870FFF738FF00BF00BF204638BD000052
:1031000011000020100000201A0000208102002081
:1031100010B500241F48007820B1022807D00328EA
:1031200012D109E00120FFF771FF04460DE00220F3
:10313000FFF76CFF044608E00120FFF72DFF102089
:10314000FFF764FF044600E000BF00BF0120114903
:1031500008701148007802280AD11048007830B968
:103160000020FFF719FF1020FFF750FF044600E092
:1031700000BF00BF002008490870FFF7EEFE0848B6
:103180000078022803D10420FFF740FF04462046C0
:1031900010BD000011000020100000201C000020C5
:1031A0001D00002010B500241D48007810B1012832
:1031B00031D104E000210120FFF7A2FE2CE01948E4
:1031C000008878B1184909680878FFF745FF164864
:1031D0000068401C1449086012480088401E1149CC
:1031E000088017E01148007808B9012000E00020AD
:1031F0000F49087000210120FFF782FE02200849D4
:1032000008700B480078012802D1FFF7A1FE01E009
:10321000FFF7A4FE00E000BF00BF204610BD000085
:10322000100000201800002014000020840100205D
:103230001C00002001480078704700001C0000209E
:10324000014601207047F0B503460C461546E208DA
:10325000A4EBC20087B20120A840401E86B2995C50
:10326000501C185C41EA002139413140C8B2F0BD20
:103270002DE9F043044615461F46C808A1EBC008D7
:103280001FFA88FC07FA0CF81FFA88F74FF00108BC
:1032900008FA05F8A8F101081FFA88F6A1EBC008A2
:1032A00006FA08F81FFA88F6225C00F1010814F803
:1032B000088042EA082222EA060848EA0702225465
:1032C0004FEA222900F1010804F80890BDE8F083D4
:1032D00000000000000000000102030406070809C6
:1032E000000000000102030400C1814001C08041D0
:1032F00001C0804100C1814001C0804100C18140C6
:1033000000C1814001C0804101C0804100C18140B5
:1033100000C1814001C0804100C1814001C08041A5
:1033200001C0804100C1814001C0804100C1814095
:1033300000C1814001C0804100C1814001C0804185
:1033400001C0804100C1814000C1814001C0804175
:1033500001C0804100C1814001C0804100C1814065
:1033600000C1814001C0804101C0804100C1814055
:1033700000C1814001C0804100C1814001C0804145
:1033800001C0804100C1814000C1814001C0804135
:1033900001C0804100C1814001C0804100C1814025
:1033A00000C1814001C0804100C1814001C0804115
:1033B00001C0804100C1814001C0804100C1814005
:1033C00000C1814001C0804101C0804100C18140F5
:1033D00000C1814001C0804100C1814001C08041E5
:1033E00001C0804100C1814000C0C101C30302C2CD
:1033F000C60607C705C5C404CC0C0DCD0FCFCE0E35
:103400000ACACB0BC90908C8D81819D91BDBDA1AA4
:103410001EDEDF1FDD1D1CDC14D4D515D71716D614
:10342000D21213D311D1D010F03031F133F3F23284
:1034300036F6F737F53534F43CFCFD3DFF3F3EFEF4
:10344000FA3A3BFB39F9F83828E8E929EB2B2AEA64
:10345000EE2E2FEF2DEDEC2CE42425E527E7E626D4
:1034600022E2E323E12120E0A06061A163A3A26244
:1034700066A6A767A56564A46CACAD6DAF6F6EAEB4
:10348000AA6A6BAB69A9A86878B8B979BB7B7ABA24
:10349000BE7E7FBF7DBDBC7CB47475B577B7B67694
:1034A00072B2B373B17170B0509091519353529204
:1034B00096565797559594549C5C5D9D5F9F9E5E74
:1034C0005A9A9B5B99595898884849894B8B8A4AE4
:1034D0004E8E8F4F8D4D4C8C448485458747468654
:1034E000824243834181804008350008000000206B
:1034F000E4000000E41E0008EC350008E4000020B1
:1035000044200000F41E00080024F4000000000025
:10351000100000000100000000000000000000009A
:103520000000000000000000000000020000000099
:10353000000000000000000000000000000000008B
:10354000000000000000000000000000000000007B
:103550000000000011000000051F0008040000002A
:10356000F72000080300000083200008100000007E
:1035700055230008060000007D2200081700000007
:103580006921000801000000551F00080500000027
:103590000D2200080F000000BF22000802000000FA
:1035A000ED1F000800000000000000000000000007
:1035B000000000000000000000000000000000000B
:1035C00000000000000000000000000000000000FB
:1035D00000000000000000000000000000000000EB
:0C35E000000000000000000000000000DF
:040000050800018965
:00000001FF
