:03000000020644B1
:0C064400787FE4F6D8FD75811C0202D717
:100177000000E43F282028258108421002020802D7
:10018700E83F04020707840A4412346204020002AB
:1001970088208824882488248824BF2488248824C5
:1001A700882488248824B8248724422440202020B7
:1001B700800080004001200210040808F4178360C3
:1001C7008000FC1F8000880890089004FF7F0000D3
:1001D70080008200840F44082004F03F2722242255
:1001E700E43F0405840C8454444424780A00F17FD6
:1001F700F80F0808F80F0808F80F0000FC3F040084
:10020700F41F0400FC7F9410140912065218316081
:10021700800080008000FC1F841084108410FC1F65
:10022700841084108410FC1F845080408040007F1D
:100237000000FE1F00080004000280018000FF7F0D
:10024700800080008000800080008000A0004000C7
:100257000000E41F481048104110820892089008D7
:1002670008050805070204020405840844103060E5
:1002770040008000FE7F02400120F80700020001D5
:100287008000FF7F8000800080008000A000400089
:1002970000010402E83F28200100C21F0202C81F14
:1002A7004812C41F4712C41F0400840844102020AA
:1002B7000000FC1F0000000000000000FF7F80001E
:1002C700800088088810842082408140A000400078
:10061E00E4FDD3EF9400EE940040080DEF1F70F24E
:03062E001E80EF3C
:0106310022A6
:0405DA007FE87E0335
:1005DE00E4FDFCC3ED9FEC9E5015E4FBFA0BBB0053
:0F05EE00010ABA03F8BB84F50DBD00010C80E4CF
:0105FD0022DB
:1005FE00E4FE53A0FEEF20E70553A0FD800343A0C9
:0F060E0002EF25E0FF43A0010EBE08E653A0FE59
:01061D0022BA
:0C0632007F011205D47F401205D47F2CFC
:06063E0053A0F70205FEC7
:1005AF007F2A12063EE4FF1205D4E4FF1205D4E4BD
:1005BF00FF1205D47FF01205D47F2B12063EE4FF05
:0505CF001205D4E4FF59
:0605D40043A0080205FE31
:100582001205AF120632E4FDFCE4FBFA7FFF12050E
:10059200D47FFF1205D40BBB00010AEB64F04A7052
:0C05A200EB0DBD00010CBC01E0BD40DD14
:0105AE00222A
:040550008E088F0979
:100554001205AF120632E4FDFCE4FBFAE508FF12D3
:1005640005D4AF091205D40BBB00010AEB64F04AB1
:0D05740070EA0DBD00010CBC01DFBD40DCD4
:010581002257
:1000030043A00143A01053A0FB1205DA43A004123E
:1000130005DE7F1112063E7F787E001205DE7F3AF1
:1000230012063E7F051205D47FC512063E7F1A12C3
:1000330005D47F3612063EE4FF1205D47FB21206C2
:100043003E7F051205D47F051205CF7F331205D4F9
:100053007F331205D47FB712063E7F051205D47F86
:10006300BB12063E7F3F1205D47FC012063E7F2C93
:100073001205D47FC212063E7F011205D47FC3123C
:10008300063E7F0F1205D47FC412063E7F20120561
:10009300D47FC612063E7F011205D47FD012063EDE
:1000A3007FA41205D47FA11205D47FE812063E7FF8
:1000B300031205D47FE912063E7F091205D47F0996
:1000C3001205D47F081205D47FE012063E7FD012BA
:1000D30005D47F051205D47F091205D47F091205C3
:1000E300D47F081205D47F141205D47F281205D4B7
:1000F3007F331205D47F3F1205D47F071205D47FC7
:10010300131205D47F141205D47F281205D47F302F
:100113001205D47FE112063E7FD01205D47F05126B
:1001230005D47F091205D47F091205D47F0812056F
:10013300D47F031205D47F241205D47F321205D451
:100143007F321205D47F3B1205D47F141205D47F6E
:10015300131205D47F281205D47F2F1205D47F21D3
:1001630012063E7F1112063E7F787E001205DE7F67
:040173002902063E19
:0403F9007D96FCFEF3
:0403FD008E088F09CE
:10040100E4FBFAF97F2A12063EE508FF1205D4AF94
:10041100091205D4740F2509F509E43508F508FF1B
:100421001205D4AF091205D47F2B12063EAF041278
:1004310005D4AF051205D4740F2DFDE43CFCFF1269
:1004410005D4AF05120639E4F511F51275F020E572
:1004510010A42477F582E5F03401F583E58229F5CE
:1004610082E43583F583E493FAE4FBEA30E014AFE8
:100471000FAE0EAD0DAC0C780812053D1205D4AFD0
:100481000F80077FFF1205D47FFF1205D4EAC31343
:10049100FA0BBB08D6090512E51270020511C394C7
:0704A10020E511940040A5C5
:0104A8002231
:0604A9008B138A14891573
:1004AF007F2A1205CAE4FF1205D47F771205C5E42F
:1004BF00FF1205D47F78120639E4F519F518F517F0
:1004CF00F516E47F807E70FDFCAB19AA18A917A85A
:1004DF0016C312052C502CAB130515E515AA147075
:1004EF0002051414F9120513FF1205D4E51924019E
:1004FF00F519E43518F518E43517F517E43516F541
:03050F001680BF94
:0105120022C6
:0406500075A0FF2270
:1002D7001206501200037F007EF81205501205DA4D
:1002E7007FE07E071205501205DA7F1F7E00120598
:1002F700501205DA120582E4F50F750EF8F50DF5C3
:100307000CF5107D64FC7F68FE1203FDE4750FE0B9
:10031700750E07F50DF50C7510017D64FC7F78FEF1
:100327001203FDE4750F1FF50EF50DF50C751002A0
:100337007F501203F974FFF50FF50EF50D750C00DC
:100347007510037D967C007F607E001203FDE475C7
:100357000F1FF50EF50DF50C7510047F701203F9DC
:10036700E4750FE0750E07F50DF50C7510057D9614
:10037700FC7F8AFE1203FDE4F50F750EF8F50DF507
:100387000C7510067D96FC7F9AFE1203FDE4750F2F
:100397001FF50EF50DF50C7510077DBEFC7F60FE91
:1003A7001203FDE4750FE0750E07F50DF50C7510DA
:1003B700087DBEFC7F70FE1203FDE4F50F750EF895
:1003C700F50DF50C7510097DBEFC7F8AFE1203FD45
:1003D700E4750F1FF50EF50DF50C75100A7DBEFCC3
:1003E7007F9AFE1203FD1205DA1205821205DA0260
:0203F70002FE04
:10051300BB010689828A83E0225002E722BBFE02E6
:09052300E32289828A83E4932219
:10052C00EB9FF5F0EA9E42F0E99D42F0E89C45F025
:01053C00229C
:10053D00E8600FECC313FCED13FDEE13FEEF13FF9C
:03054D00D8F122C0
:00000001FF
