:020000040800F2
:1000000080080024B10200083127000803260008F8
:100010002D270008E1030008D54300080000000078
:10002000000000000000000000000000352700086C
:10003000E503000800000000332700083727000808
:10004000CB020008CB020008CB020008CB0200085C
:10005000CB020008CB020008CB020008CB0200084C
:10006000CB020008CB020008CB020008CB0200083C
:10007000CB020008CB020008CB020008CB0200082C
:10008000CB020008CB020008CB020008CB0200081C
:10009000CB020008CB020008CB020008CB0200080C
:1000A000CB020008CB020008CB020008CB020008FC
:1000B000CB020008CB020008BD280008CB020008D4
:1000C000CB020008CB020008CB020008CB020008DC
:1000D000CB020008CB02000899430008CB020008BD
:1000E000CB020008CB02000800000000CB02000891
:1000F000CB020008CB020008CB020008CB020008AC
:10010000CB020008CB020008CB020008CB0200089B
:10011000CB020008CB020008CB020008CB0200088B
:10012000CB020008CB020008CB020008CB0200087B
:10013000CB020008CB020008CB020008CB0200086B
:1001400000000000000000000000000000000000AF
:10015000CB020008CB020008CB020008CB0200084B
:10016000CB020008CB020008CB020008CB0200083B
:10017000CB020008CB020008CB0200080000000000
:10018000CB020008CB020008CB020008CB0200081B
:10019000CB020008CB020008CB020008CB0200080B
:1001A000CB020008CB020008CB020008CB020008FB
:1001B000CB020008CB020008CB020008CB020008EB
:1001C000CB020008CB020008CB020008CB020008DB
:1001D000CB020008CB020008CB020008CB020008CB
:1001E000CB020008CB020008CB020008CB020008BB
:1001F000CB020008CB020008CB020008CB020008AB
:10020000CB020008CB020008CB020008CB0200089A
:10021000CB020008CB020008CB020008CB0200088A
:10022000CB020008CB020008CB020008000000004F
:10023000CB020008CB02000800000000CB0200083F
:10024000CB020008CB020008CB020008CB0200085A
:10025000CB020008CB020008CB020008CB0200084A
:10026000CB020008CB020008CB020008CB0200083A
:10027000CB020008CB020008CB02000800000000FF
:10028000CB020008CB020008CB02000800000000EF
:1002900000000000CB020008DFF810D000F08EF85C
:1002A00000480047C5530008AFF3008080080024D1
:1002B0000648804706480047FEE7FEE7FEE7FEE700
:1002C000FEE7FEE7FEE7FEE7FEE7FEE7152800088B
:1002D000990200082DE9F05F0546002092469B46F2
:1002E00088460646814640241BE02846414647464C
:1002F000224600F053F853465A46C01A914110D393
:1003000011461846224600F03AF82D1A67EB01080C
:100310004F4622460120002100F031F817EB00097A
:100320004E41201EA4F10104DFDC484631462A4636
:100330004346BDE8F09F40EA01039B0703D009E074
:1003400008C9121F08C0042AFAD203E011F8013BC1
:1003500000F8013B521EF9D27047D2B201E000F81A
:10036000012B491EFBD270470022F6E710B5134659
:100370000A4604461946FFF7F0FF204610BD202A22
:1003800004DB203A00FA02F1002070479140C2F1EC
:10039000200320FA03F3194390407047202A04DB1E
:1003A000203A21FA02F00021704721FA02F3D040EE
:1003B000C2F120029140084319467047064C074D90
:1003C00006E0E06840F0010394E807009847103425
:1003D000AC42F6D3FFF764FFCC600008EC60000885
:1003E00000BFFEE77047000070B504460CB901205D
:1003F00070BD94F83500022803D08020606501208C
:10040000F6E79F492068884249D09D491831206805
:10041000884244D09A493031206888423FD0984978
:100420004831206888423AD0954960312068884236
:1004300035D0934978312068884230D09049903146
:10044000206888422BD08E49A8312068884226D067
:100450008C492068884222D08A4918312068884215
:100460001DD0884930312068884218D085494831EC
:100470002068884213D083496031206888420ED0BA
:10048000804978312068884209D07E4990312068BF
:10049000884204D07B49A8312068884201D10120DC
:1004A00000E00020F0B3042084F83500744920688F
:1004B00088424BD0724918312068884246D0704932
:1004C00030312068884241D06D49483120688842E7
:1004D0003CD06B4960312068884237D06849783118
:1004E0002068884232D066499031206888422DD0F9
:1004F0006349A8312068884228D062492068884230
:1005000024D060491831206888421FD05D493031BD
:10051000206888421AD05B4948312068884215D04B
:10052000584900E020E06031206888420ED05549EB
:1005300078312068884209D0524990312068884239
:1005400004D05049A8312068884206D1206800684C
:1005500020F001002168086090E02068006820F029
:1005600001002168086089E02068006820F00E0022
:100570002168086042492068884249D040491831C2
:100580002068884244D03E493031206888423FD0BC
:100590003B494831206888423AD039496031206867
:1005A000884235D0364978312068884230D0344985
:1005B0009031206888422BD03149A8312068884288
:1005C00026D030492068884222D02E491831206830
:1005D00088421DD02B4930312068884218D02949E3
:1005E00048312068884213D026496031206888420B
:1005F0000ED0244978312068884209D021499031B1
:100600002068884204D01F49A8312068884206D15A
:100610002068006820F001002168086005E020687B
:10062000006820F0010021680860206E006820F456
:100630008070216E0860A56D94F85C0000F01F01C9
:10064000012088406860D4E919104860E06E40B12C
:10065000E06E006820F48070E16E0860D4E91C1040
:10066000486000BF002084F8340000BF012084F8F7
:100670003500206D10B12046216D88470020B7E677
:10068000100002401004024070B5044600F020F94A
:1006900006462546681C10B104480078054400BF92
:1006A00000F016F9801BA842FAD370BD1000002498
:1006B000F8B502460023734DDEE001279F400E6827
:1006C00006EA0704002C71D04E68022E02D04E6854
:1006D000122E13D1DF0802F1200656F827005E071C
:1006E000F70E0F26BE40B0435F07FF0E0E69BE40F7
:1006F0003043DF0802F1200646F8270010685F004B
:100700000326BE40B0430E7906F003065F00BE40EC
:10071000304310604E68012E08D04E68022E05D07E
:100720004E68112E02D04E68122E13D190685F00D1
:100730000326BE40B0435F00CE68BE4030439060A9
:10074000506801269E40B0430E79C6F300169E40C5
:1007500030435060D0685F000326BE40B0435F0066
:100760008E68BE403043D0604E6806F08056B6F1C9
:10077000805F1BD100BF444E366846F00206424FF0
:100780003E603E46366806F00206009600BF00BF97
:100790003E4E9F0856F827009E07370F0F26BE4093
:1007A000B0433B4EB24202D100262EE063E0394E08
:1007B000B24201D1012628E0374EB24201D10226D1
:1007C00023E0364EB24201D103261EE0344EB2423F
:1007D00001D1042619E0334EB24201D1052614E0BE
:1007E000314EB24201D106260FE0304EB24201D165
:1007F00007260AE02E4EB24201D1082605E02D4E12
:10080000B24201D1092600E00A269F073F0FBE40F1
:1008100030431E4E9F0846F827002868A0434E68C4
:1008200006F48036B6F5803F00D120432860686822
:10083000A0434E6806F40036B6F5003F00D12043D1
:1008400068604FF0B0463068A0434E6806F48016EA
:10085000B6F5801F00D120434FF0B046306070687D
:10086000A0434E6806F40016B6F5001F00D12043E1
:100870004FF0B04670605B1C0E68DE40002E7FF4C7
:100880001CAFF8BD80000058F4440258080400581A
:10089000000002580004025800080258000C0258D8
:1008A000001002580014025800180258001C025888
:1008B00000200258002402580AB1816101E00B04B3
:1008C0008361704701480068000C70470010005CAD
:1008D00001480068704700000800002403480068D1
:1008E000034909780844014908607047080000245A
:1008F0001000002410B5032000F0CAF800F022FD1B
:1009000010490968C1F303210F4A515C01F01F012E
:10091000C8400E4908600B48006800F00F001146FF
:10092000085C00F01F0109480068C84008490860D9
:10093000002000F00FF808B1012010BD00F036F8DB
:100940000020FAE718440258145E00080000002452
:100950000400002470B504461148007808B901204D
:1009600070BD0F4800784FF47A71B1FBF0F00D497B
:100970000968B1FBF0F5284601F09FF908B10120A4
:10098000EEE7102C07D200222146501E00F042F85C
:100990000548046001E00120E2E70020E0E70000F4
:1009A00010000024000000240C00002408B500BF43
:1009B0000648006840F002000449086008460068E4
:1009C00000F00200009000BF00BF08BDF4440258D0
:1009D00010B501460846002807DB00F01F0301227E
:1009E0009A40034B440943F8242000BF10BD000087
:1009F00080E200E001460846002809DB00F01F0302
:100A000001229A4043099B0003F1E023C3F800212F
:100A100000BF70472DE9F05F80460D46164603F093
:100A2000DBFC074639462A46334601F00700C0F191
:100A3000070ABAF1040F02D94FF0040A01E0C0F12D
:100A4000070AD14600F1040ABAF1070F02D24FF0AB
:100A5000000A01E0A0F1030AD4464FF0010A0AFAA5
:100A600009FAAAF1010A0AEA020A0AFA0CFA4FF094
:100A7000010B0BFA0CFBABF1010B0BEA030B4AEA7F
:100A80000B042146404603F0AFFCBDE8F09F000098
:100A900000BF00F00702064B19684FF6FF0319402C
:100AA000044B0B4343EA0221014B196000BF70471E
:100AB0000CED00E00000FA0570B50446154800682A
:100AC00000F00400042807D01248006800F0070076
:100AD000A04201D0012070BD0E48006820F0070040
:100AE00020430C490860FFF7F3FE054607E0FFF7D7
:100AF000EFFE401BB0F57A7F01D90320EBE70548F4
:100B00000838006800F40050B0F5005FEFD1002015
:100B1000E1E700000C48025810B500F013FC07494B
:100B20000968C1F30321064A515C01F01F01C84066
:100B3000044908600846006810BD000018440258C7
:100B4000145E00080000002410B500F0BFFB05494A
:100B50000968C1F30211044A515C01F01F01C84049
:100B600010BD000020440258145E000870B5014614
:100B7000844D2D6805F00303824D2D68C5F30530C3
:100B8000804D2D1D2D6805F010047E4D14352D6807
:100B9000C5F3CC0515FB04F501EE105AB8EE411A69
:100BA000F0EE410A00286FD023B1012B4ED0022B6A
:100BB0006BD16BE0734D283D2D68C5F340153DB3F7
:100BC000704D283D2D68C5F3C1066F4D25FA06F21C
:100BD00001EE102AF8EE411A01EE100AB8EE411AA1
:100BE00081EE812A9FED691AC0EE811A654D10359C
:100BF0002D68C5F3080501EE105AB8EE411A31EE22
:100C0000811AF7EE001A31EE211A22EE010A1CE0D9
:100C100001EE100AB8EE411ADFED5D1A81EE812A6D
:100C20009FED5A1AC0EE811A564D10352D68C5F346
:100C3000080501EE105AB8EE411A31EE811AF7EEAE
:100C4000001A31EE211A22EE010A5BE001EE100AD1
:100C5000B8EE411ADFED4F1A81EE812A9FED4B1A53
:100C6000C0EE811A474D10352D68C5F3080501EE19
:100C7000105AB8EE411A31EE811AF7EE001A31EE31
:100C8000211A22EE010A3DE077E01DE001EE100A94
:100C9000B8EE411A9FED402AC2EE011A9FED3B1AB1
:100CA00080EE812A374D10352D68C5F3080501EE19
:100CB000105AB8EE411A32EE011AB7EE002A31EEA0
:100CC000021A21EE810A1DE001EE100AB8EE411A67
:100CD000DFED301A81EE812A9FED2C1AC0EE811AC9
:100CE000284D10352D68C5F3080501EE105AB8EEF1
:100CF000411A31EE811AF7EE001A31EE211A22EE76
:100D0000010A00BF00BF1F4D10352D68C5F34625F1
:100D100001EE105AB8EE411AF7EE001A31EE211A20
:100D2000C0EE011ABCEEE11A81ED001A154D103526
:100D30002D68C5F3064501EE105AB8EE411AF7EEDC
:100D4000001A31EE211AC0EE011ABCEEE11A81ED53
:100D5000011A0C4D10352D68C5F3066501EE105AC9
:100D6000B8EE411AF7EE001A31EE211AC0EE011A60
:100D7000BCEEE11A81ED021A03E000250D604D6022
:100D80008D6070BD284402580090D00300000046DA
:100D90000024744C0024744A20BCBE4B70B501463C
:100DA000844D2D6805F00303824D2D68C5F3055071
:100DB000804D2D1D2D6805F480747E4D1C352D68E9
:100DC000C5F3CC0515FB04F501EE105AB8EE411A37
:100DD000F0EE410A00286FD023B1012B4ED0022B38
:100DE0006BD16BE0734D283D2D68C5F340153DB3C5
:100DF000704D283D2D68C5F3C1066F4D25FA06F2EA
:100E000001EE102AF8EE411A01EE100AB8EE411A6E
:100E100081EE812A9FED691AC0EE811A654D183561
:100E20002D68C5F3080501EE105AB8EE411A31EEEF
:100E3000811AF7EE001A31EE211A22EE010A1CE0A7
:100E400001EE100AB8EE411ADFED5D1A81EE812A3B
:100E50009FED5A1AC0EE811A564D18352D68C5F30C
:100E6000080501EE105AB8EE411A31EE811AF7EE7C
:100E7000001A31EE211A22EE010A5BE001EE100A9F
:100E8000B8EE411ADFED4F1A81EE812A9FED4B1A21
:100E9000C0EE811A474D18352D68C5F3080501EEDF
:100EA000105AB8EE411A31EE811AF7EE001A31EEFF
:100EB000211A22EE010A3DE077E01DE001EE100A62
:100EC000B8EE411A9FED402AC2EE011A9FED3B1A7F
:100ED00080EE812A374D18352D68C5F3080501EEDF
:100EE000105AB8EE411A32EE011AB7EE002A31EE6E
:100EF000021A21EE810A1DE001EE100AB8EE411A35
:100F0000DFED301A81EE812A9FED2C1AC0EE811A96
:100F1000284D18352D68C5F3080501EE105AB8EEB6
:100F2000411A31EE811AF7EE001A31EE211A22EE43
:100F3000010A00BF00BF1F4D18352D68C5F34625B7
:100F400001EE105AB8EE411AF7EE001A31EE211AEE
:100F5000C0EE011ABCEEE11A81ED001A154D1835EC
:100F60002D68C5F3064501EE105AB8EE411AF7EEAA
:100F7000001A31EE211AC0EE011ABCEEE11A81ED21
:100F8000011A0C4D18352D68C5F3066501EE105A8F
:100F9000B8EE411AF7EE001A31EE211AC0EE011A2E
:100FA000BCEEE11A81ED021A03E000250D604D60F0
:100FB0008D6070BD284402580090D00300000046A8
:100FC0000024744C0024744A20BCBE4B2DE9F0412F
:100FD00004460D4614B90120BDE8F081B64800680A
:100FE00000F00F00A8420ED2B348006820F00F00B6
:100FF0002843B14908600846006800F00F00A84285
:1010000001D00120E8E7207800F0040004280ED188
:10101000AA492069096801F07001884207D9A748E8
:10102000006820F0700021690843A4490860207816
:1010300000F00800082811D1A049091D606909685D
:1010400001F07001884209D99C48001D006820F019
:101050007000616908439949091D0860207800F013
:101060001000102811D19549091DA069096801F4E3
:10107000E061884209D99148001D006820F4E060D1
:10108000A16908438D49091D0860207800F02000FF
:10109000202811D189490831E069096801F07001FF
:1010A000884209D985480830006820F07000E1695D
:1010B0000843824908310860207800F002000228C5
:1010C0000ED17E49E068096801F00F01884207D916
:1010D0007A48006820F00F00E1680843774908600B
:1010E000207800F00100002850D07448006820F4F7
:1010F0007060A1680843714908606068022807D1E0
:101100006E4818380068C0F34040F8B9012063E722
:101110006068032807D1694818380068C0F3406048
:10112000A0B9012058E76068012807D16348183842
:101130000068C0F3002048B901204DE75F48183827
:101140000068C0F3800008B9012045E75B48083813
:10115000006820F0070061680843584908390860B2
:10116000FFF7B6FB064608E0FFF7B2FB801B41F233
:101170008831884201D903202EE75048083800689A
:1011800000F038006168B0EBC10FEDD1207800F0BD
:10119000020002280ED14949E068096801F00F01F8
:1011A000884207D24548006820F00F00E1680843F4
:1011B000424908604048006800F00F00A8420ED97C
:1011C0003D48006820F00F0028433B49086008466E
:1011D000006800F00F00A84201D00120FCE6207852
:1011E00000F0040004280ED134492069096801F098
:1011F0007001884207D23148006820F070002169F0
:1012000008432E490860207800F00800082811D112
:101210002A49091D6069096801F07001884209D2F4
:101220002648001D006820F07000616908432349CA
:10123000091D0860207800F01000102811D11F4906
:10124000091DA069096801F4E061884209D21B48C0
:10125000001D006820F4E060A16908431749091DDA
:101260000860207800F02000202811D113490831AF
:10127000E069096801F07001884209D20F4808301E
:10128000006820F07000E16908430C4908310860EB
:1012900000F058F809490968C1F30321084A515C74
:1012A00001F01F01C8400749086007480068FFF7C0
:1012B00051FB074638468FE600200052184402587A
:1012C000145E0008000000240C00002410B5FFF795
:1012D00023FC0749096801F00F01064A515C01F03F
:1012E0001F01C840044908600846006810BD00009E
:1012F00018440258145E00080400002410B5FFF7DB
:10130000E5FF05490968C1F30211044A515C01F087
:101310001F01C84010BD00001C440258145E0008A4
:1013200010B5FFF7D3FF05490968C1F30221044A4C
:10133000515C01F01F01C84010BD00001C44025860
:10134000145E0008F0B5824E366806F0380636B1F5
:10135000082E15D0102E15D0182E7DD114E07C4EFD
:10136000103E3668C6F3401646B1794E103E3668D8
:10137000C6F3C107774E26FA07F000E07548E5E0AE
:101380007548E3E07548E1E0714E1836366806F0BE
:1013900003046F4E18363668C6F305116C4E1C36C2
:1013A000366806F001056A4E24363668C6F3CC0668
:1013B00016FB05F601EE106AB8EE410A002971D05D
:1013C00024B1012C50D0022C6DD16DE0604E103E46
:1013D0003668C6F340163EB35D4E103E3668C6F31F
:1013E000C1075C4E26FA07F301EE103AF8EE411AF7
:1013F00001EE101AB8EE411A81EE812A9FED581ABB
:10140000C0EE011A524E20363668C6F3080601EEC9
:10141000106AB8EE411A31EE811AF7EE001A31EE79
:10142000211A62EE010A1EE001EE101AB8EE411A0E
:10143000DFED4C1A81EE812A9FED491AC0EE011AA8
:10144000434E20363668C6F3080601EE106AB8EE41
:10145000411A31EE811A00E076E0F7EE001A31EE23
:10146000211A62EE010A5BE001EE101AB8EE411A91
:101470009FED3D2AC2EE011A9FED391A80EE012A36
:10148000334E20363668C6F3080601EE106AB8EE11
:10149000411A32EE011AB7EE002A31EE021A61EE5D
:1014A000810A3DE04EE01DE001EE101AB8EE411A4F
:1014B000DFED2E1A81EE812A9FED291AC0EE011A66
:1014C000234E20363668C6F3080601EE106AB8EEE1
:1014D000411A31EE811AF7EE001A31EE211A62EE4E
:1014E000010A1DE001EE101AB8EE411A9FED1E2A06
:1014F000C2EE011A9FED1A1A80EE012A144E203610
:101500003668C6F3080601EE106AB8EE411A32EEEC
:10151000011AB7EE002A31EE021A61EE810A00BF0D
:1015200000BF0B4E20363668C6F34626721C01EE0D
:10153000102AB8EE411AC0EE811ABCEEE11A11EE83
:10154000100A00E0002001E0034800BF00BFF0BD2A
:10155000104402580090D00300093D0040787D01FE
:10156000000000460024744C0024744A20BCBE4B8A
:101570002DE9F041044614B90120BDE8F08120783E
:1015800000F00100002871D0F848006800F038062B
:10159000F64818300768102E05D0182E0FD107F026
:1015A000030002280BD1F14810380068C0F3404016
:1015B00000286AD06068002867D10120DDE700BFFD
:1015C0006068B0F5803F08D1E8481038006840F402
:1015D0008030E649103908602EE0606868B9E34859
:1015E0001038006820F48030E0491039086008465F
:1015F000006820F4802008601EE06068B0F5A02F2D
:101600000DD1DA481038006840F48020D7491039ED
:1016100008600846006840F4803008600CE0D34859
:101620001038006820F48030D0491039086008462E
:10163000006820F48020086000BF606890B1FFF768
:1016400047F9054606E0FFF743F9401B642801D936
:10165000032092E7C54810380068C0F340400028D6
:10166000F1D012E0FFF734F9054607E00EE0FFF78E
:101670002FF9401B642801D903207EE7BB481038AE
:101680000068C0F340400028F1D100BF207800F08E
:10169000020002287ED1B548006800F03806B34841
:1016A0001830076826B1182E48D107F00300C0BBD8
:1016B000AE4810380068C0F3800018B1E06808B97F
:1016C00001205AE7A9481038006820F01900E168A5
:1016D0000843A64910390860FFF7FAF8054606E006
:1016E000FFF7F6F8401B022801D9032045E79F4881
:1016F00010380068C0F380000028F1D000BFFFF769
:10170000E1F841F2030188420CD898480C3800688F
:1017100020F47C30216940EA013094490C3908609A
:101720000BE00BE091480C38006820F0FE40217C73
:1017300040EA01608D490C39086059E0E06850B317
:101740008A481038006820F01900E168084387498A
:1017500010390860FFF7BCF8054606E0FFF7B8F857
:10176000401B022801D9032007E780481038006891
:10177000C0F380000028F1D000BFFFF7A3F841F2CA
:10178000030188420ED879480C38006820F47C3078
:10179000216901E02DE011E040EA013073490C3984
:1017A00008600AE071480C38006820F0FE40217C97
:1017B00040EA01606D490C39086019E06B48103847
:1017C000006820F00100694910390860FFF780F8CF
:1017D000054606E0FFF77CF8401B022801D90320EC
:1017E000CBE6624810380068C0F380000028F1D1D1
:1017F00000BF207800F01000102878D15B48006806
:1018000000F03806594818300768082E05D0182E01
:101810002FD107F0030001282BD15448103800685D
:10182000C0F3002020B1E069802801D00120A4E6A7
:1018300000BFFFF747F841F2030188420CD84B483C
:101840000C38006820F0F84094F8201040EA8160DD
:1018500046490C3908600BE04448001F006820F03E
:101860007C5094F8201040EA01604049091F08604C
:1018700058E0E069D0B33D481038006840F080007F
:101880003A4910390860FFF723F8054606E0FFF7EC
:101890001FF8401B022801D903206EE63348103898
:1018A0000068C0F300200028F1D000BFFFF70AF85D
:1018B00041F2030188420CD82C480C38006820F013
:1018C000F84094F8201040EA816028490C390860FB
:1018D0000BE02648001F006820F07C5094F8201090
:1018E00040EA01602149091F08601BE000E01AE09E
:1018F0001E481038006820F080001C49103908602C
:10190000FEF7E6FF054606E0FEF7E2FF401B022871
:1019100001D9032031E6154810380068C0F30020D3
:101920000028F1D100BF207800F00800082836D147
:101930006069E8B10D486430006840F001000B496F
:1019400064310860FEF7C4FF054606E0FEF7C0FFFD
:10195000401B022801D903200FE6044864300068C8
:10196000C0F340000028F1D019E0000010440258F4
:10197000CF48006820F00100CD490860FEF7A8FFBD
:10198000054606E0FEF7A4FF401B022801D903200C
:10199000F3E5C7480068C0F340000028F2D1207882
:1019A00000F02000202836D1A069D0B1C04874389A
:1019B000006840F48050BE4974390860FEF788FF23
:1019C000054606E0FEF784FF401B022801D90320EC
:1019D000D3E5B74874380068C0F340300028F1D030
:1019E00019E0B3487438006820F48050B049743965
:1019F0000860FEF76DFF054606E0FEF769FF401B35
:101A0000022801D90320B8E5A94874380068C0F35A
:101A100040300028F1D1207800F0040004287DD166
:101A2000A448006840F48070A2490860FEF750FFA7
:101A3000054606E0FEF74CFF401B642801D9032051
:101A40009BE59C48006800F480700028F2D000BF3D
:101A5000A068012808D19648001F006840F00100E6
:101A60009349091F08602DE0A06868B99048001FDD
:101A7000006820F001008E49091F086008460068D0
:101A800020F0040008601DE0A06805280DD18848FA
:101A9000001F006840F004008549091F08600846DF
:101AA000006840F0010008600CE08148001F0068F9
:101AB00020F001007E49091F08600846006820F0F8
:101AC0000400086000BFA068A0B1FEF701FF054652
:101AD00008E0FEF7FDFE401B41F28831884201D943
:101AE00003204AE57248001F0068C0F34000002848
:101AF000EFD013E0FEF7ECFE054608E0FEF7E8FE47
:101B0000401B41F28831884201D9032035E56848FD
:101B1000001F0068C0F340000028EFD1606A002871
:101B20007ED063486438006800F03800182878D008
:101B3000606A022876D15E487438006820F08070B0
:101B40005B4974390860FEF7C3FE054606E0FEF700
:101B5000BFFE401B022801D903200EE5544874380B
:101B60000068C0F340600028F1D100BFD4E90A103A
:101B700041EA00104E494C39096840F2F332914372
:101B800008434B494C390860208E401EC0F30800C2
:101B9000616B491E4FF47E4202EA41210843218FC6
:101BA000491ED20102EA014108433C21095D491E58
:101BB000120202EA016108433D494439086000BF4E
:101BC000081F006820F00100091F086038484038ED
:101BD00000684FF6F8718843A16C40EAC1003449AF
:101BE0004039086032484838006820F00C00216C09
:101BF00008432F49483908600846006820F0020071
:101C0000616C08432A49483908600846006840F476
:101C1000803008600846006840F40030086002E048
:101C200043E040E024E00846006840F4802008607B
:101C30000846006840F0010008601D4874380068DC
:101C400040F080701A4974390860FEF741FE05467D
:101C500006E0FEF73DFE401B022801D903208CE47C
:101C6000134874380068C0F340600028F1D01CE0CD
:101C70000F487438006820F080700D49743908608E
:101C8000FEF726FE054606E0FEF722FE401B022870
:101C900001D9032071E4064874380068C0F340603D
:101CA0000028F1D101E0012067E4002065E4000094
:101CB0007444025800480258704770B504462546DF
:101CC000681EB0F1807F01D301200FE0681E4FF045
:101CD000E02148610F214FF0FF3002F085FB00202A
:101CE0004FF0E021886107200861002070BD10B529
:101CF000FFF7E2FF10BD70477047704730B50246EE
:101D00000B4600BF92F83C00012801D1022030BDF3
:101D1000012082F83C0000BF022082F83D001068DC
:101D2000416810688468114D1068A84203D0104DB6
:101D30001068A84203D121F470015868014321F0D2
:101D400070011868014324F0800498680443106807
:101D5000416010688460012082F83D0000BF0020CF
:101D600082F83C0000BF00BFD1E700000000014046
:101D70000004014010B504460CB9012010BD94F8D0
:101D80003D0028B9002084F83C00204600F00CF803
:101D9000022084F83D00211D206800F097FD0120FD
:101DA00084F83D000020E9E738B504460D49206875
:101DB000884215D100BF0C48006840F004000A4971
:101DC00008600846006800F00400009000BF00BFF3
:101DD000012200211E20FEF71DFE1E20FEF70AFE36
:101DE00038BD000000080040E84402582DE9F041E9
:101DF00004460D4600BF94F83C00012802D10220A1
:101E0000BDE8F081012084F83C0000BF022084F886
:101E10003D00206886684048064026F47F462068DA
:101E200086602868702826D00CDC00F00F0100299D
:101E300066D10011072863D2DFE800F055565758E5
:101E40004B374100B0F1101F52D009DCB0F5805F74
:101E500010D0B0F5005F1BD0B0F5801F50D146E028
:101E6000A0F580102038002843D0102842D0202828
:101E700046D140E045E0D5E902136A68206800F0E9
:101E80008BFD2068866846F077062068866038E01B
:101E9000D5E902136A68206800F07EFD206880683A
:101EA00040F48040216888602BE0EA686968206817
:101EB00000F08AFD5021206800F07AFD21E0EA68F8
:101EC0006968206800F093FD6021206800F070FDD3
:101ED00017E0EA686968206800F076FD4021206814
:101EE00000F066FD0DE000BF00BF00BF00BF00BFF7
:101EF00000BF00BF00BF2968206800F059FD00E066
:101F000000BF00BF012084F83D0000BF002084F81E
:101F10003C0000BF00BF73E788FFCEFF704710B5DD
:101F2000044620680069C0F34000D8B12068C0684A
:101F3000C0F34000B0B16FF00200216808610120D9
:101F400020772068806900F0030018B12046FFF771
:101F5000E5FF05E0204600F0BEF8204600F0BCF8A2
:101F60000020207720680069C0F38000D8B1206885
:101F7000C068C0F38000B0B16FF004002168086150
:101F8000022020772068806900F4407018B1204654
:101F9000FFF7C4FF05E0204600F09DF8204600F062
:101FA0009BF80020207720680069C0F3C000D8B1FA
:101FB0002068C068C0F3C000B0B16FF008002168AD
:101FC0000861042020772068C06900F0030018B180
:101FD0002046FFF7A3FF05E0204600F07CF82046EE
:101FE00000F07AF80020207720680069C0F3001024
:101FF000D8B12068C068C0F30010B0B16FF0100015
:1020000021680861082020772068C06900F44070CA
:1020100018B12046FFF782FF05E0204600F05BF88C
:10202000204600F059F8002020772068006900F071
:10203000010058B12068C06800F0010030B16FF0B5
:10204000010021680861204600F047F82068006917
:10205000C0F3C01058B12068C068C0F3C01030B1E0
:102060006FF08000216808612046FFF745FE206878
:102070000069C0F3002058B12068C068C0F3C010E8
:1020800030B16FF48070216808612046FFF733FE9D
:1020900020680069C0F3801058B12068C068C0F3A0
:1020A000801030B16FF0400021680861204600F0D8
:1020B00019F820680069C0F3401058B12068C06862
:1020C000C0F3401030B16FF0200021680861204655
:1020D000FFF713FE10BD7047704710B5044603F0BC
:1020E00055FA10BD70477047704770477047000041
:1020F0002DE9F04704462068C56920680668206815
:10210000876840F60F0005EA0008B8F1000F0FD10C
:1021100005F0200060B106F0200010B907F08050F3
:1021200030B1E06E10B12046E16E8847BDE8F0871F
:10213000B8F1000F7ED06E48384018B96D48304075
:102140000028F7D005F0010058B106F4807040B1C6
:10215000012021680862D4F8880040F00100C4F82A
:10216000880005F0020058B107F0010040B10220DC
:1021700021680862D4F8880040F00400C4F88800A0
:1021800005F0040058B107F0010040B104202168B7
:102190000862D4F8880040F00200C4F8880005F016
:1021A000080070B106F0200010B95148384040B125
:1021B000082021680862D4F8880040F00800C4F8BC
:1021C000880005F4006060B106F0806048B14FF40B
:1021D000006021680862D4F8880040F02000C4F84C
:1021E0008800D4F88800002844D005F0200050B1C1
:1021F00006F0200010B907F0805020B1E06E10B159
:102200002046E16E8847D4F888902068806800F006
:102210004000402802D009F0280028B3204600F0F2
:10222000BDFC2068806800F04000402818D120687C
:10223000806800E01FE020F0400021688860A06F07
:1022400050B12D48A16F0865A06FFEF7CDF888B199
:10225000A06F016D88470DE02046FFF747FF09E0BA
:102260002046FFF743FF05E02046FFF73FFF002031
:10227000C4F888005AE705F4801050B107F48000D4
:1022800038B14FF48010216808622046FFF72DFF17
:102290004CE705F0800058B106F0800010B907F453
:1022A000000028B1206F10B12046216F88473DE71C
:1022B00005F0400030B106F0400018B1204600F0B3
:1022C00081FC33E705F4000030B106F0804018B11E
:1022D0002046FFF709FF29E705F0807030B106F0CE
:1022E000004018B12046FFF7FEFE1FE700BF1DE7C4
:1022F0000100001020010004832B000810B50446E3
:102300000CB9012010BDA06900B100E000BFD4F8F5
:10231000800028B9002084F87C00204600F02AF8CC
:102320002420C4F880002068006820F001002168A3
:102330000860204600F058FC012800D1E2E7A06ABE
:1023400010B1204600F067FB2068406820F4904000
:10235000216848602068806820F02A002168886031
:102360002068006840F0010021680860204600F005
:10237000CEFBC7E710B586B00446142101A8FDF7CF
:10238000F3FF1D492068884233D100BF1B48006815
:1023900040F40030194908600846006800F4003035
:1023A000009000BF00BF00BF14480838006840F02C
:1023B00008001249083908600846006800F0080063
:1023C000009000BF00BF602001900220029000201A
:1023D0000390032004900720059001A90848FEF708
:1023E00067F9002211462620FEF714FB2620FEF78F
:1023F00001FB06B010BD000000440040E844025854
:10240000000C02582DE9F84F04460E4617469A462E
:10241000D4F8840020287DD106B117B90120BDE889
:10242000F88F00BF94F87C00012801D10220F6E764
:10243000012084F87C0000BF00205C34E062222090
:10244000A062FEF745FA8346278067805C3C00BFA8
:10245000A068B0F5805F0AD1206920B940F2FF1072
:10246000A4F8600020E0FF20A4F860001CE0A06851
:1024700048B9206918B9FF20A4F8600014E07F2053
:10248000A4F8600010E0A068B0F1805F09D1206975
:1024900018B97F20A4F8600006E03F20A4F860008F
:1024A00002E00020A4F8600000BFB4F86090A068CB
:1024B000B0F5805F04D1206910B90025B04602E074
:1024C00035464FF0000820E05B46002220212046E0
:1024D000CDF800A001F000FF08B103209FE745B947
:1024E0002068406A00EA0900A8F8000008F1020824
:1024F00006E02068406A09F0FF01084028706D1C62
:10250000B4F85E00401EA4F85E00B4F85E00002837
:10251000DAD100E008E02020C4F8840000BF0020E9
:1025200084F87C0000BF7AE7022078E72DE9F84FB5
:1025300004460E4617469946D4F8800020285DD1FF
:1025400006B117B90120BDE8F88F00BF94F87C00F0
:10255000012801D10220F6E7012084F87C0000BFA9
:102560000020543460632120E062FEF7B1F9824616
:1025700027806780543CA068B0F5805F04D1206953
:1025800010B90025B04602E035464FF000081DE0C6
:102590005346002280212046CDF8009001F09CFE99
:1025A00008B10320CFE745B9B8F80000C0F3080030
:1025B0002168886208F1020803E0287821688862AF
:1025C0006D1CB4F85600401EA4F85600B4F856002E
:1025D0000028DDD15346002240212046CDF800904E
:1025E00001F07AFE08B10320ADE72020C4F8800096
:1025F00000BF002084F87C0000BFA4E70220A2E70F
:10260000704700BFFEE7000008B500BF1A48006829
:1026100040F08000184908600846006800F080001B
:10262000009000BF00BF00BF0846006840F00100F6
:1026300008600846006800F00100009000BF00BF7D
:1026400000BF0846006840F00200086008460068C5
:1026500000F00200009000BF00BF00BF0846006805
:1026600040F0080008600846006800F0080000908C
:1026700000BF00BF08BD0000E044025800B587B0AD
:102680000020039004900590069000900190029025
:1026900014481549086041F293104860002112481F
:1026A00081602321C160002101618161FFF762FB2C
:1026B00008B100BFFEE74FF48050039003A90A4819
:1026C000FFF794FB08B100BFFEE7002000900290E6
:1026D00069460548FFF712FB08B100BFFEE707B0E7
:1026E00000BD0000000800400401002470B504464D
:1026F0000D461646022C00D070BD0A480A490860F3
:102700000846456000218160C16006610C2141617D
:1027100000218161C161FFF7F1FD08B100BFFEE753
:1027200000BFE9E7004400404401002400BFFEE789
:1027300070477047704710B5FFF7D9FAFEF7CEF82B
:1027400010BD000000B59DB04C210AA8FDF70CFE9D
:10275000202102A8FDF708FE0220FEF7ADF900BF18
:10276000002001902948006840F440402749086053
:102770000846006800F4404001902548006820F0B9
:102780000100401C224908600846006800F0010072
:10279000019000BF00BF00BF1C48006800F400505B
:1027A000B0F5005FF8D101200A9000040B900220E0
:1027B0001390022114911591402116910221179135
:1027C0001891199108211A9100211B911C910AA8B6
:1027D000FEF7CEFE08B100BFFEE73F2002900320C7
:1027E0000390002004900820059040200690079058
:1027F0000001089040200990042102A8FEF7E6FBA2
:1028000008B100BFFEE71DB000BD00001848025827
:102810002C0400582448006840F4700022490860E5
:102820002248006840F001002049086000201F494C
:10283000103108601D4800681D4908401B490860A8
:1028400000201A4918310860091D0860091D086038
:10285000164928310860091D0860091D0860091D16
:102860000860091D0860091D0860091D0860091D30
:1028700008600E48006820F480200C4908600020A1
:102880000A49603108600B4800686FF30F00B0F12F
:10289000005F02D20120084908604FF00060024941
:1028A000803908607047000088ED00E0004402585D
:1028B0007FEDF6EA0010005C0881005110B5024877
:1028C000FFF72DFB10BD00000401002410B50268C5
:1028D000294B98420ED0B0F1804F0BD0274B984235
:1028E00008D0274B984205D0264B984202D0264B61
:1028F000984203D122F070024B681A431E4B984253
:1029000017D0B0F1804F14D01C4B984211D01C4B03
:1029100098420ED01B4B98420BD01B4B984208D0CC
:102920001A4B984205D01A4B984202D0194B984244
:1029300003D122F44072CB681A4322F080034C6921
:1029400043EA040202608B68C3620B6883620A4B2D
:1029500098420BD00C4B984208D00C4B984205D0B3
:102960000B4B984202D00B4B984201D10B69036389
:102970000123436110BD000000000140000400403D
:1029800000080040000C00400004014000400140ED
:10299000004401400048014030B50C46816821F4F4
:1029A0007F4142EA032525432943816030BD000071
:1029B0000A468168034B194042F0070319438160BE
:1029C000704700008FFFCFFF30B50B461446026AF8
:1029D000056A25F001050562816921F0F00141EAEF
:1029E000041122F00A021A438161026230BD30B53F
:1029F0000B461446056A25F0100505628169026AD6
:102A000021F4704141EA043122F0A00242EA0312AB
:102A10008161026230BD90F8281001F0010139B1E6
:102A20000168496821F40031C26A114302685160AB
:102A300090F8281001F00201022907D101684968C5
:102A400021F48031026B11430268516090F8281024
:102A500001F00401042907D10168496821F48021AB
:102A6000426B11430268516090F8281001F0080190
:102A7000082907D10168496821F40041826B11439C
:102A80000268516090F8281001F01001102907D158
:102A90000168896821F48051C26B1143026891601A
:102AA00090F8281001F02001202907D101688968D9
:102AB00021F40051026C11430268916090F82810D3
:102AC00001F04001402913D10168496821F48011C7
:102AD000426C114302685160416CB1F5801F07D10F
:102AE0000168496821F4C001826C11430268516099
:102AF00090F8281001F08001802907D10168496809
:102B000021F40021C26C114302685160704738B54E
:102B100004460020C4F88800FDF7DAFE0546206868
:102B2000006800F0080008280CD16FF07E402B46AA
:102B300000224FF400110090204601F0CDFB08B1B7
:102B4000032038BD2068006800F0040004280CD180
:102B50006FF07E402B4600224FF48001009020460B
:102B600001F0BAFB08B10320EBE72020C4F8800095
:102B7000C4F8840000BF002084F87C0000BF00BFC0
:102B8000DFE770B50546AC6B0020A4F85E00A4F842
:102B900056002046FFF7AAFA70BD000001680968D8
:102BA00021F490710268116001688968044A11403B
:102BB000026891602021C0F884100021C16670472E
:102BC000FEFFFFEF10B504462068006820F04000CB
:102BD000216808602020C4F880000020206720467B
:102BE000FFF70EFD10BD00002DE9F04F89B004463F
:102BF0004FF00009002007908346F9492068884279
:102C000000D100E000BF2169A06808436169084362
:102C1000E16940EA010A606E40EA0A0A2068006839
:102C2000F049084040EA0A002168086020684068CE
:102C300020F44050E168084321684860D4F818A0A7
:102C4000E7492068884202D0206A40EA0A0A2068E0
:102C50008068E549084040EA0A00216888602068E9
:102C6000C06A20F00F00616A08432168C86200BF93
:102C7000DE492068884220D1DD48006800F0380035
:102C8000182811D005DC48B1082809D0102811D126
:102C900008E020280AD028280CD109E001250BE003
:102CA000042509E0082507E0102505E0202503E0BC
:102CB000402501E0802500BFF8E0CE492068884229
:102CC00019D1CB48006800F00700062810D2DFE8D1
:102CD00000F0030507090B0D00250BE0042509E0B2
:102CE000082507E0102505E0202503E0402501E048
:102CF000802500BFDAE0C0492068884219D1BC486D
:102D0000006800F00700062810D2DFE800F0030595
:102D100007090B0D00250BE0042509E0082507E055
:102D2000102505E0202503E0402501E0802500BFB7
:102D3000BCE0B2492068884219D1AD48006800F073
:102D40000700062810D2DFE800F0030507090B0D85
:102D500000250BE0042509E0082507E0102505E023
:102D6000202503E0402501E0802500BF9EE0A44926
:102D70002068884219D19E48006800F007000628A4
:102D800010D2DFE800F0030507090B0D00250BE06A
:102D9000042509E0082507E0102505E0202503E0CB
:102DA000402501E0802500BF80E0964920688842E8
:102DB00020D18F48006800F03800182811D005DCB9
:102DC00048B1082809D0102811D108E020280AD0DD
:102DD00028280CD109E001250BE0042509E008258D
:102DE00007E0102505E0202503E0402501E08025CF
:102DF00000BF5BE084492068884219D17C480068A4
:102E000000F00700062810D2DFE800F003050709EC
:102E10000B0D00250BE0042509E0082507E010252F
:102E200005E0202503E0402501E0802500BF3DE0CE
:102E300076492068884219D16D48006800F0070083
:102E4000062810D2DFE800F0030507090B0D002566
:102E50000BE0042509E0082507E0102505E0202502
:102E600003E0402501E0802500BF1FE05C492068A9
:102E700088421AD15E48001D006800F0070006284D
:102E800010D2DFE800F0030507090B0D02250BE067
:102E9000042509E0082507E0102505E0202503E0CA
:102EA000402501E0802500BF00E0802500BF4C499F
:102EB0002068884271D1102D70D006DC022D09D017
:102EC000042D49D0082D6AD1A6E0202D68D0402DD0
:102ED000F9D1B3E1FDF738FE616A09B9012138E0A3
:102EE000616A012901D1022133E0616A022901D11D
:102EF00004212EE0616A032901D1062129E0616ADB
:102F0000042901D1082124E0616A052901D10A219F
:102F10001FE0616A062901D10C211AE0616A0729C4
:102F200001D1102115E0616A082901D1202110E0AA
:102F3000616A092901D140210BE0616A0A2901D1A6
:102F4000802106E0616A0B2902D14FF4807100E014
:102F50000121B0FBF1FBB6E104A8FDF707FE0598DF
:102F6000616A09B9012154E0616A012901D1022194
:102F70004FE0616A022901D104214AE0616A032914
:102F800001D1062145E0616A042901D1082140E010
:102F9000616A052905D10A213BE0FDE380E08FE16C
:102FA0000BE1616A062901D10C2132E0616A07292F
:102FB00001D110212DE0616A082901D1202128E0EA
:102FC000616A092901D1402123E0616A0A2901D1FE
:102FD00080211EE0616A0B291AD14FF4807118E03C
:102FE000000C0058F369FFCFFFF4FF1100100140FF
:102FF000544402580044004000480040004C004047
:10300000005000400014014000780040007C004067
:103010000121B0FBF1FB56E101A8FDF7BFFE0298CC
:10302000616A09B9012138E0616A012901D10221EF
:1030300033E0616A022901D104212EE0616A03298B
:1030400001D1062129E0616A042901D1082124E087
:10305000616A052901D10A211FE0616A062901D1AF
:103060000C211AE0616A072901D1102115E0616A7B
:10307000082901D1202110E0616A092901D14021EC
:103080000BE0616A0A2901D1802106E0616A0B29FF
:1030900002D14FF4807100E00121B0FBF1FB12E19D
:1030A000FA480068C0F3401088B3F8480068C0F3DD
:1030B000C101F748C840616A09B9012139E0616A74
:1030C000012901D1022134E0616A022901D10421E0
:1030D0002FE0616A032901D106212AE0616A0429EF
:1030E00001D1082125E0616A052901D10A2120E0EA
:1030F000616A062901D10C211BE0616A072901D10F
:10310000102116E0616A082902D1202111E013E0A4
:10311000616A092901D140210BE0616A0A2901D1C4
:10312000802106E0616A0B2902D14FF4807100E032
:103130000121B0FBF1FB3FE0606A08B9012038E0F3
:10314000606A012801D1022033E0606A022801D1BF
:1031500004202EE0606A032801D1062029E0606A7D
:10316000042801D1082024E0606A052801D10A2042
:103170001FE0606A062801D10C201AE0606A072867
:1031800001D1102015E0606A082801D1202010E04C
:10319000606A092801D140200BE0606A0A2801D149
:1031A000802006E0606A0B2802D14FF4807000E0B6
:1031B0000120B749B1FBF0FB85E0606A08B9012046
:1031C00038E0606A012801D1022033E0606A0228F9
:1031D00001D104202EE0606A032801D1062029E0F5
:1031E000606A042801D1082024E0606A052801D122
:1031F0000A201FE0606A062801D10C201AE0606AEC
:10320000072801D1102015E0606A082801D120208C
:1032100010E0606A092801D140200BE0606A0A28AA
:1032200001D1802006E0606A0B2802D14FF4807043
:1032300000E001209749B1FBF0FB44E0606A08B967
:10324000012038E0606A012801D1022033E0606A81
:10325000022801D104202EE0606A032801D1062053
:1032600029E0606A042801D1082024E0606A05286A
:1032700001D10A201FE0606A062801D10C201AE063
:10328000606A072801D1102015E0606A082801D182
:10329000202010E0606A092801D140200BE0606A1C
:1032A0000A2801D1802006E0606A0B2802D14FF481
:1032B000807000E001204FF40041B1FBF0FB02E020
:1032C0000120079000BF00BFBBF1000F00F0F287A4
:1032D000606800EB4000584503D86068000358451B
:1032E00003D20120079000F0E5BF102D75D006DC59
:1032F000022D09D0042D67D0082D6FD1CCE0202DF0
:103300006DD0402DF9D14DE2FDF71EFC8046606A7C
:1033100008B9012238E0606A012801D1022233E0B5
:10332000606A022801D104222EE0606A032801D1DC
:10333000062229E0606A042801D1082224E0606A9C
:10334000052801D10A221FE0606A062801D10C225B
:103350001AE0606A072801D1102215E0606A082887
:1033600001D1202210E0606A092801D140220BE03F
:10337000606A0A2801D1802206E0606A0B2802D127
:103380004FF4807200E00122944600234046194623
:10339000FCF7A0FF4FF4807300228C46A0FB031EB5
:1033A0000CFB03E300FB0233606840088C461CEB17
:1033B000000643EB0201D4F804C062460023304605
:1033C000FCF788FF81464EE204A8FDF7CFFBDDF84D
:1033D00014E0606A20B901223BE0BFE040E282E1F4
:1033E000606A012801D1022233E0606A022801D11B
:1033F00004222EE0606A032801D1062229E0606AD7
:10340000042801D1082224E0606A052801D10A229B
:103410001FE0606A062801D10C221AE0606A0728C2
:1034200001D1102215E0606A082801D1202210E0A5
:10343000606A092801D140220BE0606A0A2801D1A4
:10344000802206E0606A0B2802D14FF4807200E00F
:1034500001229446002370461946FCF73BFF4FF4C7
:10346000807C0022A0FB0C3E01FB0CE100FB021162
:10347000606840081E185141D4F804C06246002319
:103480003046FCF727FF8146EDE10000004402587A
:103490000090D00300093D0001A8FDF77FFCDDF896
:1034A00008C0606A08B9012238E0606A012801D1C9
:1034B000022233E0606A022801D104222EE0606A11
:1034C000032801D1062229E0606A042801D10822DC
:1034D00024E0606A052801D10A221FE0606A0628FC
:1034E00001D10C221AE0606A072801D1102215E0F0
:1034F000606A082801D1202210E0606A092801D101
:1035000040220BE0606A0A2801D1802206E0606A4E
:103510000B2802D14FF4807200E00122964600236E
:1035200060461946FCF7D6FE4FF4807300228C46A5
:10353000A0FB031E0CFB03E300FB023360684008A2
:103540008C461CEB000643EB0201D4F804C0624633
:1035500000233046FCF7BEFE814684E1F84800684F
:10356000C0F3401090B3F6480068C0F3C101F548BD
:1035700020FA01FE606A08B9012239E0606A012878
:1035800001D1022234E0606A022801D104222FE036
:10359000606A032801D106222AE0606A042801D16A
:1035A000082225E0606A052801D10A2220E0606A2D
:1035B000062801D10C221BE0606A072801D11022E5
:1035C00016E0606A082802D1202211E030E0606A2B
:1035D000092801D140220BE0606A0A2801D180222B
:1035E00006E0606A0B2802D14FF4807200E00122ED
:1035F0009446002370461946FCF76CFE4FF4807326
:1036000000228C46A0FB031E0CFB03E300FB0233ED
:10361000606840088C461CEB000643EB0201D4F8BE
:1036200004C0624600233046FCF754FE814659E050
:10363000606A08B9012238E0606A012801D10222DB
:1036400033E0606A022801D104222EE0606A032878
:1036500001D1062229E0606A042801D1082224E071
:10366000606A052801D10A221FE0606A062801D19C
:103670000C221AE0606A072801D1102215E0606A66
:10368000082801D1202210E0606A092801D14022D7
:103690000BE0606A0A2801D1802206E0606A0B28EC
:1036A00002D14FF4807200E0012294460023A54825
:1036B0001946FCF70FFE4FF4807300228C46A0FBE6
:1036C000031E0CFB03E300FB0233606840080E1886
:1036D00043EB0201D4F804C0624600233046FCF7F5
:1036E000F9FD8146BFE0606A08B9012238E0606AEE
:1036F000012801D1022233E0606A022801D10422AC
:103700002EE0606A032801D1062229E0606A0428BD
:1037100001D1082224E0606A052801D10A221FE0B5
:10372000606A062801D10C221AE0606A072801D1DC
:10373000102215E0606A082801D1202210E0606A9A
:10374000092801D140220BE0606A0A2801D18022B9
:1037500006E0606A0B2802D14FF4807200E001227B
:103760009446002378481946FCF7B4FD4FF4807363
:1037700000228C46A0FB031E0CFB03E300FB02337C
:10378000606840088C461CEB000643EB0201D4F84D
:1037900004C06246002300E073E03046FCF79AFD67
:1037A000814660E0606A08B9012238E0606A012859
:1037B00001D1022233E0606A022801D104222EE006
:1037C000606A032801D1062229E0606A042801D139
:1037D000082224E0606A052801D10A221FE0606AFD
:1037E000062801D10C221AE0606A072801D11022B4
:1037F00015E0606A082801D1202210E0606A0928DB
:1038000001D140220BE0606A0A2801D1802206E043
:10381000606A0B2802D14FF4807200E001229446C6
:1038200000234FF400401946FCF754FD4FF4807319
:1038300000228C46A0FB031E0CFB03E300FB0233BB
:10384000606840088C461CEB000643EB0201D4F88C
:1038500004C0624600233046FCF73CFD814602E08E
:103860000120079000BF00BFB9F5407F06D3B9F52E
:10387000801F03D22068C0F80C9034E50120079027
:1038800031E5E069B0F5004F71D1082D70D005DC4D
:103890005DB1012D5AD0042D6BD1A7E0102D69D058
:1038A000202D68D0402DF7D11EE2FDF727FD804680
:1038B000606A08B9012038E0606A012801D102205D
:1038C00033E0606A022801D104202EE0606A0328F8
:1038D00001D1062029E0606A042801D1082024E0F3
:1038E000606A052801D10A201FE0606A062801D11C
:1038F0000C201AE0606A072801D1102015E0606AE8
:10390000082801D1202010E0606A092801D1402058
:103910000BE0606A0A2801D1802006E0606A0B286B
:1039200002D14FF4807000E00120B8FBF0F04000BD
:10393000616800EB5100B0FBF1F01FFA80F920E262
:10394000004402580090D00300093D00FDF7E8FC58
:103950008046606A08B901203DE0606A012801D113
:10396000022038E0606A022806D1042033E020E219
:1039700088E003E2D2E06EE1606A032801D106200C
:1039800029E0606A042801D1082024E0606A052843
:1039900001D10A201FE0606A062801D10C201AE03C
:1039A000606A072801D1102015E0606A082801D15B
:1039B000202010E0606A092801D140200BE0606AF5
:1039C0000A2801D1802006E0606A0B2802D14FF45A
:1039D000807000E00120B8FBF0F04000616800EB6F
:1039E0005100B0FBF1F01FFA80F9CAE104A8FDF71D
:1039F000BDF80598616A09B9012138E0616A0129B9
:103A000001D1022133E0616A022901D104212EE0B3
:103A1000616A032901D1062129E0616A042901D1E3
:103A2000082124E0616A052901D10A211FE0616AA9
:103A3000062901D10C211AE0616A072901D1102160
:103A400015E0616A082901D1202110E0616A092985
:103A500001D140210BE0616A0A2901D1802106E0F1
:103A6000616A0B2902D14FF4807100E00121B0FBA3
:103A7000F1F04000616800EB5100B0FBF1F01FFA7B
:103A800080F97EE101A8FDF789F90298616A09B918
:103A9000012138E0616A012901D1022133E0616A24
:103AA000022901D104212EE0616A032901D10621F6
:103AB00029E0616A042901D1082124E0616A05290D
:103AC00001D10A211FE0616A062901D10C211AE007
:103AD000616A072901D1102115E0616A082901D125
:103AE000202110E0616A092901D140210BE0616ABF
:103AF0000A2901D1802106E0616A0B2902D14FF425
:103B0000807100E00121B0FBF1F04000616800EB42
:103B10005100B0FBF1F01FFA80F932E1F94800687A
:103B2000C0F3401088B3F7480068C0F3C101F648FD
:103B3000C840616A09B9012139E0616A012901D1EE
:103B4000022134E0616A022901D104212FE0616A77
:103B5000032901D106212AE0616A042901D1082143
:103B600025E0616A052901D10A2120E0616A062960
:103B700001D10C211BE0616A072901D1102116E057
:103B8000616A082902D1202111E01BE0616A09293C
:103B900001D140210BE0616A0A2901D1802106E0B0
:103BA000616A0B2902D14FF4807100E00121B0FB62
:103BB000F1F04000616800EB5100B0FBF1F01FFA3A
:103BC00080F947E0606A08B9012038E0606A01289E
:103BD00001D1022033E0606A022801D104202EE0E6
:103BE000606A032801D1062029E0606A042801D117
:103BF000082024E0606A052801D10A201FE0606ADD
:103C0000062801D10C201AE0606A072801D1102093
:103C100015E0606A082801D1202010E0606A0928B8
:103C200001D140200BE0606A0A2801D1802006E023
:103C3000606A0B2802D14FF4807000E00120B24985
:103C4000B1FBF0F04000616800EB5100B0FBF1F017
:103C50001FFA80F995E0606A08B9012038E0606ACF
:103C6000012801D1022033E0606A022801D104203A
:103C70002EE0606A032801D1062029E0606A04284A
:103C800001D1082024E0606A052801D10A201FE044
:103C9000606A062801D10C201AE0606A072801D169
:103CA000102015E0606A082801D1202010E0606A29
:103CB000092801D140200BE0606A0A2801D1802048
:103CC00006E0606A0B2802D14FF4807000E001200A
:103CD0008E49B1FBF0F04000616800EB5100B0FB91
:103CE000F1F01FFA80F94CE0606A08B9012038E071
:103CF000606A012801D1022033E0606A022801D104
:103D000004202EE0606A032801D1062029E0606AC1
:103D1000042801D1082024E0606A052801D10A2086
:103D20001FE0606A062801D10C201AE0606A0728AB
:103D300001D1102015E0606A082801D1202010E090
:103D4000606A092801D140200BE0606A0A2801D18D
:103D5000802006E0606A0B2802D14FF4807000E0FA
:103D600001204FF40041B1FBF0F04000616800EB2E
:103D70005100B0FBF1F01FFA80F902E0012007903A
:103D800000BF00BFB9F1100F10D3B9F5803F0DD2BD
:103D90004FF6F07009EA00000890C9F34201089854
:103DA0000843089008982168C86083E201200790C2
:103DB00080E2082D72D005DC5DB1012D53D0042DB9
:103DC0006DD1A5E0102D6BD0202D6AD0402D66D18D
:103DD00017E2FDF793FA8046606A08B9012038E0DF
:103DE000606A012801D1022033E0606A022801D113
:103DF00004202EE0606A032801D1062029E0606AD1
:103E0000042801D1082024E0606A052801D10A2095
:103E10001FE0606A062801D10C201AE0606A0728BA
:103E200001D1102015E0606A082801D1202010E09F
:103E3000606A092801D140200BE0606A0A2801D19C
:103E4000802006E0606A0B2802D14FF4807000E009
:103E50000120B8FBF0F0616800EB5100B0FBF1F01D
:103E60001FFA80F919E2FDF75BFA8046606A08B92B
:103E700001203CE0606A012801D1022037E0606A3D
:103E8000022801D1042032E0606A032801D1062013
:103E90002DE0606A042805D1082028E083E0F9E1DC
:103EA000CCE066E1606A052801D10A201FE0606A63
:103EB000062801D10C201AE0606A072801D11020E1
:103EC00015E0606A082801D1202010E0606A092806
:103ED00001D140200BE0606A0A2801D1802006E071
:103EE000606A0B2802D14FF4807000E00120B8FB1B
:103EF000F0F0616800EB5100B0FBF1F01FFA80F9BF
:103F0000CBE10000004402580090D00300093D00BE
:103F100004A8FCF72BFE0598616A09B9012138E075
:103F2000616A012901D1022133E0616A022901D1CC
:103F300004212EE0616A032901D1062129E0616A8A
:103F4000042901D1082124E0616A052901D10A214F
:103F50001FE0616A062901D10C211AE0616A072974
:103F600001D1102115E0616A082901D1202110E05A
:103F7000616A092901D140210BE0616A0A2901D156
:103F8000802106E0616A0B2902D14FF4807100E0C4
:103F90000121B0FBF1F0616800EB5100B0FBF1F0E2
:103FA0001FFA80F979E101A8FCF7F8FE0298616A2E
:103FB00009B9012138E0616A012901D1022133E008
:103FC000616A022901D104212EE0616A032901D12D
:103FD000062129E0616A042901D1082124E0616AEF
:103FE000052901D10A211FE0616A062901D10C21AE
:103FF0001AE0616A072901D1102115E0616A0829D8
:1040000001D1202110E0616A092901D140210BE092
:10401000616A0A2901D1802106E0616A0B2902D177
:104020004FF4807100E00121B0FBF1F0616800EB1A
:104030005100B0FBF1F01FFA80F92EE1A3480068AF
:10404000C0F3401088B3A1480068C0F3C101A04884
:10405000C840616A09B9012139E0616A012901D1C9
:10406000022134E0616A022901D104212FE0616A52
:10407000032901D106212AE0616A042901D108211E
:1040800025E0616A052901D10A2120E0616A06293B
:1040900001D10C211BE0616A072901D1102116E032
:1040A000616A082902D1202111E01AE0616A092918
:1040B00001D140210BE0616A0A2901D1802106E08B
:1040C000616A0B2902D14FF4807100E00121B0FB3D
:1040D000F1F0616800EB5100B0FBF1F01FFA80F9DC
:1040E00046E0606A08B9012038E0606A012801D121
:1040F000022033E0606A022801D104202EE0606AC9
:10410000032801D1062029E0606A042801D1082093
:1041100024E0606A052801D10A201FE0606A0628B1
:1041200001D10C201AE0606A072801D1102015E0A7
:10413000606A082801D1202010E0606A092801D1B6
:1041400040200BE0606A0A2801D1802006E0606A06
:104150000B2802D14FF4807000E001205C49B1FBD4
:10416000F0F0616800EB5100B0FBF1F01FFA80F94C
:1041700093E0606A08B9012038E0606A012801D143
:10418000022033E0606A022801D104202EE0606A38
:10419000032801D1062029E0606A042801D1082003
:1041A00024E0606A052801D10A201FE0606A062821
:1041B00001D10C201AE0606A072801D1102015E017
:1041C000606A082801D1202010E0606A092801D126
:1041D00040200BE0606A0A2801D1802006E0606A76
:1041E0000B2802D14FF4807000E001203949B1FB67
:1041F000F0F0616800EB5100B0FBF1F01FFA80F9BC
:104200004BE0606A08B9012038E0606A012801D1FA
:10421000022033E0606A022801D104202EE0606AA7
:10422000032801D1062029E0606A042801D1082072
:1042300024E0606A052801D10A201FE0606A062890
:1042400001D10C201AE0606A072801D1102015E086
:10425000606A082801D1202010E0606A092801D195
:1042600040200BE0606A0A2801D1802006E0606AE5
:104270000B2802D14FF4807000E001204FF4004180
:10428000B1FBF0F0616800EB5100B0FBF1F01FFAF8
:1042900080F902E00120079000BF00BFB9F1100FC4
:1042A00006D3B9F5803F03D22068C0F80C9001E036
:1042B000012007900120A4F86A00A4F868000020FB
:1042C000E0662067079809B0BDE8F08F0044025807
:1042D0000090D00300093D002DE9F04104460D4651
:1042E00017469846069E4AE0701C002847D0FCF707
:1042F000EFFAA0EB0800B04200D8C6B92068006809
:1043000020F4D070216808602068806820F00100E7
:10431000216888602020C4F88000C4F8840000BFB1
:10432000002084F87C0000BF0320BDE8F0812068F5
:10433000006800F0040010B32068C069C0F3C0201A
:10434000E8B14FF40060216808622068006820F43A
:10435000D070216808602068806820F00100216822
:1043600088602020C4F88000C4F88400C4F8880065
:1043700000BF002084F87C0000BF0320D5E7206840
:10438000C0692840A84201D1012000E00020B842C5
:10439000AAD00020C9E7000010B50D48FDF7A8FE1F
:1043A0000B4800680068C0F3401008B101F0F6F84F
:1043B000074800680068C0F3C01008B101F0F6F8C3
:1043C0002620FCF705FB0248FDF792FE10BD000019
:1043D0004401002400BFFEE702480068C0F3022049
:1043E000704700000CED00E010B5002804DB0A0760
:1043F000130E054A135406E00A07140E034A00F090
:104400000F031B1FD45410BD00E400E018ED00E0C2
:104410000EB507460E46144619491AA000F0C6FF0D
:104420001749384600F0C2FF15491CA000F0BEFF36
:104430001349304600F0BAFF11491AA000F0B6FF48
:1044400003AD0021681E054601700A21681E05465D
:1044500001700CE00A2094FBF0F100FB11403030B9
:10446000C1B2681E054601700A2094FBF0F4002CCE
:10447000F0DC0349284600F099FF00F02CF800001A
:10448000000100242A2A2A20617373657274696FFF
:104490006E206661696C65643A2000002C206669B4
:1044A0006C6520002C206C696E65200002E008C855
:1044B000121F08C1002AFAD170477047002001E09E
:1044C00001C1121F002AFBD1704780F3108870478A
:1044D00080F31088704700BFFEE700002DE9F0412F
:1044E00080460C4615461E4600270120FFF7EDFFCB
:1044F0000A200C490870334607222946204601F05D
:10450000E1FA012801D0032706E044F6206001F01B
:10451000F7FA012800D003270020FFF7D6FF38461E
:10452000BDE8F081370000242DE9F04104460D4636
:10453000164600270120FFF7C8FF14480088FF280F
:1045400000DC04E09C2212A11CA0FFF761FF0F48D1
:104550000088032813DB0D4801882248006801F019
:1045600004F860B91F480068007820700748008888
:10457000801E30801B480068401C286000E0052732
:104580000020FFF7A2FF3846BDE8F0812C00002490
:104590002E2E5C2E2E5C557365725C53544D333257
:1045A0004D425C6D6F646275735C61736369695CD5
:1045B0006D6261736369692E6300000075735263F5
:1045C00076427566666572506F73203C204D425F7F
:1045D0005345525F5044555F53495A455F4D4158CA
:1045E00000000000280000242DE9F04104460D469B
:1045F00016464FF000080120FFF767FF17480078C4
:1046000018BB681E16490860012016490880144826
:104610000068047008460088304408800846018815
:104620000F48006800F0A1FF07460E490888411CAA
:104630000C4A11800C4909680F5401200B4908707D
:104640000121002000F0D8FF01E04FF00508002014
:10465000FFF73BFF4046BDE8F08100002500002445
:10466000300000243400002428000024240000240A
:1046700010B50120FFF729FF0021012000F0BCFF49
:10468000002004490870FFF720FF002001F0FEF928
:1046900010BD00002500002410B50120FFF715FF14
:1046A0000021084600F0A8FF00F0E6FF0020FFF719
:1046B0000CFF10BD10B5002406480078012806D173
:1046C00005480068804700200249087000E0062481
:1046D000204610BD4A000024500000242DE9F05F60
:1046E00006460D464FF0000B2888052848D1707803
:1046F0004FEA0029B07840EA090909F101001FFAE0
:1047000080F9F078040230790443012C35DBB4F5EC
:10471000FA6F32DA374600202880012007F8010BB3
:104720002888401C288004F0070040B12046E1178B
:1047300004EB5171C910491C01F0FF0805E0204647
:10474000E11704EB5171C1F3C70807F8018B288802
:10475000401C2880002322464946384600F086FC4B
:104760008246BAF1000F04D0504600F0ABFE8346FB
:1047700008E028884044288004E04FF0030B01E063
:104780004FF0030B5846BDE8F09F2DE9F05F064659
:104790000D464FF0000B2888052847D170784FEA66
:1047A0000029B07840EA090909F101001FFA80F9EF
:1047B000F078040230790443012C34DBB4F5FA6F4D
:1047C00031DA374600202880022007F8010B2888BC
:1047D000401C288004F0070040B12046E11704EB9C
:1047E0005171C910491C01F0FF0805E02046E1178E
:1047F00004EB5171C1F3C70807F8018B2888401CEE
:10480000288022464946384600F0CAFC8246BAF162
:10481000000F04D0504600F055FE834608E028887B
:104820004044288004E04FF0030B01E04FF0030BFD
:104830005846BDE8F09F2DE9F04705460C464FF07D
:10484000000A2088052837D168784FEA0028A87820
:1048500040EA080808F101001FFA80F8E87806022B
:104860002E79012E25DB7D2E23DC2F460020208093
:10487000032007F8010B2088401C20807006000EE2
:1048800007F8010B2088401C208000233246414657
:10489000384600F0E9FC8146B9F1000F04D04846E3
:1048A00000F010FE824609E0208800EB46002080E0
:1048B00004E04FF0030A01E04FF0030A5046BDE860
:1048C000F0872DE9F04705460C464FF0000A208896
:1048D000052837D168784FEA0028A87840EA080808
:1048E00008F101001FFA80F8E878060228790643EB
:1048F000012E24DB7D2E22DA2F460020208004208A
:1049000007F8010B2088401C20807006000E07F875
:10491000010B2088401C208032464146384600F07A
:10492000FDFC8146B9F1000F04D0484600F0CAFDF5
:10493000824609E0208800EB4600208004E04FF02A
:10494000030A01E04FF0030A5046BDE8F0872DE965
:10495000FC5F04460D460020009028880A285DDB95
:1049600060784FEA002AA07840EA0A0A0AF10100BA
:104970001FFA80FAE07806022079064360794FEA50
:10498000002BA07940EA0B0B0BF101001FFA80FB12
:10499000E0790702207A0743607A0190012E3BDB21
:1049A0007D2E39DC012F37DB792F35DC790001983A
:1049B000814231D101233A46594604F10A0000F000
:1049C00053FC8146B9F1000F1ED1A046002028807B
:1049D000172008F8010B2888401C28807006000E5C
:1049E00008F8010B2888401C2880002332465146D5
:1049F000404600F039FC8146B9F1000F04D1288807
:104A0000022101FB06002880B9F1000F06D04846BC
:104A100000F058FD009001E0032000900098BDE8F0
:104A2000FC9F000070B505460C4606480288064902
:104A3000681CFBF780FC03480088401C2080002095
:104A400070BD000038000024600300242DE9F84305
:104A500004460F464FF000083888052829D16078B1
:104A60000502A0780543681C85B22079F0B9E0788A
:104A7000FF2801D0E078C8B900208DF80100E07867
:104A8000FF2803D101208DF8000002E000208DF8FE
:104A9000000001231A462946684600F0E7FA064658
:104AA0004EB1304600F00EFD804604E04FF00308A2
:104AB00001E04FF003084046BDE8F8832DE9F041DE
:104AC00004460F464FF000083888052812D1607858
:104AD0000502A0780543681C85B201231A462946C1
:104AE000E01C00F0C1FB064636B1304600F0EAFC9F
:104AF000804601E04FF003084046BDE8F0812DE913
:104B0000F05F05460E464FF0000B3088052839DD72
:104B100068780702A8780743781C87B2E87804020F
:104B20002879044395F805A004F0070040B1204619
:104B3000E11704EB5171C910491C01F0FF0805E0B1
:104B40002046E11704EB5171C1F3C708012C16DBB5
:104B5000B4F5F66F13DCD04511D101232246394656
:104B6000A81D00F083FA8146B9F1000F04D0484631
:104B700000F0A8FC834607E00520308004E04FF0F9
:104B8000030B01E04FF0030B5846BDE8F09F2DE901
:104B9000F04704460E464FF0000A3088062828DB0E
:104BA00060780702A0780743781C87B2E078050296
:104BB0002079054394F80590012D17DB782D15DC3D
:104BC0006806000E484511D101232A463946A01D2A
:104BD00000F04AFB8046B8F1000F04D0404600F0D8
:104BE00071FC824607E00520308004E04FF0030AA4
:104BF00001E04FF0030A5046BDE8F0872DE9F04789
:104C000005460C4616461F46DDF820904FF000087A
:104C10001CB1012C01DBF72C02DD4FF0020859E03A
:104C20002E48047015B1012D42D120E02C482D49A9
:104C300008602D482D4908602D482E4908602E48EF
:104C40002E49086000202E4908602E482E49086031
:104C50002E482F4908602F482F4908604B463A4696
:104C600031461E48007800F007F9804623E02B48C3
:104C70001C4908602A481D4908602A481D490860E7
:104C800029481E49086000201D49086027481E4920
:104C9000086027481E49086026481F4908604B469F
:104CA0003A4631460D480078FFF718FC804602E08E
:104CB0004FF0020800BF00BFB8F1000F0AD100F0AA
:104CC000DDFE10B94FF0030804E01B480570012019
:104CD0001A4908704046BDE8F087000048000024EB
:104CE00029500008500000245150000854000024AE
:104CF000954F00084C000024D54E000858000024B1
:104D00005C000024095B000860000024795C000856
:104D100064000024E95B0008680000247146000874
:104D200099460008E9450008294500080957000888
:104D30000959000891580008490000244A0000243D
:104D400038B500254148007808B1062038BD6846CE
:104D500000F082FE012877D19DF8000030B10128D3
:104D600005D0022818D003286DD16BE06BE0384ADB
:104D700038493948394B1B68984705465DB936486C
:104D8000007837490978884202D03348007810B952
:104D9000022000F07BFE56E02E4800680078314982
:104DA0000870012030490870002417E02F4810F8DF
:104DB000340000B914E02D4810F83400294909786E
:104DC00088420AD1294800EBC400214942682148A1
:104DD000006890472449087002E0641C102CE5DB51
:104DE00000BF1D48007858B31F480078C8B10020A4
:104DF000174908801B48007840F080011448028859
:104E00000088401C124B18801248006881541648D4
:104E10000278184601880088401C18800D480068F8
:104E2000425413480078012800D100BF0848028886
:104E3000084801680A4800780E4B1B6898470546E9
:104E400001E001E000BF00BF00207FE74A0000242E
:104E5000FA000024F4000024F80000245800002484
:104E600048000024F9000024FC0000247400002401
:104E7000490000244C0000242DE9F04781460E46ED
:104E800014461F464FF000080120FFF721FB3B4668
:104E900008222146304600F015FE012802D04FF0CE
:104EA00003080FE0B4F5964F01D9232503E0600015
:104EB0000749B1FBF0F5A8B200F022FE012801D0AD
:104EC0004FF003080020FFF703FB4046BDE8F087E2
:104ED000A07F17002DE9F04104460D4616464FF01D
:104EE000000800270120FFF7F3FA14480088FF2884
:104EF00000DC04E09C2212A11BA0FFF789FA0F48F6
:104F00000088042812DB0D480188214800F058FB76
:104F100060B91F480078207008480088C01E3080A3
:104F20001B48401C28604FF0010800E005270020C6
:104F3000FFF7CEFA3846BDE8F081000046000024B5
:104F40002E2E5C2E2E5C557365725C53544D33329D
:104F50004D425C6D6F646275735C7274755C6D62FA
:104F60007274752E63000000757352637642756625
:104F7000666572506F73203C204D425F5345525F0F
:104F80005044555F53495A455F4D41580000000059
:104F9000800300242DE9F04105460E4617464FF0E8
:104FA00000080120FFF794FA1A480078012829D157
:104FB000701E1949086001201849088016480068C9
:104FC0000570084600883844088008460188124861
:104FD000006800F0F5FA044610490888411C0F4BA0
:104FE00019800F490C54221219460888411C198057
:104FF0000B490A5401200B4908700121002000F0E0
:10500000FBFA01E04FF005080020FFF761FA404687
:10501000BDE8F0813D00002440000024440000244D
:10502000800300243C00002410B50120FFF750FA53
:105030000020064908700021012000F0DDFA00F090
:1050400047FB0020FFF744FA10BD00003D0000249C
:1050500010B50120FFF73CFA0021084600F0CCFA19
:1050600000F00AFB0020FFF733FA10BD2DE9FF5FC7
:1050700005460E4614469A46002003902046E11746
:1050800004EB5171C910491C1FFA81F8DFF808912F
:105090000020029040200190404800880090701E3F
:1050A00086B20298864271DB3219DDE901100844AC
:1050B00082426BDC0099711A88B2C11700EB517102
:1050C000CF100099711A88B2C11700EB5171C91045
:1050D000A0EBC1011FFA81FBBAF1000F03D0BAF1B6
:1050E000010F51D126E00EE039467A1C97B201EB50
:1050F00009000822594600F023FE05F8010BA8F12B
:1051000001001FFA80F8B8F1000FEDDC6D1E20469B
:10511000E11704EB5171C910A4EBC1018CB22878DE
:10512000C4F10801884028702878C4F108010841BA
:10513000287029E00EE015F8013B39467A1C97B239
:1051400001EB09000822594600F010FEA8F1010009
:105150001FFA80F8B8F1010FEDDC2046E11704EBEF
:105160005171C910A4EBC1018CB264B115F8013BB7
:10517000E2B2394607F1010C1FFA8CF701EB090086
:10518000594600F0F3FD00BF02E0FFE70120039065
:10519000039804B0BDE8F09F180000241600002416
:1051A0002DE9FE4F05460E4614460020029020468B
:1051B000E11704EB5171C910491C1FFA81F9284805
:1051C00001904FF0000A102000902648B0F800B07F
:1051D000701E86B256453DDB31190098504481421D
:1051E00038DCA6EB0B0188B2C11700EB5171CF1070
:1051F000A6EB0B0188B2C11700EB5171C910A0EBEF
:10520000C1011FFA81F80EE039467A1C97B2019A63
:1052100088180822414600F093FD05F8010BA9F11A
:1052200001001FFA80F9B9F1000FEDDC6D1E204678
:10523000E11704EB5171C910A4EBC1018CB22878BD
:10524000C4F10801884028702878C4F10801084199
:10525000287001E0012002900298BDE8FE8F000056
:1052600014000024120000242DE9F04704460D46E6
:105270001E460020274B01274FF0640CDFF8989062
:10528000B9F80080A5F101091FFA89F5BD423EDB9E
:1052900005EB020907EB0C0AD14538DCA5EB080940
:1052A0001FFA89F116B1012E30D115E011E033F863
:1052B00011904FEA292904F8019B13F8119004F882
:1052C000019B01F101091FFA89F1A2F101091FFAFD
:1052D00089F2002AEBDC19E015E014F801AB4FEA83
:1052E0000A2923F8119014F8019B33F811A049EA18
:1052F0000A0923F8119001F101091FFA89F1A2F1BD
:1053000001091FFA89F2002AE7DC00BF00E0012052
:10531000BDE8F08798020024220000242DE9F04324
:1053200003460020174D00266427DFF85C80B8F89C
:1053300000C0A1F101081FFA88F1B1421FDB01EBA7
:10534000020806EB0709C84519DCA1EB0C081FFA97
:1053500088F411E035F814804FEA282803F8018B0F
:1053600015F8148003F8018B04F101081FFA88F482
:10537000A2F101081FFA88F2002AEBDC00E001200C
:10538000BDE8F083D00100242000002470B505465C
:105390000C460548844203D1284600F00FF970BD41
:1053A0004FF0FF30FBE700000001002470B50D4610
:1053B000044602E02946FFF7E9FF14F8010B002834
:1053C000F8D170BD08B5FBF795FAFDF7BBF9FDF70D
:1053D0001BF9FDF753F900204FF4E13302220121BC
:1053E0000090FFF70BFCFFF765F94CE0FBF770FA54
:1053F000C0B225490880FBF76BFAC0F307202249A9
:105400004880FBF765FAC0F307401F498880FBF727
:105410005FFA000E1C49C880FBF75AFAC0B21B495C
:105420000880FBF755FAC0F3072018494880FBF7BE
:105430004FFAC0F3074015498880FBF749FA000E80
:105440001249C880FBF744FA11490870FBF740FA8B
:10545000000A0F494870FBF73BFA000C0C498870B2
:10546000FBF736FA000E0A49C870FBF731FA094912
:105470000870FBF72DFA000A06494870C820FBF7B0
:1054800003F9FFF75DFCB1E798020024D001002486
:10549000180000241400002400B585B014216846CB
:1054A000FAF762FF10200090012001900020029086
:1054B0000220039069460248FBF7FAF805B000BDE8
:1054C000000C0258014621B1012904D0072906D158
:1054D00003E0002005E0022003E0062001E00420B4
:1054E00000BF00BF7047000010B50446092C03DC64
:1054F00004F13000C0B210BD0A2C05DB0F2C03DC18
:1055000004F13700C0B2F6E74FF4E87201A10CA035
:10551000FEF77EFF2E2E5C2E2E5C557365725C535B
:10552000544D33324D425C6D6F646275735C6173D0
:105530006369695C6D6261736369692E6300000071
:10554000300000000146302905DB392903DCA1F1D8
:105550003000C0B27047412905DB462903DCA1F1C8
:105560003700C0B2F6E7FF20F4E710B5024600208E
:1055700003E012F8014B2318D8B20B1EA1F101046D
:10558000A1B2F6D14342D8B210BD000010B5024816
:105590000068804710BD00006800002410B5024874
:1055A0000068804710BD00006000002410B502486C
:1055B0000068804710BD00006400002400BE7047F2
:1055C00070B502460C46FF25FF2309E012F8010BD7
:1055D00080EA03010648405C80EA05030548455C13
:1055E000201EA4F10106B4B2F0D143EA052070BD3B
:1055F000245E0008245F000870B505460C466DB1B6
:105600001B480068006840F02000194909680860DC
:10561000002210211748FBF74FF90CE014480068EE
:10562000006820F02000124909680860012210215A
:105630001048FBF741F96CB10D480068006840F074
:1056400080000B4909680860012210210948FBF716
:1056500033F90CE006480068006820F08000044937
:1056600009680860002210210248FBF725F970BD87
:1056700044010024000C025800BF14480068006A6E
:1056800041F21111084068B910480068006A891099
:10569000084038B90D480068006820F001000B4947
:1056A0000968086000BF0020084909684862074887
:1056B0000068C06820F0010004490968C8606FF004
:1056C00001000249096808617047000004010024D4
:1056D0006FF001000B49096808610A480068C0685A
:1056E00040F0010007490968C860002005490968C1
:1056F000486204480068006840F0010001490968F8
:10570000086070470401002438B500254848007837
:1057100000B904E0E32247A151A0FEF779FE6846F4
:1057200000F0C0F95548007800286FD0012802D059
:1057300002287AD146E0FFF7CBFF9DF800003A2817
:1057400005D100204E4908704E49088039E09DF887
:1057500000000D2803D102204849087031E09DF86F
:105760000000FFF7EFFE04464548007810B101281D
:1057700026D114E043480088FF280ADC2007000EE9
:10578000414909683F4A1288885401203C49087001
:1057900016E0002039490870FFF76EFF10E03A4923
:1057A0000968384A12888818017821430170354801
:1057B0000088401C3349088000203149087000BF30
:1057C00000BF32E09DF8000030490978884209D1D5
:1057D000FFF752FF002029490870012000F056F918
:1057E000054611E09DF800003A280AD1002024491E
:1057F000087024490880012020490870FFF768FFDD
:1058000002E000201D4908700FE0FFE79DF800004E
:105810003A2809D1FFF75CFF00201A49088018498F
:10582000087001201549087000BF00BF284638BD28
:10583000240000242E2E5C2E2E5C557365725C5362
:10584000544D33324D425C6D6F646275735C6173AD
:105850006369695C6D6261736369692E630000004E
:1058600065536E645374617465203D3D205354410B
:1058700054455F54585F49444C45000025000024BE
:105880002E0000242C0000242800002437000024CF
:1058900010B510480078012802D0022805D100E098
:1058A00000BF00200B4908700FE00A48007801286B
:1058B00003D008480078022800D105E040F2A71282
:1058C00005A11048FEF7A4FD00BF00BFFFF7D4FEFE
:1058D000002010BD250000242E2E5C2E2E5C55735A
:1058E00065725C53544D33324D425C6D6F6462752A
:1058F000735C61736369695C6D6261736369692E6E
:10590000630000002460000870B500253A48007864
:1059100000B905E040F24F1238A143A0FEF778FD30
:1059200048480078052864D2DFE800F05E030E479F
:105930004F003A24204600F0D5F802204149087073
:1059400000204149087054E04048008800282DDDBF
:105950003D48007810B1012827D10DE03C49096885
:1059600009780811FFF7C0FD0446204600F0BAF898
:1059700001203549087018E035490968097801F0B7
:105980000F00FFF7B1FD0446204600F0ABF83048A9
:105990000068401C2E49086000202B4908702B48E5
:1059A0000088401E2949088000BF05E00D2000F056
:1059B00099F80320234908701BE02648007800F07E
:1059C00091F804201F49087013E000201D49087059
:1059D000032000F05BF8054600210120FFF70CFED4
:1059E00000201849087004E000210120FFF704FEA0
:1059F00000BF00BF284670BD250000242E2E5C2E5F
:105A00002E5C557365725C53544D33324D425C6D60
:105A10006F646275735C61736369695C6D62617305
:105A20006369692E63000000655263765374617484
:105A300065203D3D2053544154455F52585F4944D1
:105A40004C450000240000242E00002434000024D3
:105A5000300000243700002401460020054A127857
:105A600032B1054A12780A700022024B1A700120E6
:105A700070470000FE000024FD00002400200249C1
:105A80000870012070470000FE000024014601203C
:105A9000024A10700248017001207047FE00002485
:105AA000FD00002410B5044601231A46214604488F
:105AB000FCF7A8FC08B1002010BD0120FCE70000A5
:105AC000440100242DE9F04105460E4617461C46C8
:105AD000FFF7E2FC224631462846FCF707FE01208C
