:020000040800F2
:1000000000040020D3010008290200082B02000888
:100010002F02000833020008370200080000000029
:100020000000000000000000000000003B0200088B
:100030003D020008000000003F02000841020008E5
:10004000F3010008F3010008F3010008F3010008C0
:10005000F3010008F3010008F3010008430200085F
:10006000F3010008F3010008F3010008F3010008A0
:10007000F3010008F3010008F3010008F301000890
:10008000F3010008F3010008F3010008F301000880
:10009000F3010008F3010008F3010008F301000870
:1000A000F3010008F3010008F3010008F301000860
:1000B000F3010008F3010008F3010008F301000850
:1000C000F3010008F3010008F3010008F301000840
:1000D000F3010008F3010008F3010008F301000830
:1000E000F3010008F3010008F3010008F301000820
:1000F000F3010008F3010008F3010008F301000810
:10010000F3010008F3010008F3010008F3010008FF
:10011000F3010008F3010008F3010008F3010008EF
:10012000F3010008F3010008F3010008F3010008DF
:1001300000F002F800F03CF80AA090E8000C8244BD
:100140008344AAF10107DA4501D100F031F8AFF29A
:10015000090EBAE80F0013F0010F18BFFB1A43F0A5
:1001600001031847900C0000B00C0000103A24BFA7
:1001700078C878C1FAD8520724BF30C830C144BF0C
:1001800004680C607047000000230024002500264E
:10019000103A28BF78C1FBD8520728BF30C148BFEA
:1001A0000B6070471FB500F01EFE1FBD10B510BDDF
:1001B00000F0DDFD1146FFF7F5FF00F02DF800F02F
:1001C000FBFD03B4FFF7F2FF03BC00F005FE0000E7
:1001D00070470B4880470B4981F308880A4800475D
:1001E000FEE7FEE7FEE7FEE7FEE7FEE7FEE7FEE7E7
:1001F000FEE7FEE705480649044A064B7047000043
:10020000D1010008780200203101000878000020A8
:10021000780200207800002000F07BFD00F02AF832
:1002200000F058F800BFFEE7704700BFFEE700BFD0
:10023000FEE700BFFEE700BFFEE77047704770476C
:10024000704710B5022000F05CFC80B14FF4804193
:10025000074800F06BF9C0F10100C4B222464FF428
:100260008041034800F073F9022000F05BFC10BDF0
:10027000000C014008B50121082000F04CFB4FF4B0
:10028000E040ADF8000010208DF8030003208DF849
:1002900002006946044800F0ABF84FF4E041024820
:1002A00000F051F908BD0000000C014008B54FF402
:1002B000C06000F04BFC07208DF8000000208DF896
:1002C00001008DF8020001208DF80300684600F05F
:1002D00042FC08BD0EB50121092000F01CFBFFF710
:1002E000E5FF0220ADF8080028208DF80B0002A9D8
:1002F0000A4800F07DF80121084600F07DF902204F
:10030000009000208DF804000C208DF805000120DD
:100310008DF80600684600F078FB0EBD000C014029
:1003200010B50446C549601A8C422FD009DCC44878
:10033000201810D0B0F5806F16D0B0F5006F4AD1FC
:100340001BE0B0F5806F2AD0B0F5006F30D0B0F56B
:10035000406F40D135E00121042000F0F6FA002181
:10036000042000F0F2FA37E00121082000F0EDFA55
:100370000021082000F0E9FA2EE00121102000F011
:10038000E4FA0021102000F0E0FA25E0012120200D
:1003900000F0DBFA0021202000F0D7FA1CE0012158
:1003A000402000F0D2FA0021402000F0CEFA13E005
:1003B0000121802000F0C9FA0021802000F0C5FA58
:1003C0000AE00121080200F0C0FA00214FF4807019
:1003D00000F0BBFA00E000BF00BF10BD10B5012166
:1003E000084600F0B2FA0021012000F0AEFA10BD7C
:1003F0002DE9F041024600250026002000230024BC
:10040000002791F803C00CF00F0591F803C01CF011
:10041000100F03D091F802C04CEA0505B1F800C0F6
:100420001CF0FF0F31D0146800202BE04FF0010CBE
:100430000CFA00F3B1F800C00CEA03069E4220D18A
:1004400083004FF00F0C0CFA03F7BC4305FA03FCD2
:100450004CEA040491F803C0BCF1280F06D14FF018
:10046000010C0CFA00FCC2F814C00AE091F803C0B9
:10047000BCF1480F05D14FF0010C0CFA00FCC2F89A
:1004800010C0401C0828D1D31460B1F800C0BCF1E2
:10049000FF0F34DD546800202EE000F1080C4FF00F
:1004A000010808FA0CF3B1F800C00CEA03069E42FA
:1004B00021D183004FF00F0C0CFA03F7BC4305FA6F
:1004C00003FC4CEA040491F803C0BCF1280F05D1E9
:1004D00000F1080C08FA0CF8C2F8148091F803C077
:1004E000BCF1480F07D100F1080C4FF0010808FAE1
:1004F0000CF8C2F81080401C0828CED35460BDE828
:10050000F0814FF6FF710180022181700421C170DA
:1005100070470246002093680B4201D0012000E0A2
:10052000002070470146886880B27047024600206C
:10053000D3680B4201D0012000E000207047014643
:10054000C86880B2704701617047416170470AB165
:10055000016100E041617047C16070474FF4803233
:100560000A438261816182618269826970470246C1
:100570000020344B18684FF68073184040EA021090
:100580000843304B186070472F49C8617047F0B579
:100590000A4600230024002100252A4E7168C0F37A
:1005A000034583B200F44016B6F5401F08D121F090
:1005B0007061244E766826F07066224F7E6012E0ED
:1005C00000F48016B6F5801F06D1032606FA05F45E
:1005D000A14341F0706106E0460D360103FA06F6CC
:1005E000B14341F0706122B1460D360103FA06F6BF
:1005F0003143144E7160F0BD30B500228B071C0FE3
:100600000F2303FA04F20F4B08338C1053F82430F5
:1006100093430C4C08348D1044F8253023468C103D
:1006200053F824308C07240F00FA04F42343054CBC
:1006300008348D1044F8253030BD0000001401400E
:1006400000F8FEBF0000014000002042DA480068C8
:1006500040F00100D849086008464068D749084082
:10066000D549486008460068D5490840D249086025
:100670000846006820F4802008600846406820F49E
:10068000FE004860002088607047CB49096821F46B
:100690008031C94A11601146096821F48021116036
:1006A000B0F5803F03D0B0F5802F0ED106E0C249EF
:1006B000096841F48031C04A116007E0BE49096809
:1006C00041F4A021BC4A116000E000BF00BF7047A8
:1006D00010B501460022002300204A11012A02D150
:1006E000B54C236806E0022A02D1B34C236A01E02C
:1006F000B14C636A01F01F02012494401C4201D0F6
:10070000012000E0002010BD70B500240025002667
:1007100000BF3120FFF7DCFF0646641C16B9B4F5B4
:10072000A06FF6D13120FFF7D3FF08B1012500E01B
:100730000025284670BD014600209F4A106820F021
:10074000F80040EAC100106070479E490860704799
:1007500002460020984B586820F47C1042EA0103BE
:100760001843954B58607047964908667047014694
:100770000020914A506820F0030008435060704701
:100780008D48406800F00C007047014600208A4AFE
:10079000506820F0F0000843506070470146002088
:1007A000854A506820F4E060084350607047014675
:1007B0000020814A506820F4605040EAC100506037
:1007C000704729B17C4A527A02437B4B5A7206E049
:1007D000794A527AC343DBB21A40774B5A72704758
:1007E00079490860704701460020734A506820F438
:1007F00040400843506070470021744A11706E4AAF
:1008000082F82010012802D0042808D103E0012139
:100810006E4A117004E005216C4A117000E000BFBF
:1008200000BF70476A49086070476349096A01431D
:10083000614A1162704767490860704730B500210E
:100840000022002400235C4D6D6805F00C0121B1ED
:10085000042905D0082923D105E05F4D056022E079
:100860005D4D05601FE0544D6D6805F47012022562
:1008700005EB9242504D6D6805F480341CB9574D1C
:10088000554305600BE04C4D6D6815F4003F03D0F7
:10089000524D5543056002E04F4D5543056002E05F
:1008A0004D4D056000BF00BF434D6D6805F0F00180
:1008B00009094B4D6B5C0568DD4045603E4D6D6838
:1008C00005F4E061090A464D6B5C4568DD408560D2
:1008D000394D6D6805F46051C90A414D6B5C45683E
:1008E000DD40C560344D6D6805F44041890B3D4DD8
:1008F0006B5CC568B5FBF3F5056130BD29B12E4AC7
:10090000526902432C4B5A6104E02B4A52698243DC
:10091000294B5A61704729B1274A92690243264BF5
:100920009A6104E0244A92698243234B9A6170479A
:1009300029B1214AD26902431F4BDA6104E01E4A01
:10094000D26982431C4BDA61704729B11A4AD268D6
:100950000243194BDA6004E0174AD2688243164B0F
:10096000DA60704729B1144A12690243124B1A61C6
:1009700004E0114A126982430F4B1A6170471A4909
:10098000086070470F49C86470470B49C8717047C9
:100990000948406A40F08070074948627047014644
:1009A0000020054A92680A4201D0012000E00020A0
:1009B0007047014988727047001002400000FFF83C
:1009C000FFFFF6FE00004242D800424220100240E3
:1009D000800442423C04424200127A0000093D0079
:1009E00000000020100000204004424200204F4937
:1009F00008604F49C1F804044E49086001F1040140
:100A000008604D484D49086070478179F1B3484905
:100A1000D1F8001402689143454AC2F80014114607
:100A2000D1F8041402689143454A11600179404AA3
:100A30001144D1F80014026841EA020102793C4BEA
:100A40001A44C2F800141946D1F80814026821EAC1
:100A500002011A46C2F808141146D1F80C140268B3
:100A600021EA0201374A11604179102912D1194651
:100A7000D1F80814026811431A46C2F80814114646
:100A8000D1F80C14026811431A4600E00FE0C2F8D6
:100A90000C1418E04179264A1144D1F80014026878
:100AA00011434279224B1A44C2F800140BE0017939
:100AB0001F4A1144D1F800140268914302791C4B7B
:100AC0001A44C2F8001470470021016001710C2122
:100AD00041710021817170471B49096841EA000199
:100AE000134AC2F81014704701460020134A1268D6
:100AF0000A4201D0012000E0002070470F49086041
:100B00007047014600200022084B1B6803EA0102DF
:100B1000074BD3F814340B4202D00AB1012000E095
:100B2000002070470549086070470000000401403C
:100B30000000014008040140FFFF070014040140C9
:100B4000040401400C0401401004014036490143F3
:100B5000364A1160704770B5002100230F22C47817
:100B60004CB3324C246804F4E064C4F5E0644FEA0A
:100B70001421C1F1040322FA01F2447804FA03F1CA
:100B8000847804EA020444EA01014FEA0111284C86
:100B90000678A155047804F01F054FF0010404FA0B
:100BA00005F405784FEA65154FF0E02606EB85055C
:100BB000C5F8004109E0047804F01F050124AC40A9
:100BC0001C4D0678761145F8264070BD1A4A0A4039
:100BD00002431A4B1A60704741B1194A126842EA3F
:100BE00000024FF0E023C3F8102D07E0144A12680A
:100BF00022EA00024FF0E023C3F8102D70470428CA
:100C000008D14FF0E021096941F004014FF0E022E2
:100C1000116107E04FF0E021096921F004014FF074
:100C2000E0221161704700000000FA050CED00E0C1
:100C300000E400E080E100E080FFFF1F08ED00E03D
:100C400010ED00E000210020434A126842F4803297
:100C5000414B1A6000BF404A126802F40030491C40
:100C600010B9B1F5A06FF6D13B4A126812F4003FFB
:100C700001D0012000E00020012843D1374A12684A
:100C800042F01002354B1A601A46126822F0030235
:100C90001A601A46126842F002021A602E4A52681E
:100CA0002D4B5A601A4652685A601A46526842F4EE
:100CB00080625A601A46526822F47C125A601A46C0
:100CC000526842F4E8125A601A46126842F0807282
:100CD0001A6000BF204A126812F0007FFAD01E4A44
:100CE000526822F003021C4B5A601A46526842F0C6
:100CF00002025A6000BF184A526802F00C02082A29
:100D0000F9D101E000BFFEE7704710B5FFF79AFF89
:100D100010BD10B51048006840F001000E49086091
:100D2000084640680E4908400B494860084600687C
:100D30000C490840084908600846006820F48020F3
:100D400008600846406820F4FE0048600020886083
:100D5000FFF7DBFF10BD0000001002400020024042
:100D60000000FFF8FFFFF6FE7047704770477546BA
:100D700000F028F8AE4605006946534620F007000B
:100D8000854618B020B5FFF735FABDE820404FF092
:100D900000064FF000074FF000084FF0000B21F065
:100DA0000701AC46ACE8C009ACE8C009ACE8C00932
:100DB000ACE8C0098D4670470446AFF3008020467A
:100DC000FFF7FFF900487047140000200148704702
:100DD000704700BF1800002001491820ABBEFEE795
:100DE00026000200704710B5FFF7F0FF4FF000013A
:100DF000016010BD140E0008000000201400000067
:100E00006C010008280E0008140000206402000095
:100E1000880100080000000001020304010203042D
:080E2000060708090204060898
:04000005080001D31B
:00000001FF
