:020000040800F2
:1000000030050020D9000008E70000086109000859
:1000100000000000000000000000000000000000E0
:10002000000000000000000000000000EB000008DD
:100030000000000000000000ED000008BD200008E6
:10004000A52E0008F1000008F1000008F1000008EA
:10005000F1000008F1000008F1000008C9030008E1
:10006000F1000008F1000008F1000008F1000008AC
:10007000F100000831210008F1000008F10000083B
:10008000F10000080000000000000000F10000087E
:1000900000000000F1000008F1000008F100000875
:1000A00000000000F1000008F1000008F100000865
:1000B000F1000008F1000008F10000080000000055
:1000C0000448854600F046F800480047A934000877
:1000D000C046C04630050020064880F30888064820
:1000E000804706480047FEE7FEE7FEE7FEE7FEE73B
:1000F000FEE7000030050020C5200008C100000810
:1001000030B50B46014600202022012409E00D46AF
:10011000D5409D4205D31D469540491B2546954037
:1001200040191546521E002DF1DC30BD70B500247B
:100130002546002801DA01244042002901DA012580
:100140004942FFF7DDFFAC4200D04042002C00D016
:10015000494270BD064C0125064E05E0E36807CC18
:100160002B430C3C98471034B442F7D3FFF7ACFF55
:100170000C3600082C36000810B5A02001F08EFFC8
:10018000B02001F08BFF9C2001F04DFC02F02AFF13
:10019000D02001F083FF10BDFEB5044600250020ED
:1001A000019000260090002721460E2002F05EFFFD
:1001B0001C21022002F05AFF00BF022001F0A6FB22
:1001C0000F490870084600781C2108400C49087047
:1001D000084600780028F0D11C2001F097FB054666
:1001E000E806C70F1D2001F091FB05462807C60F42
:1001F000002F01D1002E01D000F0E3F9FEBD000078
:100200005900002010B5B02001F048FF1E20FFF774
:10021000C3FF5A20FFF7C0FF9620FFF7BDFF10BDB8
:1002200010B5012406E00A48015D204602F01EFFD9
:10023000601CC4B2042CF6DD072406E00448015D0E
:10024000204602F013FF601CC4B22C2CF6DD10BD5A
:10025000CC35000810B5902001F020FF10BD10B57E
:1002600002F0FAFFB02001F019FF9C2001F0DBFB47
:1002700010BD10B5802001F011FF10BDFFB583B097
:100280000C46029400200190002726E000261CE086
:10029000721C039951430846791CFFF731FF05464C
:1002A000A54201D9281B00E0601B05460298A84220
:1002B00004D90295059806700698077002980028E0
:1002C00002D10120019002E0761C402EE0D300BF55
:1002D0000198002800D002E07F1C042FD6D300BF75
:1002E000029807B0F0BD70B50446002522E08020DA
:1002F0002040002805D001210920C00600F0FFF9A8
:1003000004E001210920C00600F0F7F9052000F003
:1003100015F802210920C00600F0F1F9052000F0CF
:100320000DF802210920C00600F0E7F96006040E6E
:10033000681CC5B2082DDADB70BD00000146002242
:100340000E4B1A61CA005A6100229A6105221A6195
:1003500000BF0A4A1069C207D20F002A04D0012246
:1003600012040240002AF4D0044A126952085200D2
:10037000024B1A6100229A617047000000E000E021
:100380001CB50121084601F021F90E21002000F0E2
:10039000E7F8684600F00DF9152080010090002173
:1003A000684601710C2141710021817100F078F8DB
:1003B0001CBD08B50721684601700221417000216B
:1003C000817001F03BF808BD10B51520800100F0E8
:1003D00009F800200249C8750120087610BD000008
:1003E000F40000200149486170470000000401400A
:1003F0000149486170470000000401401CB501211B
:10040000084601F0E3F80E21002000F0A9F8684644
:1004100000F0CFF81520800100900021684601719E
:100420000C2141710121817100F03AF81CBD0000DE
:1004300000B50020C04302F0C7FE0B4840690A49DE
:1004400048610A4800688007800F08490860002357
:1004500006E00021054808309A008150581C83B2FC
:10046000042BF6DB00BD0000000401400000014049
:1004700008B50121480401F099F80121084601F06E
:10048000A5F8684600F03DF915218901684601800C
:100490004821C17069460920C00600F094F808BDE3
:1004A0008179002948D02D490968026891432B4A77
:1004B00011601146496802689143284A51600179E8
:1004C000002906D11146096802681143234A1160C8
:1004D00005E02249496802681143204A51601F49DA
:1004E0008968026891431D4A91601146C968026893
:1004F00091431A4AD160417910290CD1114689687B
:1005000002681143154A91601146C9680268114397
:10051000124AD16020E04179082906D10F49896843
:10052000026811430D4A916016E00C49C9680268DF
:1005300011430A4AD1600FE00179002906D1074929
:10054000096802689143054A116005E0034949685A
:1005500002689143014A5160704700000004014065
:1005600010B50D4A8B109B00D3588A07140F0F2229
:10057000A2409343084A8C10A40013518B109B0097
:10058000D2588B071C0F0346A3401A43024B8C1012
:10059000A4001A5110BD00000800014008B5072151
:1005A00068460170022141700121817000F046FF10
:1005B00008BD0021016001710C2141710021817190
:1005C000704700BFFEE7F8B50246CD782F073F0F12
:1005D000CD7810263540002D01D08D782F4314465C
:1005E000002011E085062B0E0D880126864035403F
:1005F000002D07D025680F269E40B5433E469E40FD
:1006000035432560451CE8B20828EBDB141D0D8836
:100610002D120095002011E085062B0E0125854046
:10062000009E3540002D07D025680F269E40B5431B
:100630003E469E4035432560451CE8B20828EBDB6A
:10064000CD78282D04D155690E883543556106E0D3
:10065000CD78482D03D115690E8835431561F8BD55
:1006600008B50121480400F0A1FF0121880400F031
:100670009DFF0121080500F099FF684600F041F850
:100680000721684601804821C17069460920C006DB
:10069000FFF799FF684600F034F82321684601808F
:1006A0002821C17069460D48FFF78DFF684600F0AC
:1006B00028F80B49684601802821C1706946092045
:1006C000C006FFF780FFF821684601802821C1702D
:1006D00069460448FFF777FF08BD0000000C00489A
:1006E000189A00000004004802469068084000285C
:1006F00001D0012070470020FCE741617047016193
:1007000070470021C9430180022181700421C1701A
:1007100070470000002007E0054941180978820071
:10072000044B9950411CC8B20428F5DB7047000007
:1007300000F80008E000002010B501F089FA14204C
:10074000FFF7FCFD012189020920C006FFF7CCFF5D
:10075000012104464C4040210920C006FFF7C4FF98
:1007600001214840044309020920C006FFF7BCFFED
:10077000012148400443002C0CD00120744908702A
:10078000744800880221084372490880002070499B
:10079000487002E000206E49087001F097FA1420BA
:1007A000FFF7CCFD40210920C006FFF79DFF002880
:1007B00005D1684800882021084366490880FF2148
:1007C00001310920C006FFF78FFF002810D16248D1
:1007D000007800280FD001205D49C8705D4800886E
:1007E000082108435B49088000205949487002E00D
:1007F00000205749C870012189020920C006FFF76F
:1008000073FF002810D10120514908715148008818
:10081000102108434F49088050480078012806D02D
:1008200000204B49487002E000204949087101F05E
:100830008BFA1420FFF782FD40210920C006FFF744
:1008400053FF00281ED10120414908724248007818
:1008500000280BD040480078062807D03D48008883
:100860000121C90208433B49088003E03948008858
:100870003849088039480078012806D000203449DA
:10088000487002E0002032490872FF21013109203E
:10089000C006FFF729FF00281ED101202C498871CE
:1008A0002D48007800280BD02B480078062807D068
:1008B000284800880121490208432649088003E0AE
:1008C000244800882349088024480078012806D05D
:1008D00000201F49487002E000201D49887101F086
:1008E0006FFA1420FFF72AFD40210920C006FFF708
:1008F000FBFE002806D117480088FF21013108437C
:1009000014490880012189020920C006FFF7ECFE86
:10091000002805D10F480088802108430D49088030
:10092000FF2101310920C006FFF7DEFE00280DD1AE
:1009300009480078002809D007480078062805D023
:1009400004480088402108430249088010BD000087
:10095000F4000020160000200D01002014000020EB
:1009600000F0A0FD00B500BF042000F00BF8012846
:10097000FAD000BD0148024908607047CCCC0000A5
:100980000030004001460448C0680840002801D0FB
:10099000012070470020FCE7003000400148024978
:1009A00008607047AAAA00000030004000B5024667
:1009B0000248426000F090FD00BD000000300040A1
:1009C00000B502460248826000F098FF00BD0000BA
:1009D00000300040014908607047000000300040CE
:1009E00008B50121480400F0E1FD0121880400F070
:1009F000DDFD0121C80400F0D9FD0121080500F04A
:100A0000D5FD4A49684601802821C1706946092000
:100A1000C006FFF7D8FD0021C943684601802821A0
:100A2000C17069464248FFF7CEFD0021C9436846C0
:100A300001802821C17069463E48FFF7C4FD0021AE
:100A4000C943684601802821C17069463A48FFF7CA
:100A5000BAFD6846FFF755FE384968460180012116
:100A600081701021C17069460920C006FFF7ABFDF7
:100A7000782168460180012181701021C17069468A
:100A80002B48FFF7A0FD6846FFF73BFEA021684614
:100A90000180012181701021C17069460920C006C2
:100AA000FFF791FD0321684601800121817010212B
:100AB000C17069461E48FFF786FD6846FFF721FEB4
:100AC0004021684601804821C17069460920C0065E
:100AD000FFF779FD6846FFF714FEFF2101316846F4
:100AE00001804821C17069460920C006FFF76BFDEF
:100AF0006846FFF706FE0121890268460180482109
:100B0000C17069460920C006FFF75DFD6846FFF722
:100B1000F8FD072168460180012181701021C17014
:100B200069460920C006FFF74EFD08BDFF9F000083
:100B30000004004800080048000C0048109A00001B
:100B400070B5002500204349C87301F081F84021A9
:100B50000920C006FFF7C8FD00280FD0FF21013192
:100B60000920C006FFF7C0FD002807D00121890237
:100B70000920C006FFF7B8FD002800D170BD01F0C4
:100B80001FF940210920C006FFF7AEFD00280FD055
:100B9000FF2101310920C006FFF7A6FD002807D07C
:100BA000012189020920C006FFF79EFD002800D11F
:100BB000E4E701F0C9F840210920C006FFF794FDE1
:100BC00000280FD0FF2101310920C006FFF78CFD5E
:100BD000002807D0012189020920C006FFF784FD03
:100BE000002800D1CAE701F071F80121890209202B
:100BF000C006FFF779FD002800D1BFE7402109209A
:100C0000C006FFF771FD002821D1FF210131092025
:100C1000C006FFF769FD002819D101200D49C873EE
:100C200000200D4908700D4908600D490860002436
:100C300009E00C48005D0C4908550846005D401964
:100C4000C5B2601CC4B2102CF3DB0748057400BFAA
:100C500094E70000F40000205C00002080000020E9
:100C600084000020F9350008180100200EB5FFF7B8
:100C7000DFFB6846FFF79DFC012000060090002185
:100C8000684601710821417101218171FFF708FC5B
:100C900001200006FFF7ACFB00216846017241729B
:100CA0000121817202A800F0C9FB0EBD10B5A24857
:100CB0000078002804D0012834D0022831D146E041
:100CC00000F096FF0A20FFF739FB40210920C006FB
:100CD000FFF70AFD00280FD0FF2101310920C006CF
:100CE000FFF702FD002807D0012189020920C00674
:100CF000FFF7FAFC002811D190480078401C8F497A
:100D000008700846007805280BDB002008700120D9
:100D10008949087000208A49C87502E00020874987
:100D20000870FBE000208749086001208449487072
:100D3000FFF702FD84480088302804D10020804954
:100D400048708149088002207B490870E6E000F085
:100D50004FFF20210920C006FFF7CFFC802109208A
:100D6000C006FFF7CAFC01217848FFF7C6FC022144
:100D70007648FFF7C2FC0A20FFF7E0FA402109207D
:100D8000C006FFF7B1FC002873D0FF210131092014
:100D9000C006FFF7A9FC00286BD0012189020920B9
:100DA000C006FFF7A1FC002863D064480078401C0F
:100DB000624908700846007803284BDB0020087061
:100DC0005D4908705E48C07800280ED000205C495C
:100DD00088725F4908705F49088008205A49088076
:100DE0000120574948700020C8705B480068FF2107
:100DF0002D3188420CD25248007800280ED00220B3
:100E00005149088001204E4948700020087005E0D3
:100E10004D480088514908404B49088000204E4900
:100E200008604F480088FF213731884203D10020F5
:100E30004349487108710020494908804048407979
:100E4000002808D001203E49C8720020454908709A
:100E50003B49487161E03A48007900285DD00120A3
:100E60003749C87200203F4908703549087154E07D
:100E7000FFE7002033490860FFF75EFC3248008836
:100E800030281AD136480088FF212D31884204DAF3
:100E900033480088401C3249088031480088FF21CF
:100EA0002D31884209D1FF2037302D49088001209B
:100EB00023494870302024490880234800880828A6
:100EC00005D101F06FFE01201D49487206E00020A7
:100ED0001B4988721E4908701E4908801A480088FC
:100EE00002281AD11C480068FF212D31884204D203
:100EF00019480068401C1849086017480068FF211D
:100F00002D31884209D1FF20373013490860012074
:100F10000B494870C0030C49088000BF00BF084857
:100F20004078002805D00020054948700648008810
:100F300010BD0020FCE70000140000201500002078
:100F4000F4000020A8000020160000200004004843
:100F50001A0000201C0000202C000020FEFF0000D2
:100F6000180000205800002010B5C0480068402834
:100F70007ED00CDC102859D004DC02281DD00828B3
:100F800073D146E0202821D03028F9D15BE101223D
:100F90005202811A904269D006DC802867D0FF385F
:100FA00001380028ECD198E003204002081A78D0DC
:100FB0000F21C902401AE3D14CE10120AC49C872AB
:100FC0000020AC49087000F0D5FF47E10120A84996
:100FD000C8720020A7490870A7480078042812D0DA
:100FE0000420A549087000204870A4484078887003
:100FF000A2488078C870A148C078087101F002FF4B
:1010000000209F4908600120994948729D49086065
:1010100024E101209649C8720020964908700120F9
:101020009349887300209849086017E19248007836
:10103000062812D006209049087000204870934876
:101040004078887091488078C8709048C07808715E
:1010500001F0D8FE00208A490860012084494872C6
:10106000000288490860F9E002E0F6E05AE0C5E0D5
:1010700001207F49C87203207E4908707E4880782D
:10108000062803D006207C49887002E000207A49B7
:10109000887079480078062804D1FF207649887046
:1010A0001AE075E074480078042804D1724880780A
:1010B0007249487010E070480078082804D16E48E2
:1010C00080787349487007E06B4800780A2803D19C
:1010D000694880786F494870C0E001206449C8724F
:1010E000002064490870644800780A2813D00A2058
:1010F0006149087067480078487066484078887091
:1011000064488078C8706348C078087101F07AFE3E
:1011100000205B4908600120554948721020594958
:1011200008609BE001205249C872032051490870B1
:101130005148C078012802D001204F49C8704E485C
:101140000078062803D1FF204B49C87019E04A48AF
:101150000078042804D14848C0784849887010E0D5
:1011600045480078082804D14348C0784849887029
:1011700007E0414800780A2803D13F48C078454934
:10118000887001203A49887300203F49086065E073
:1011900001203749C8720320364908703648C078A4
:1011A000022802D002203449C8703348007806284B
:1011B00003D1FF203049C87019E02F480078042877
:1011C00004D12D48C0782D49887010E02A48007855
:1011D000082804D12848C0782D49887007E026489F
:1011E00000780A2803D12448C0782A498870012051
:1011F0001F4988730020244908602FE001201C4902
:10120000C87200201B4908701B480078082813D0BA
:101210000820194908701E48007848701C4840781A
:1012200088701B488078C8701948C078087101F030
:10123000E9FD00201249086001200D494872802014
:10124000104908600AE001200949C87202200949D2
:10125000087003E000F0A4FE00E000BF00BF002023
:101260000D4908800149086010BD0000B800002049
:10127000F4000020580000200D0100203400002060
:10128000B400002050000020A00000203C000020FE
:101290004400002048000020160000205D4800683F
:1012A000402862D00CDC082835D004DC012816D098
:1012B000022876D121E010283BD02028F9D146E041
:1012C000802860D0FF38013800286DD0FF38013801
:1012D000002878D003214902401AEAD182E04E4822
:1012E000006802218843801C4B4908604B48006815
:1012F00001210843494908608AE047480068022103
:101300008843801C4449086044480068022108431F
:10131000424908607CE04048006802218843801C04
:101320003D4908603D480068082108433B49086082
:101330006EE03948006802218843801C3649086005
:1013400036480068102108433449086060E032489C
:10135000006802218843801C2F4908602F480068DC
:10136000202108432D49086052E02B4800680221E3
:101370008843801C284908602848006840210843A9
:101380002649086044E02448006802218843801C04
:101390002149086021480068802108431F490860EE
:1013A00036E02EE000E00EE01B4800680221884392
:1013B000801C1949086019480068FF210131084361
:1013C0001649086024E01448006802218843801C04
:1013D00011490860114800680121490208430F497A
:1013E000086015E00C48006802218843801C0A4907
:1013F00008600A4800680121C902084307490860DB
:1014000006E005480068022188430349086000BFE0
:1014100000BF7047740000208C000020880000206E
:10142000F8B504460D461646684604704570867049
:101430000121C17001F0DCFEF8BD000081780029B7
:1014400025D01749032212028918027892109200BF
:10145000895802789207D30EFF229A40914342782E
:101460009207120E03789B07DB0E9A4011430C4A39
:1014700003231B02D21803789B109B00D1500178E4
:10148000CA06D20E01219140054A116007E0017899
:10149000CA06D20E01219140014A80321160704784
:1014A00000E100E000BF00BF00BFBFF34F8F00BFEF
:1014B00000BF00BF06480749C86000BF00BF00BFAB
:1014C000BFF34F8F00BF00BF00BF00BF00BFFDE7ED
:1014D0000400FA0500ED00E000B500BF0120FFF7B1
:1014E00051FA0128FAD000BD0D4A12689208920004
:1014F00002430B4B1A600B4A126904231A43094B2F
:101500001A61012901D130BF02E040BF20BF20BFD6
:10151000044A126904239A43024B1A61704700007F
:101520000070004000ED00E003211A4A51700021D4
:101530001170012191700321D170FF21164A517061
:1015400000211170FF2191700321D1700621134AEF
:10155000517000211170012191700321D170062179
:101560000F4A517000211170012191700321D17037
:1015700000210C4A1170012004E0FF21094A115496
:10158000411CC8B20A28F8DB0021064A1171064A3C
:1015900011607047340000203C000020440000200F
:1015A000480000200D01002050000020002905D037
:1015B000054A52690243044B5A6104E0024A5269E7
:1015C0008243014B5A61704700100240002905D048
:1015D000054A92690243044B9A6104E0024A926907
:1015E0008243014B9A617047001002400146481146
:1015F000012802D10A48006806E04811022801D1FA
:10160000002001E00648406ACB06DB0E01229A402A
:101610001040002801D0012070470020FCE70000A6
:10162000001002400749496A490849000143054A38
:1016300051621146496A2022914342011143014AF5
:1016400051627047001002400349496889088900C7
:101650000143014A516070470010024070B50025F7
:101660009648007800285FD11721242001F0FEFC65
:1016700093480079232805D10D2091494871002015
:1016800088711AE08E480079002803D18C4948718E
:10169000887112E000208B4908708B4908603C215A
:1016A0008A480068FEF72CFD854948713C2187482F
:1016B0000068FEF725FD82488171854800788549DC
:1016C000087085480078487084480078887084489D
:1016D0000078C8707A480078087179484078487175
:1016E0007748807888717648C078C87174480079E6
:1016F0000872734840794872714880798872FF2077
:10170000C8720873487308208873FF20C8730024C8
:1017100005E07048005D4019C5B2601CC4B2102CD1
:10172000F7DB6C480574A3E064480078012832D1E7
:101730001721242001F09AFC65480078654908705B
:10174000654800784870654800788870644800787B
:10175000C870FF20087148718871C871087248729A
:1017600088725748C079C8725E48007808735E482E
:101770000078487308208873FF20C873002405E0B0
:101780005448005D4019C5B2601CC4B2102CF7DB90
:10179000504805746CE049480078022830D1002197
:1017A000242001F063FCF0204A49087048708870DA
:1017B000C870474800780871474800784871474822
:1017C0000078887146480078C87100200872487215
:1017D0008872C87208734873082088730020C87321
:1017E000002405E03B48005D4019C5B2601CC4B24E
:1017F000082CF7DB28460830C5B23648057437E0B8
:101800002E480078032833D11721242001F02EFC24
:101810002F4800782F4908702F48007848702F48CB
:10182000007888702E480078C870254800780871C4
:101830002348407848712248807888712048C078D1
:10184000C871FF20087248728872C87208734873A2
:1018500008208873FF20C873002405E01D48005D40
:101860004019C5B2601CC4B2102CF7DB19480574CE
:10187000FEF782FC1D480078401C1C490870084691
:101880000078022812DB0020087001201849087334
:10189000002018490870FF200949C87111490870D3
:1018A0001149087000201249C87205E00120104952
:1018B000487300201049087070BD000058000020D7
:1018C0000D01002096000020B4000020B000002090
:1018D00099000020180100209A0000209B000020A1
:1018E0009C000020560000205700002055000020DA
:1018F000F4000020980000209700002000B500BFF1
:101900000220FFF73FF80128FAD000BD70B5044669
:1019100000F0A1FA04210920C006FEF7EEFE4020E7
:101920000443002522E080202040002805D001212A
:101930000920C006FEF7E3FE04E001210920C006ED
:10194000FEF7DBFE0520FEF7F9FC02210920C006A8
:10195000FEF7D5FE0520FEF7F1FC02210920C006A6
:10196000FEF7CBFE6006040E681CC5B2082DDADB5C
:1019700000F062FA00251BE001210920C006FEF7F5
:10198000B3FE002803D07000401CC6B201E0700610
:10199000060E02210920C006FEF7B1FE0520FEF763
:1019A000CDFC02210920C006FEF7A7FE681CC5B2C7
:1019B000082DE1DB04210920C006FEF7A0FE00F09F
:1019C0004AFA304670BD10B50021084601F04EFBC2
:1019D00010BD70B50446002522E08020204000287C
:1019E00005D001210920C006FEF789FE04E001218F
:1019F0000920C006FEF781FE0520FEF79FFC0221AC
:101A00000920C006FEF77BFE0520FEF797FC0221A9
:101A10000920C006FEF771FE6006040E681CC5B200
:101A2000042DDADB70BD10B5044621460E2001F00E
:101A30001DFB10BD10B500F001F810BD00B585B05C
:101A400062480068012108436049086000BF5F48A0
:101A50000068022108400028F9D05D485D4908600F
:101A60005D480068102108435B490860084600682B
:101A7000C008C000086057490968481E5449FEF76D
:101A80003FFB04905448006804994907490F0843F4
:101A9000514908604D484068504908404B494860EA
:101AA0000846406890210843484948600846406815
:101AB0004860484800684A49884207D94348406816
:101AC000052109020843414948600BE0414800688C
:101AD0004449884206D93D484068012189020843AB
:101AE0003A4948606B4601AA3A4801683E48FEF709
:101AF000C5FB3648403000698008800033494031DA
:101B0000086108460069400840000861684600789E
:101B10004007400F0290684600794006400E03904F
:101B20002A48C069890508432849C86127484030C8
:101B300000692E4908402549403108610398000496
:101B400002990902084321494031096908431F49A4
:101B5000403108611D4800680121090608431B49FE
:101B6000086000E000BF19480068012149060840EC
:101B70000028F7D015484068800880001349486065
:101B800008464068022108431049486000E000BF51
:101B90000E4840680C2108400828F8D10120FEF7C3
:101BA000CDFB0A484068102188430849486001205D
:101BB000FEF7C4FB0548406880218843034948601C
:101BC0000120FEF7BBFB05B000BD00000010024085
:101BD00000366E0100000020002002400FC0FFFF11
:101BE00000A24A040051250200127A00FFF800FF0B
:101BF00008B56846FEF785FDA021684601800121F1
:101C000081701021C17069460920C006FEF7DBFC17
:101C1000032168460180012181701021C17069464D
:101C20000A48FEF7D0FC20210920C006FEF765FD1A
:101C300080210920C006FEF760FD01210348FEF760
:101C40005CFD02210148FEF758FD08BD0004004874
:101C500008B56846FEF755FD202168460180012140
:101C600081701021C17069460920C006FEF7ABFCE7
:101C700020210920C006FEF740FD6846FEF741FD21
:101C80008021684601800421C17069460920C00690
:101C9000FEF799FC6846FEF734FD01216846018095
:101CA0000421C17069460848FEF78DFC6846FEF7BE
:101CB00028FD0221684601800421C170694602485E
:101CC000FEF781FC08BD00000004004808B5684626
:101CD000FEF717FD802168460180012181701021E7
:101CE000C17069460920C006FEF76DFC80210920FD
:101CF000C006FEF702FD6846FEF703FD2021684698
:101D000001800421C17069460920C006FEF75BFC12
:101D10006846FEF7F6FC0121684601800421C17087
:101D200069460848FEF74FFC6846FEF7EAFC0221C8
:101D3000684601800421C17069460248FEF743FCF1
:101D400008BD00000004004808B56846FEF7D9FC4D
:101D500001216846018081701021C17069461748D1
:101D6000FEF731FC01211548FEF7C7FC6846FEF777
:101D7000C8FC2021684601800421C1706946092001
:101D8000C006FEF720FC6846FEF7BBFC80216846D3
:101D900001800421C17069460920C006FEF713FCCA
:101DA0006846FEF7AEFC0221684601800421C1703E
:101DB00069460248FEF707FC08BD00000004004821
:101DC00008B56846FEF79DFC0221684601800121A6
:101DD00081701021C17069461648FEF7F4FB02219C
:101DE0001448FEF78AFC6846FEF78BFC2021684603
:101DF00001800421C17069460920C006FEF7E3FB9B
:101E00006846FEF77EFC8021684601800421C1708F
:101E100069460920C006FEF7D6FB6846FEF771FC4E
:101E20000121684601800421C17069460148FEF71E
:101E3000CAFB08BD0004004808B56846FEF761FC0F
:101E40000121684601804821C17069460920C00609
:101E5000FEF7B9FB08BD08B56846FEF752FC012144
:101E60006846018081701021C17069460920C00652
:101E7000FEF7A9FB08BD000010B538480068401CFB
:101E80003649086008460068642865D33448407DB8
:101E9000002861D000200860FEF7EBF90020FFF772
:101EA000D3FBFEF7DDFB00202D4948722D49086069
:101EB0002D49087001202D49087008212C48FEF793
:101EC0001CFC10212A48FEF718FC20212848FEF7A8
:101ED00014FC40212648FEF710FC10210920C00602
:101EE000FEF70DFC012149020920C006FEF707FCA0
:101EF0000121C9020920C006FEF701FC01210903E6
:101F00000920C006FEF7FBFB0121C9030920C0061A
:101F1000FEF7F5FB00F0BCFF00201149C8750876FC
:101F200000BF01210846FFF7DFFA0D48007E0028B8
:101F3000F7D000200A49C875087600BF00BF00F03E
:101F4000C1F800F09DFFFEF74BFDFEF783F900207E
:101F50000349C8750549087010BD0000A80000209D
:101F6000F40000205000002015000020D2000020C6
:101F7000000400480021084A1170012004E0FF21FC
:101F8000054A1154411CC8B20A28F8DB0021024A54
:101F90001171024A116070470D01002050000020AD
:101FA00000B5032037494870002008700120887070
:101FB0000320C870FF203449487000200870FF20BB
:101FC00088700320C87006203049487000200870CF
:101FD000012088700320C87006202D494870002019
:101FE0000870012088700320C8702A4800780628ED
:101FF0000DD12548007827494870234840788870DB
:1020000021488078C8702048C078087134E02148A1
:10201000007804280DD11B4800781E4948701948E3
:102020004078887017488078C8701648C078087162
:1020300022E01848007808280DD114480078154986
:10204000487012484078887010488078C8700F48EF
:10205000C078087110E00F4800780A280CD10C48AD
:1020600000780C4948700A484078887008488078A1
:10207000C8700748C078087100F0C4FE0020064907
:10208000086000BD340000203C0000204400002017
:10209000480000200D010020B400002010B50446C7
:1020A00004210920C006FEF728FB2046FFF791FC1B
:1020B00004210920C006FEF722FB10BD10B500F078
:1020C000D3FE10BD10B5164800680121084314491D
:1020D00008600846406813490840114948600846AE
:1020E0000068114908400E4908600846006801214F
:1020F000890488430A49086008464068C3210904E6
:102100008843074948600846006808490840044970
:1021100008609F2000048860FFF78CFC10BD000061
:10212000001002400CC0FFF8FFFFF6FEFFFF8F001B
:1021300010B501216A4800F043F900287ED0012142
:10214000674800F02DF96748007D002804D06648F4
:102150000068401C644908606248C07B002872D156
:1021600062480078401C614908705E48407A002847
:1021700001D001F08BF85E480079232801D05C483B
:1021800000795848807A002823D05A4800887D2159
:102190000901884204DA57480088401C55490880E4
:1021A000544800887D21C90088420FD051480088DA
:1021B000514988420AD04F48008819218901884234
:1021C00004D04C4800884D49884202D102204C4935
:1021D00008704448407B00280DD04A480078401CD5
:1021E00048490870084600783C2804DB00203D4937
:1021F0004873012008733B48007B00280BD04248FD
:102200000078401C4049087008460078B42802DB7A
:102210000020344908733348807B00285FD03B4856
:102220000068401C3949086008460068FF21F53104
:10223000884254D300202B49887301E04FE002E02C
:10224000324908604BE000F0C9FB314800780728AC
:1022500012D030480068401C2E49086008460068CB
:102260007D21C900884207D300202A4908602A48F6
:102270000068401C2849086027480068B42802D339
:1022800000201849C87322480078022805D1234845
:102290000068401C2149086021E01D4800780128A1
:1022A00003D01B480078042805D11D480068401C55
:1022B0001B49086013E01648007805280FD119481B
:1022C00000783C280BDA17480078401C1549087044
:1022D000084600783C2802DB01201349087010BD35
:1022E000002C0140F4000020C400002094000020D5
:1022F0000D0100201C000020140500006C070000E8
:102300001A0000209700002098000020A000002064
:102310005C00002080000020840000206C00002071
:10232000640000207C0000207D0000203EB50446B3
:102330000D460121C802FFF749F9684600F08EF802
:10234000019468460580002101818172817069468F
:102350000A4800F04DF80121084800F011F8012169
:10236000064800F019F801221146044800F035F83B
:102370000121024800F018F83EBD0000002C014089
:10238000002904D0026880231A43026003E0026837
:1023900080239A430260704702698A430261704752
:1023A00002698A4302617047002904D00268012350
:1023B0001A43026003E0026852085200026070474C
:1023C000024610690840002805D0D068084000285F
:1023D00001D0012070470020FCE7002A03D0C36829
:1023E0000B43C36002E0C3688B43C36070470000C7
:1023F000026803231B029A430B891A430260134AA3
:10240000904206D001229207904202D0104A904298
:1024100005D1026870239A438B781A4302600B4AF5
:10242000904205D00B4A904202D00B4A904205D10F
:10243000026B120A12028B7A1A4302634A68C26262
:102440000A8882620122426170470000002C01402C
:102450000004004000440140004801400021C943FD
:10246000416000210180018181708172704700000C
:1024700010B5002053490860FFF7EAFB402109200E
:10248000C006FEF731F9002808D14E480068042143
:1024900008434C49086000204B490870012189021B
:1024A0000920C006FEF720F9002805D1454800683C
:1024B0000221084343490860FF2101310920C00679
:1024C000FEF712F9002805D13E48006801210843B3
:1024D0003C490860FFF7FAFB40210920C006FEF7DF
:1024E00003F9002805D13748006820210843354901
:1024F0000860012189020920C006FEF7F5F80028CE
:1025000005D130480068102108432E490860FF219A
:1025100001310920C006FEF7E7F8002805D1294857
:1025200000680821084327490860FFF749FC40215B
:102530000920C006FEF7D8F8002806D12148006817
:10254000FF21013108431F49086001218902092048
:10255000C006FEF7C9F8002805D11A480068802196
:10256000084318490860FF2101310920C006FEF721
:10257000BBF8002805D113480068402108431149E1
:102580000860FFF7E1FB40210920C006FEF7ACF828
:10259000002806D10B4800680121C90208430949F7
:1025A0000860FF2101310920C006FEF79DF80028D0
:1025B00006D1044800680121490208430149086026
:1025C00010BD0000700000205F00002010B5FFF774
:1025D0000FFB41480078002804D0012828D00228A9
:1025E0006CD133E040210920C006FEF77DF80028B9
:1025F0000FD0FF2101310920C006FEF775F8002831
:1026000007D0012189020920C006FEF76DF80028D5
:102610000DD132480078401C3049087008460078D7
:10262000032804DB0020087001202B49087045E0D6
:1026300000202B4908602B49086001202A490870B6
:10264000FFF716FF02202449087037E000202449D4
:1026500008602449086040210920C006FEF744F8BC
:10266000002825D0FF2101310920C006FEF73CF8E3
:1026700000281DD0012189020920C006FEF734F888
:10268000002815D015480078401C144908700846E9
:102690000078032811DB15480068042802D10120C6
:1026A0001149087000200D4908700B49087004E0BA
:1026B00001200D490870FFF7DBFE00BF00BF0A488C
:1026C0000078002805D000200749087007480068F6
:1026D00010BD0020FCE700005D0000205E0000202F
:1026E00080000020840000205F0000207000002097
:1026F00010B561480078030000F048FD07052E4F33
:10270000607296B1B7005D480068FF2101318843CF
:1027100040185A4908600846006802218843801C16
:102720005649086056480068012806D107205249DA
:1027300008700020514908600DE0514800680428E5
:1027400009D10021242000F091FC01204A490870A1
:1027500000204A49086089E04A480068FF21F531B5
:1027600088420DD30020474908604448006800288B
:1027700003D145484149086002E000203F49086014
:102780003F480068042807D102203B490870002018
:102790003E4908603B49086068E000F087F8384827
:1027A0000068042809D10320334908700020374904
:1027B0000860324908603649086057E0FEF76EFD50
:1027C000334800683349884209D1334800780028EB
:1027D00005D104202849087000202849086045E0F8
:1027E00028480068FF21F53188420DD30020254993
:1027F000086022480068002803D128481F49086063
:1028000002E000201D4908601D48006804280AD124
:1028100001202349087000202249087017490860E8
:1028200005201549087021E01448006802218843FA
:10283000801C124908601A480078002804D0002043
:1028400017490870FDF798FC0D480068042805D169
:1028500006200949087000200849086006E0642045
:1028600011490860FFF708FB00E000BF00BFFFF759
:10287000ADFE0349086010BD5C0000208C00002004
:102880007400002064000020FF0300006C000020A2
:1028900088000020FB0B00005D000020FFBF00004F
:1028A0007D0000207C000020A800002000B54848E2
:1028B0000068FF212D31884271D30020444908600F
:1028C00044480078030000F061FC0A06111D293419
:1028D0003F4A55606B7600203F4908600846006813
:1028E0008021884380303C49086064E000203A49F8
:1028F00008600846006801214902884340183649AB
:10290000086058E000203449086008460068FF214C
:10291000013188434018304908604CE000202E49BE
:102920000860084600684021884340302A49086012
:1029300041E00020284908600846006802218843D9
:10294000801C2549086036E00020234908600846BD
:1029500000680821884308301F4908602BE00020E8
:102960001D490860084600681021884310301A4944
:10297000086020E00020184908600846006820210F
:10298000884320301449086015E00020124908608F
:102990000846006840084000401C08600BE016E054
:1029A00000200D4908600846006804218843001D86
:1029B0000949086000BF00BF06480078401C05496F
:1029C000087008460078092801DD0020087000BD65
:1029D0006C000020680000208C00002010B5102141
:1029E0006D48FDF78AFE08216B48FDF786FE402101
:1029F0006948FDF782FE20216748FDF77EFE012130
:102A0000C9030920C006FDF77AFE10210920C0067F
:102A1000FDF775FE012109030920C006FDF76FFED1
:102A20000121C9020920C006FDF769FE0121490202
:102A30000920C006FDF763FE58480078030000F047
:102A4000A5FB0A062327585C60648286A3A7544826
:102A50000078C007C00F002803D010214E48FDF7B2
:102A60004EFE4F4800784007C00F002803D00821D1
:102A70004948FDF744FE012048490870C103092078
:102A8000C006FDF73AFE84E002204449087080E069
:102A9000434800788007C00F002803D010213E482B
:102AA000FDF72DFE3E4800780007C00F002803D038
:102AB00008213948FDF723FE39480078C006C00FC9
:102AC000002803D040213448FDF719FE344800782F
:102AD0008006C00F002803D020212F48FDF70FFEED
:102AE00003202E49087010210920C006FDF705FEBD
:102AF0004FE00420294908704BE005202749087061
:102B000047E006202549087043E025480078400644
:102B1000C00F002803D008211F48FDF7F0FD204812
:102B20000088C005C00F002803D040211A48FDF7D7
:102B3000E6FD0720194908700121C9020920C006D5
:102B4000FDF7DBFD25E008201449087021E014485A
:102B500000780006C00F002803D008210E48FDF7BA
:102B6000CEFD0F4800888005C00F002803D040210B
:102B70000948FDF7C4FD09200849087001214902F0
:102B8000C006FDF7BAFD04E000200449087000E02B
:102B900000BF00BF10BD000000040048600000201E
:102BA0008C00002010B515480078002804D00128BA
:102BB00012D002281ED110E001201149887200F0C5
:102BC00023F800F07FF800F01DF900200D4908609F
:102BD00001200A4908700EE00DE000F015F800F041
:102BE00071F800F00FF90020064908600120034940
:102BF000087000E000BF00BF10BD00001A000020F8
:102C0000F4000020B40000202B480079102818D0D0
:102C100006DC032809D006280BD00C2849D10CE08B
:102C2000162822D0232844D137E0062022490871F3
:102C300040E00C20204908713CE010201E4908713A
:102C400038E01D48007804280BD11C480078002883
:102C500003D103201849087106E000201849887242
:102C600002E016201449087124E0134800780A286D
:102C700003D01148007804280BD1104800780028B0
:102C800003D103200C49087106E000200C4988722A
:102C900002E02320084908710CE008480078002869
:102CA00003D103200449087102E00020044988721E
:102CB00000E000BF00BF70470D0100201A00002097
:102CC000F400002016480078042804D11448007944
:102CD0001449C87022E012480078062804D1104830
:102CE00000791149C87019E00D480078082804D10E
:102CF0000B4800790D49C87010E0094800780A288F
:102D000004D1074800790A49C87007E004480078F0
:102D10000D2803D1024800790649C87070470000A9
:102D20000D010020340000203C0000204400002061
:102D3000480000204C00002010B52F480078401CAF
:102D40002D490870084600783C2806DB00200870F2
:102D50002A480068401E2949086028480068002861
:102D600002D1FFF707F946E0244800680F2809D888
:102D70002348007903283ED0032021490871FFF73A
:102D8000A1FF38E01D4800681E2809D81C480079BA
:102D9000062830D006201A490871FFF793FF2AE071
:102DA000164800683C2809D8154800790C2822D01C
:102DB0000C2013490871FFF785FF1CE00F480068DD
:102DC000B42809D80E480079102814D010200C49D6
:102DD0000871FFF777FF0EE008480068FF216931AE
:102DE000884208D806480079162804D016200449DD
:102DF0000871FFF767FF10BD96000020B0000020AB
:102E00000D01002016480079102818D006DC032890
:102E100009D006280BD00C281FD10CE0162812D0A0
:102E200023281AD114E00F200E49086015E01E2057
:102E30000C49086011E03C200A4908600DE0B4200C
:102E40000849086009E0FF2069300649086004E08D
:102E5000FF20F5300349086000BF00BF7047000045
:102E60000D010020B000002004480068002804D0B4
:102E700002480068401E0149086070479000002029
:102E800010B5FDF796FAFDF77BFAFEF7B1FE10BD1F
:102E900010B5FDF783FBFDF7B1FAFDF7E9FAFEF790
:102EA000A7FE10BD10B50120000641494861414808
:102EB0000069022108433F4908613F48086000BF9C
:102EC0003C48C068082108400028F9D13B48006B05
:102ED000002807D13948406B002803D13748806B60
:102EE000002801D0FEF7DEFA3548007D002809D120
:102EF0003348407D002805D132490860012030491F
:102F0000087532E02E48407D00282ED12E480078EA
:102F1000401C2D4908702D4800682A49096840184E
:102F20002A49086028480078022819DB084600680A
:102F3000C003000C2649088000202449086024486A
:102F400001882448FDF7F2F8204908600846008807
:102F500081B2022000F0E2F801201949487504E02E
:102F6000002017490875174908601548C07B0028DC
:102F70000DD119480079232805D017480079002879
:102F800001D0FFF7D9FE0A20144908700BE014485D
:102F90000068401C1249086008460068B42802D343
:102FA00000200749C87301200549C87510BD0000FD
:102FB0000004014000300040AAAA000000010020E7
:102FC000F4000020C4000020C8000020CC00002035
:102FD000D0000020A02526000D0100209400002034
:102FE0008400002010B504210920C006FDF785FBF0
:102FF0000520FDF778F9002405E00749085DFDF795
:1030000072F9601CC4B2112CF7DB04210920C00640
:10301000FDF775FB10BD00001801002010B504215C
:103020000920C006FDF769FB0620FDF75CF90024C6
:1030300005E00D49085DFDF756F9601CC4B2042C8B
:10304000F7DB04210920C006FDF759FB0421092004
:10305000C006FDF752FB4620FDF745F90421092083
:10306000C006FDF74CFB10BDC835000870B504461E
:103070000E4604210920C006FDF73FFB00BF0025D6
:103080001FE080202040002805D001210920C00633
:10309000FDF735FB04E001210920C006FDF72DFBFB
:1030A00002210920C006FDF72AFB0520FDF746F99D
:1030B00002210920C006FDF720FB6006040E681CF3
:1030C000C5B2082DDDDB00251FE080203040002840
:1030D00005D001210920C006FDF711FB04E0012104
:1030E0000920C006FDF709FB02210920C006FDF7F3
:1030F00006FB0520FDF722F902210920C006FDF795
:10310000FCFA7006060E681CC5B2082DDDDB042132
:103110000920C006FDF7F3FA70BD000070B5044643
:103120000D460120FEF77EFA00BF6120FEF75EFA31
:103130000028FAD0FEF7D0F91248FDF74BFCE0B2B8
:10314000FDF734FCFEF7DAFB0E48FDF743FC2805DB
:10315000000DFDF735FCFDF705FC0A48FDF73AFCCC
:10316000502009494861FDF719FC0648FDF732FC7B
:10317000054800690121084303490861FDF7FAFB8E
:1031800070BD0000555500000030004030B474465A
:10319000641E2578641CAB4204D3635D5B00E318B6
:1031A00030BC18471D46F8E702E008C8121F08C1E6
:1031B000002AFAD170477047002001E001C1121FB8
:1031C000002AFBD170470000084909688143074A7B
:1031D00011601146496881435160114689688143F5
:1031E00091601146C9688143D16070470004014075
:1031F000C178002925D017490322120289180278C4
:1032000092109200895802789207D30EFF229A40BA
:10321000914382789207120E03789B07DB0E9A4047
:1032200011430C4A03231B02D21803789B109B0006
:10323000D1500178CA06D20E01219140054A116091
:1032400007E00178CA06D20E01219140014A80327E
:103250001160704700E100E010B504210920C006AC
:10326000FDF74DFA02210920C006FDF746FA0121BB
:103270000920C006FDF743FAFEF7A5FBFFF7CEFED7
:10328000FCF7CEFFFCF7BEFF10BD000010B5082113
:103290008148FDF732FA10217F48FDF72EFA2021F0
:1032A0007D48FDF72AFA40217B48FDF726FA1021D8
:1032B0000920C006FDF723FA012149020920C006B2
:1032C000FDF71DFA0121C9020920C006FDF717FA12
:1032D000012109030920C006FDF711FA0121C903E4
:1032E0000920C006FDF70BFA6C4800780300FFF7D1
:1032F0004DFF100924385367788B9EAFB3B7BBBF1F
:10330000C3C7CBCF66480079062805D10121C90380
:103310000920C006FDF7F1F961480079232804D19E
:1033200010210920C006FDF7E8F901205B4908706B
:1033300010215948FDF7E3F9ABE05A480068C0078F
:10334000C00F002805D0012149020920C006FDF761
:10335000D4F902205149087008214F48FDF7CFF9F0
:1033600097E04F480079032805D10121C9030920BE
:10337000C006FDF7C2F94A480079162804D1102189
:103380000920C006FDF7B9F9032044490870082157
:103390004148FDF7B4F97CE042480068FF21013163
:1033A0000840002804D0C9000920C006FDF7A5F98F
:1033B00004203A49087008213748FDF7A0F968E071
:1033C00037480079102804D110210920C006FDF7E4
:1033D00094F905203149087040212F48FDF78FF9F5
:1033E00057E03048006880210840002804D00901D7
:1033F0000920C006FDF781F9062028490870402100
:103400002548FDF77CF944E0264800681021084073
:10341000002804D049010920C006FDF76EF90720F5
:103420001E49087040211C48FDF769F931E01C482D
:1034300000790C2804D110210920C006FDF75DF9A0
:1034400008201649087020211348FDF758F920E09C
:103450000920124908701CE00A201049087018E081
:103460000B200E49087014E00C200C49087010E085
:103470000D200A4908700CE00E200849087008E089
:103480000F200649087004E000200449087000E09D
:1034900000BF00BF10BD0000000400485400002021
:1034A0000D01002050000020FDF79AFA012211467C
:1034B0000D20FDF7B5FFEF216320FEF737FFFDF785
:1034C000D5FB33490220FFF729FEFCF7C8FEFDF7C4
:1034D00037FBFDF71FF92F4800782F4908702D485A
:1034E00000792E4908702B48007A2D490870294828
:1034F000007B2C49087000202B490870FEF714F857
:1035000000202A494872FF202949C87129490870BA
:10351000294908703BE02548C07B012802D1FFF70C
:10352000E7F834E0254800780A281EDB002023490C
:1035300008701D480078002803D1FDF7B7FB20492B
:103540000860FEF799FC1E480068002803D01C485C
:1035500000681C4908601548407B002805D11348C5
:10356000007B002801D1FDF7FFFC1048C07A00283D
:103570000DD00E48407B002809D10C48007B002864
:1035800005D10A48807B002801D1FEF767F8C2E721
:10359000C4090000E0000020990000209A000020EB
:1035A0009B0000209C000020D2000020F40000209E
:1035B0000D0100205600002057000020940000203C
:1035C000AC000020B8000020AABBCCDD0002001037
:1035D00000000000000000011D00000E9600043CE9
:1035E00078562F1A48CC052A2CC480200B80026EF6
:1035F00017F3F5D5480800FFB0FFFFFFFF040003F5
:103600000103000FFFFFFF08FF0000002C36000839
:1036100000000020E0000000A83100080C3700087E
:10362000E000002050040000B831000800366E01B0
:103630000000000000000000010203040607080962
:10364000000000000000000000000000000000007A
:10365000000000000000000000000000000000006A
:10366000000000000000000000000000000000005A
:10367000000000000000000000000000000000004A
:10368000000000000000000000000000000000003A
:10369000000000000000000000000000000000002A
:1036A000000000000000000000000000000000001A
:1036B000000000000000000000000000000000000A
:1036C00000000000000000000000000000000000FA
:1036D00000000000000000000000000000000000EA
:1036E00000000000000000000000000000000000DA
:1036F00000000000000000000000000000000000CA
:0C37000040000000040000000000000079
:04000005080000C12E
:00000001FF
