:020000040800F2
:1000000000370020A5010008AD010008AF0100087D
:10001000B1010008B3010008B501000800000000AC
:10002000000000000000000000000000B701000810
:10003000B901000800000000BB0100082108000809
:10004000BF010008BF010008BF010008BF01000890
:10005000BF010008BF010008BF010008BF01000880
:10006000BF010008BF010008BF010008BF01000870
:10007000BF010008BF010008BF010008BF01000860
:10008000BF010008BF010008BF010008BF01000850
:1000900000000000BF01000800000000BF010008D0
:1000A000BF010008BF010008BF010008BF01000830
:1000B000BF010008BF010008BF010008BF01000820
:1000C00000000000BF01000800000000BF010008A0
:1000D000BF010008BF010008BF010008BF01000800
:1000E000BF010008BF010008BF010008BF010008F0
:1000F000BF010008BF010008BF010008BF010008E0
:1001000000000000BF010008BF010008BF01000897
:10011000BF010008BF010008BF010008BF010008BF
:10012000BF010008BF010008BF010008BF010008AF
:10013000BF010008BF01000800000000000000002F
:10014000BF01000800000000000000007505000865
:10015000000000000000000000000000BF010008D7
:10016000000000000000000000000000000000008F
:10017000000000000000000000000000000000007F
:100180000000000000000000BF010008BF010008DF
:10019000DFF80CD000F02AF800480047915B000817
:1001A000003700200648804706480047FEE7FEE784
:1001B000FEE7FEE7FEE7FEE7FEE7FEE7FEE7FEE717
:1001C000250800089101000840EA01039B0703D0BD
:1001D00009E008C9121F08C0042AFAD203E011F886
:1001E000013B00F8013B521EF9D27047064C074D07
:1001F00006E0E06840F0010394E8070098471034F7
:10020000AC42F6D3FFF7C8FFC4620008E4620008FE
:100210002DE9F041074608464FF00008002500246C
:1002200005F1010C661C7E43B6FBFCF68E4201D93B
:10023000761A00E08E1BB04202D9304614701D7051
:1002400050B1641C402CEDD3B8F1000F02D16D1CED
:10025000042DE4D3BDE8F0814FF00108F4E770B558
:1002600006460D4600F0EAF8352000F0A9F8002413
:1002700006E0284600F0AAF805F58065641CA4B2E3
:10028000B442F6D3BDE8704000F0C4B870B586B093
:1002900004460121880400F081F90121082000F0C2
:1002A0006FF9204D07220821284600F04BF907225C
:1002B0000921284600F046F901A800F021FB01942D
:1002C0003020ADF808000020ADF80A00ADF80C00B1
:1002D000ADF810001824ADF80E40134E01A93046B9
:1002E00000F0D6FA0121304600F0CCFA05A800F063
:1002F00039F9A815ADF8140001208DF816008DF815
:10030000174005A9284600F0D4F86815ADF8140088
:1003100048208DF8170005A9284600F0CAF806B055
:1003200070BD0000000C04400048004070B511484A
:100330004FF47A710068B0FBF1F1491E4FF0FF35C0
:10034000B1F1807F01D301210BE04FF0E024616126
:100350000F21284604F04AFB0020A06107202061FD
:10036000002101B1FEE72846BDE87040002104F0FD
:100370003DBB00000000002001B505480099016068
:1003800001680029FCD103480168491C016008BDCF
:1003900004000020080000204FF0E02100230B6142
:1003A000C00048618B61052008610869C20701D05F
:1003B000C003FAD5086920F0010008618B6170471D
:1003C0000149C860704700000020024006490A69E0
:1003D00042F002020A614861086940F04000086189
:1003E00040F6FF7000F036B8002002400848C168AF
:1003F000C90701D001207047C168490701D5022013
:100400007047C068C00601D50320704704207047BC
:10041000002002400248016941F0800101617047FB
:1004200000200240044A136943F001031361018074
:100430000F2000F00FB800000020024003480249DE
:100440004160034941607047230167450020024035
:10045000AB89EFCD00B50246FFF7C8FF521EFF2162
:10046000491E0029FCD1012801D1002AF4D10449F8
:1004700000230B613423CB60002A00D1052000BD8E
:100480000020024070B506460D465408FFF7D6FF1F
:100490003520FFF795FF08E028786978AD1C40EA21
:1004A00001213046FFF7BEFFB61C641EA4B2F3D292
:1004B00070BD2DE9F043CA7802F00F03D20601D5D2
:1004C0008A78134300224FF0010C0F269406240E65
:1004D0000D880CFA02F73D4207D0056806FA04F7CA
:1004E000BD4303FA04F425430560521CD2B2082A26
:1004F000ECD3051D0A884FEA122800229406240E28
:100500000CFA02F717EA080F08D02F6806FA04F968
:1005100027EA090703FA04F427432F60521CD2B2DA
:10052000082AEBD3CA78282A07D0482A03D10269BF
:1005300009880A430261BDE8F083426909880A43D9
:100540004261F8E710B54B07DB0E082901D22030D5
:1005500000E024300F249C4001689A40A1431143DD
:10056000016010BD4FF6FF710180022181700421EE
:10057000C17070470148006801F0E4BC140000201D
:10058000054A002903D0916A014391627047916A3C
:10059000814391627047000000100240054A002923
:1005A00003D0116B014311637047116B81431163D9
:1005B000704700000010024000B500F02DF804491B
:1005C0004968044AC1F30311515CC84000BD0000F2
:1005D000001002403800002000B5FFF7EDFF04498D
:1005E0004968044AC1F30221515CC84000BD0000C3
:1005F000001002403800002000B5FFF7DDFF04497D
:100600004968044AC1F3C221515CC84000BD0000E2
:100610000010024038000020104A506800F00C0121
:100620000F48042905D0082904D00C2901D149F626
:1006300040407047916CC90703D0916C890700D581
:100640000848916CC1F30641491C926CC2F3022226
:10065000521C4843B0FBF2F070470000001002400B
:1006600000127A0000093D000748016821F01801D6
:100670000160016841F001010160416801F003017E
:100680000229FAD100F002B800600140F0B587B04D
:100690000026039602965A4C206840F00100206024
:1006A00020688007FCD5206840F480302060052059
:1006B000FFF772FE534F544D3868A8420CD9206B97
:1006C00040F0805020635148016821F440410160AE
:1006D000016841F4404101604FF448510BE020684B
:1006E000800310D4029607B0F0BD0398401C03901D
:1006F00003988842F7D2206800F4003002900298F4
:100700000028F2D0EBE7012002900520FFF744FE1D
:1007100029463D603E48026842F0100202600268CD
:1007200022F007020260384A3A4B521EB2FBF3F243
:1007300006920268069B03F007031A430260606892
:1007400043F6F07290436060606840F09000606033
:1007500060686060606840F4A06060606B4601AAF9
:100760002D48FFF755FDA06C20F00300A064A06C9D
:1007700040F00100A0649DF8000000F00700049024
:100780009DF8040000F07F000590206B40F0805041
:100790002063A06C21490840A064059804990004D6
:1007A00040EA0120A16C0843A064206840F08070FA
:1007B000206000E000BF20688001FBD5606820F069
:1007C00003006060606840F00200606000E000BF0D
:1007D0006068C0F381000228F9D10120FFF7DCFD39
:1007E000606820F0100060600120FFF7D5FD6068B0
:1007F00020F0800060600120FFF7CEFD73E700006D
:10080000001002400000002000D8B8050070004031
:100810000020024000366E0100127A00FFF880FFCF
:1008200000F026B80E48016841F0010101604168FE
:100830000C4A1140416001680B4A11400160016897
:1008400021F480210160416821F443014160016885
:10085000064A114001604FF41F018160FFF704BF99
:10086000001002400CC0FFF8FFFFF6FEFFFF8F00F4
:1008700003480168002902D00168491E01607047E1
:1008800004000020826922F001020A43826170475D
:1008900070B504460D46E069297920F03000084320
:1008A000E061E069A97920F044000843E061E06973
:1008B000297A20F003000843E061A069698920F0EB
:1008C00018000843A061A069297B20F004000843B8
:1008D000A0610A48844202D1FFF78EFE01E0FFF7D3
:1008E0007BFE2968B0FBF1F1090921622968B0FBA0
:1008F000F1F000F00F00606270BD000000380140B0
:100900004FF4165101603021017100218171017293
:10091000182242810173704770B5002400214218EB
:1009200092F81823FF2A03D1491CC9B20829F6D32B
:10093000082915D200220125461896F8180305FA51
:1009400002F3184208D19540284386F8180302EBB9
:10095000C100401CC4B203E0521CD2B2082AEED33C
:10096000204670BD10B500F0EBF8064A064900209D
:1009700001F07AF9002803D1BDE8104001F0D4B9A4
:1009800010BD0000D90D0008140000202DE9FF5F04
:100990000546DDE90EA8894616461F46002D04D0FF
:1009A000D5F814034FF0000B10E0032004B0BDE8AD
:1009B000F09F90F87711B14207D190F87811B942C1
:1009C00003D1C8F800B00220F0E700680028F0D199
:1009D0004FF4BE7003F0FCF8044644490C6020005C
:1009E0002FD0656084F87391012084F8720103218F
:1009F00084F8711184F875B184F876011B2003F036
:100A0000E7F8C4F85401F0B11230C4F86C0184F86E
:100A1000776184F8787184F87BA1B9F1020F19D05D
:100A2000BAF1010F16D93146284600F053FC84F87C
:100A300079013A463146284600F074FC84F87A0180
:100A40000CE00C20B2E703F0D2F8204603F0CFF818
:100A50000C20ABE784F8796184F87A71A86803F018
:100A6000D5F82846FFF758FF50B384F87401D5F83D
:100A700014032060C5F81443012084F87001A868AD
:100A800003F0C6F80094CDF808B00820ADF80600D1
:100A90008DF80CB040F6B830ADF804006A4604F5A5
:100AA000AC71284602F0C8FCB0B1C8F80040D4F8D8
:100AB000540103F09CF8204603F099F8012075E7F3
:100AC000A86803F0A5F8D4F8540103F090F8204684
:100AD00003F08DF8012069E7022084F870012046B8
:100AE00002F026FEC8F8004000205FE74800002022
:100AF0001CB5034600280AD049B100910192D3F8F1
:100B0000101318686A468B69012198471CBD0320A1
:100B10001CBD70B505460C46E069C3806260A360E9
:100B20002246D5F85811686802F06DFF28B12146B9
:100B3000686800F063F9012070BD002070BD0000FE
:100B40000648416821F440014160416841F4800158
:100B50004160416A41F080014162704700100240EB
:100B60002DE9F04104460F460025002C05D06668AB
:100B7000B06803F04BF82F490EE00320BDE8F08188
:100B8000CB20684301EB800090F82823012A01D193
:100B9000B04203D06D1CEDB2002DF1D025B1B0688C
:100BA00003F036F80120E9E72146304602F06CFFF9
:100BB00020B1B06803F02CF80120DFE78FB10020EE
:100BC00094F852110BE004EB80120832BA4204D1BF
:100BD0002044032180F8641103E0401CC0B281422C
:100BE000F1D894F8760120B1B06803F011F8002034
:100BF000C4E70125002094F8521106E0221892F86B
:100C00006421022A06D0401CC0B28142F6D8012DD0
:100C100002D005E00025FAE72146304602F0B9FE91
:100C2000B06802F0F5FF012DE1D12146606802F0C5
:100C30006DFEDCE7D00A00200246002805D021B175
:100C40001068D2F81023D26810470320704713B5FC
:100C50000146002807D00868D1F8101301AA8B6953
:100C6000022198471CBD03201CBD2DE9F04105461B
:100C70000E461746002D05D0A86802F0C7FFD5F82C
:100C800014430BE00320BDE8F08194F87701B042F3
:100C900003D194F87801B84202D02468002CF4D132
:100CA000A86802F0B5FF2CB121462846BDE8F04106
:100CB00000F002B80020E6E770B50C4605460028B3
:100CC00018D0B9B1002084F8760194F87001B8B159
:100CD000092811D2D4F8581119B100222846FFF77B
:100CE00007FF2146284602F054FE2146284602F01E
:100CF0000DFE05E0032070BD0221204602F014FB2A
:100D0000002070BD2DE9F0470446164600256068B6
:100D100000F074F8A8464FF0020901279EB10A2E90
:100D200013D00E2E53D094F8710100284FD0401EDE
:100D300084F8710184F87271A4F8628184F870916A
:100D4000012D0BD028E00125FAE794F8720118B1C3
:100D5000401E84F87201F3E70125F1E784F872710F
:100D600094F870011B4D401E05EBC0014968C1B1EC
:100D700020468847D0B1092820D0082827D094F8E9
:100D80007101002823D0401E84F8710184F872712B
:100D9000A4F8628184F870912046BDE8F04702F023
:100DA000C7BC15F8300084F87001F5E794F87001BD
:100DB000401E15F8300084F87001EDE794F87001DA
:100DC000401E05EBC000407884F87001E4E7BDE800
:100DD000F08700006C62000803460020012A06D05C
:100DE000022A07D0032A08D1184601F09BBC1846F6
:100DF00001F098BC184601F095BC704770B50D46DF
:100E0000044600280DD075B1A06802F0FFFED4F8AA
:100E10000C032860C4F80C53A06802F0F9FE00200F
:100E200070BD032070BD002070BD0000002801D1FE
:100E30000148086070470000A462000838B500242B
:100E4000684602F031FE1B482CE0CB21614300EBE9
:100E5000810595F82813012922D0CB2204FB02F149
:100E600000EB8100002100224FF44B734254491CD7
:100E70009942FBD3012085F82803009802F0A5FED3
:100E800000210D4800EBC41001EB410305EB0313F7
:100E900000EBC1029A62491C1029F5D3284638BDDF
:100EA000641CE4B2002CD0D0009802F08EFE00202A
:100EB00038BD0000D00A0020FC0D002010B51446FB
:100EC00000280CD05CB1102953D2DFE801F0520A9F
:100ED00015193021251D120E343C2944494D04209A
:100EE00010BD90F87501206041E0D0F858012060F5
:100EF0003DE0406820603AE090F87701206036E0FD
:100F000090F87801206032E090F87B0120602EE0BC
:100F100090F8790120602AE090F87A01206026E0BC
:100F200090F87711406800F065FA20601FE090F8B3
:100F3000730120601BE0D0F85401817AC07A41EA45
:100F40000020206013E0D0F85401017A407A41EA91
:100F5000002020600BE0B0F86201401E206006E037
:100F6000D0F85C01206002E0B0F860012060002051
:100F700010BD012010BD00002DE9F84F0446DDE949
:100F80000DABDDE90B950E4617469846E069002843
:100F900002D00220BDE8F88F6946606801F011F9BF
:100FA00008B10120F6E7C4F828A0C4F82CB00098D6
:100FB000C0F804908560104901614461C069067001
:100FC0000098C06947700098C069A0F80280009A34
:100FD0000A98D1698880D069C5802169606802F06B
:100FE00012FD28B160680099FFF708FF0120D1E7E2
:100FF0000098E0610020CDE73D10000810B586B0F4
:101000001C460023CDE90232019300930B46049461
:1010100001222021FFF7B0FF06B010BD30B585B02A
:10102000089D00240194CDE90335009113460294F4
:1010300001222321FFF7A0FF05B030BD70B50446A3
:101040000E4613460020E061A56A002D03D0F26829
:101050007168E06AA84731466068BDE87040FFF7F4
:10106000CDBE70B504461D46606800F085F90028C5
:1010700023D094F8491001291FD000214DB184F8E4
:101080004810416084F847102046BDE8704000F0E9
:1010900077B994F84800012808D002280DD184F8C7
:1010A00048102046BDE8704000F070BB84F848103E
:1010B0002046BDE8704000F03BBA70BD70B50546F3
:1010C0000C46002D1BD0E1B1616949B10022606876
:1010D000FFF70EFD61696068FFF7AEFD00206061FB
:1010E000216921B1E26912B16068FFF701FD28466C
:1010F000E168FFF735FD204602F079FD05E00320A9
:1011000070BD00212846FFF72BFD002070BD0000B8
:101110002DE9FE4F0F4616461C464FF0000800F022
:101120002BF9054628000BD0DFF880A1012C0AD04E
:1011300001264FF00009022C65D0032C23D123E0B7
:101140000120BDE8FE8F002417E006EB8415286B14
:10115000417909290FD1807968B901AA0721384658
:10116000FFF7ACFE0198052805D8CAF80070CAF848
:1011700004500020E5E7641CE4B296F84A01A0425E
:10118000E3D84FF008088EE0DAF80000002868D0B5
:10119000DAF80400002864D001AA07213846FFF7D6
:1011A0008DFE01AA01213846FFF788FEE86830B9B4
:1011B00005F10C0002F01EFD08B1C5F80C9002A963
:1011C000DAF8000000F040F98046029CE86802F07E
:1011D0001DFDA8682060AC60E86802F019FDB8F158
:1011E000000F60D184F84860022084F84400009425
:1011F0002F4B0022DAF80410029800F0B7FC80B3FD
:1012000084F844604FE0E86802F000FDA868816857
:10121000B94203D104460068A8600BE0046807E007
:10122000A168B94202D12168016003E02046246828
:10123000002CF5D1E86802F0EBFC64B36868A042CA
:1012400001D1C5F8049001AA0721A068FFF736FE76
:1012500001AA01213846FFF731FE84F849600026D3
:101260000DE020E0A06940B150F8361029B1606867
:10127000FFF722FDA06940F83690761CF6B294F88C
:101280004500B042EED8A06908B102F0B0FC21469A
:101290003846FFF713FFA86828B9E86818B102F0CC
:1012A000B3FCC5F80C9040464BE7000064000020FA
:1012B0006310000810B586B0089CCDE90334CDE971
:1012C000011200210B4600910622A021FFF754FED7
:1012D00006B010BD7CB50D4600F04EF808B184682C
:1012E0000AE001207CBD01AA0121A068FFF7E6FD0C
:1012F0000198854202D02468002CF4D184B101AA5F
:101300000421A068FFF7DAFD0198022806D06A469A
:101310000521A068FFF7D2FD00987CBD0095FBE792
:1013200000207CBD7CB50D46164600F025F808B1BE
:1013300084680AE001207CBD01AA0121A068FFF7B2
:10134000BDFD0198854202D02468002CF4D184B1FF
:1013500001AA0421A068FFF7B1FD0198022806D078
:101360006A460521A068FFF7A9FD00987CBD00969C
:10137000FBE700207CBD0000004870470012002001
:1013800038B50446002C14D094F84800002810D139
:10139000009494F84500012101EBD002054B04F1C3
:1013A0003B01204600F098F8002802D1032084F881
:1013B000480038BD9514000830B585B0DDE9085403
:1013C0008DE82E00002304941A46A321FFF7D4FDD4
:1013D00005B030BD10B586B0089CCDE90334CDE929
:1013E000011200210B460A460091A021FFF7C4FD1F
:1013F00006B010BD38B50D46FFF7BEFF08B18468D2
:101400000AE0012038BD6A460121A068FFF756FDB9
:101410000098854202D02468002CF4D10CB1208EB3
:1014200038BD002038BD70B504460E461346256A07
:10143000002D03D0F2687168606AA8473146606881
:10144000BDE87040FFF7DABCF8B505460E464C2003
:1014500002F0BEFB0446DCB1A5600020E0606A46F5
:1014600008212846FFF72AFD009860606A46092196
:101470002846FFF723FD009820616A460721284689
:10148000FFF71CFD009884F8320034600020F8BD9E
:101490000C20F8BD70B504461D466068FFF76CFF70
:1014A000002817D094F84910012913D0002184F89E
:1014B000481055B1E269002A0CD1416084F8471008
:1014C0002046BDE87040FFF75BBF2146BDE8704095
:1014D00000F006B970BD00002DE9F8430E46DDF8B6
:1014E000208015461F460446002807D069466068DC
:1014F00000F067FE20B10120BDE8F8830320FBE780
:101500002762C4F82480009A5660956007481061ED
:1015100054616169606802F0C3F928B1606800999C
:10152000FFF76CFC0120E7E70020E5E7271400083F
:101530002DE9FC5F044600250026A846CDF804806E
:1015400094F84400012704F1330B4FF005094FF0E4
:10155000040A082814D2DFE800F0B2B204143B46B3
:101560007FAF032084F844005C4B07225946204695
:101570000094FFF79FFE002802D184F848700126EE
:101580009DE001AA0C21A068FFF798FC0198208635
:101590009BF80310C1F34111491CC9000191084493
:1015A00020869BF8020084F84500072870D884F84C
:1015B00044A0082101EBD002484B59462046009434
:1015C000FFF778FE00287AD184F84870012676E08B
:1015D00094F84500C00002F0FBFAA061B0B184F8B5
:1015E000449084F8468094F8460094F84510884268
:1015F00013D2401CC1B284F84610384B0822204652
:10160000009400F021FB20B1012558E084F84470DB
:1016100055E084F84870012651E084F84780CDF801
:10162000048002210FE0A26942F83080019AA0698B
:1016300009EBC2028754019AA0690AEBC2028154E5
:101640000198401C019094F8452001988242EAD804
:1016500084F84480012532E094F83E0094F83F106D
:1016600040EA0120019084F84480C1074FF0070947
:101670000FD02346194A00212046FFF7BFFC08B1CE
:1016800001251CE084F8487084F84490012616E097
:101690001BE080070ED52346104A01212046FFF7A4
:1016A000ADFC08B101250AE084F84870012684F8F1
:1016B000449004E0012502E084F844800125012DD6
:1016C00005D0002E01D184F84470BDE8FC9F84F859
:1016D00044802046FFF754FEF7E70000631000083F
:1016E0002DE9F84306460C46012700254FF0010876
:1016F00032E005F0070108FA01F004EBD50191F89A
:101700003B10084226D07DB1706850B1A04202D192
:1017100094F8471029B1A0421CD194F84700A84280
:1017200018D1E06938B31BE0706820B1A04211D134
:1017300094F8470070B9062084F84400124B042244
:1017400004F13C0120460094FFF744FE78B10020EC
:1017500084F844006D1CEDB294F84500A842C8D24C
:10176000012F06D12046BDE8F843FFF709BE84F8F3
:101770004880BDE8F883746084F84750002720460D
:1017800000F004F8ECE700006310000890F8471040
:101790008269491E02EBC1010968002901D000F0ED
:1017A0003DB900F001B800002DE9FE4F044694F861
:1017B0004700A169401E01EBC00500266068FFF7E5
:1017C000DBFD80465FEA080077D095F804C006216B
:1017D00005239148022704F140024FF000094FF021
:1017E000010ABCF10B0F16D2DFE80CF01515061636
:1017F000687799A0AFDDEB0003212971CDE90004E2
:1018000094F8471004232046FFF7D6FD002802D1A4
:1018100084F848700126F1E0002214F8400FE378C4
:1018200094F801C040EA0360A3781B04403C43EAFB
:101830000C231843C3030FD504202871009494F897
:101840004710754B10222046FFF7E8FB0028E2D135
:1018500084F848700126D1E0C30713D029710094A1
:1018600094F847106C4B0422204600F0EDF9002854
:10187000D1D184F84870012668790028CBD0401E69
:101880006871BBE0C10201D5142206E0810301D5D5
:10189000112202E0000300D51322002A0CD02F7180
:1018A000009494F847105C4B2046FFF7B7FB0028E4
:1018B00002D184F848700126A0E0ABE02B71CDE99D
:1018C000000494F8471004232046FFF775FD002814
:1018D00002D184F84870012690E014F8400FE278B5
:1018E000637840EA0260A2781204403C42EA032294
:1018F0001043C00712D02971009494F84710464B4A
:101900000422204600F0A0F9002877D184F848701E
:1019100001266879002871D0401E68716EE00720AA
:10192000287101262046FFF72BFD67E00821297169
:10193000CDE9000494F8471004232046FFF73CFD4E
:1019400080BB84F84870012658E014F8400FE17815
:10195000627840EA0160A1780904403C41EA022132
:101960000843C1024AD5697959B109202871009408
:1019700094F84710284B14222046FFF74FFB70B114
:101980003CE00A212971410501D5AF71EFE78005DF
:1019900002D585F806A0EAE785F80690E7E784F81F
:1019A000487001262AE02B71CDE9000494F8471015
:1019B00004232046FFF700FD00BB84F84870012691
:1019C0001CE002AA0121A068FFF778FA94F832001F
:1019D000401CC0B2CDE90005029894F84730C2B26D
:1019E000A9796068FEF7D2FF012684F84790C8F80D
:1019F000049085F805A02046FFF7C2FC002E09D10F
:101A00002F7184F84790C8F8049085F805A0204607
:101A1000FFF7B6FCBDE8FE8F631000082DE9FC4718
:101A2000044694F84700A169401E01EBC00500265A
:101A30006068FFF7A1FC0746380074D028794A494E
:101A400004F140024FF002084FF00A0AB1460B2899
:101A50001CD006DC002877D0012875D00A2873D165
:101A600004E00C283FD00D286ED14BE00B202871EC
:101A7000CDE9001494F8471004232046FFF79CFC9E
:101A8000002861D184F8488001265DE014F8400FF9
:101A9000E37894F801C040EA0360A3781B04403C5B
:101AA00043EA0C2318430C232B71C3030CD5009479
:101AB00094F847102C4B10222046FFF7AFFA00BBDA
:101AC00084F8488001263FE080030CD5009494F808
:101AD0004710254B11222046FFF7A0FA88B984F859
:101AE0004880012630E00D202871CDE9001494F8DB
:101AF000471004232046FFF75FFC10B984F84880A4
:101B0000012621E014F8400FE178627840EA016094
:101B1000A1780904403C41EA02210843C00703D0F0
:101B200085F804A010E01CE0012685F804802968EF
:101B30006068FFF7C1F8C5F80090C7F8049084F812
:101B400047902046FFF71CFC002E0AD185F804A020
:101B5000C7F8049084F847902046BDE8FC47FFF79B
:101B60000FBCBDE8FC870000631000082DE9FF47AB
:101B70009146DDF830A01F4604460E46002809D0E5
:101B8000E160A06801F010FC0546280004D004B014
:101B9000BDE8F0870320FAE761694FF0000851B112
:101BA00000226068FEF7A4FF61696068FFF744F8EF
:101BB0000546C4F81480002196F83C200CE001EBA7
:101BC000410056F8200083781B0603D5C378DB4319
:101BD0009B0708D0491CC9B28A42F0D8B9F1000F5E
:101BE0002AD00120D3E7A168009103218DF80B10C2
:101BF00001218DF80A10817801F00F018DF809108C
:101C000081798DF808100179407941EA0020C0F30C
:101C10000A00ADF806008DF80C8040F6B830ADF83B
:101C200004006A4604F11401606801F005FC0546F1
:101C30002800D3D00120AAE727B100231A4619466D
:101C40005046B8472846A2E730B585B0089D002425
:101C50000194CDE903350091134602940322232118
:101C6000FFF78AF905B030BD2DE9F04105460E4673
:101C70001746FFF7E3F80446200026D004F5447128
:101C80002846FFF7D3F8D4F8100300B3016819B35E
:101C9000416809B38168F9B1C168E9B10169D9B195
:101CA0004169C9B18069B8B184F8295367600020DF
:101CB000C4F8140304F1080001F09CFF70B1204641
:101CC00001F05BFE0120BDE8F0810320FBE7204628
:101CD00001F053FE0620F6E70120F4E704F10C02C0
:101CE000C4F80C23012000EB400104EB01110C317E
:101CF00011600A46401CC0B21028F4D3D4F8100377
:101D00002246214603682846984720B9206810B12A
:101D100034600020D7E7A06801F076FF204601F08C
:101D20002CFE0120CFE70000034930200870034952
:101D30000820C1F80001704743E400E008E000E03B
:101D400070B514460025002808D0012908D00229C2
:101D50000BD003290ED0042913D10FE0032070BD4E
:101D600006CC02F0DEF905460BE0217802F088F996
:101D7000054606E002F0A0FA206002E0022102F02F
:101D8000F5F9284670BD38B505460C46684601F0A1
:101D90008BFEDCB1207C012818D1A868A04205D1B7
:101DA0000068A860204601F022FF0FE002460BE029
:101DB000017C39B1A04205D10168116030B101F058
:101DC00016FF03E0024600680028F1D1009801F0F8
:101DD000FCFE002038BD00002DE9F8430F461646F2
:101DE0003C490D680095002802D00620BDE8F88324
:101DF000382001F0EDFE044637494C6120004FF0D9
:101E0000000812D02560C4F808806760442001F003
:101E1000DFFEE06268B104F1100001F0EBFE68B192
:101E2000204600F05DF80120E0E7C6F800800C20B5
:101E3000DCE7204600F054F80C20D7E7012104F13C
:101E40000C0001F04BFEE068F0B3404684F83180AE
:101E500084F832006061A06184F828002268402183
:101E6000C2F894102168C1F894002168FF22C1F8DB
:101E70008020216851F8943F43F002030B6017491A
:101E80002368C1F30721C3F89C1014492368C1F3E8
:101E90000741C3F8B01011492368090EC3F8B41004
:101EA0002168C1F8AC202168C1F88C0022680821A3
:101EB000C2F89410216851F8842F42F044020A605D
:101EC00084F83000346091E7FFE7204600F008F81E
:101ED0000C208BE7C06200084C000020001000209E
:101EE00010B50446FF202168C1F88000206850F832
:101EF000841F21F0FF010160206850F8981F21F035
:101F00007F010160206850F8941F21F0FF010160FB
:101F1000206850F8981F21F080010160E0680028D7
:101F200001D001F009FE206908B101F06DFEE06A00
:101F300018B101F05CFE0020E062204601F057FE7F
:101F4000002010BD70B500282AD005682868D0F898
:101F50008010C9B2D0F884400C40002C20D0C0F8CA
:101F60008040600703D50821E86801F0F5FD6006B0
:101F700009D5286850F8841F21F040010160012133
:101F8000E86801F0E9FD200703D50421E86801F0C5
:101F9000E3FDE007DAD00221E86801F0DDFDD5E7D6
:101FA00070BD2DE9F84307460E461546684601F018
:101FB0007BFD182001F00CFE0446200002D0B8681A
:101FC00030B109E0384601F012FE0C20BDE8F8837C
:101FD000BC6005E0804600680028FBD1C8F80040DE
:101FE00000272760009801F0F0FD28686060687A9B
:101FF000A074A87AE074287AE081E888A081E87A61
:102000002075297B6175A98861816774012121741C
:102010004FF6FF722281012806D0287A02F0CCF90F
:10202000E08134600020D1E7287A401E8140E181C0
:10203000F7E770B5054614460026207A800702D1DE
:102040002079800708D0E86A20B18889402803D920
:102050000D2070BD0D2070BDA1610020E060498998
:1020600081B1A1850320E085284602F02DF9A06208
:102070002146284602F0ADF92021E86801F06CFD08
:10208000304670BD4FF4FA70A085EBE73EB50446CC
:1020900000250195002C48D02068029001A80090EE
:1020A000029801230022C068FF2101F067FDA0BB58
:1020B0000198C00705D0029801F034FF029880F81B
:1020C00030500198800702D5029802F0FDF901987E
:1020D000C00602D5029802F057F8019800070FD504
:1020E000029890F8300058B9029890F8360038B14C
:1020F0000299012081F830000E49029802F07AFB23
:102100000198400709D50B481038016929B12068AA
:1021100002F062F8029981F83000029890F83600D7
:1021200020B10449029802F065FB3EBD029802F01E
:1021300027FB3EBD5C0000202DE9F041054614461A
:102140000026A1610320E0858A7C4FF4FA70002A02
:1021500011D0498981B3A185284602F0B5F8A06263
:102160002146284602F035F92021E86801F0F4FC08
:102170003046BDE8F08194F82030012B0FD1626821
:102180006AB1277ABF0701D1920708D0EA6A22B163
:102190008989402903D90D20EBE70D20E9E70121CA
:1021A00084F82110A16841B141F28830012B01D09F
:1021B000A085D1E7A085CFE701E0A085CCE7A08589
:1021C000CAE770B50D460446002811D085B1A06855
:1021D00001F01CFDD4F80C0360B12860D4F80C03A6
:1021E0000068C4F80C03A06801F012FD002070BD67
:1021F000032070BD00202860A06801F009FD0120C7
:1022000070BD000070B50D4604461146012206233C
:10221000002911D00A2939D00E2961D094F86C0018
:1022200010B1401E84F86C0094F86C00F0B32046A6
:10223000BDE8704000F0DABDE8681F280DD094F8C2
:102240006C0010B1401E84F86C0094F86C0060B112
:102250002046BDE8704000F0C9BD022084F870003F
:102260002046BDE8704000F0C1BD84F8712084F8BC
:10227000703000221146204600F02AFD002845D08B
:102280002046BDE87040012100F0C6B894F86C000B
:1022900010B1401E84F86C0094F86C0078B160694D
:1022A0001B49827C204600F035F800E01DE0002844
:1022B0002CD02046BDE87040012100F0ADB884F874
:1022C000712084F8703000221146204600F000FD95
:1022D00000281BD02046BDE87040012100F09CB8CA
:1022E0002046BDE8704000F097B884F8712084F86B
:1022F000703000221146204600F0EAFC002805D08C
:102300002046BDE87040012100F086B870BD000095
:1023100073230008F8B504460E4615466946206842
:10232000FFF74FFF002823D1002323626362009848
:102330000661446143608360C06901214170009976
:102340000220C96908700098C0694380009AD0696A
:102350008580D069C380E168206801F054FB0546A0
:102360001DB120680099FEF749FD0098A06228463B
:10237000F8BD10B50446002A03D00E21204600F017
:102380004BF894F87000062804D02046BDE81040B1
:1023900000F02CBD2046BDE81040012100F03CB803
:1023A0002DE9F003DDE906C7089E00F12C050024A5
:1023B000002808D090F87080B8F1000F05D00220F6
:1023C000BDE8F00370470320FAE78361C0F81CC042
:1023D00005EB040C335D8CF80F30641CE4B20A2C5E
:1023E000F6D3AA602F7373785B096B730A23AB7300
:1023F000012380F870300024802F0AD080F86D40CF
:10240000C1650266446680F86C30BDE8F00300F0F8
:10241000EDBC80F86D30F3E770B504460B46A56956
:10242000002D03D0626EE16DE069A847002084F8BA
:10243000700070BD2DE9F84F0446DDE90A95DDE92D
:102440000C780E4692469B46002C07D069462068C1
:10245000FFF7B7FE20B10220BDE8F88F0320FBE7AD
:10246000C4F820A0C4F824B00098C0F80490856097
:1024700006614461C06907700098C06980F80180F6
:1024800000990020C9694880A068009A006BD16952
:1024900080788880D069C580E168206801F0B3FA4F
:1024A00028B120680099FEF7A9FC0120D4E7009824
:1024B000A0620020D0E70000827C0021022A02D125
:1024C00081740322C2740248017043707047000097
:1024D0001800002070B50D4604461146012206235F
:1024E000002912D00A2952D00E297AD094F86C0013
:1024F00010B1401E84F86C0094F86C00002875D070
:102500002046BDE8704000F071BCE8680D282DD170
:102510003F49E06C884229D194F8580048B101281D
:102520000DD0022811D02046BDE870401021FFF7E1
:1025300073BF2046BDE870400021FFF76DBF204605
:10254000BDE870401021FFF767BF84F8712084F860
:10255000703000221146204600F0BAFB002856D009
:102560002046BDE870400121FFF756BF84F8712076
:1025700084F8703000221146204600F0A9FB0028A4
:1025800045D02046BDE870400121FFF745BF94F8D3
:102590006C0010B1401E84F86C0094F86C0078B1A7
:1025A00060691C49807C40F080022046FFF7B2FE43
:1025B00000282CD02046BDE870400121FFF72CBF39
:1025C00084F8712084F8703000221146204600F013
:1025D0007FFB00281BD02046BDE870400121FFF79B
:1025E0001BBF2046BDE87040FFF716BF84F871207E
:1025F00084F8703000221146204600F069FB002864
:1026000005D02046BDE870400121FFF705BF70BD31
:10261000555342537323000810B50B460446114628
:10262000002916D00A291DD00E293ED0012084F899
:102630007100062084F8700000221146204600F048
:1026400047FB002836D02046BDE810400121FFF7A7
:10265000E3BE606ED968084460662046BDE810405D
:1026600000F0C4BB94F86C0010B1401E84F86C00FC
:1026700093F82000012804D0002094F86C1011B1C8
:1026800004E08020F9E7032184F8701061698A7CF6
:10269000094902432046FFF73DFE00280AD02046A4
:1026A000BDE810400121FFF7B7BE2046BDE810404D
:1026B000FFF7B2BE10BD00007323000870B50546D9
:1026C0000C46002927D0616939B100222068FEF745
:1026D0000FFA61692068FEF7AFFA216939B100226B
:1026E0002068FEF705FA21692068FEF7A5FAE1687F
:1026F00021B1A26A12B12068FEF7FAF9A16E11B1F8
:102700002068FEF77BFB2846A168FEF729FA2046E1
:1027100001F06DFA03E000212846FEF721FA0020BF
:1027200070BD00002DE9F84307460024DFF8B0C073
:10273000012A9CF8115006D06046022A006842D057
:10274000032A4BD121E0002291F84A8110E001EBED
:102750008216336B5879082808D19C79042C01D053
:10276000062C03D1D879502800D12DB1521CD2B2F9
:102770009045ECD8082431E0CCF80470CCF80C601B
:10278000CCF800100020BDE8F883884226D1DCF8A0
:10279000040018B3DCF80C0000B30DB101241DE0F7
:1027A00001208CF811006A460A213846FEF786FBA4
:1027B0006A460B213846FEF781FB6A4601213846FE
:1027C000FEF77CFB0AE0884208D106490020086039
:1027D000CCF8000015B102208CF811002046D2E799
:1027E0008C04002074000020704700B591B00146B1
:1027F000684602F0E5FE00280DD106E09DF8351090
:10280000002908D00BA8FFF7EFFF0BA9684602F0DC
:10281000BFFF0028F2D011B000BD7047F0B5ADF594
:10282000157D0025039542F2107100BF0398401CEE
:1028300003908842F9D3312274A101A802F0C2F8B2
:10284000002201A9724802F0BBFD20B1FFF7E5FFAD
:102850000DF5157DF0BD94AA03A901A802F09BFC1B
:1028600010B1FFF7DAFFF3E79498007801A8FFF7BB
:10287000BCFF10B1FFF7D1FFEAE766A0FFF7B5FF95
:1028800010B1FFF7CAFFE3E7012263A10AA802F033
:10289000BBFD20B1082802D0FFF7BFFFD8E704A98D
:1028A0005DA002F09AFF10B1FFF7B7FFD0E704A8D0
:1028B000FFF79AFF5A4C0498606104982061E58004
:1028C000E56000210AA802F0CBFC28B10AA802F0BA
:1028D00052FCFFF7A2FFBBE74FF4806632E0B04244
:1028E00004D3A0F580606061668001E0608065616E
:1028F000E088401CE08002AB62884A490AA802F0E6
:1029000095FE28B10AA802F036FCFFF786FF9FE784
:10291000A5804449628805E00B5CE7683B44E360BE
:10292000401CA080A0889042F6D3D4E90401411A4B
:102930000AA802F095FC28B10AA802F01CFCFFF7D7
:102940006CFF85E760690028C9D137498A78344827
:10295000083002700A794270897981700178012902
:1029600051D04078E16888424DD0304F4FF4E67046
:102970003946FDF774FC0498606104982061E58095
:10298000A76100210AA802F06BFCA0B30AA802F01C
:10299000F2FBFFF742FF5BE7B04204D3A0F5806093
:1029A0006061668001E060806561E088401CE080D5
:1029B00002AB62881B490AA802F038FE28B10AA8B7
:1029C00002F0D9FBFFF729FF42E762881549A069A9
:1029D000FDF758FD6188A0690844A061D4E90401AD
:1029E000411A0AA802F03CFC28B10AA802F0C3FB75
:1029F000FFF713FF2CE7FFE760690028CCD1FDF754
:102A000009FD01F007F9FFF708FF21E725633A0008
:102A1000A0040020313A0000313A2F2E62696E0086
:102A2000180000208C0000200080000800900008A2
:102A300000207047F8B507460D46742001F0C8F82D
:102A40000446E4B167600026A6606A46082138465D
:102A5000FEF734FA009820606A4609213846FEF7EE
:102A60002DFA0098E0600748E06204F168012068F0
:102A7000FFF7A7FB00B1A6662C600020F8BD0C2074
:102A8000F8BD0000555342432DE9FC412C4D012671
:102A90002E706868002808D000232A4A194600F0E2
:102AA000B1FB20B10120BDE8FC810120FBE7264CF1
:102AB00002E02068FFF7EAFA28780028F9D12E70A2
:102AC000686860B10027DFF87C80CDE900871223B9
:102AD0001E4A394600F08EFA30B10120E3E70120AA
:102AE000E1E72068FFF7D2FA28780028F9D12E70A4
:102AF000686848B1CDE900870823144A002100F036
:102B000019FA30B10120CEE70120CCE72068FFF7A9
:102B1000BDFA28780028F9D1687820B14FF4007008
:102B2000A8600020BFE70948C179027941EA026143
:102B300042798079120442EA00200143A960F0E75B
:102B40007000002031320008140000201C12002008
:102B5000FEB50E4614460125002E66D00021012E3A
:102B600006D0022E04D0032E59D004252846FEBDDF
:102B700074B12F4F01203870786858B12D4ACDE9D3
:102B8000002108232C4A002100F0D4F978B903E091
:102B90000120FEBD0120FEBD284D02E02868FFF7A0
:102BA00075FA38780028F9D17878E8B10325002D36
:102BB000DCD1012E1AD02048C179027941EA0261A4
:102BC00042798079120442EA0020014302919DF883
:102BD000080020709DF8090060709DF80A00A07040
:102BE0009DF80B00E070C1E70025E0E71248C178CE
:102BF000027841EA026142788078120442EA0020B9
:102C0000014302919DF8080020709DF80900607052
:102C10009DF80A00A0709DF80B00E070A6E714B1C3
:102C200021600025A2E70120FEBD00259EE70000EF
:102C300070000020313200081C1200201400002017
:102C400070B5044615460020A0622068FEF7D6F84D
:102C50002DB129462046BDE8704000F0EFB960690B
:102C6000002808D0807C044940F080022046BDE85E
:102C70007040FFF74FBB70BD7D2C000870B5044657
:102C800015460020A0622068FEF7B8F82DB129464D
:102C90002046BDE8704000F0D1B92069002806D078
:102CA000827C2046BDE870400149FFF733BB70BD10
:102CB000B52C000870B5044615460020A0622068B7
:102CC000FEF79CF829462046BDE8704000F0B6B9F2
:102CD0007FB513460022FF2421250092CDE902543E
:102CE00001920A460249FFF7A5FB04B070BD00003F
:102CF000412C00082DE9FF470446002561690027A3
:102D0000002903D02068FDF797FF6761216919B199
:102D10002068FDF791FF2761A6684FF0020840F692
:102D2000B8395BE005EB450056F8202090780106A5
:102D300004D5D17801F00301022907D000064BD455
:102D4000D07800F00300022824D045E060680090AD
:102D50008DF80B8001208DF80A00907800F00F00AC
:102D60008DF8090090798DF808001079517940EAC2
:102D70000120C0F30A00ADF806008DF80C70ADF824
:102D800004906A4604F11401206800F055FB002805
:102D900029D121E0606800908DF80B808DF80A70D1
:102DA000907800F00F008DF8090090798DF80800F8
:102DB0001079517940EA0120C0F30A00ADF806000D
:102DC0008DF80C70ADF804906A4604F1100120688B
:102DD00000F032FB002806D16D1CEDB296F83C00E5
:102DE000A8429FD8002004B0BDE8F08770B5044623
:102DF0000025A06E0026002809D104F16801206892
:102E0000FFF7DFF9054615B1A666022070BDA26E78
:102E100094F87000012806D0022814D0032835D079
:102E2000042848D143E082F8206004F12C0050606F
:102E30001F2090602148106154612169206800F0D2
:102E4000C4FD054637E0E06D00B394F86D0082F8EC
:102E50002000636EE16D19445160D4E91813C91A5A
:102E600091605461D4E9183199420FD0144930B1BE
:102E700011616169206800F013FD05461BE01161D6
:102E80002169206800F0A1FD054614E0012082F8C8
:102E9000200004F14C00506010209060094810613F
:102EA00054616169206800F0FBFC054603E00021E5
:102EB0002046FFF7B1FA284670BD00000522000841
:102EC00019260008D52400082DE9F04387B01E46D6
:102ED000DDE9103CDDE90E740D4613A1D1E900894E
:102EE0008968CDE90489069169018DF81110110EE8
:102EF0008DF81210110C8DF81310110A8DF81410A2
:102F00008DF81520210A8DF817108DF818408022B1
:102F1000CDE900C204A902913A463146FFF740FAD2
:102F200007B0BDE8F08300002800000000000000AA
:102F300000000000F0B587B017469C46DDE90C3272
:102F40000C460AA1D1E900568968CDE904560691DC
:102F500061018DF811108024CDE9002404A90291AB
:102F600062463946FFF71CFA07B0F0BD25000000A5
:102F700000000000000000002DE9FF470F469046CA
:102F800001200224002B02D01D46174E26E004200B
:102F900004B0BDE8F08701203070706878B1134B41
:102FA000B168CDE9015300226943039200913B4689
:102FB00042460021FFF788FF18B101200EE00120F2
:102FC000E6E7DFF82C9003E0D9F80000FFF75EF8A1
:102FD00030780028F8D1707820B10320641E611C7D
:102FE000D9D1D5E70020D3E77000002031320008A6
:102FF00014000020F0B587B017461A46DDE90CC36F
:103000000C460BA1D1E900568968CDE9045606911A
:1030100061018DF811108DF814208024CDE9003461
:1030200004A9029163463946FFF7BAF907B0F0BD2B
:1030300003000000000000000000000030B490F821
:103040007120012A09D0046A002C15D0406AA446D8
:103050000B46002230BC11466047002280F87120E8
:1030600031B990F87010062902D030BCFFF7BEBE0F
:1030700030BC0121FFF7D0B930BC70472DE9F843CF
:103080008946DDF8208017461E460446002808D0F1
:103090004946606800F088F90546280003D0BDE87D
:1030A000F8830320FBE7C4F80890616921B100228E
:1030B0002068FDF71DFD0546216921B10022206829
:1030C000FDF716FD054637B169462068FFF779F828
:1030D00060B10220E3E786B32046FFF70BFE05460A
:1030E00000222B4611464046B04726E02662C4F82F
:1030F00024800098134901614461C0690B2141702B
:1031000000990120C9690870A068006B8178009857
:10311000C2699180C0694780009A0020D169C88047
:1031200050609060E168206800F06DFC0546280062
:1031300005D020680099FDF761FE2846AFE70098AA
:10314000A062FAE74931000870B504460E46002037
:10315000A062002A03D12046FFF7CCFD0246256A73
:1031600025B1134600221146606AA84731462068FF
:10317000BDE87040FDF742BE38B50446002905D0D1
:10318000D4E90101BDE83840FFF798BA607C217CA2
:10319000002588421BD02074607CC0B1012802D079
:1031A000022814D10CE004F108016068FFF742FC2A
:1031B000124AA1681160002814D10120E07406E0D1
:1031C0006574E574D4E90101FFF778FAA560E07C45
:1031D000002807D0012806D0032803D12046FFF796
:1031E0001DFBE57438BDE5740220A0740094D4E999
:1031F0000201034B0022FFF741FF38BD740000209D
:10320000B924000810B586B01C460023039304932C
:10321000059349018DF80D10CDE9004303A913462C
:10322000029100221146FFF7BBF806B010BD000066
:1032300002480021017043707047000070000020B8
:103240002DE9F04387B01E46DDE9103CDDE90E7440
:103250000D4613A1D1E900898968CDE90489069159
:1032600069018DF81110110E8DF81210110C8DF8E6
:103270001310110A8DF814108DF81520210A8DF8FD
:1032800017108DF818400022CDE900C204A9029160
:103290003A463146FFF784F807B0BDE8F0830000F6
:1032A0002A00000000000000000000002DE9FF4798
:1032B0000F46904601200224002B02D01D46174ED7
:1032C00026E0042004B0BDE8F0870120307070686B
:1032D00078B1134BB168CDE90153002269430392E1
:1032E00000913B4642460021FFF7AAFF18B101209A
:1032F0000EE00120E6E7DFF82C9003E0D9F80000AB
:10330000FEF7C4FE30780028F8D1707820B1032091
:10331000641E611CD9D1D5E70020D3E770000020DE
:1033200031320008140000202DE9F0470446894698
:1033300001260127002C07D0D4F8048000250020A6
:10334000002194F852210BE00320BDE8F08704EB44
:1033500081139B6B5B79092B09D00120491CC9B2F1
:103360008A42F4D804F1080A012802D009E00125B4
:10337000F4E7D8F8043023B14A465146204698472E
:10338000064635B14B46524621464046FDF7C0FE43
:1033900007462EB127B1B9F1010F03D00120D4E7C0
:1033A0000020D2E70820D0E72DE9F04106460F467D
:1033B0000024002E06D02FB17568A86800F026FC06
:1033C0001C490EE00320BDE8F081CB20604301EBF7
:1033D000800090F82823012A01D1A84203D0641C60
:1033E000E4B2002CF1D024B1A86800F011FC012057
:1033F000E9E73146284600F047FB20B1A86800F015
:1034000007FC0120DFE7002096F852110BE006EBE5
:1034100080120832BA4204D13044022180F864118B
:1034200003E0401CC0B28142F1D8A86800F0F0FB74
:103430000020C8E7D00A00200346002805D022B1AA
:103440001868D3F810339B68184703207047F0B50D
:103450000022002819D000F1080300214FF4A674BF
:1034600000265E54491CA142FBD30021431883F877
:103470006461491C0529F9D3D0F85C11B0F86031BA
:10348000CC180B78092B02D0CAE00420F0BD4B7891
:10349000022BF9D1C0F84811A0F85061C0F84C6176
:1034A00080F852610B78194412E04B78042B11D04C
:1034B000D0F84C310BB9C0F84C114B786BB10B788C
:1034C0005BB1B0F850512B44A0F850310B7819443F
:1034D000A142EAD380F852619FE00120F0BD4B7811
:1034E000042B01D00120F0BDCB784BB1002A7AD05B
:1034F00092F83B305B1C82F83B30536BABB375E00A
:1035000090F85231052B01D30120F0BD00EB83125E
:1035100008325B1C80F852313032D67216730D4679
:103520001160168156608B789372303A0B780BB12C
:10353000194412E00120F0BD4B78042B0FD0052B6D
:103540000DD0536B03B951634B787BB10B786BB1E2
:10355000178F3B4413870B781944A142ECD32B7986
:10356000EBB34D78052D05D102E03EE00120F0BD22
:10357000042B2DD90120F0BDA14202D24D78052D9A
:1035800001D00120F0BD03EB430302EB830319607C
:103590001E815E600D780DB1294412E00120F0BD5E
:1035A0004D78052D0FD0042D0DD05D6805B95960FB
:1035B0004D78B5B10D78A5B11F893D441D810D78B9
:1035C0002944A142ECD392F83C305B1C82F83C3099
:1035D000156B92F83C302D79AB421ED2CCE71CE043
:1035E00001E00120F0BD0120F0BD51630B782BB14B
:1035F000158F2B4413870B7819440CE00120F0BD84
:103600004B78042B09D073B10B7863B1158F2B4421
:1036100013870B781944A142F2D3A142FFF45FAFA4
:103620000021012205E00120F0BD431883F8642148
:10363000491C90F852318B42F7D80020F0BD70B58C
:103640000446D4F858210025606894F87011891E4A
:1036500005296BD2DFE801F003116A1D4200D4F89E
:103660005411C97991810368D0F81003D4F8582116
:10367000052184691846A04758E094F8741184F82D
:1036800075110468D0F81003042183692046984717
:103690004CE0D4F86C018178C07841EA0020A4F8AD
:1036A0006001D4F85C0120B100F0A1FA0020C4F858
:1036B0005C01B4F86001810707D020F00300001D11
:1036C00000F086FAC4F85C0103E000F081FAC4F867
:1036D0005C01D4F85C0148BB012070BDD4F85C01EA
:1036E000007AFA2801D9012070BDB4F86201401CAB
:1036F000A4F862012046FFF7AAFE08B1012070BDC0
:1037000001212046FFF710FE054628000ED0D4F810
:103710005411B4F86201497C884201D2092070BD7D
:1037200004212046FFF700FE082070BD284670BD2A
:103730002DE9FF410446002694F870010025082871
:1037400015D069466068FEF73CFD18B1012004B051
:10375000BDE8F0810098514901614461C06905707C
:103760000098C1698D80C169CD80C069458094F899
:1037700070010621801E02220927072828D2DFE8CF
:1037800000F004280434517081001220ADF80C00C0
:1037900094F87001022802D10820ADF80C00D4F88A
:1037A0005401029001208DF804008DF805508DF829
:1037B00006500098C069027842F0800202700098BA
:1037C000C069417001AA2046009900F04CF90646F4
:1037D00061E000990520C969487004F5BA72204675
:1037E000009900F039F9064655E0D4F86C010290D2
:1037F0008DF8042094F862018DF80500ADF80C7086
:103800008DF806500098C069027842F0800202707C
:103810000098C069417001AA2046009900F023F980
:10382000064638E0D4F85C0102908DF8042094F844
:1038300062018DF80500B4F86001ADF80C008DF858
:1038400006500098C069027842F080020270009829
:10385000C069417001AA2046009900F004F90646AB
:1038600019E00099D4F84801C96940794880009866
:10387000C069477000231A4620460099FDF749F9B0
:10388000064608E003212046FFF74EFD06463000BD
:1038900001D184F87071304659E70000050D000829
:1038A00070B50E4615460446002816D0AEB1A5B137
:1038B0000020E860012085F82000A06800F0A6F94B
:1038C000D4F8101320682A464B69314698470546BC
:1038D000A06800F09DF9284670BD032070BD70B54A
:1038E00004460D46A06800F091F96D1E04EBD5006A
:1038F00005F0070390F8181301229A40914380F8CD
:103900001813A068BDE8704000F082B970B5064693
:103910000C4694F87511002903D03046FFF7DFFFFD
:1039200005E094F8741111B13046FFF7D8FFD4F8D0
:10393000581159B100223046FDF7DAF83046D4F874
:103940005811FDF779F90020C4F85801D4F85C014A
:1039500008B100F04CF994F87B51D4F8540100F010
:1039600046F9204600F043F9012D05D13046BDE867
:1039700070400321FDF76BB970BD38B50446684649
:1039800000F092F8002184F82813009800F01DF947
:1039900038BD002809D041B1D0F814338B4206D18C
:1039A0001968C0F8141300207047032070471A6884
:1039B00007E08A4203D11068186000207047134660
:1039C0001268002AF5D10020704770B50E461546E2
:1039D0000446002815D0A6B19DB10020E86085F806
:1039E0002000A06800F012F9D4F8101320682A46CD
:1039F0000B69314698470546A06800F009F928464A
:103A000070BD032070BD70B50E46144605460028F3
:103A10000ED06EB164B10020E060206084F8210017
:103A2000E1690978090605D5012084F8200003E042
:103A3000032070BD84F82000A86800F0E7F8D5F8EE
:103A40001013286822460B69314698470446A86837
:103A500000F0DEF8204670BD1278CB695A80002352
:103A60001A46FDF756B830B45378147843EA042365
:103A7000CC696380CC699378A3801389526830BC89
:103A8000FDF747B8FEF702BB002902D0D0F81403B7
:103A900002E004207047006808B18842FBD108B1F9
:103AA0000020704701207047EFF3108172B601606B
:103AB00072B6704708B50B46024600280CD068461F
:103AC000FFF7F2FF106800EA0301884310600098D6
:103AD00000F07BF8002008BD012008BDF8B50646BF
:103AE0000F460023002E19D06846FFF7DDFF0022A5
:103AF000104C02EB420504EB8500007A80B1521CA9
:103B0000042AF6D38BB1002018605F600120187280
:103B10003360009800F059F80020F8BD0120F8BD8E
:103B200002EB420004EB8003ECE7009800F04DF854
:103B30000120F8BD3812002008B50246002809D03F
:103B40006846FFF7B1FF00201072009800F03DF8C2
:103B5000002008BD012008BD08B50B46024600281C
:103B60000AD06846FFF7A0FF10681843106000985D
:103B700000F02BF8002008BD012008BD38B50C4628
:103B8000049D034600281ED06846FFF78DFF186885
:103B9000204032B1A04205D0009800F016F8022073
:103BA00038BD58B105B12860596811B11968814311
:103BB0001960009800F009F8002038BD009800F066
:103BC00004F8022038BD012038BD80F3108870470A
:103BD00010B50446204602F05DF8002806D000210A
:103BE000002301E04354491CA142FBD310BD01F066
:103BF000C9BE0000002803D00249016000207047C0
:103C0000012070470000FFFF002070470020704730
:103C1000002070472DE9F05FDFF8EC900027A9F84D
:103C200000703B4D39482860DFF8E880C8F8007024
:103C30003948DFF8E8A00068CAF800004FF4806B4C
:103C4000374C384E2EE0584506D3A0F58060CAF8B0
:103C50000000A6F800B002E03080CAF80070B9F8A1
:103C60000000401CA9F800003188286802F0FDFA25
:103C70000146606032882C48FCF7A6FA2780DFF8FE
:103C8000A8C0318808E01CF80020D8F800301A4499
:103C9000C8F80020401C208020888842F3D3286880
:103CA00008442860DAF800000028CCD11F49D8F871
:103CB00000000968884225D1FCF7C0FB3420FCF7DE
:103CC0007FFB1B4C2046FCF781FB2020FCF778FB98
:103CD00001212046FCF7A6FB0121A01CFCF7A2FB5A
:103CE0002020FCF76DFBFCF795FBBFF34F8F1149CC
:103CF0000868114A00F4E06010430860BFF34F8F7A
:103D000000BFFDE7BDE8F09F1E0000200090000806
:103D10003000002034000020280000202C0000206B
:103D20007C0000201A000020D00600202400002083
:103D3000008000080CED00E00400FA052DE9F04FCA
:103D400085B004460E988B4615469946C84600270E
:103D5000AE89864200D3064602AA07216868FDF7AD
:103D6000ADF804AA04216868FDF7A8F803AA0121A8
:103D70006868FDF7A3F80498012811D0206850F86E
:103D8000981F21F0800101602068039A50F8981F65
:103D900062F306010160287D012808D0012007E0B8
:103DA000206850F8981F41F080010160ECE7002086
:103DB00040F00C002168C1F8C0004FF0000A18E084
:103DC0000121204600F0D2F901A800900123002231
:103DD0000421E068FFF7D2FE40B17F1CFFB2032F41
:103DE00007D36FF0030005B0BDE8F08FDFF82CA11A
:103DF00004E02068D0F894008006E1D4BAF1000F06
:103E000047D12168FF20C1F88800BBF1010F15D10F
:103E100006F0030009F0030108430FD0E06A80B107
:103E2000402E0ED8C01D20F00308C4F82080C4F82E
:103E30002490E661002084F8280002E0012084F844
:103E400028003748BBF1000F06D0BBF1010F21D08D
:103E5000BBF1020F5FD13DE014F8341F01F0010106
:103E600040EAC10040F01000C0F80480C6F3090128
:103E7000802242EA01410160A87C54F8341C00F021
:103E80000F0040F0D000C1F8A800207880F00100B9
:103E9000207040E014F8331F01F0010140EAC10036
:103EA000C0F804806A7CB105890902F0010241EA88
:103EB000821141F080010160A87C54F8331C00F0AD
:103EC0000F0040F09000C1F8A800207880F00100B9
:103ED000207020E014F8341F01F0010140EAC10015
:103EE00040F01000C0F804806A7CB105890902F036
:103EF000010241EA821141F080010160A87C54F87E
:103F0000341C00F00F0040F01000C1F8A800207829
:103F100080F001002070504665E7000000F8FFFFC8
:103F200000100020FEB504460021206850F8942FB0
:103F300042F00202026022680820C2F89400206861
:103F400050F8982F22F07F020260206850F8982FD6
:103F500022F08002026000260196474803E000BF7D
:103F6000019A521C0192019A8242F8D3434A206876
:103F7000D0F8943043F3C0177F1C019603E000BFD4
:103F8000019B5B1C0193019B9342F8D3D0F89430C2
:103F900043F3C0156D1C491CC9B2AF4201D00329BF
:103FA000E6D3AF4205D050F8841F41F040010160D4
:103FB000FEBDD0F89410490605D550F8841F41F095
:103FC00040010160FEBD15B1012D06D00EE050F894
:103FD000981F21F08001016008E08021C0F8C01026
:103FE000206850F8981F41F0800101602068C16985
:103FF00041F03401C161206850F8941F41F0010183
:1040000001602168FF20C1F88000206850F8841FFB
:1040100021F009010160206850F8941F41F010015F
:1040200001601E21204600F0A1F8206850F8941F7E
:1040300021F0100101606421204600F097F854F847
:10404000170B50F8841F41F009010160E07F401C0C
:10405000E07754F80B0C0421FFF72CFD02A8012196
:10406000CDE90010002354F8130C1A462946FCF73A
:104070008DFC66772677FEBD80841E00A086010039
:1040800070B5044600250826012906D0022925D04E
:10409000032933D004293CD041E02068D0F89410A3
:1040A0008906FBD450F8941F41F0100101601E21D5
:1040B000204600F05BF8206850F8941F21F01001B2
:1040C0000160206850F8941F41F00201016054F82B
:1040D000330BC0F894606570257020E084F836508A
:1040E0002068C0F894602168FF20C1F88000206833
:1040F00050F8841F41F04001016010E094F936004F
:1041000000280CDC206850F8841F41F04001016059
:1041100005E0206850F8841F21F040010160002074
:1041200070BD10B50B460024197D012905D0032967
:1041300003D021B1022902D014E0446912E084695D
:1041400010E0A16999420CD10AB1A24209D12146DD
:1041500000F0F8FBD4E904300E22214698470020F5
:1041600010BD2468002CECD1002010BD70B50646AF
:104170000D46304600F0A8F80446304600F0A4F89A
:10418000001BA842F9D370BD10B5044694F936005F
:10419000002820DD401E84F83600002211466068A9
:1041A000FCF763FD206850F8941F41F002010160A4
:1041B00021680820C1F89400002084F8340084F8B5
:1041C00033002168FF20C1F88000E068BDE810409E
:1041D0002021FFF76FBC10BD2DE9F04105460C46CC
:1041E0002146284600F01EFA3149C8606062042664
:1041F000002833DBA2690223117D59B1E168014433
:10420000E160A4688C4202D09189814223DD85F867
:10421000306028E094F8211003290BD0042909D03C
:1042200085F8303094F82110022906D0491C84F812
:10423000211018E085F8306015E0E1680144E16084
:10424000A2688A4203D0A169898981420BDD0320DB
:1042500084F8210007E085F8303004E010F5807F15
:1042600005D085F8306095F83000BDE8F081A06990
:104270000027007D03280CD0284600F025F8A16A0D
:10428000401AA18D88420BD985F8306009486062D8
:10429000E9E785F830702021E868FFF75DFCE2E788
:1042A00085F830702021E868FFF756FCDBE7000056
:1042B0004C00002000F0FFFF0068A030416800685B
:1042C00040EA012080B2704710B5FFF7F5FF80B2D9
:1042D00005490A88904203D24A6802F500624A60A2
:1042E00008804968084410BD4C0000202DE9F041C9
:1042F000884605460026002700280BD02869FFF7CE
:1043000085FC95F83200D0B16C6926462846FFF747
:10431000D3FF12E0C8F80070BDE8F081A2691189EE
:10432000814208D0D189B0FBF1F301FB130111B92F
:10433000117D03290FD026462468002CEED195F874
:104340003100A0B3A96991B3C8F80010086818B388
:10435000A861086827E0A1690881C8F80040A16940
:104360002046097D032912D1216881B16A69A242E0
:1043700001D1696103E0316001E026462468002C28
:10438000FBD1306007602021E868FFF7E5FB286972
:10439000BDE8F041FFF73CBC2869BDE8F041FFF7FC
:1043A00037BC064600680028FBD131600F602869E1
:1043B000BDE8F041FFF72CBC0021012808D00028FF
:1043C00006D002E04008491CC9B20128FAD1884051
:1043D000704770B504460D46002D0ED02069FFF7DA
:1043E00015FCA86900220121007D012807D00328BF
:1043F00005D0A8B1022813D022E0042070BD94F8A3
:10440000320008B1606905E065612A6084F8321005
:1044100016E0084601680029FBD105602A600FE01C
:1044200094F8310008B1A06905E0A5612A6084F81C
:10443000311005E0084601680029FBD105602A60BB
:104440002069FFF7E5FB002070BDF0B413460022A1
:1044500013F5806F08D013F5807F01D0002B07DBA8
:1044600013F5807F02D004E00A2202E00B2200E074
:104470000B222ABB8C69237D13BBCB695D78012D90
:104480001ED11D78022D1BD19D7815F0FF0F17D17D
:1044900080680BE0857CC67C45EAC6151E79B5426E
:1044A00003D145686668B54202D000680028F1D1A2
:1044B00030B1037D032B01D0022B01D100234374C3
:1044C000D1E90430F0BC184782B040F6FF71019189
:1044D00002684021C2F8801000E000BF01994A1E26
:1044E0000192FAD20168D1F88020520612D551F813
:1044F000842F42F001020A60016851F8982F22F0DF
:104500007F020A60006850F8C01F41F0800101601E
:1045100002B07047C068102102B0FFF71DBB000059
:10452000F8B506460C460427A2693D4D107D0028CB
:1045300016D06168E0684318A168081A0090D07C22
:10454000012867D002213046FFF7F8FBA860A86871
:104550006062002860D086F8307096F83000F8BDB0
:1045600094F82100012811D000210123022816D03F
:10457000032833D00428EAD1537400910023012189
:104580003046A269FFF7DAFBA860E0E70820009058
:1045900000213046E369FFF7D1FBA860D7E7A068A8
:1045A00080B16368E1680B44401A009094F82000E1
:1045B000012805D002213046FFF7C0FBA860C6E7FE
:1045C0000121F8E7537484F8217000910023012140
:1045D0003046A269FFF7B2FBA860B8E7A06878B1DF
:1045E0005374009194F82000A269012806D001219B
:1045F00000233046FFF7A2FBA860A8E70221F7E7F7
:1046000053740091002301213046A269FFF796FB05
:10461000A8609CE7012196E7032086F830009CE71C
:104620004C000020F0B50023052200258C69267D72
:10463000002E04D0E17C012928D049B329E091F86B
:104640002160012E06D0022E06D0032E10D0042E9B
:104650001AD01EE000221CE08A683AB191F82010BE
:10466000012901D0022214E0012212E0012210E00F
:104670008A683AB191F82010012901D0012208E09E
:10468000022206E0012204E0012202E0012200E011
:104690000222374E1AB1012A10D0022A1AD190F8FC
:1046A000341081F0010101F0010546EAC50545F02D
:1046B000100581F0010180F834100BE090F8331000
:1046C00081F0010101F0010546EAC50581F0010113
:1046D00080F833104DB12E680168D1F88810C9B246
:1046E00011F0AD0F04D04842F0BD4FF0FF30F0BDE7
:1046F000310601D500212960217D01290AD0C6F3A8
:1047000083010A2919D008DCD1B102290CD0032970
:1047100019D109E0C6F3094315E00B2904D00E298D
:1047200009D00F290FD10DE0C6F30943617C81F058
:104730000101617407E00F4B05E06FF0FF0302E039
:104740000D4B00E00D4B012A10D190F8281069B9EB
:10475000012180F82810002B08DD002104E0026A06
:10476000446A525C6254491C9942F8DB1846F0BD19
:104770000010002000FCFFFF00F0FFFF00FEFFFF25
:1047800070B504462069FFF741FA65692069FFF7B3
:104790003FFA0FE02946204600F0D4F8D5E904306E
:1047A0000E22294698472069FFF730FA656920698B
:1047B000FFF72EFA002DEDD12069FFF727FAA56942
:1047C0002069FFF725FA0FE02946204600F0BAF8E5
:1047D000D5E904300E22294698472069FFF716FADA
:1047E000A5692069FFF714FA002DEDD1002084F8A7
:1047F000300070BD2DE9FE4304460E46316802913B
:104800000027019794F830004FF00308052814D2D0
:10481000DFE800F0031559617C00029702A92046E9
:10482000FFF764FD0299002907D031602046FFF7A9
:1048300077FE84F8300084F83080BDE8FE8337606E
:1048400094F8320090B165690EE02046FFF734FD20
:104850000146A869C289B1FBF2F302FB131111B939
:10486000007D012808D02D68002DEED13068002889
:10487000E3D184F83070E0E7356029462046FFF741
:104880004FFE84F8308001A8009000231A460421CE
:10489000E068FFF773F910B184F83080E6E701981B
:1048A0004007E3D529462046FFF7BCFE29462046AF
:1048B00000F048F802982946426A2046FFF7C5FDF5
:1048C00084F83070D2E70029B7D02046FFF728FEE1
:1048D00084F83000B1E70029AFD02046FFF7F4FCA0
:1048E00002998A6A801A42F210729042A5D98869A8
:1048F000007D08B10228A0D12046FFF793FE0420D6
:1049000084F8300002990E48486296E7002994D056
:10491000204600F017F8029920464A6AFFF795FDF5
:1049200084F8307094F83100012803D094F83200F4
:10493000012882D12021E068FFF70EF97DE7000011
:1049400000F0FFFF70B50D460446002838D0002D5A
:1049500036D02069FFF75AF994F831100020012968
:1049600012D1A269954209D11168A16108E01146EE
:104970001268954202D112680A6001E0002AF6D15D
:10498000A16909B984F8310094F83210012912D1D3
:104990006269954209D11168616108E011461268A7
:1049A000954202D112680A6001E0002AF6D16169DD
:1049B00009B984F832002069BDE87040FFF728B9D2
:1049C00070BD00000FB4084B10B504A902AA0398EB
:1049D00000F03DF8044602A9002000F0A3F82046AC
:1049E00010BC5DF814FB0000254B00080907090EF8
:1049F000002804DB00F1E02080F80014704700F08C
:104A00000F0000F1E02080F8141D7047BFF34F8FB6
:104A100005480168054A01F4E06111430160BFF3F4
:104A20004F8F00BFFDE700000CED00E00400FA0529
:104A300002E008C8121F08C1002AFAD17047704767
:104A4000002001E001C1121F002AFBD170472DE9AF
:104A5000F84F9946924688460546002706E02528E5
:104A60000AD051464A4690476D1C7F1C2878002882
:104A7000F5D13846BDE8F88F002315F8011F184618
:104A80002E2915D115F8011F04232A290DD06FF006
:104A90002F022978A1F13004092C09D800EB8000FD
:104AA00002EB400008446D1CF3E758F8040B6D1C42
:104AB0002A78002ADDD0632A07D0732A0FD0104647
:104AC00051464A4690477F1C2AE018F8042B8DF87F
:104AD000002000218DF801106E46012103E058F8F6
:104AE000046B4FF0FF315A074FF0000401D409E086
:104AF000641C84420BDA8C42FADB325D002AF7D167
:104B000005E0641C8C42FCDB305D0028F9D12744B1
:104B100004E016F8010B51464A469047641EF8D24D
:104B20006D1CA3E70A68531C0B60107070470000EF
:104B300070B504460020E070401EE062204601F09F
:104B40001DFA08B1042070BD04F22E2001F01AF8FD
:104B5000054694F830004AF65526EB2803D0E9289C
:104B600001D0E82830D1B54206D1082219A104F1BC
:104B7000820001F0C5F8C8B104F13B0001F002F871
:104B8000411E084220D14FF4007188421CD3884254
:104B90001AD894F83D00B8B1411E084214D194F8D7
:104BA0004000012804D0022802D00DE0002070BD92
:104BB00004F1410000F0E6FF30B104F1460000F0DE
:104BC000E1FF08B1002070BDB54201D1022070BDE7
:104BD000032070BD464154333220202000000000E5
:104BE00000E0401C02780AB18A42FAD1007870478E
:104BF000891E4269921E8A4201D800207047826A4B
:104C0000408900FB012070472DE9F04180460F46A6
:104C1000D8F80050002F08D03946404600F0DAFEA0
:104C2000022809D20120BDE8F081EE6816B168695A
:104C3000B04207D8012605E0411CF4D069698142E1
:104C4000F1D83E462869D0B10024BE4215D1741C6B
:104C50006869A04200D802242146404600F0BAFE0E
:104C60000128E0D0411CDED038B1E868022803D327
:104C70006969814200D90646002414B118E0002079
:104C8000D1E73446641C6869A04204D80224022E8D
:104C900001D20020C7E72146404600F09BFE38B114
:104CA0000128C0D0411CBED0B442EBD10020BAE7ED
:104CB0004FF0FF3632462146284601F079F928B9EF
:104CC00027B122463946284601F072F920B1012861
:104CD0000FD001242046A6E7EC60D5E90401891E27
:104CE000884201D8401E2861287940F001002871CF
:104CF000F0E73446EEE700002DE9F05F8B46DBF885
:104D0000009000F120070B222021384601F00DF819
:104D100000252E464FF008083046761C19F8004052
:104D2000202C16D92F2C0ED05C2C0CD02E2C01D080
:104D300045451BD3B8F10B0F01D02E2C12D0062005
:104D4000BDE8F09F761C19F806002F28FAD05C28E1
:104D5000F8D009EB0600CBF8000085B33878E528D9
:104D600030D031E008254FF00B08D5E7204600F0A1
:104D70003BF898B13046761C19F800A0504600F078
:104D800040F818B1A8F10100854201D30620D7E709
:104D9000681C7C55451C07F800A0BDE721460EA005
:104DA000FFF71EFF08B10620CAE7A4F16100192829
:104DB00001D8203CE4B228466D1C3C54ACE7FFE728
:104DC0000620BDE705203870202C01D8042000E023
:104DD0000020F8720020B3E7222A2B2C3A3B3C3DFE
:104DE0003E3F5B5D7C7F0000812808D39F2801D86F
:104DF00001207047E0381C2801D8012070470020AE
:104E00007047402808D37E2801D801207047803899
:104E10007C2801D801207047002070472DE9F0411F
:104E200005460E462F680021284600F03CF988B957
:104E300000243846A96901F0A1F858B9E9690A784F
:104E4000E52A0CD05AB100240121284600F07AF856
:104E50000028EED0042800D10720BDE8F081641CB2
:104E6000B442F7D0F0E72DE9F04105460C4628465C
:104E700001F0BCF910B10120BDE8F08121462846BF
:104E8000FFF7B6FE0646EE6205F130004FF4007201
:104E90000021804600F049FF0127002400E03C4447
:104EA0006889A04207D9321968783B46414600F02C
:104EB0005CF90028F3D06889A04201D00120DBE72B
:104EC0000020D9E770B50446266800250021204659
:104ED00000F0E9F8002832D13046A16901F04EF81F
:104EE00000282CD1E1690A7852B3CA7A02F03F0255
:104EF000A271CA7A12071CD40A7A94F828309A420E
:104F000017D14A7A94F829309A4212D18A7A94F8C1
:104F10002A309A420DD10978A1F13002092A05D927
:104F2000113A192A02D96139192900D80125002D11
:104F300005D10021204600F005F80028CCD070BD36
:104F4000042070BD2DE9F04704468946276826698C
:104F500020364FF00008B6F5001F01D3C4F81880C2
:104F6000A06910B1F10503D047E00420BDE8F08747
:104F7000401CA061616929B17889401E10EA562F52
:104F800008D03AE03889B0EB561F36D8C4F81880FC
:104F90000420EBE7204600F01DFD0546012D01D859
:104FA0000220E3E7681C16D07869A8421FD8B9F13F
:104FB000000F12D020466169FFF726FE054685B135
:104FC000012D10D0681C10D029463846FFF74BFF42
:104FD00068B10120CAE70120C8E7C4F8188004209E
:104FE000C4E70720C2E70220C0E70120BEE76561F1
:104FF00029463846FFF7FCFDA0612661C6F308008C
:1050000038443030E0610020B0E770B504460D460A
:105010000420266821E0304600F0B0FF00BBE269C2
:105020001178B1B1D27A02F03F02A271E5290AD01B
:105030002E2908D00F2A06D022F0200108290AD0F4
:105040000021A9420CD000212046FFF77BFF20B1B0
:1050500006E0042004E00121F3E7A1690029DAD188
:10506000002801D00021A16170BD70B504462668FA
:1050700001212046FFF7D2FE054695B93046A169C9
:1050800000F07CFF054665B920220021E06900F0B0
:105090004CFE0B2204F12001E06900F03DFE0120EE
:1050A000F070284670BD2DE9F04106460D46376880
:1050B000B5F5001F01D2E80602D00220BDE8F0815C
:1050C0003561B4681CB93878032800D37C6A1CB1F8
:1050D00078894FEA40281AE03889B0EB551F01D88B
:1050E0000220EBE7786AB06118E02146304600F014
:1050F00071FC0446601C06D0022C02D37869A042E1
:1051000003D80220DAE70120D8E7A5EB08054545DA
:10511000EBD221463846FFF76BFDB0617461B06990
:1051200048B100EB5520B061C5F308003844303079
:10513000F0610020C2E70220C0E7012801D0012071
:105140007047FDF7A1BC012801D004207047FDF78E
:10515000FFBC012801D004207047FDF70DBF0128D6
:1051600001D001207047FDF763BC012801D0042065
:105170007047FEF79BB838B50446204600F04CFB5C
:10518000002807D16946204601F054F8002801D1D3
:105190000021216038BD2DE9F74386B088461446CA
:1051A000002205A906A800F0C7FD0746380053D124
:1051B00005982060D0E90419A9F10202914202D8B1
:1051C000C8F8001048E000240178012903D0066ADD
:1051D0000025BDB11EE002250190294601A800F07E
:1051E000F9FB411C03D0012803D020B104E00127C2
:1051F0002AE0022728E0641C05986D1C406985425E
:10520000EBD321E03146761C059800F0B7FE074647
:10521000380019D105980178022906D02844303089
:1052200000F0A5FC000108D008E02844303000F070
:10523000A9FC00B9641CAD1C01E0641C2D1DC5F364
:105240000805B9F10109C4D1C8F800400598046106
:10525000017941F00101017109B03846BDE8F083E0
:105260002DE9F84F04460D466946204600F0E2FF5E
:105270000746380000D1677C17B13846BDE8F88F83
:10528000E068A84203D2217C890700D40546606902
:105290004FF00008C4F814804FF001090DB30099D5
:1052A00049894E024FF0020A68B1691E401EB1FBE7
:1052B000F6F1B0FBF6F2914205D3711E88436061AE
:1052C0002D1AA1690CE0A16849B900212046FFF719
:1052D0009BFC0146012905D0481C07D0A160A161B3
:1052E00059BB37E084F811A00220C7E784F8119079
:1052F0000120C3E7AD1B606930446061207C8007FA
:1053000006D52046FFF780FC014629B9002516E0A6
:10531000204600F05FFB0146481C09D0012903D953
:1053200000984069884207D884F811A00220A5E7B8
:1053300084F811900120A1E7A161B542DAD8606933
:1053400028446061E80505D00098FFF751FCF8B1EA
:1053500000EB5528E1686069884204D9E060217C4F
:1053600041F040012174C00528D0E269424525D0B2
:10537000207C04F12805000612D500980123294657
:105380004078FFF7F2FE38B184F81190012075E7FC
:1053900084F811A0022071E7207C00F07F002074C7
:1053A00000980123424640782946FFF7D2FE18B103
:1053B00084F81190012061E7C4F81C8038465DE74D
:1053C00017B581B0144602980090684600F09CFB27
:1053D000002802DA0B2004B010BD0A4B53F820104D
:1053E000002201B10A70019901B10A7043F820103E
:1053F0002CB1002201A902A800F09EFCEBE70020DE
:10540000E9E70000101200202DE9F7438CB00546B3
:10541000002D0BD002F03F06324669460DA800F081
:105420008BFC04464FF0000824B1C0E009200FB007
:10543000BDE8F0830098019001A80D9900F065FA8D
:105440000446200004D19DF82F00000600D5062454
:1054500016F01C0F4AD044B1042C03D101A8FFF769
:1054600004FE044646F0080609E09DF80A0010F024
:10547000110F01D0072402E0700700D50824A4BB57
:1054800030073FD54D4F089839460E3000F05DFE8D
:1054900008983946163000F058FE0899009800F038
:1054A00053FB074608992020C872002208990098EB
:1054B00000F037FE089800211C3000F046FE0098EE
:1054C0000121C1708FB1D0F82C900022394601A87B
:1054D00000F0EBFD0446200014D14946009800F08E
:1054E0004DFD044600987F1EC7600BE054B99DF83F
:1054F0000A00C10601D5042404E0B10702D5C007A3
:1055000000D0072444B9300701D546F04006009882
:10551000C06A286208986862ECBB0899009800F09D
:1055200013FBA86008981C3000F021FBE86000988D
:105530002860C088A8802E7485F81180C5F81C806A
:10554000C5F8148005F128004FF40072002181464F
:1055500000F0EBFBB0062AD5EE68E6B16E6100986C
:1055600040894702A9680AE0284600F033FA01465C
:10557000012900D80224481C00D10124F61B0CB9D3
:10558000BE42F1D8A96134B9F00510D00098FFF7F8
:105590002FFB88B100E00AE000EB5622EA61009898
:1055A000012349464078FFF7D4FD00B101240CB136
:1055B000C5F8008020463AE70224F8E70000214CB5
:1055C00033B581B00546002D07D00022694602A8F8
:1055D00000F0B2FB044614B123E009203EBD009860
:1055E00028602846029900F090F90446B4B995F86D
:1055F0002B00000609D4A879C00605D5E9690098F2
:1056000000F0A2FAA86000E005243CB90098C08828
:10561000A88000212846FFF746FD0446042C00D14F
:1056200005240CB10020286020463EBD2DE9FC5F1A
:1056300004460F46164698460020C8F80000694602
:10564000204600F0F7FD002812D1607C00280FD121
:10565000207CC0070BD06169E068401A864200D9FF
:10566000064604F128004FF0010901908BE0072065
:10567000BDE8FC9F6069C1056DD100994989491E4B
:1056800001EA502ABAF1000F0ED140B12046A169BB
:1056900000F0A0F9022804D202206074E8E7A068B4
:1056A000F8E7411C1CD0A061A1690098FFF7A0FA9F
:1056B000D0B100EB0A0B750A55B300980AEB05024E
:1056C00041898A4201D9A1EB0A0540782B465A4606
:1056D0003946FFF73EFD50B184F811900120C7E72D
:1056E00084F811900120C3E702206074C0E7207C99
:1056F00000060BD5E069A0EB0B00A84206D207EB31
:1057000040204FF40072019900F006FB6D0230E07A
:10571000E2695A451DD0207C00060ED50098012371
:1057200001994078FFF721FD18B184F8119001200C
:105730009EE7207C00F07F002074009801235A46E9
:1057400040780199FFF705FD18B184F81190012008
:105750008EE7C4F81CB0A08AC0F30800C0F500753D
:10576000B54200D93546011928312A46384600F09D
:10577000D3FA761BD8F800002844C8F800002F445C
:10578000606928446061002E7FF474AF00206FE7E9
:1057900038B505460C466946284600F04BFD002802
:1057A0000BD134B100212846FFF72FFC042805D087
:1057B00005E000212846FFF776FC38BD00200028D0
:1057C000FBD12146284600F067F900212846FFF763
:1057D000B9FB0428F1D1002038BD33B58BB00D469C
:1057E000002269460BA800F0A7FA044684B968466F
:1057F0000B9900F08AF8044654B99DF82B00000676
:1058000001D5062404E01DB12946684600F044F99C
:105810000DB0204630BD0000F8B50446694620466C
:1058200000F008FD00280ED1217C4A060BD50806A1
:105830000ED50098E2690123407804F12801FFF7B2
:1058400094FC08B10120F8BD207C00F07F0020749A
:10585000144E216A009800F091FB0028F3D1656A8C
:10586000E87A40F02000E8722946A268206800F03B
:1058700058FC05F11C00E16800F067FC314605F1B9
:10588000160000F062FC002105F1120000F065FC3A
:1058900000980121C17000F065FC217C01F0BF017E
:1058A0002174F8BD0000214C2DE9FF4106460D464C
:1058B00000213046FFF73CF9022803D0032821D20B
:1058C000002D1FD000246F4606EB041000F5FB707E
:1058D00000F04DF947F82400641C042CF4D30DB1FA
:1058E0006C1E00E0002457F8241019B13046FFF771
:1058F0001FF900E00320002D04D1022802D3641C0C
:10590000042CF0D304B0BDE8F08173B504462568DB
:1059100001E0401C0190019801782F29F9D05C2901
:10592000F7D00020A06001980078202807D28020BE
:1059300084F82B0000212046FFF7B5FB7CBD01A9B0
:105940002046FFF7D9F90028F8D12046FFF7BAFA28
:1059500094F82B1028B10428F0D14907EED4052083
:105960007CBD4907FCD4A079C00601D405207CBDCC
:10597000208AC0F3080041193031284600F0E4F8CD
:10598000A060DCE710B5002821D0114B0022001FD9
:10599000196803E0814203D80A4649680029F9D111
:1059A00052B11368841A9C4204D1006818441060F4
:1059B000104602E0506000E0186039B102680B1A2E
:1059C000934203D10B681A4402604968416010BDDC
:1059D000840000202DE9F0470D460468022D02D313
:1059E0006069A84201D8012609E04FF0FF3620780F
:1059F000012807D002282CD003283AD001263046AF
:105A0000BDE8F08705EB5507206A00EB57212046DB
:105A100000F0B4FA0028F2D1C7F30800204407F1DF
:105A2000010890F83090206A00EB5821204600F0E1
:105A3000A5FA0028E3D1C8F30800204490F830000C
:105A400049EA0020E90701D00609D8E7C0F30B06B0
:105A5000D5E7206A00EB1521204600F08FFA0028D8
:105A6000CDD1E8B204EB4000303000F08BF80646B0
:105A7000C5E7206A00EBD511204600F07FFA002828
:105A8000BDD140F2FF1000EA85002044303000F024
:105A90006EF820F07046B2E72DE9F04105460C465D
:105AA00000206072A96900292CD0002213462E26FE
:105AB00012E0EF6919465B1C795C20290CD005299E
:105AC00000D1E521092B03D117462744521C7E72D1
:105AD00017462744521C79720B2BEAD3A11848723F
