:020000040800F2
:100000002008002049010008C9040008FB0300087B
:10001000C504000833020008A70A00080000000019
:10002000000000000000000000000000770700084A
:10003000370200080000000075050008610800088C
:100040006301000863010008630100086301000800
:1000500063010008630100086301000863010008F0
:1000600063010008630100086301000863010008E0
:1000700063010008630100086301000863010008D0
:1000800063010008630100086301000863010008C0
:1000900063010008630100086301000863010008B0
:1000A00063010008630100086301000863010008A0
:1000B0006301000863010008630100086301000890
:1000C0006301000863010008630100086301000880
:1000D000630100086301000863010008C508000807
:1000E0006301000863010008630100086301000860
:1000F0006301000863010008630100086301000850
:10010000630100086301000863010008630100083F
:10011000630100086301000863010008630100082F
:10012000630100086301000863010008630100081F
:10013000DFF810D000F04CF800480047F90F000835
:10014000AFF300802008002006488047064800479B
:10015000FEE7FEE7FEE7FEE7FEE7FEE7FEE7FEE777
:10016000FEE7FEE765080008310100082DE9F05FB1
:100170000546002092469B46884606468146402416
:100180001BE0284641464746224600F042F85346C7
:100190005A46C01A914110D311461846224600F023
:1001A00029F82D1A67EB01084F462246012000214D
:1001B00000F020F817EB00094E41201EA4F10104C5
:1001C000DFDC484631462A464346BDE8F09F000042
:1001D000064C074D06E0E06840F0010394E8070094
:1001E00098471034AC42F6D3FFF7A6FF0813000877
:1001F00028130008202A04DB203A00FA02F100202C
:1002000070479140C2F1200320FA03F31943904054
:100210007047202A04DB203A21FA02F000217047BF
:1002200021FA02F3D040C2F120029140084319465E
:10023000704700BFFEE7704700B585B0012104207C
:1002400000F0AAF90121880300F0A6F94FF400702C
:10025000ADF8100018208DF8130003208DF812005F
:1002600004A9134800F031F84FF48060ADF8100095
:1002700004208DF8130004A90D4800F026F84FF46F
:10028000E13000900020ADF80400ADF80600ADF8B4
:100290000800ADF80C000C20ADF80A0069460548CE
:1002A00000F08CFB0121034800F01FFB05B000BDEE
:1002B000000801400038014001B502E00098401EEE
:1002C000009000980028F9D108BD2DE9F0410246C0
:1002D00000250026002000230024002791F803C0F9
:1002E0000CF00F0591F803C00CF0100CBCF1000FDE
:1002F00003D091F802C04CEA050591F800C0BCF1AA
:10030000000F31D0146800202BE04FF0010C0CFAE4
:1003100000F3B1F800C00CEA03069E4220D183002E
:100320004FF00F0C0CFA03F7BC4305FA03FC4CEA40
:10033000040491F803C0BCF1280F06D14FF0010C62
:100340000CFA00FCC2F814C00AE091F803C0BCF13A
:10035000480F05D14FF0010C0CFA00FCC2F810C098
:10036000401C0828D1D31460B1F800C0BCF1FF0FC5
:1003700034DD546800202EE000F1080C4FF0010835
:1003800008FA0CF3B1F800C00CEA03069E4221D132
:1003900083004FF00F0C0CFA03F7BC4305FA03FC83
:1003A0004CEA040491F803C0BCF1280F05D100F118
:1003B000080C08FA0CF8C2F8148091F803C0BCF1DC
:1003C000480F07D100F1080C4FF0010808FA0CF8AB
:1003D000C2F81080401C0828CED35460BDE8F081DC
:1003E0000246002093680B400BB1012000E0002082
:1003F0007047416170470161704700BFFEE7000030
:1004000008B50121082000F0C7F80220ADF800006F
:1004100004208DF8030069460748FFF756FF4FF4A4
:100420000040ADF8000004208DF803006946024842
:10043000FFF74BFF08BD0000000C014070B50446FB
:100440000D4629462046FFF7CBFF40B900BF29469D
:100450002046FFF7C5FF0028F9D0002070BD01201D
:10046000FCE7000008B50121082000F095F82020E5
:10047000ADF8000010208DF8030003208DF8020075
:1004800069460F48FFF721FF0120ADF800006946DB
:100490000B48FFF71AFF0220ADF800006946084834
:1004A000FFF713FF20210648FFF7A5FF01210448AD
:1004B000FFF7A1FF02210248FFF79DFF08BD0000E2
:1004C000000C014000BFFEE7704708B54FF4E06044
:1004D00000F046F827208DF8000001208DF801007B
:1004E0008DF802008DF80300684600F001F808BDA1
:1004F00070B5002100230F22C47804B3154C246882
:1005000004F4E064C4F5E064210AC1F10403CA40C4
:10051000447804FA03F184781440214309010E4C15
:100520000678A155047804F01F050124AC40057835
:100530006D11AD0005F1E025C5F8004109E0047832
:1005400004F01F050124AC40044D0678761145F8EF
:10055000264070BD0CED00E000E400E080E100E02A
:1005600002490143024A1160704700000000FA0589
:100570000CED00E07047000029B1064AD269024341
:10058000044BDA6104E0034AD2698243014BDA6129
:10059000704700000010024029B1064A92690243E8
:1005A000044B9A6104E0034A92698243014B9A61C9
:1005B000704700000010024030B5002100220024E6
:1005C00000232D4D6D6805F00C0121B1042905D0E3
:1005D000082923D105E0294D056022E0274D05605B
:1005E0001FE0254D6D6805F47012234D6D6805F40C
:1005F0008034022505EB92421CB9214D554305601C
:100600000BE01D4D6D6805F400351DB11C4D5543C3
:10061000056002E0194D5543056002E0174D056085
:1006200000BF00BF144D6D6805F0F0010909154DBC
:100630006B5C0568DD4045600F4D6D6805F4E06159
:10064000090A104D6B5C4568DD4085600A4D6D6898
:1006500005F46051C90A0B4D6B5C4568DD40C5600F
:10066000054D6D6805F44041890B074D6B5CC5680D
:10067000B5FBF3F5056130BD0010024000127A00B1
:1006800000093D00000000201000002000B585B0EA
:1006900001211820FFF780FF01214804FFF76CFFBC
:1006A0004FF40060ADF8100018208DF813000320FF
:1006B0008DF8120004A92048FFF707FE4FF4806070
:1006C000ADF8100004208DF8130004A91A48FFF7B4
:1006D000FCFD3020ADF8100010208DF81300032031
:1006E0008DF8120004A91548FFF7EFFD4FF4E13033
:1006F00000900020ADF80400ADF80600ADF8080049
:10070000ADF80C000C20ADF80A0069460C4800F06A
:1007100055F901210A4800F0E8F8FFF7D6FE01225A
:1007200040F22551064800F023F920210348FFF745
:1007300060FE05B000BD0000000C0140001001404B
:100740000048004010B504462146054800F0A7F9CE
:1007500000BF8021024800F0D4F80028F9D010BD75
:100760000048004001B502E00098401E009000984B
:100770000028F9D108BD704710B500F001F810BD90
:100780000CB50020019000903348006840F48030A0
:100790003149086000BF3048006800F40030009024
:1007A0000198401C0190009818B90198B0F5A06F0D
:1007B000F1D12948006800F4003010B10120009008
:1007C00001E0002000900098012843D123480068F0
:1007D00040F01000214908600846006820F003003E
:1007E00008600846006840F0020008601A48406847
:1007F000194948600846406848600846406840F427
:10080000806048600846406820F47C1048600846D4
:10081000406840F4E81048600846006840F0807086
:10082000086000BF0C48006800F000700028F9D094
:100830000948406820F003000749486008464068BE
:1008400040F00200486000BF0348406800F00C0020
:100850000828F9D10CBD0000001002400020024021
:100860007047000010B51348006840F001001149BE
:10087000086008464068104908400E49486008462C
:1008800000680E4908400B4908600846006820F4DB
:10089000802008600846406820F4FE0048604FF45D
:1008A0001F008860FFF768FF4FF000600449086090
:1008B00010BD0000001002400000FFF8FFFFF6FE30
:1008C00008ED00E010B500F03DFB10BD10B50022B2
:1008D000002340F66A14A14200D100BF0A1201248D
:1008E0009440A3B2DC43048010BD21B1828942F45C
:1008F0000052828104E082894DF6FF731A408281A2
:10090000704702460020B1F5007F00D100BF138878
:100910000B400BB1012000E00020704770B502468B
:10092000002400230025002040F66A16B14200D1C1
:1009300000BFC1F3421501F01F03012606FA03F3BD
:10094000012D02D19689334006E0022D02D1168A8C
:10095000334001E0968A33400C12012606FA04F473
:100960001688344013B10CB1012000E0002070BDA6
:10097000F0B50346002400260025002040F66A1743
:10098000B94200D100BF1846C1F3421401F01F065E
:10099000012707FA06F5012C01D10C3004E0022CE6
:1009A00001D1103000E014301AB107682F430760FE
:1009B00002E00768AF430760F0BD00002DE9F04793
:1009C00086B005460E460024A24600BFA146002779
:1009D000B08900B100BF2F462C8A4CF6FF7004404E
:1009E000F08804432C82AC894EF6F3100440B088A2
:1009F00031890843718908430443AC81AC8A4FF6BE
:100A0000FF400440B0890443AC8201A8FFF7D4FD45
:100A10001F48874202D1DDF810A001E0DDF80CA0EC
:100A2000A88900F4004040B10AEBCA0000EB0A10AC
:100A300031684900B0FBF1F807E00AEBCA0000EBAF
:100A40000A1031688900B0FBF1F86420B8FBF0F0BF
:100A500004012009642101FB1089A88900F40040E9
:100A600040B1322000EBC900B0FBF1F000F007000C
:100A7000044308E0322000EB09106421B0FBF1F0E0
:100A800000F00F0004432C8106B0BDE8F0870000A1
:100A90000038014001468888C0F308007047C1F360
:100AA00008028280704700BFFEE700000FB4054BCC
:100AB00010B503A9044A029800F018F810BC5DF8BC
:100AC00014FB0000C10F00081800002002E008C855
:100AD000121F08C1002AFAD170477047002001E0B8
:100AE00001C1121F002AFBD1704700002DE9FF4F02
:100AF0008DB00F460546002606E025280BD0DDE91F
:100B00000F1290476D1C761C28780028F5D111B083
:100B10003046BDE8F08F0024A246A1460122E949F3
:100B200000E0044315F8013F203B02FA03F00842BD
:100B3000F7D128782A2810D06FF02F022878A0F15A
:100B40003001092914D80AEB8A0102EB410144F073
:100B5000020400EB010A6D1CF0E701CF5FEA000A16
:100B600003D544F40054CAF1000A44F002046D1C99
:100B700028782E2817D115F8010F44F004042A28EC
:100B80000ED06FF02F022878A0F1300109290AD881
:100B900009EB890102EB410100EB01096D1CF2E751
:100BA00057F8049B6D1C28786C280FD006DC4C2865
:100BB00017D068280DD06A2814D104E0742810D00A
:100BC0007A280FD10DE044F400140AE044F48014B4
:100BD00001E044F440146978814202D104F58014A4
:100BE0006D1C6D1C28786E281ED00CDC632830D05C
:100BF00004DC00288BD0582811D19FE0642867D0EE
:100C000069280CD164E073282DD004DC6F2872D0E1
:100C1000702804D194E075286ED078286DD0DDE975
:100C20000F129047761C4BE1C4F30250022806D005
:100C3000032809D0042801CF09D0066040E101CF84
:100C4000F117C0E900613BE101CF068038E1067091
:100C500036E117F8040B8DF8000000208DF8010034
:100C6000EB46012003E057F804BB4FF0FF3061076B
:100C70004FF0000102D40DE008F10101884649451A
:100C80000FDA8045F8DB1BF808100029F4D108E0E2
:100C900008F1010188468142FADB1BF8081000299F
:100CA000F6D1DDE90F23AAEB08008146214600F0CA
:100CB00031F9304400EB080604E0DDE90F121BF8BF
:100CC000010B9047B8F10108F7D221464846F2E0FF
:100CD0000A21C4F302524FF0000B0891022A04D0FB
:100CE00001CFC117032A09D00AE0FF1D27F007072B
:100CF000F7E8020108E02CE01EE01FE000B2C11797
:100D0000042A01D140B2C117021E71F1000206DAB5
:100D10000023D0EB030063EB01012D2202E022054A
:100D200004D52B228DF82420012203E0E20701D014
:100D30002022F7E7904653E00A210BE0102109E05A
:100D400010214FF0000B44F004044FF00809089103
:100D500003E008214FF0000B0891C4F30252022A6D
:100D600004D001CF0021032A06D006E0FF1D27F0A2
:100D70000707F7E8020103E080B2042A00D1C0B2FD
:100D80004FF0000822072BD52A78702A07D0DDF80B
:100D900020C08CF0100C5CEA0B0C05D00EE0402259
:100DA0008DF82420012208E050EA010306D0302308
:100DB0008DF824308DF8252002229046089B83F080
:100DC000080353EA0B030BD150EA010201D1620779
:100DD00006D530228DF824204FF00108A9F1010931
:100DE0002A78582A04D038A20B9208AA0A920BE05B
:100DF0003AA2F9E75B46089AFFF7B8F90B9B9B5CB0
:100E00000A9A521E0A92137050EA0102F2D10A980D
:100E1000ADEB000000F1200B600702D524F4803414
:100E200001E04FF00109D94502DDA9EB0B0000E01C
:100E3000002000EB0B0141440890AAEB010AE003FB
:100E400006D4DDE90F232146504600F063F806443E
:100E50004FF0000908E009A911F80900DDE90F12B7
:100E6000904709F10109761CC145F4DBE0030CD57C
:100E7000DDE90F232146504600F04CF8064404E01B
:100E8000DDE90F1230209047761C0899481E089023
:100E90000029F5DC08E00A980A990078491C0A91B3
:100EA000DDE90F129047761CBBF10001ABF1010B9D
:100EB000F1DC21465046DDE90F2300F019F8064425
:100EC0006D1C21E6092801003031323334353637C4
:100ED0003839616263646566000000003031323386
:100EE0003435363738394142434445460000000026
:100EF0002DE9F041044600251E461746880404D417
:100F000005E039462020B0476D1C641EF9D52846FF
:100F1000BDE8F0812DE9F041044600251E469046CB
:100F2000C80301D5302700E02027880404D505E058
:100F300041463846B0476D1C641EF9D52846BDE8C9
:100F4000F081000010B511480088B0F5806F17DA05
:100F500040F225510E48FFF7E1FCB0B10C48FFF715
:100F600099FD0C49094A1288885408480088401C99
:100F70000649088040F225510548FFF7A7FC04E028
:100F800040F225510248FFF7A1FC10BD14000020DB
:100F9000004800401C00002040F201400021064AA9
:100FA000118005E00022411E89B20846034B5A54C5
:100FB0000028F7D170470000140000201C0000201A
:100FC00070B504460D46E1B20548FFF768FD00BF65
:100FD00080210348FFF795FC0028F9D0204670BD1A
:100FE00000380140014602480088088001487047E7
:100FF000140000201C00002008B5FFF733FAFFF7AB
:101000001BF9FFF743FB20204D49086001200860D1
:101010000220091D0860FFF7F3F94AA0FFF746FD1B
:101020004CA0FFF743FD5548FFF740FD5448FFF73C
:101030003DFD5448FFF73AFD5348FFF737FD7EE08A
:1010400002213F481038FFF7F9F9002839D1202054
:101050003B490860012008600220091D08604FF428
:101060007A70FFF77FFB10214848FFF7C4F94FF46F
:101070007A70FFF777FB002404E0E0B2FFF762FB31
:10108000601C84B2FF2CF8DD40F6FF70FFF714F906
:101090004FF47A70FFF766FB20213C48FFF7A9F96F
:1010A0004FF47A70FFF75EFB20202549086001208D
:1010B000091D08600220091F086035A0FFF7F6FC33
:1010C0003DE020201E490860012008600220091D23
:1010D00008606846FFF786FF0546BDF80000FF2858
:1010E0002DDD2020164908600120091D086002201E
:1010F000091F0860BDF800102AA0FFF7D7FC00BF49
:101100002E462FA0FFF7D2FC00240EE0315D33A065
:10111000FFF7CCFC601C0A2190FBF1F201FB1200EE
:1011200010B930A0FFF7C2FC641CBDF80000844277
:10113000ECDB2CA0FFF7BAFC00BFFFF72DFF7FE729
:10114000100C01400D0A20CAB5D1E9B2BDD6E8A302
:10115000BA0D0A000D0A20312ECAB9D3C3B5BCCFCF
:10116000DFC1ACBDD3BAC3C1BDB8F6343835CDA8E4
:10117000D1B6C9E8B1B80D0A00000000E8110008B6
:10118000C4120008781200082C1200080010014058
:101190000D0AB7A2CBCDCAFDBEDDB3C9B9A6A3A1C6
:1011A0000D0A00000D0ABDD3CAD5B5BDB3A4B6C89B
:1011B000CEAA2564B5C4CAFDBEDD0D0A000000003C
:1011C0003C3C2D52533438352D44454255472D4132
:1011D000525241592D3E3E0A00000000253032781F
:1011E000202020000A0000000D0A20322ECAB9D3A8
:1011F000C3CCF8CFDFC3B1C1ACBDD3BAC33A3576E7
:10120000202D2D2D20432F342D35562C3438352DBF
:1012100044202D2D2D205041322C3438352D522094
:101220002D2D2D504133200D0A0000000D0A2035D0
:101230002EC8F4BFAAB7A2B0E5B5C4343835BDD3C3
:10124000CAD5B5BD323536B8F6D7D6BDDACAFDBE79
:10125000DDA3ACBBE1B0D1CAFDBEDDD2D43136BD19
:10126000F8D6C6D0CECABDB4F2D3A1B3F6C0B4A1ED
:10127000A3200D0A000000000D0A20342ED7BCB1B7
:10128000B8BAC3BAF3A3ACB0B4CFC2C6E4D6D0D216
:10129000BBB8F6BFAAB7A2B0E5B5C44B455931BC3F
:1012A000FCA3ACBBE1CAB9D3C3343835CFF2CDE22D
:1012B000B7A2CBCD302D323535B5C4CAFDD7D62037
:1012C0000D0A00000D0A20332EC8F4CAB9D3C3C1D9
:1012D000BDB8F6D2B0BBF0BFAAB7A2B0E5BDF8D09A
:1012E000D0CAB5D1E9A3ACB8F8C1BDB8F6BFAAB7AA
:1012F000A2B0E5B6BCCFC2D4D8B1BEB3CCD0F2BC9C
:10130000B4BFC9A1A30D0A002813000800000020E3
:101310001C000000CC0A0008441300081C00002038
:1013200004080000DC0A00080000000001020304B9
:101330000102030406070809020406080000000071
:0413400000000000A9
:0400000508000131BD
:00000001FF
